
Laba3_Display.elf:     file format elf32-littlearm

Sections:
Idx Name          Size      VMA       LMA       File off  Algn
  0 .isr_vector   00000188  08000000  08000000  00010000  2**0
                  CONTENTS, ALLOC, LOAD, READONLY, DATA
  1 .text         00005bd4  08000190  08000190  00010190  2**4
                  CONTENTS, ALLOC, LOAD, READONLY, CODE
  2 .rodata       0000042c  08005d68  08005d68  00015d68  2**3
                  CONTENTS, ALLOC, LOAD, READONLY, DATA
  3 .ARM.extab    00000000  08006194  08006194  000201dc  2**0
                  CONTENTS
  4 .ARM          00000008  08006194  08006194  00016194  2**2
                  CONTENTS, ALLOC, LOAD, READONLY, DATA
  5 .preinit_array 00000000  0800619c  0800619c  000201dc  2**0
                  CONTENTS, ALLOC, LOAD, DATA
  6 .init_array   00000004  0800619c  0800619c  0001619c  2**2
                  CONTENTS, ALLOC, LOAD, DATA
  7 .fini_array   00000004  080061a0  080061a0  000161a0  2**2
                  CONTENTS, ALLOC, LOAD, DATA
  8 .data         000001dc  20000000  080061a4  00020000  2**2
                  CONTENTS, ALLOC, LOAD, DATA
  9 .ccmram       00000000  10000000  10000000  000201dc  2**0
                  CONTENTS
 10 .bss          000000a4  200001dc  200001dc  000201dc  2**2
                  ALLOC
 11 ._user_heap_stack 00000600  20000280  20000280  000201dc  2**0
                  ALLOC
 12 .ARM.attributes 00000030  00000000  00000000  000201dc  2**0
                  CONTENTS, READONLY
 13 .debug_info   0000c5ab  00000000  00000000  0002020c  2**0
                  CONTENTS, READONLY, DEBUGGING, OCTETS
 14 .debug_abbrev 00001db0  00000000  00000000  0002c7b7  2**0
                  CONTENTS, READONLY, DEBUGGING, OCTETS
 15 .debug_aranges 00000b48  00000000  00000000  0002e568  2**3
                  CONTENTS, READONLY, DEBUGGING, OCTETS
 16 .debug_ranges 00000a60  00000000  00000000  0002f0b0  2**3
                  CONTENTS, READONLY, DEBUGGING, OCTETS
 17 .debug_macro  00021ca2  00000000  00000000  0002fb10  2**0
                  CONTENTS, READONLY, DEBUGGING, OCTETS
 18 .debug_line   0000c099  00000000  00000000  000517b2  2**0
                  CONTENTS, READONLY, DEBUGGING, OCTETS
 19 .debug_str    000ca551  00000000  00000000  0005d84b  2**0
                  CONTENTS, READONLY, DEBUGGING, OCTETS
 20 .comment      00000053  00000000  00000000  00127d9c  2**0
                  CONTENTS, READONLY
 21 .debug_frame  00003f74  00000000  00000000  00127df0  2**2
                  CONTENTS, READONLY, DEBUGGING, OCTETS

Disassembly of section .text:

08000190 <__do_global_dtors_aux>:
 8000190:	b510      	push	{r4, lr}
 8000192:	4c05      	ldr	r4, [pc, #20]	; (80001a8 <__do_global_dtors_aux+0x18>)
 8000194:	7823      	ldrb	r3, [r4, #0]
 8000196:	b933      	cbnz	r3, 80001a6 <__do_global_dtors_aux+0x16>
 8000198:	4b04      	ldr	r3, [pc, #16]	; (80001ac <__do_global_dtors_aux+0x1c>)
 800019a:	b113      	cbz	r3, 80001a2 <__do_global_dtors_aux+0x12>
 800019c:	4804      	ldr	r0, [pc, #16]	; (80001b0 <__do_global_dtors_aux+0x20>)
 800019e:	f3af 8000 	nop.w
 80001a2:	2301      	movs	r3, #1
 80001a4:	7023      	strb	r3, [r4, #0]
 80001a6:	bd10      	pop	{r4, pc}
 80001a8:	200001dc 	.word	0x200001dc
 80001ac:	00000000 	.word	0x00000000
 80001b0:	08005d4c 	.word	0x08005d4c

080001b4 <frame_dummy>:
 80001b4:	b508      	push	{r3, lr}
 80001b6:	4b03      	ldr	r3, [pc, #12]	; (80001c4 <frame_dummy+0x10>)
 80001b8:	b11b      	cbz	r3, 80001c2 <frame_dummy+0xe>
 80001ba:	4903      	ldr	r1, [pc, #12]	; (80001c8 <frame_dummy+0x14>)
 80001bc:	4803      	ldr	r0, [pc, #12]	; (80001cc <frame_dummy+0x18>)
 80001be:	f3af 8000 	nop.w
 80001c2:	bd08      	pop	{r3, pc}
 80001c4:	00000000 	.word	0x00000000
 80001c8:	200001e0 	.word	0x200001e0
 80001cc:	08005d4c 	.word	0x08005d4c

080001d0 <strlen>:
 80001d0:	4603      	mov	r3, r0
 80001d2:	f813 2b01 	ldrb.w	r2, [r3], #1
 80001d6:	2a00      	cmp	r2, #0
 80001d8:	d1fb      	bne.n	80001d2 <strlen+0x2>
 80001da:	1a18      	subs	r0, r3, r0
 80001dc:	3801      	subs	r0, #1
 80001de:	4770      	bx	lr

080001e0 <memchr>:
 80001e0:	f001 01ff 	and.w	r1, r1, #255	; 0xff
 80001e4:	2a10      	cmp	r2, #16
 80001e6:	db2b      	blt.n	8000240 <memchr+0x60>
 80001e8:	f010 0f07 	tst.w	r0, #7
 80001ec:	d008      	beq.n	8000200 <memchr+0x20>
 80001ee:	f810 3b01 	ldrb.w	r3, [r0], #1
 80001f2:	3a01      	subs	r2, #1
 80001f4:	428b      	cmp	r3, r1
 80001f6:	d02d      	beq.n	8000254 <memchr+0x74>
 80001f8:	f010 0f07 	tst.w	r0, #7
 80001fc:	b342      	cbz	r2, 8000250 <memchr+0x70>
 80001fe:	d1f6      	bne.n	80001ee <memchr+0xe>
 8000200:	b4f0      	push	{r4, r5, r6, r7}
 8000202:	ea41 2101 	orr.w	r1, r1, r1, lsl #8
 8000206:	ea41 4101 	orr.w	r1, r1, r1, lsl #16
 800020a:	f022 0407 	bic.w	r4, r2, #7
 800020e:	f07f 0700 	mvns.w	r7, #0
 8000212:	2300      	movs	r3, #0
 8000214:	e8f0 5602 	ldrd	r5, r6, [r0], #8
 8000218:	3c08      	subs	r4, #8
 800021a:	ea85 0501 	eor.w	r5, r5, r1
 800021e:	ea86 0601 	eor.w	r6, r6, r1
 8000222:	fa85 f547 	uadd8	r5, r5, r7
 8000226:	faa3 f587 	sel	r5, r3, r7
 800022a:	fa86 f647 	uadd8	r6, r6, r7
 800022e:	faa5 f687 	sel	r6, r5, r7
 8000232:	b98e      	cbnz	r6, 8000258 <memchr+0x78>
 8000234:	d1ee      	bne.n	8000214 <memchr+0x34>
 8000236:	bcf0      	pop	{r4, r5, r6, r7}
 8000238:	f001 01ff 	and.w	r1, r1, #255	; 0xff
 800023c:	f002 0207 	and.w	r2, r2, #7
 8000240:	b132      	cbz	r2, 8000250 <memchr+0x70>
 8000242:	f810 3b01 	ldrb.w	r3, [r0], #1
 8000246:	3a01      	subs	r2, #1
 8000248:	ea83 0301 	eor.w	r3, r3, r1
 800024c:	b113      	cbz	r3, 8000254 <memchr+0x74>
 800024e:	d1f8      	bne.n	8000242 <memchr+0x62>
 8000250:	2000      	movs	r0, #0
 8000252:	4770      	bx	lr
 8000254:	3801      	subs	r0, #1
 8000256:	4770      	bx	lr
 8000258:	2d00      	cmp	r5, #0
 800025a:	bf06      	itte	eq
 800025c:	4635      	moveq	r5, r6
 800025e:	3803      	subeq	r0, #3
 8000260:	3807      	subne	r0, #7
 8000262:	f015 0f01 	tst.w	r5, #1
 8000266:	d107      	bne.n	8000278 <memchr+0x98>
 8000268:	3001      	adds	r0, #1
 800026a:	f415 7f80 	tst.w	r5, #256	; 0x100
 800026e:	bf02      	ittt	eq
 8000270:	3001      	addeq	r0, #1
 8000272:	f415 3fc0 	tsteq.w	r5, #98304	; 0x18000
 8000276:	3001      	addeq	r0, #1
 8000278:	bcf0      	pop	{r4, r5, r6, r7}
 800027a:	3801      	subs	r0, #1
 800027c:	4770      	bx	lr
 800027e:	bf00      	nop

08000280 <__aeabi_drsub>:
 8000280:	f081 4100 	eor.w	r1, r1, #2147483648	; 0x80000000
 8000284:	e002      	b.n	800028c <__adddf3>
 8000286:	bf00      	nop

08000288 <__aeabi_dsub>:
 8000288:	f083 4300 	eor.w	r3, r3, #2147483648	; 0x80000000

0800028c <__adddf3>:
 800028c:	b530      	push	{r4, r5, lr}
 800028e:	ea4f 0441 	mov.w	r4, r1, lsl #1
 8000292:	ea4f 0543 	mov.w	r5, r3, lsl #1
 8000296:	ea94 0f05 	teq	r4, r5
 800029a:	bf08      	it	eq
 800029c:	ea90 0f02 	teqeq	r0, r2
 80002a0:	bf1f      	itttt	ne
 80002a2:	ea54 0c00 	orrsne.w	ip, r4, r0
 80002a6:	ea55 0c02 	orrsne.w	ip, r5, r2
 80002aa:	ea7f 5c64 	mvnsne.w	ip, r4, asr #21
 80002ae:	ea7f 5c65 	mvnsne.w	ip, r5, asr #21
 80002b2:	f000 80e2 	beq.w	800047a <__adddf3+0x1ee>
 80002b6:	ea4f 5454 	mov.w	r4, r4, lsr #21
 80002ba:	ebd4 5555 	rsbs	r5, r4, r5, lsr #21
 80002be:	bfb8      	it	lt
 80002c0:	426d      	neglt	r5, r5
 80002c2:	dd0c      	ble.n	80002de <__adddf3+0x52>
 80002c4:	442c      	add	r4, r5
 80002c6:	ea80 0202 	eor.w	r2, r0, r2
 80002ca:	ea81 0303 	eor.w	r3, r1, r3
 80002ce:	ea82 0000 	eor.w	r0, r2, r0
 80002d2:	ea83 0101 	eor.w	r1, r3, r1
 80002d6:	ea80 0202 	eor.w	r2, r0, r2
 80002da:	ea81 0303 	eor.w	r3, r1, r3
 80002de:	2d36      	cmp	r5, #54	; 0x36
 80002e0:	bf88      	it	hi
 80002e2:	bd30      	pophi	{r4, r5, pc}
 80002e4:	f011 4f00 	tst.w	r1, #2147483648	; 0x80000000
 80002e8:	ea4f 3101 	mov.w	r1, r1, lsl #12
 80002ec:	f44f 1c80 	mov.w	ip, #1048576	; 0x100000
 80002f0:	ea4c 3111 	orr.w	r1, ip, r1, lsr #12
 80002f4:	d002      	beq.n	80002fc <__adddf3+0x70>
 80002f6:	4240      	negs	r0, r0
 80002f8:	eb61 0141 	sbc.w	r1, r1, r1, lsl #1
 80002fc:	f013 4f00 	tst.w	r3, #2147483648	; 0x80000000
 8000300:	ea4f 3303 	mov.w	r3, r3, lsl #12
 8000304:	ea4c 3313 	orr.w	r3, ip, r3, lsr #12
 8000308:	d002      	beq.n	8000310 <__adddf3+0x84>
 800030a:	4252      	negs	r2, r2
 800030c:	eb63 0343 	sbc.w	r3, r3, r3, lsl #1
 8000310:	ea94 0f05 	teq	r4, r5
 8000314:	f000 80a7 	beq.w	8000466 <__adddf3+0x1da>
 8000318:	f1a4 0401 	sub.w	r4, r4, #1
 800031c:	f1d5 0e20 	rsbs	lr, r5, #32
 8000320:	db0d      	blt.n	800033e <__adddf3+0xb2>
 8000322:	fa02 fc0e 	lsl.w	ip, r2, lr
 8000326:	fa22 f205 	lsr.w	r2, r2, r5
 800032a:	1880      	adds	r0, r0, r2
 800032c:	f141 0100 	adc.w	r1, r1, #0
 8000330:	fa03 f20e 	lsl.w	r2, r3, lr
 8000334:	1880      	adds	r0, r0, r2
 8000336:	fa43 f305 	asr.w	r3, r3, r5
 800033a:	4159      	adcs	r1, r3
 800033c:	e00e      	b.n	800035c <__adddf3+0xd0>
 800033e:	f1a5 0520 	sub.w	r5, r5, #32
 8000342:	f10e 0e20 	add.w	lr, lr, #32
 8000346:	2a01      	cmp	r2, #1
 8000348:	fa03 fc0e 	lsl.w	ip, r3, lr
 800034c:	bf28      	it	cs
 800034e:	f04c 0c02 	orrcs.w	ip, ip, #2
 8000352:	fa43 f305 	asr.w	r3, r3, r5
 8000356:	18c0      	adds	r0, r0, r3
 8000358:	eb51 71e3 	adcs.w	r1, r1, r3, asr #31
 800035c:	f001 4500 	and.w	r5, r1, #2147483648	; 0x80000000
 8000360:	d507      	bpl.n	8000372 <__adddf3+0xe6>
 8000362:	f04f 0e00 	mov.w	lr, #0
 8000366:	f1dc 0c00 	rsbs	ip, ip, #0
 800036a:	eb7e 0000 	sbcs.w	r0, lr, r0
 800036e:	eb6e 0101 	sbc.w	r1, lr, r1
 8000372:	f5b1 1f80 	cmp.w	r1, #1048576	; 0x100000
 8000376:	d31b      	bcc.n	80003b0 <__adddf3+0x124>
 8000378:	f5b1 1f00 	cmp.w	r1, #2097152	; 0x200000
 800037c:	d30c      	bcc.n	8000398 <__adddf3+0x10c>
 800037e:	0849      	lsrs	r1, r1, #1
 8000380:	ea5f 0030 	movs.w	r0, r0, rrx
 8000384:	ea4f 0c3c 	mov.w	ip, ip, rrx
 8000388:	f104 0401 	add.w	r4, r4, #1
 800038c:	ea4f 5244 	mov.w	r2, r4, lsl #21
 8000390:	f512 0f80 	cmn.w	r2, #4194304	; 0x400000
 8000394:	f080 809a 	bcs.w	80004cc <__adddf3+0x240>
 8000398:	f1bc 4f00 	cmp.w	ip, #2147483648	; 0x80000000
 800039c:	bf08      	it	eq
 800039e:	ea5f 0c50 	movseq.w	ip, r0, lsr #1
 80003a2:	f150 0000 	adcs.w	r0, r0, #0
 80003a6:	eb41 5104 	adc.w	r1, r1, r4, lsl #20
 80003aa:	ea41 0105 	orr.w	r1, r1, r5
 80003ae:	bd30      	pop	{r4, r5, pc}
 80003b0:	ea5f 0c4c 	movs.w	ip, ip, lsl #1
 80003b4:	4140      	adcs	r0, r0
 80003b6:	eb41 0101 	adc.w	r1, r1, r1
 80003ba:	3c01      	subs	r4, #1
 80003bc:	bf28      	it	cs
 80003be:	f5b1 1f80 	cmpcs.w	r1, #1048576	; 0x100000
 80003c2:	d2e9      	bcs.n	8000398 <__adddf3+0x10c>
 80003c4:	f091 0f00 	teq	r1, #0
 80003c8:	bf04      	itt	eq
 80003ca:	4601      	moveq	r1, r0
 80003cc:	2000      	moveq	r0, #0
 80003ce:	fab1 f381 	clz	r3, r1
 80003d2:	bf08      	it	eq
 80003d4:	3320      	addeq	r3, #32
 80003d6:	f1a3 030b 	sub.w	r3, r3, #11
 80003da:	f1b3 0220 	subs.w	r2, r3, #32
 80003de:	da0c      	bge.n	80003fa <__adddf3+0x16e>
 80003e0:	320c      	adds	r2, #12
 80003e2:	dd08      	ble.n	80003f6 <__adddf3+0x16a>
 80003e4:	f102 0c14 	add.w	ip, r2, #20
 80003e8:	f1c2 020c 	rsb	r2, r2, #12
 80003ec:	fa01 f00c 	lsl.w	r0, r1, ip
 80003f0:	fa21 f102 	lsr.w	r1, r1, r2
 80003f4:	e00c      	b.n	8000410 <__adddf3+0x184>
 80003f6:	f102 0214 	add.w	r2, r2, #20
 80003fa:	bfd8      	it	le
 80003fc:	f1c2 0c20 	rsble	ip, r2, #32
 8000400:	fa01 f102 	lsl.w	r1, r1, r2
 8000404:	fa20 fc0c 	lsr.w	ip, r0, ip
 8000408:	bfdc      	itt	le
 800040a:	ea41 010c 	orrle.w	r1, r1, ip
 800040e:	4090      	lslle	r0, r2
 8000410:	1ae4      	subs	r4, r4, r3
 8000412:	bfa2      	ittt	ge
 8000414:	eb01 5104 	addge.w	r1, r1, r4, lsl #20
 8000418:	4329      	orrge	r1, r5
 800041a:	bd30      	popge	{r4, r5, pc}
 800041c:	ea6f 0404 	mvn.w	r4, r4
 8000420:	3c1f      	subs	r4, #31
 8000422:	da1c      	bge.n	800045e <__adddf3+0x1d2>
 8000424:	340c      	adds	r4, #12
 8000426:	dc0e      	bgt.n	8000446 <__adddf3+0x1ba>
 8000428:	f104 0414 	add.w	r4, r4, #20
 800042c:	f1c4 0220 	rsb	r2, r4, #32
 8000430:	fa20 f004 	lsr.w	r0, r0, r4
 8000434:	fa01 f302 	lsl.w	r3, r1, r2
 8000438:	ea40 0003 	orr.w	r0, r0, r3
 800043c:	fa21 f304 	lsr.w	r3, r1, r4
 8000440:	ea45 0103 	orr.w	r1, r5, r3
 8000444:	bd30      	pop	{r4, r5, pc}
 8000446:	f1c4 040c 	rsb	r4, r4, #12
 800044a:	f1c4 0220 	rsb	r2, r4, #32
 800044e:	fa20 f002 	lsr.w	r0, r0, r2
 8000452:	fa01 f304 	lsl.w	r3, r1, r4
 8000456:	ea40 0003 	orr.w	r0, r0, r3
 800045a:	4629      	mov	r1, r5
 800045c:	bd30      	pop	{r4, r5, pc}
 800045e:	fa21 f004 	lsr.w	r0, r1, r4
 8000462:	4629      	mov	r1, r5
 8000464:	bd30      	pop	{r4, r5, pc}
 8000466:	f094 0f00 	teq	r4, #0
 800046a:	f483 1380 	eor.w	r3, r3, #1048576	; 0x100000
 800046e:	bf06      	itte	eq
 8000470:	f481 1180 	eoreq.w	r1, r1, #1048576	; 0x100000
 8000474:	3401      	addeq	r4, #1
 8000476:	3d01      	subne	r5, #1
 8000478:	e74e      	b.n	8000318 <__adddf3+0x8c>
 800047a:	ea7f 5c64 	mvns.w	ip, r4, asr #21
 800047e:	bf18      	it	ne
 8000480:	ea7f 5c65 	mvnsne.w	ip, r5, asr #21
 8000484:	d029      	beq.n	80004da <__adddf3+0x24e>
 8000486:	ea94 0f05 	teq	r4, r5
 800048a:	bf08      	it	eq
 800048c:	ea90 0f02 	teqeq	r0, r2
 8000490:	d005      	beq.n	800049e <__adddf3+0x212>
 8000492:	ea54 0c00 	orrs.w	ip, r4, r0
 8000496:	bf04      	itt	eq
 8000498:	4619      	moveq	r1, r3
 800049a:	4610      	moveq	r0, r2
 800049c:	bd30      	pop	{r4, r5, pc}
 800049e:	ea91 0f03 	teq	r1, r3
 80004a2:	bf1e      	ittt	ne
 80004a4:	2100      	movne	r1, #0
 80004a6:	2000      	movne	r0, #0
 80004a8:	bd30      	popne	{r4, r5, pc}
 80004aa:	ea5f 5c54 	movs.w	ip, r4, lsr #21
 80004ae:	d105      	bne.n	80004bc <__adddf3+0x230>
 80004b0:	0040      	lsls	r0, r0, #1
 80004b2:	4149      	adcs	r1, r1
 80004b4:	bf28      	it	cs
 80004b6:	f041 4100 	orrcs.w	r1, r1, #2147483648	; 0x80000000
 80004ba:	bd30      	pop	{r4, r5, pc}
 80004bc:	f514 0480 	adds.w	r4, r4, #4194304	; 0x400000
 80004c0:	bf3c      	itt	cc
 80004c2:	f501 1180 	addcc.w	r1, r1, #1048576	; 0x100000
 80004c6:	bd30      	popcc	{r4, r5, pc}
 80004c8:	f001 4500 	and.w	r5, r1, #2147483648	; 0x80000000
 80004cc:	f045 41fe 	orr.w	r1, r5, #2130706432	; 0x7f000000
 80004d0:	f441 0170 	orr.w	r1, r1, #15728640	; 0xf00000
 80004d4:	f04f 0000 	mov.w	r0, #0
 80004d8:	bd30      	pop	{r4, r5, pc}
 80004da:	ea7f 5c64 	mvns.w	ip, r4, asr #21
 80004de:	bf1a      	itte	ne
 80004e0:	4619      	movne	r1, r3
 80004e2:	4610      	movne	r0, r2
 80004e4:	ea7f 5c65 	mvnseq.w	ip, r5, asr #21
 80004e8:	bf1c      	itt	ne
 80004ea:	460b      	movne	r3, r1
 80004ec:	4602      	movne	r2, r0
 80004ee:	ea50 3401 	orrs.w	r4, r0, r1, lsl #12
 80004f2:	bf06      	itte	eq
 80004f4:	ea52 3503 	orrseq.w	r5, r2, r3, lsl #12
 80004f8:	ea91 0f03 	teqeq	r1, r3
 80004fc:	f441 2100 	orrne.w	r1, r1, #524288	; 0x80000
 8000500:	bd30      	pop	{r4, r5, pc}
 8000502:	bf00      	nop

08000504 <__aeabi_ui2d>:
 8000504:	f090 0f00 	teq	r0, #0
 8000508:	bf04      	itt	eq
 800050a:	2100      	moveq	r1, #0
 800050c:	4770      	bxeq	lr
 800050e:	b530      	push	{r4, r5, lr}
 8000510:	f44f 6480 	mov.w	r4, #1024	; 0x400
 8000514:	f104 0432 	add.w	r4, r4, #50	; 0x32
 8000518:	f04f 0500 	mov.w	r5, #0
 800051c:	f04f 0100 	mov.w	r1, #0
 8000520:	e750      	b.n	80003c4 <__adddf3+0x138>
 8000522:	bf00      	nop

08000524 <__aeabi_i2d>:
 8000524:	f090 0f00 	teq	r0, #0
 8000528:	bf04      	itt	eq
 800052a:	2100      	moveq	r1, #0
 800052c:	4770      	bxeq	lr
 800052e:	b530      	push	{r4, r5, lr}
 8000530:	f44f 6480 	mov.w	r4, #1024	; 0x400
 8000534:	f104 0432 	add.w	r4, r4, #50	; 0x32
 8000538:	f010 4500 	ands.w	r5, r0, #2147483648	; 0x80000000
 800053c:	bf48      	it	mi
 800053e:	4240      	negmi	r0, r0
 8000540:	f04f 0100 	mov.w	r1, #0
 8000544:	e73e      	b.n	80003c4 <__adddf3+0x138>
 8000546:	bf00      	nop

08000548 <__aeabi_f2d>:
 8000548:	0042      	lsls	r2, r0, #1
 800054a:	ea4f 01e2 	mov.w	r1, r2, asr #3
 800054e:	ea4f 0131 	mov.w	r1, r1, rrx
 8000552:	ea4f 7002 	mov.w	r0, r2, lsl #28
 8000556:	bf1f      	itttt	ne
 8000558:	f012 437f 	andsne.w	r3, r2, #4278190080	; 0xff000000
 800055c:	f093 4f7f 	teqne	r3, #4278190080	; 0xff000000
 8000560:	f081 5160 	eorne.w	r1, r1, #939524096	; 0x38000000
 8000564:	4770      	bxne	lr
 8000566:	f032 427f 	bics.w	r2, r2, #4278190080	; 0xff000000
 800056a:	bf08      	it	eq
 800056c:	4770      	bxeq	lr
 800056e:	f093 4f7f 	teq	r3, #4278190080	; 0xff000000
 8000572:	bf04      	itt	eq
 8000574:	f441 2100 	orreq.w	r1, r1, #524288	; 0x80000
 8000578:	4770      	bxeq	lr
 800057a:	b530      	push	{r4, r5, lr}
 800057c:	f44f 7460 	mov.w	r4, #896	; 0x380
 8000580:	f001 4500 	and.w	r5, r1, #2147483648	; 0x80000000
 8000584:	f021 4100 	bic.w	r1, r1, #2147483648	; 0x80000000
 8000588:	e71c      	b.n	80003c4 <__adddf3+0x138>
 800058a:	bf00      	nop

0800058c <__aeabi_ul2d>:
 800058c:	ea50 0201 	orrs.w	r2, r0, r1
 8000590:	bf08      	it	eq
 8000592:	4770      	bxeq	lr
 8000594:	b530      	push	{r4, r5, lr}
 8000596:	f04f 0500 	mov.w	r5, #0
 800059a:	e00a      	b.n	80005b2 <__aeabi_l2d+0x16>

0800059c <__aeabi_l2d>:
 800059c:	ea50 0201 	orrs.w	r2, r0, r1
 80005a0:	bf08      	it	eq
 80005a2:	4770      	bxeq	lr
 80005a4:	b530      	push	{r4, r5, lr}
 80005a6:	f011 4500 	ands.w	r5, r1, #2147483648	; 0x80000000
 80005aa:	d502      	bpl.n	80005b2 <__aeabi_l2d+0x16>
 80005ac:	4240      	negs	r0, r0
 80005ae:	eb61 0141 	sbc.w	r1, r1, r1, lsl #1
 80005b2:	f44f 6480 	mov.w	r4, #1024	; 0x400
 80005b6:	f104 0432 	add.w	r4, r4, #50	; 0x32
 80005ba:	ea5f 5c91 	movs.w	ip, r1, lsr #22
 80005be:	f43f aed8 	beq.w	8000372 <__adddf3+0xe6>
 80005c2:	f04f 0203 	mov.w	r2, #3
 80005c6:	ea5f 0cdc 	movs.w	ip, ip, lsr #3
 80005ca:	bf18      	it	ne
 80005cc:	3203      	addne	r2, #3
 80005ce:	ea5f 0cdc 	movs.w	ip, ip, lsr #3
 80005d2:	bf18      	it	ne
 80005d4:	3203      	addne	r2, #3
 80005d6:	eb02 02dc 	add.w	r2, r2, ip, lsr #3
 80005da:	f1c2 0320 	rsb	r3, r2, #32
 80005de:	fa00 fc03 	lsl.w	ip, r0, r3
 80005e2:	fa20 f002 	lsr.w	r0, r0, r2
 80005e6:	fa01 fe03 	lsl.w	lr, r1, r3
 80005ea:	ea40 000e 	orr.w	r0, r0, lr
 80005ee:	fa21 f102 	lsr.w	r1, r1, r2
 80005f2:	4414      	add	r4, r2
 80005f4:	e6bd      	b.n	8000372 <__adddf3+0xe6>
 80005f6:	bf00      	nop

080005f8 <__aeabi_dmul>:
 80005f8:	b570      	push	{r4, r5, r6, lr}
 80005fa:	f04f 0cff 	mov.w	ip, #255	; 0xff
 80005fe:	f44c 6ce0 	orr.w	ip, ip, #1792	; 0x700
 8000602:	ea1c 5411 	ands.w	r4, ip, r1, lsr #20
 8000606:	bf1d      	ittte	ne
 8000608:	ea1c 5513 	andsne.w	r5, ip, r3, lsr #20
 800060c:	ea94 0f0c 	teqne	r4, ip
 8000610:	ea95 0f0c 	teqne	r5, ip
 8000614:	f000 f8de 	bleq	80007d4 <__aeabi_dmul+0x1dc>
 8000618:	442c      	add	r4, r5
 800061a:	ea81 0603 	eor.w	r6, r1, r3
 800061e:	ea21 514c 	bic.w	r1, r1, ip, lsl #21
 8000622:	ea23 534c 	bic.w	r3, r3, ip, lsl #21
 8000626:	ea50 3501 	orrs.w	r5, r0, r1, lsl #12
 800062a:	bf18      	it	ne
 800062c:	ea52 3503 	orrsne.w	r5, r2, r3, lsl #12
 8000630:	f441 1180 	orr.w	r1, r1, #1048576	; 0x100000
 8000634:	f443 1380 	orr.w	r3, r3, #1048576	; 0x100000
 8000638:	d038      	beq.n	80006ac <__aeabi_dmul+0xb4>
 800063a:	fba0 ce02 	umull	ip, lr, r0, r2
 800063e:	f04f 0500 	mov.w	r5, #0
 8000642:	fbe1 e502 	umlal	lr, r5, r1, r2
 8000646:	f006 4200 	and.w	r2, r6, #2147483648	; 0x80000000
 800064a:	fbe0 e503 	umlal	lr, r5, r0, r3
 800064e:	f04f 0600 	mov.w	r6, #0
 8000652:	fbe1 5603 	umlal	r5, r6, r1, r3
 8000656:	f09c 0f00 	teq	ip, #0
 800065a:	bf18      	it	ne
 800065c:	f04e 0e01 	orrne.w	lr, lr, #1
 8000660:	f1a4 04ff 	sub.w	r4, r4, #255	; 0xff
 8000664:	f5b6 7f00 	cmp.w	r6, #512	; 0x200
 8000668:	f564 7440 	sbc.w	r4, r4, #768	; 0x300
 800066c:	d204      	bcs.n	8000678 <__aeabi_dmul+0x80>
 800066e:	ea5f 0e4e 	movs.w	lr, lr, lsl #1
 8000672:	416d      	adcs	r5, r5
 8000674:	eb46 0606 	adc.w	r6, r6, r6
 8000678:	ea42 21c6 	orr.w	r1, r2, r6, lsl #11
 800067c:	ea41 5155 	orr.w	r1, r1, r5, lsr #21
 8000680:	ea4f 20c5 	mov.w	r0, r5, lsl #11
 8000684:	ea40 505e 	orr.w	r0, r0, lr, lsr #21
 8000688:	ea4f 2ece 	mov.w	lr, lr, lsl #11
 800068c:	f1b4 0cfd 	subs.w	ip, r4, #253	; 0xfd
 8000690:	bf88      	it	hi
 8000692:	f5bc 6fe0 	cmphi.w	ip, #1792	; 0x700
 8000696:	d81e      	bhi.n	80006d6 <__aeabi_dmul+0xde>
 8000698:	f1be 4f00 	cmp.w	lr, #2147483648	; 0x80000000
 800069c:	bf08      	it	eq
 800069e:	ea5f 0e50 	movseq.w	lr, r0, lsr #1
 80006a2:	f150 0000 	adcs.w	r0, r0, #0
 80006a6:	eb41 5104 	adc.w	r1, r1, r4, lsl #20
 80006aa:	bd70      	pop	{r4, r5, r6, pc}
 80006ac:	f006 4600 	and.w	r6, r6, #2147483648	; 0x80000000
 80006b0:	ea46 0101 	orr.w	r1, r6, r1
 80006b4:	ea40 0002 	orr.w	r0, r0, r2
 80006b8:	ea81 0103 	eor.w	r1, r1, r3
 80006bc:	ebb4 045c 	subs.w	r4, r4, ip, lsr #1
 80006c0:	bfc2      	ittt	gt
 80006c2:	ebd4 050c 	rsbsgt	r5, r4, ip
 80006c6:	ea41 5104 	orrgt.w	r1, r1, r4, lsl #20
 80006ca:	bd70      	popgt	{r4, r5, r6, pc}
 80006cc:	f441 1180 	orr.w	r1, r1, #1048576	; 0x100000
 80006d0:	f04f 0e00 	mov.w	lr, #0
 80006d4:	3c01      	subs	r4, #1
 80006d6:	f300 80ab 	bgt.w	8000830 <__aeabi_dmul+0x238>
 80006da:	f114 0f36 	cmn.w	r4, #54	; 0x36
 80006de:	bfde      	ittt	le
 80006e0:	2000      	movle	r0, #0
 80006e2:	f001 4100 	andle.w	r1, r1, #2147483648	; 0x80000000
 80006e6:	bd70      	pople	{r4, r5, r6, pc}
 80006e8:	f1c4 0400 	rsb	r4, r4, #0
 80006ec:	3c20      	subs	r4, #32
 80006ee:	da35      	bge.n	800075c <__aeabi_dmul+0x164>
 80006f0:	340c      	adds	r4, #12
 80006f2:	dc1b      	bgt.n	800072c <__aeabi_dmul+0x134>
 80006f4:	f104 0414 	add.w	r4, r4, #20
 80006f8:	f1c4 0520 	rsb	r5, r4, #32
 80006fc:	fa00 f305 	lsl.w	r3, r0, r5
 8000700:	fa20 f004 	lsr.w	r0, r0, r4
 8000704:	fa01 f205 	lsl.w	r2, r1, r5
 8000708:	ea40 0002 	orr.w	r0, r0, r2
 800070c:	f001 4200 	and.w	r2, r1, #2147483648	; 0x80000000
 8000710:	f021 4100 	bic.w	r1, r1, #2147483648	; 0x80000000
 8000714:	eb10 70d3 	adds.w	r0, r0, r3, lsr #31
 8000718:	fa21 f604 	lsr.w	r6, r1, r4
 800071c:	eb42 0106 	adc.w	r1, r2, r6
 8000720:	ea5e 0e43 	orrs.w	lr, lr, r3, lsl #1
 8000724:	bf08      	it	eq
 8000726:	ea20 70d3 	biceq.w	r0, r0, r3, lsr #31
 800072a:	bd70      	pop	{r4, r5, r6, pc}
 800072c:	f1c4 040c 	rsb	r4, r4, #12
 8000730:	f1c4 0520 	rsb	r5, r4, #32
 8000734:	fa00 f304 	lsl.w	r3, r0, r4
 8000738:	fa20 f005 	lsr.w	r0, r0, r5
 800073c:	fa01 f204 	lsl.w	r2, r1, r4
 8000740:	ea40 0002 	orr.w	r0, r0, r2
 8000744:	f001 4100 	and.w	r1, r1, #2147483648	; 0x80000000
 8000748:	eb10 70d3 	adds.w	r0, r0, r3, lsr #31
 800074c:	f141 0100 	adc.w	r1, r1, #0
 8000750:	ea5e 0e43 	orrs.w	lr, lr, r3, lsl #1
 8000754:	bf08      	it	eq
 8000756:	ea20 70d3 	biceq.w	r0, r0, r3, lsr #31
 800075a:	bd70      	pop	{r4, r5, r6, pc}
 800075c:	f1c4 0520 	rsb	r5, r4, #32
 8000760:	fa00 f205 	lsl.w	r2, r0, r5
 8000764:	ea4e 0e02 	orr.w	lr, lr, r2
 8000768:	fa20 f304 	lsr.w	r3, r0, r4
 800076c:	fa01 f205 	lsl.w	r2, r1, r5
 8000770:	ea43 0302 	orr.w	r3, r3, r2
 8000774:	fa21 f004 	lsr.w	r0, r1, r4
 8000778:	f001 4100 	and.w	r1, r1, #2147483648	; 0x80000000
 800077c:	fa21 f204 	lsr.w	r2, r1, r4
 8000780:	ea20 0002 	bic.w	r0, r0, r2
 8000784:	eb00 70d3 	add.w	r0, r0, r3, lsr #31
 8000788:	ea5e 0e43 	orrs.w	lr, lr, r3, lsl #1
 800078c:	bf08      	it	eq
 800078e:	ea20 70d3 	biceq.w	r0, r0, r3, lsr #31
 8000792:	bd70      	pop	{r4, r5, r6, pc}
 8000794:	f094 0f00 	teq	r4, #0
 8000798:	d10f      	bne.n	80007ba <__aeabi_dmul+0x1c2>
 800079a:	f001 4600 	and.w	r6, r1, #2147483648	; 0x80000000
 800079e:	0040      	lsls	r0, r0, #1
 80007a0:	eb41 0101 	adc.w	r1, r1, r1
 80007a4:	f411 1f80 	tst.w	r1, #1048576	; 0x100000
 80007a8:	bf08      	it	eq
 80007aa:	3c01      	subeq	r4, #1
 80007ac:	d0f7      	beq.n	800079e <__aeabi_dmul+0x1a6>
 80007ae:	ea41 0106 	orr.w	r1, r1, r6
 80007b2:	f095 0f00 	teq	r5, #0
 80007b6:	bf18      	it	ne
 80007b8:	4770      	bxne	lr
 80007ba:	f003 4600 	and.w	r6, r3, #2147483648	; 0x80000000
 80007be:	0052      	lsls	r2, r2, #1
 80007c0:	eb43 0303 	adc.w	r3, r3, r3
 80007c4:	f413 1f80 	tst.w	r3, #1048576	; 0x100000
 80007c8:	bf08      	it	eq
 80007ca:	3d01      	subeq	r5, #1
 80007cc:	d0f7      	beq.n	80007be <__aeabi_dmul+0x1c6>
 80007ce:	ea43 0306 	orr.w	r3, r3, r6
 80007d2:	4770      	bx	lr
 80007d4:	ea94 0f0c 	teq	r4, ip
 80007d8:	ea0c 5513 	and.w	r5, ip, r3, lsr #20
 80007dc:	bf18      	it	ne
 80007de:	ea95 0f0c 	teqne	r5, ip
 80007e2:	d00c      	beq.n	80007fe <__aeabi_dmul+0x206>
 80007e4:	ea50 0641 	orrs.w	r6, r0, r1, lsl #1
 80007e8:	bf18      	it	ne
 80007ea:	ea52 0643 	orrsne.w	r6, r2, r3, lsl #1
 80007ee:	d1d1      	bne.n	8000794 <__aeabi_dmul+0x19c>
 80007f0:	ea81 0103 	eor.w	r1, r1, r3
 80007f4:	f001 4100 	and.w	r1, r1, #2147483648	; 0x80000000
 80007f8:	f04f 0000 	mov.w	r0, #0
 80007fc:	bd70      	pop	{r4, r5, r6, pc}
 80007fe:	ea50 0641 	orrs.w	r6, r0, r1, lsl #1
 8000802:	bf06      	itte	eq
 8000804:	4610      	moveq	r0, r2
 8000806:	4619      	moveq	r1, r3
 8000808:	ea52 0643 	orrsne.w	r6, r2, r3, lsl #1
 800080c:	d019      	beq.n	8000842 <__aeabi_dmul+0x24a>
 800080e:	ea94 0f0c 	teq	r4, ip
 8000812:	d102      	bne.n	800081a <__aeabi_dmul+0x222>
 8000814:	ea50 3601 	orrs.w	r6, r0, r1, lsl #12
 8000818:	d113      	bne.n	8000842 <__aeabi_dmul+0x24a>
 800081a:	ea95 0f0c 	teq	r5, ip
 800081e:	d105      	bne.n	800082c <__aeabi_dmul+0x234>
 8000820:	ea52 3603 	orrs.w	r6, r2, r3, lsl #12
 8000824:	bf1c      	itt	ne
 8000826:	4610      	movne	r0, r2
 8000828:	4619      	movne	r1, r3
 800082a:	d10a      	bne.n	8000842 <__aeabi_dmul+0x24a>
 800082c:	ea81 0103 	eor.w	r1, r1, r3
 8000830:	f001 4100 	and.w	r1, r1, #2147483648	; 0x80000000
 8000834:	f041 41fe 	orr.w	r1, r1, #2130706432	; 0x7f000000
 8000838:	f441 0170 	orr.w	r1, r1, #15728640	; 0xf00000
 800083c:	f04f 0000 	mov.w	r0, #0
 8000840:	bd70      	pop	{r4, r5, r6, pc}
 8000842:	f041 41fe 	orr.w	r1, r1, #2130706432	; 0x7f000000
 8000846:	f441 0178 	orr.w	r1, r1, #16252928	; 0xf80000
 800084a:	bd70      	pop	{r4, r5, r6, pc}

0800084c <__aeabi_ddiv>:
 800084c:	b570      	push	{r4, r5, r6, lr}
 800084e:	f04f 0cff 	mov.w	ip, #255	; 0xff
 8000852:	f44c 6ce0 	orr.w	ip, ip, #1792	; 0x700
 8000856:	ea1c 5411 	ands.w	r4, ip, r1, lsr #20
 800085a:	bf1d      	ittte	ne
 800085c:	ea1c 5513 	andsne.w	r5, ip, r3, lsr #20
 8000860:	ea94 0f0c 	teqne	r4, ip
 8000864:	ea95 0f0c 	teqne	r5, ip
 8000868:	f000 f8a7 	bleq	80009ba <__aeabi_ddiv+0x16e>
 800086c:	eba4 0405 	sub.w	r4, r4, r5
 8000870:	ea81 0e03 	eor.w	lr, r1, r3
 8000874:	ea52 3503 	orrs.w	r5, r2, r3, lsl #12
 8000878:	ea4f 3101 	mov.w	r1, r1, lsl #12
 800087c:	f000 8088 	beq.w	8000990 <__aeabi_ddiv+0x144>
 8000880:	ea4f 3303 	mov.w	r3, r3, lsl #12
 8000884:	f04f 5580 	mov.w	r5, #268435456	; 0x10000000
 8000888:	ea45 1313 	orr.w	r3, r5, r3, lsr #4
 800088c:	ea43 6312 	orr.w	r3, r3, r2, lsr #24
 8000890:	ea4f 2202 	mov.w	r2, r2, lsl #8
 8000894:	ea45 1511 	orr.w	r5, r5, r1, lsr #4
 8000898:	ea45 6510 	orr.w	r5, r5, r0, lsr #24
 800089c:	ea4f 2600 	mov.w	r6, r0, lsl #8
 80008a0:	f00e 4100 	and.w	r1, lr, #2147483648	; 0x80000000
 80008a4:	429d      	cmp	r5, r3
 80008a6:	bf08      	it	eq
 80008a8:	4296      	cmpeq	r6, r2
 80008aa:	f144 04fd 	adc.w	r4, r4, #253	; 0xfd
 80008ae:	f504 7440 	add.w	r4, r4, #768	; 0x300
 80008b2:	d202      	bcs.n	80008ba <__aeabi_ddiv+0x6e>
 80008b4:	085b      	lsrs	r3, r3, #1
 80008b6:	ea4f 0232 	mov.w	r2, r2, rrx
 80008ba:	1ab6      	subs	r6, r6, r2
 80008bc:	eb65 0503 	sbc.w	r5, r5, r3
 80008c0:	085b      	lsrs	r3, r3, #1
 80008c2:	ea4f 0232 	mov.w	r2, r2, rrx
 80008c6:	f44f 1080 	mov.w	r0, #1048576	; 0x100000
 80008ca:	f44f 2c00 	mov.w	ip, #524288	; 0x80000
 80008ce:	ebb6 0e02 	subs.w	lr, r6, r2
 80008d2:	eb75 0e03 	sbcs.w	lr, r5, r3
 80008d6:	bf22      	ittt	cs
 80008d8:	1ab6      	subcs	r6, r6, r2
 80008da:	4675      	movcs	r5, lr
 80008dc:	ea40 000c 	orrcs.w	r0, r0, ip
 80008e0:	085b      	lsrs	r3, r3, #1
 80008e2:	ea4f 0232 	mov.w	r2, r2, rrx
 80008e6:	ebb6 0e02 	subs.w	lr, r6, r2
 80008ea:	eb75 0e03 	sbcs.w	lr, r5, r3
 80008ee:	bf22      	ittt	cs
 80008f0:	1ab6      	subcs	r6, r6, r2
 80008f2:	4675      	movcs	r5, lr
 80008f4:	ea40 005c 	orrcs.w	r0, r0, ip, lsr #1
 80008f8:	085b      	lsrs	r3, r3, #1
 80008fa:	ea4f 0232 	mov.w	r2, r2, rrx
 80008fe:	ebb6 0e02 	subs.w	lr, r6, r2
 8000902:	eb75 0e03 	sbcs.w	lr, r5, r3
 8000906:	bf22      	ittt	cs
 8000908:	1ab6      	subcs	r6, r6, r2
 800090a:	4675      	movcs	r5, lr
 800090c:	ea40 009c 	orrcs.w	r0, r0, ip, lsr #2
 8000910:	085b      	lsrs	r3, r3, #1
 8000912:	ea4f 0232 	mov.w	r2, r2, rrx
 8000916:	ebb6 0e02 	subs.w	lr, r6, r2
 800091a:	eb75 0e03 	sbcs.w	lr, r5, r3
 800091e:	bf22      	ittt	cs
 8000920:	1ab6      	subcs	r6, r6, r2
 8000922:	4675      	movcs	r5, lr
 8000924:	ea40 00dc 	orrcs.w	r0, r0, ip, lsr #3
 8000928:	ea55 0e06 	orrs.w	lr, r5, r6
 800092c:	d018      	beq.n	8000960 <__aeabi_ddiv+0x114>
 800092e:	ea4f 1505 	mov.w	r5, r5, lsl #4
 8000932:	ea45 7516 	orr.w	r5, r5, r6, lsr #28
 8000936:	ea4f 1606 	mov.w	r6, r6, lsl #4
 800093a:	ea4f 03c3 	mov.w	r3, r3, lsl #3
 800093e:	ea43 7352 	orr.w	r3, r3, r2, lsr #29
 8000942:	ea4f 02c2 	mov.w	r2, r2, lsl #3
 8000946:	ea5f 1c1c 	movs.w	ip, ip, lsr #4
 800094a:	d1c0      	bne.n	80008ce <__aeabi_ddiv+0x82>
 800094c:	f411 1f80 	tst.w	r1, #1048576	; 0x100000
 8000950:	d10b      	bne.n	800096a <__aeabi_ddiv+0x11e>
 8000952:	ea41 0100 	orr.w	r1, r1, r0
 8000956:	f04f 0000 	mov.w	r0, #0
 800095a:	f04f 4c00 	mov.w	ip, #2147483648	; 0x80000000
 800095e:	e7b6      	b.n	80008ce <__aeabi_ddiv+0x82>
 8000960:	f411 1f80 	tst.w	r1, #1048576	; 0x100000
 8000964:	bf04      	itt	eq
 8000966:	4301      	orreq	r1, r0
 8000968:	2000      	moveq	r0, #0
 800096a:	f1b4 0cfd 	subs.w	ip, r4, #253	; 0xfd
 800096e:	bf88      	it	hi
 8000970:	f5bc 6fe0 	cmphi.w	ip, #1792	; 0x700
 8000974:	f63f aeaf 	bhi.w	80006d6 <__aeabi_dmul+0xde>
 8000978:	ebb5 0c03 	subs.w	ip, r5, r3
 800097c:	bf04      	itt	eq
 800097e:	ebb6 0c02 	subseq.w	ip, r6, r2
 8000982:	ea5f 0c50 	movseq.w	ip, r0, lsr #1
 8000986:	f150 0000 	adcs.w	r0, r0, #0
 800098a:	eb41 5104 	adc.w	r1, r1, r4, lsl #20
 800098e:	bd70      	pop	{r4, r5, r6, pc}
 8000990:	f00e 4e00 	and.w	lr, lr, #2147483648	; 0x80000000
 8000994:	ea4e 3111 	orr.w	r1, lr, r1, lsr #12
 8000998:	eb14 045c 	adds.w	r4, r4, ip, lsr #1
 800099c:	bfc2      	ittt	gt
 800099e:	ebd4 050c 	rsbsgt	r5, r4, ip
 80009a2:	ea41 5104 	orrgt.w	r1, r1, r4, lsl #20
 80009a6:	bd70      	popgt	{r4, r5, r6, pc}
 80009a8:	f441 1180 	orr.w	r1, r1, #1048576	; 0x100000
 80009ac:	f04f 0e00 	mov.w	lr, #0
 80009b0:	3c01      	subs	r4, #1
 80009b2:	e690      	b.n	80006d6 <__aeabi_dmul+0xde>
 80009b4:	ea45 0e06 	orr.w	lr, r5, r6
 80009b8:	e68d      	b.n	80006d6 <__aeabi_dmul+0xde>
 80009ba:	ea0c 5513 	and.w	r5, ip, r3, lsr #20
 80009be:	ea94 0f0c 	teq	r4, ip
 80009c2:	bf08      	it	eq
 80009c4:	ea95 0f0c 	teqeq	r5, ip
 80009c8:	f43f af3b 	beq.w	8000842 <__aeabi_dmul+0x24a>
 80009cc:	ea94 0f0c 	teq	r4, ip
 80009d0:	d10a      	bne.n	80009e8 <__aeabi_ddiv+0x19c>
 80009d2:	ea50 3401 	orrs.w	r4, r0, r1, lsl #12
 80009d6:	f47f af34 	bne.w	8000842 <__aeabi_dmul+0x24a>
 80009da:	ea95 0f0c 	teq	r5, ip
 80009de:	f47f af25 	bne.w	800082c <__aeabi_dmul+0x234>
 80009e2:	4610      	mov	r0, r2
 80009e4:	4619      	mov	r1, r3
 80009e6:	e72c      	b.n	8000842 <__aeabi_dmul+0x24a>
 80009e8:	ea95 0f0c 	teq	r5, ip
 80009ec:	d106      	bne.n	80009fc <__aeabi_ddiv+0x1b0>
 80009ee:	ea52 3503 	orrs.w	r5, r2, r3, lsl #12
 80009f2:	f43f aefd 	beq.w	80007f0 <__aeabi_dmul+0x1f8>
 80009f6:	4610      	mov	r0, r2
 80009f8:	4619      	mov	r1, r3
 80009fa:	e722      	b.n	8000842 <__aeabi_dmul+0x24a>
 80009fc:	ea50 0641 	orrs.w	r6, r0, r1, lsl #1
 8000a00:	bf18      	it	ne
 8000a02:	ea52 0643 	orrsne.w	r6, r2, r3, lsl #1
 8000a06:	f47f aec5 	bne.w	8000794 <__aeabi_dmul+0x19c>
 8000a0a:	ea50 0441 	orrs.w	r4, r0, r1, lsl #1
 8000a0e:	f47f af0d 	bne.w	800082c <__aeabi_dmul+0x234>
 8000a12:	ea52 0543 	orrs.w	r5, r2, r3, lsl #1
 8000a16:	f47f aeeb 	bne.w	80007f0 <__aeabi_dmul+0x1f8>
 8000a1a:	e712      	b.n	8000842 <__aeabi_dmul+0x24a>

08000a1c <__gedf2>:
 8000a1c:	f04f 3cff 	mov.w	ip, #4294967295
 8000a20:	e006      	b.n	8000a30 <__cmpdf2+0x4>
 8000a22:	bf00      	nop

08000a24 <__ledf2>:
 8000a24:	f04f 0c01 	mov.w	ip, #1
 8000a28:	e002      	b.n	8000a30 <__cmpdf2+0x4>
 8000a2a:	bf00      	nop

08000a2c <__cmpdf2>:
 8000a2c:	f04f 0c01 	mov.w	ip, #1
 8000a30:	f84d cd04 	str.w	ip, [sp, #-4]!
 8000a34:	ea4f 0c41 	mov.w	ip, r1, lsl #1
 8000a38:	ea7f 5c6c 	mvns.w	ip, ip, asr #21
 8000a3c:	ea4f 0c43 	mov.w	ip, r3, lsl #1
 8000a40:	bf18      	it	ne
 8000a42:	ea7f 5c6c 	mvnsne.w	ip, ip, asr #21
 8000a46:	d01b      	beq.n	8000a80 <__cmpdf2+0x54>
 8000a48:	b001      	add	sp, #4
 8000a4a:	ea50 0c41 	orrs.w	ip, r0, r1, lsl #1
 8000a4e:	bf0c      	ite	eq
 8000a50:	ea52 0c43 	orrseq.w	ip, r2, r3, lsl #1
 8000a54:	ea91 0f03 	teqne	r1, r3
 8000a58:	bf02      	ittt	eq
 8000a5a:	ea90 0f02 	teqeq	r0, r2
 8000a5e:	2000      	moveq	r0, #0
 8000a60:	4770      	bxeq	lr
 8000a62:	f110 0f00 	cmn.w	r0, #0
 8000a66:	ea91 0f03 	teq	r1, r3
 8000a6a:	bf58      	it	pl
 8000a6c:	4299      	cmppl	r1, r3
 8000a6e:	bf08      	it	eq
 8000a70:	4290      	cmpeq	r0, r2
 8000a72:	bf2c      	ite	cs
 8000a74:	17d8      	asrcs	r0, r3, #31
 8000a76:	ea6f 70e3 	mvncc.w	r0, r3, asr #31
 8000a7a:	f040 0001 	orr.w	r0, r0, #1
 8000a7e:	4770      	bx	lr
 8000a80:	ea4f 0c41 	mov.w	ip, r1, lsl #1
 8000a84:	ea7f 5c6c 	mvns.w	ip, ip, asr #21
 8000a88:	d102      	bne.n	8000a90 <__cmpdf2+0x64>
 8000a8a:	ea50 3c01 	orrs.w	ip, r0, r1, lsl #12
 8000a8e:	d107      	bne.n	8000aa0 <__cmpdf2+0x74>
 8000a90:	ea4f 0c43 	mov.w	ip, r3, lsl #1
 8000a94:	ea7f 5c6c 	mvns.w	ip, ip, asr #21
 8000a98:	d1d6      	bne.n	8000a48 <__cmpdf2+0x1c>
 8000a9a:	ea52 3c03 	orrs.w	ip, r2, r3, lsl #12
 8000a9e:	d0d3      	beq.n	8000a48 <__cmpdf2+0x1c>
 8000aa0:	f85d 0b04 	ldr.w	r0, [sp], #4
 8000aa4:	4770      	bx	lr
 8000aa6:	bf00      	nop

08000aa8 <__aeabi_cdrcmple>:
 8000aa8:	4684      	mov	ip, r0
 8000aaa:	4610      	mov	r0, r2
 8000aac:	4662      	mov	r2, ip
 8000aae:	468c      	mov	ip, r1
 8000ab0:	4619      	mov	r1, r3
 8000ab2:	4663      	mov	r3, ip
 8000ab4:	e000      	b.n	8000ab8 <__aeabi_cdcmpeq>
 8000ab6:	bf00      	nop

08000ab8 <__aeabi_cdcmpeq>:
 8000ab8:	b501      	push	{r0, lr}
 8000aba:	f7ff ffb7 	bl	8000a2c <__cmpdf2>
 8000abe:	2800      	cmp	r0, #0
 8000ac0:	bf48      	it	mi
 8000ac2:	f110 0f00 	cmnmi.w	r0, #0
 8000ac6:	bd01      	pop	{r0, pc}

08000ac8 <__aeabi_dcmpeq>:
 8000ac8:	f84d ed08 	str.w	lr, [sp, #-8]!
 8000acc:	f7ff fff4 	bl	8000ab8 <__aeabi_cdcmpeq>
 8000ad0:	bf0c      	ite	eq
 8000ad2:	2001      	moveq	r0, #1
 8000ad4:	2000      	movne	r0, #0
 8000ad6:	f85d fb08 	ldr.w	pc, [sp], #8
 8000ada:	bf00      	nop

08000adc <__aeabi_dcmplt>:
 8000adc:	f84d ed08 	str.w	lr, [sp, #-8]!
 8000ae0:	f7ff ffea 	bl	8000ab8 <__aeabi_cdcmpeq>
 8000ae4:	bf34      	ite	cc
 8000ae6:	2001      	movcc	r0, #1
 8000ae8:	2000      	movcs	r0, #0
 8000aea:	f85d fb08 	ldr.w	pc, [sp], #8
 8000aee:	bf00      	nop

08000af0 <__aeabi_dcmple>:
 8000af0:	f84d ed08 	str.w	lr, [sp, #-8]!
 8000af4:	f7ff ffe0 	bl	8000ab8 <__aeabi_cdcmpeq>
 8000af8:	bf94      	ite	ls
 8000afa:	2001      	movls	r0, #1
 8000afc:	2000      	movhi	r0, #0
 8000afe:	f85d fb08 	ldr.w	pc, [sp], #8
 8000b02:	bf00      	nop

08000b04 <__aeabi_dcmpge>:
 8000b04:	f84d ed08 	str.w	lr, [sp, #-8]!
 8000b08:	f7ff ffce 	bl	8000aa8 <__aeabi_cdrcmple>
 8000b0c:	bf94      	ite	ls
 8000b0e:	2001      	movls	r0, #1
 8000b10:	2000      	movhi	r0, #0
 8000b12:	f85d fb08 	ldr.w	pc, [sp], #8
 8000b16:	bf00      	nop

08000b18 <__aeabi_dcmpgt>:
 8000b18:	f84d ed08 	str.w	lr, [sp, #-8]!
 8000b1c:	f7ff ffc4 	bl	8000aa8 <__aeabi_cdrcmple>
 8000b20:	bf34      	ite	cc
 8000b22:	2001      	movcc	r0, #1
 8000b24:	2000      	movcs	r0, #0
 8000b26:	f85d fb08 	ldr.w	pc, [sp], #8
 8000b2a:	bf00      	nop

08000b2c <__aeabi_dcmpun>:
 8000b2c:	ea4f 0c41 	mov.w	ip, r1, lsl #1
 8000b30:	ea7f 5c6c 	mvns.w	ip, ip, asr #21
 8000b34:	d102      	bne.n	8000b3c <__aeabi_dcmpun+0x10>
 8000b36:	ea50 3c01 	orrs.w	ip, r0, r1, lsl #12
 8000b3a:	d10a      	bne.n	8000b52 <__aeabi_dcmpun+0x26>
 8000b3c:	ea4f 0c43 	mov.w	ip, r3, lsl #1
 8000b40:	ea7f 5c6c 	mvns.w	ip, ip, asr #21
 8000b44:	d102      	bne.n	8000b4c <__aeabi_dcmpun+0x20>
 8000b46:	ea52 3c03 	orrs.w	ip, r2, r3, lsl #12
 8000b4a:	d102      	bne.n	8000b52 <__aeabi_dcmpun+0x26>
 8000b4c:	f04f 0000 	mov.w	r0, #0
 8000b50:	4770      	bx	lr
 8000b52:	f04f 0001 	mov.w	r0, #1
 8000b56:	4770      	bx	lr

08000b58 <__aeabi_d2iz>:
 8000b58:	ea4f 0241 	mov.w	r2, r1, lsl #1
 8000b5c:	f512 1200 	adds.w	r2, r2, #2097152	; 0x200000
 8000b60:	d215      	bcs.n	8000b8e <__aeabi_d2iz+0x36>
 8000b62:	d511      	bpl.n	8000b88 <__aeabi_d2iz+0x30>
 8000b64:	f46f 7378 	mvn.w	r3, #992	; 0x3e0
 8000b68:	ebb3 5262 	subs.w	r2, r3, r2, asr #21
 8000b6c:	d912      	bls.n	8000b94 <__aeabi_d2iz+0x3c>
 8000b6e:	ea4f 23c1 	mov.w	r3, r1, lsl #11
 8000b72:	f043 4300 	orr.w	r3, r3, #2147483648	; 0x80000000
 8000b76:	ea43 5350 	orr.w	r3, r3, r0, lsr #21
 8000b7a:	f011 4f00 	tst.w	r1, #2147483648	; 0x80000000
 8000b7e:	fa23 f002 	lsr.w	r0, r3, r2
 8000b82:	bf18      	it	ne
 8000b84:	4240      	negne	r0, r0
 8000b86:	4770      	bx	lr
 8000b88:	f04f 0000 	mov.w	r0, #0
 8000b8c:	4770      	bx	lr
 8000b8e:	ea50 3001 	orrs.w	r0, r0, r1, lsl #12
 8000b92:	d105      	bne.n	8000ba0 <__aeabi_d2iz+0x48>
 8000b94:	f011 4000 	ands.w	r0, r1, #2147483648	; 0x80000000
 8000b98:	bf08      	it	eq
 8000b9a:	f06f 4000 	mvneq.w	r0, #2147483648	; 0x80000000
 8000b9e:	4770      	bx	lr
 8000ba0:	f04f 0000 	mov.w	r0, #0
 8000ba4:	4770      	bx	lr
 8000ba6:	bf00      	nop

08000ba8 <__aeabi_uldivmod>:
 8000ba8:	b953      	cbnz	r3, 8000bc0 <__aeabi_uldivmod+0x18>
 8000baa:	b94a      	cbnz	r2, 8000bc0 <__aeabi_uldivmod+0x18>
 8000bac:	2900      	cmp	r1, #0
 8000bae:	bf08      	it	eq
 8000bb0:	2800      	cmpeq	r0, #0
 8000bb2:	bf1c      	itt	ne
 8000bb4:	f04f 31ff 	movne.w	r1, #4294967295
 8000bb8:	f04f 30ff 	movne.w	r0, #4294967295
 8000bbc:	f000 b96e 	b.w	8000e9c <__aeabi_idiv0>
 8000bc0:	f1ad 0c08 	sub.w	ip, sp, #8
 8000bc4:	e96d ce04 	strd	ip, lr, [sp, #-16]!
 8000bc8:	f000 f806 	bl	8000bd8 <__udivmoddi4>
 8000bcc:	f8dd e004 	ldr.w	lr, [sp, #4]
 8000bd0:	e9dd 2302 	ldrd	r2, r3, [sp, #8]
 8000bd4:	b004      	add	sp, #16
 8000bd6:	4770      	bx	lr

08000bd8 <__udivmoddi4>:
 8000bd8:	e92d 47f0 	stmdb	sp!, {r4, r5, r6, r7, r8, r9, sl, lr}
 8000bdc:	9d08      	ldr	r5, [sp, #32]
 8000bde:	4604      	mov	r4, r0
 8000be0:	468c      	mov	ip, r1
 8000be2:	2b00      	cmp	r3, #0
 8000be4:	f040 8083 	bne.w	8000cee <__udivmoddi4+0x116>
 8000be8:	428a      	cmp	r2, r1
 8000bea:	4617      	mov	r7, r2
 8000bec:	d947      	bls.n	8000c7e <__udivmoddi4+0xa6>
 8000bee:	fab2 f282 	clz	r2, r2
 8000bf2:	b142      	cbz	r2, 8000c06 <__udivmoddi4+0x2e>
 8000bf4:	f1c2 0020 	rsb	r0, r2, #32
 8000bf8:	fa24 f000 	lsr.w	r0, r4, r0
 8000bfc:	4091      	lsls	r1, r2
 8000bfe:	4097      	lsls	r7, r2
 8000c00:	ea40 0c01 	orr.w	ip, r0, r1
 8000c04:	4094      	lsls	r4, r2
 8000c06:	ea4f 4817 	mov.w	r8, r7, lsr #16
 8000c0a:	0c23      	lsrs	r3, r4, #16
 8000c0c:	fbbc f6f8 	udiv	r6, ip, r8
 8000c10:	fa1f fe87 	uxth.w	lr, r7
 8000c14:	fb08 c116 	mls	r1, r8, r6, ip
 8000c18:	ea43 4301 	orr.w	r3, r3, r1, lsl #16
 8000c1c:	fb06 f10e 	mul.w	r1, r6, lr
 8000c20:	4299      	cmp	r1, r3
 8000c22:	d909      	bls.n	8000c38 <__udivmoddi4+0x60>
 8000c24:	18fb      	adds	r3, r7, r3
 8000c26:	f106 30ff 	add.w	r0, r6, #4294967295
 8000c2a:	f080 8119 	bcs.w	8000e60 <__udivmoddi4+0x288>
 8000c2e:	4299      	cmp	r1, r3
 8000c30:	f240 8116 	bls.w	8000e60 <__udivmoddi4+0x288>
 8000c34:	3e02      	subs	r6, #2
 8000c36:	443b      	add	r3, r7
 8000c38:	1a5b      	subs	r3, r3, r1
 8000c3a:	b2a4      	uxth	r4, r4
 8000c3c:	fbb3 f0f8 	udiv	r0, r3, r8
 8000c40:	fb08 3310 	mls	r3, r8, r0, r3
 8000c44:	ea44 4403 	orr.w	r4, r4, r3, lsl #16
 8000c48:	fb00 fe0e 	mul.w	lr, r0, lr
 8000c4c:	45a6      	cmp	lr, r4
 8000c4e:	d909      	bls.n	8000c64 <__udivmoddi4+0x8c>
 8000c50:	193c      	adds	r4, r7, r4
 8000c52:	f100 33ff 	add.w	r3, r0, #4294967295
 8000c56:	f080 8105 	bcs.w	8000e64 <__udivmoddi4+0x28c>
 8000c5a:	45a6      	cmp	lr, r4
 8000c5c:	f240 8102 	bls.w	8000e64 <__udivmoddi4+0x28c>
 8000c60:	3802      	subs	r0, #2
 8000c62:	443c      	add	r4, r7
 8000c64:	ea40 4006 	orr.w	r0, r0, r6, lsl #16
 8000c68:	eba4 040e 	sub.w	r4, r4, lr
 8000c6c:	2600      	movs	r6, #0
 8000c6e:	b11d      	cbz	r5, 8000c78 <__udivmoddi4+0xa0>
 8000c70:	40d4      	lsrs	r4, r2
 8000c72:	2300      	movs	r3, #0
 8000c74:	e9c5 4300 	strd	r4, r3, [r5]
 8000c78:	4631      	mov	r1, r6
 8000c7a:	e8bd 87f0 	ldmia.w	sp!, {r4, r5, r6, r7, r8, r9, sl, pc}
 8000c7e:	b902      	cbnz	r2, 8000c82 <__udivmoddi4+0xaa>
 8000c80:	deff      	udf	#255	; 0xff
 8000c82:	fab2 f282 	clz	r2, r2
 8000c86:	2a00      	cmp	r2, #0
 8000c88:	d150      	bne.n	8000d2c <__udivmoddi4+0x154>
 8000c8a:	1bcb      	subs	r3, r1, r7
 8000c8c:	ea4f 4e17 	mov.w	lr, r7, lsr #16
 8000c90:	fa1f f887 	uxth.w	r8, r7
 8000c94:	2601      	movs	r6, #1
 8000c96:	fbb3 fcfe 	udiv	ip, r3, lr
 8000c9a:	0c21      	lsrs	r1, r4, #16
 8000c9c:	fb0e 331c 	mls	r3, lr, ip, r3
 8000ca0:	ea41 4103 	orr.w	r1, r1, r3, lsl #16
 8000ca4:	fb08 f30c 	mul.w	r3, r8, ip
 8000ca8:	428b      	cmp	r3, r1
 8000caa:	d907      	bls.n	8000cbc <__udivmoddi4+0xe4>
 8000cac:	1879      	adds	r1, r7, r1
 8000cae:	f10c 30ff 	add.w	r0, ip, #4294967295
 8000cb2:	d202      	bcs.n	8000cba <__udivmoddi4+0xe2>
 8000cb4:	428b      	cmp	r3, r1
 8000cb6:	f200 80e9 	bhi.w	8000e8c <__udivmoddi4+0x2b4>
 8000cba:	4684      	mov	ip, r0
 8000cbc:	1ac9      	subs	r1, r1, r3
 8000cbe:	b2a3      	uxth	r3, r4
 8000cc0:	fbb1 f0fe 	udiv	r0, r1, lr
 8000cc4:	fb0e 1110 	mls	r1, lr, r0, r1
 8000cc8:	ea43 4401 	orr.w	r4, r3, r1, lsl #16
 8000ccc:	fb08 f800 	mul.w	r8, r8, r0
 8000cd0:	45a0      	cmp	r8, r4
 8000cd2:	d907      	bls.n	8000ce4 <__udivmoddi4+0x10c>
 8000cd4:	193c      	adds	r4, r7, r4
 8000cd6:	f100 33ff 	add.w	r3, r0, #4294967295
 8000cda:	d202      	bcs.n	8000ce2 <__udivmoddi4+0x10a>
 8000cdc:	45a0      	cmp	r8, r4
 8000cde:	f200 80d9 	bhi.w	8000e94 <__udivmoddi4+0x2bc>
 8000ce2:	4618      	mov	r0, r3
 8000ce4:	eba4 0408 	sub.w	r4, r4, r8
 8000ce8:	ea40 400c 	orr.w	r0, r0, ip, lsl #16
 8000cec:	e7bf      	b.n	8000c6e <__udivmoddi4+0x96>
 8000cee:	428b      	cmp	r3, r1
 8000cf0:	d909      	bls.n	8000d06 <__udivmoddi4+0x12e>
 8000cf2:	2d00      	cmp	r5, #0
 8000cf4:	f000 80b1 	beq.w	8000e5a <__udivmoddi4+0x282>
 8000cf8:	2600      	movs	r6, #0
 8000cfa:	e9c5 0100 	strd	r0, r1, [r5]
 8000cfe:	4630      	mov	r0, r6
 8000d00:	4631      	mov	r1, r6
 8000d02:	e8bd 87f0 	ldmia.w	sp!, {r4, r5, r6, r7, r8, r9, sl, pc}
 8000d06:	fab3 f683 	clz	r6, r3
 8000d0a:	2e00      	cmp	r6, #0
 8000d0c:	d14a      	bne.n	8000da4 <__udivmoddi4+0x1cc>
 8000d0e:	428b      	cmp	r3, r1
 8000d10:	d302      	bcc.n	8000d18 <__udivmoddi4+0x140>
 8000d12:	4282      	cmp	r2, r0
 8000d14:	f200 80b8 	bhi.w	8000e88 <__udivmoddi4+0x2b0>
 8000d18:	1a84      	subs	r4, r0, r2
 8000d1a:	eb61 0103 	sbc.w	r1, r1, r3
 8000d1e:	2001      	movs	r0, #1
 8000d20:	468c      	mov	ip, r1
 8000d22:	2d00      	cmp	r5, #0
 8000d24:	d0a8      	beq.n	8000c78 <__udivmoddi4+0xa0>
 8000d26:	e9c5 4c00 	strd	r4, ip, [r5]
 8000d2a:	e7a5      	b.n	8000c78 <__udivmoddi4+0xa0>
 8000d2c:	f1c2 0320 	rsb	r3, r2, #32
 8000d30:	fa20 f603 	lsr.w	r6, r0, r3
 8000d34:	4097      	lsls	r7, r2
 8000d36:	fa01 f002 	lsl.w	r0, r1, r2
 8000d3a:	ea4f 4e17 	mov.w	lr, r7, lsr #16
 8000d3e:	40d9      	lsrs	r1, r3
 8000d40:	4330      	orrs	r0, r6
 8000d42:	0c03      	lsrs	r3, r0, #16
 8000d44:	fbb1 f6fe 	udiv	r6, r1, lr
 8000d48:	fa1f f887 	uxth.w	r8, r7
 8000d4c:	fb0e 1116 	mls	r1, lr, r6, r1
 8000d50:	ea43 4301 	orr.w	r3, r3, r1, lsl #16
 8000d54:	fb06 f108 	mul.w	r1, r6, r8
 8000d58:	4299      	cmp	r1, r3
 8000d5a:	fa04 f402 	lsl.w	r4, r4, r2
 8000d5e:	d909      	bls.n	8000d74 <__udivmoddi4+0x19c>
 8000d60:	18fb      	adds	r3, r7, r3
 8000d62:	f106 3cff 	add.w	ip, r6, #4294967295
 8000d66:	f080 808d 	bcs.w	8000e84 <__udivmoddi4+0x2ac>
 8000d6a:	4299      	cmp	r1, r3
 8000d6c:	f240 808a 	bls.w	8000e84 <__udivmoddi4+0x2ac>
 8000d70:	3e02      	subs	r6, #2
 8000d72:	443b      	add	r3, r7
 8000d74:	1a5b      	subs	r3, r3, r1
 8000d76:	b281      	uxth	r1, r0
 8000d78:	fbb3 f0fe 	udiv	r0, r3, lr
 8000d7c:	fb0e 3310 	mls	r3, lr, r0, r3
 8000d80:	ea41 4103 	orr.w	r1, r1, r3, lsl #16
 8000d84:	fb00 f308 	mul.w	r3, r0, r8
 8000d88:	428b      	cmp	r3, r1
 8000d8a:	d907      	bls.n	8000d9c <__udivmoddi4+0x1c4>
 8000d8c:	1879      	adds	r1, r7, r1
 8000d8e:	f100 3cff 	add.w	ip, r0, #4294967295
 8000d92:	d273      	bcs.n	8000e7c <__udivmoddi4+0x2a4>
 8000d94:	428b      	cmp	r3, r1
 8000d96:	d971      	bls.n	8000e7c <__udivmoddi4+0x2a4>
 8000d98:	3802      	subs	r0, #2
 8000d9a:	4439      	add	r1, r7
 8000d9c:	1acb      	subs	r3, r1, r3
 8000d9e:	ea40 4606 	orr.w	r6, r0, r6, lsl #16
 8000da2:	e778      	b.n	8000c96 <__udivmoddi4+0xbe>
 8000da4:	f1c6 0c20 	rsb	ip, r6, #32
 8000da8:	fa03 f406 	lsl.w	r4, r3, r6
 8000dac:	fa22 f30c 	lsr.w	r3, r2, ip
 8000db0:	431c      	orrs	r4, r3
 8000db2:	fa20 f70c 	lsr.w	r7, r0, ip
 8000db6:	fa01 f306 	lsl.w	r3, r1, r6
 8000dba:	ea4f 4e14 	mov.w	lr, r4, lsr #16
 8000dbe:	fa21 f10c 	lsr.w	r1, r1, ip
 8000dc2:	431f      	orrs	r7, r3
 8000dc4:	0c3b      	lsrs	r3, r7, #16
 8000dc6:	fbb1 f9fe 	udiv	r9, r1, lr
 8000dca:	fa1f f884 	uxth.w	r8, r4
 8000dce:	fb0e 1119 	mls	r1, lr, r9, r1
 8000dd2:	ea43 4101 	orr.w	r1, r3, r1, lsl #16
 8000dd6:	fb09 fa08 	mul.w	sl, r9, r8
 8000dda:	458a      	cmp	sl, r1
 8000ddc:	fa02 f206 	lsl.w	r2, r2, r6
 8000de0:	fa00 f306 	lsl.w	r3, r0, r6
 8000de4:	d908      	bls.n	8000df8 <__udivmoddi4+0x220>
 8000de6:	1861      	adds	r1, r4, r1
 8000de8:	f109 30ff 	add.w	r0, r9, #4294967295
 8000dec:	d248      	bcs.n	8000e80 <__udivmoddi4+0x2a8>
 8000dee:	458a      	cmp	sl, r1
 8000df0:	d946      	bls.n	8000e80 <__udivmoddi4+0x2a8>
 8000df2:	f1a9 0902 	sub.w	r9, r9, #2
 8000df6:	4421      	add	r1, r4
 8000df8:	eba1 010a 	sub.w	r1, r1, sl
 8000dfc:	b2bf      	uxth	r7, r7
 8000dfe:	fbb1 f0fe 	udiv	r0, r1, lr
 8000e02:	fb0e 1110 	mls	r1, lr, r0, r1
 8000e06:	ea47 4701 	orr.w	r7, r7, r1, lsl #16
 8000e0a:	fb00 f808 	mul.w	r8, r0, r8
 8000e0e:	45b8      	cmp	r8, r7
 8000e10:	d907      	bls.n	8000e22 <__udivmoddi4+0x24a>
 8000e12:	19e7      	adds	r7, r4, r7
 8000e14:	f100 31ff 	add.w	r1, r0, #4294967295
 8000e18:	d22e      	bcs.n	8000e78 <__udivmoddi4+0x2a0>
 8000e1a:	45b8      	cmp	r8, r7
 8000e1c:	d92c      	bls.n	8000e78 <__udivmoddi4+0x2a0>
 8000e1e:	3802      	subs	r0, #2
 8000e20:	4427      	add	r7, r4
 8000e22:	ea40 4009 	orr.w	r0, r0, r9, lsl #16
 8000e26:	eba7 0708 	sub.w	r7, r7, r8
 8000e2a:	fba0 8902 	umull	r8, r9, r0, r2
 8000e2e:	454f      	cmp	r7, r9
 8000e30:	46c6      	mov	lr, r8
 8000e32:	4649      	mov	r1, r9
 8000e34:	d31a      	bcc.n	8000e6c <__udivmoddi4+0x294>
 8000e36:	d017      	beq.n	8000e68 <__udivmoddi4+0x290>
 8000e38:	b15d      	cbz	r5, 8000e52 <__udivmoddi4+0x27a>
 8000e3a:	ebb3 020e 	subs.w	r2, r3, lr
 8000e3e:	eb67 0701 	sbc.w	r7, r7, r1
 8000e42:	fa07 fc0c 	lsl.w	ip, r7, ip
 8000e46:	40f2      	lsrs	r2, r6
 8000e48:	ea4c 0202 	orr.w	r2, ip, r2
 8000e4c:	40f7      	lsrs	r7, r6
 8000e4e:	e9c5 2700 	strd	r2, r7, [r5]
 8000e52:	2600      	movs	r6, #0
 8000e54:	4631      	mov	r1, r6
 8000e56:	e8bd 87f0 	ldmia.w	sp!, {r4, r5, r6, r7, r8, r9, sl, pc}
 8000e5a:	462e      	mov	r6, r5
 8000e5c:	4628      	mov	r0, r5
 8000e5e:	e70b      	b.n	8000c78 <__udivmoddi4+0xa0>
 8000e60:	4606      	mov	r6, r0
 8000e62:	e6e9      	b.n	8000c38 <__udivmoddi4+0x60>
 8000e64:	4618      	mov	r0, r3
 8000e66:	e6fd      	b.n	8000c64 <__udivmoddi4+0x8c>
 8000e68:	4543      	cmp	r3, r8
 8000e6a:	d2e5      	bcs.n	8000e38 <__udivmoddi4+0x260>
 8000e6c:	ebb8 0e02 	subs.w	lr, r8, r2
 8000e70:	eb69 0104 	sbc.w	r1, r9, r4
 8000e74:	3801      	subs	r0, #1
 8000e76:	e7df      	b.n	8000e38 <__udivmoddi4+0x260>
 8000e78:	4608      	mov	r0, r1
 8000e7a:	e7d2      	b.n	8000e22 <__udivmoddi4+0x24a>
 8000e7c:	4660      	mov	r0, ip
 8000e7e:	e78d      	b.n	8000d9c <__udivmoddi4+0x1c4>
 8000e80:	4681      	mov	r9, r0
 8000e82:	e7b9      	b.n	8000df8 <__udivmoddi4+0x220>
 8000e84:	4666      	mov	r6, ip
 8000e86:	e775      	b.n	8000d74 <__udivmoddi4+0x19c>
 8000e88:	4630      	mov	r0, r6
 8000e8a:	e74a      	b.n	8000d22 <__udivmoddi4+0x14a>
 8000e8c:	f1ac 0c02 	sub.w	ip, ip, #2
 8000e90:	4439      	add	r1, r7
 8000e92:	e713      	b.n	8000cbc <__udivmoddi4+0xe4>
 8000e94:	3802      	subs	r0, #2
 8000e96:	443c      	add	r4, r7
 8000e98:	e724      	b.n	8000ce4 <__udivmoddi4+0x10c>
 8000e9a:	bf00      	nop

08000e9c <__aeabi_idiv0>:
 8000e9c:	4770      	bx	lr
 8000e9e:	bf00      	nop

08000ea0 <lcdSend>:

/**
  * @brief  The application entry point.
  * @retval int
  */
void lcdSend(uint8_t isCommand, uint8_t data) {
 8000ea0:	b580      	push	{r7, lr}
 8000ea2:	b082      	sub	sp, #8
 8000ea4:	af00      	add	r7, sp, #0
 8000ea6:	4603      	mov	r3, r0
 8000ea8:	460a      	mov	r2, r1
 8000eaa:	71fb      	strb	r3, [r7, #7]
 8000eac:	4613      	mov	r3, r2
 8000eae:	71bb      	strb	r3, [r7, #6]
	HAL_Delay (1);
 8000eb0:	2001      	movs	r0, #1
 8000eb2:	f000 fbdf 	bl	8001674 <HAL_Delay>
}
 8000eb6:	bf00      	nop
 8000eb8:	3708      	adds	r7, #8
 8000eba:	46bd      	mov	sp, r7
 8000ebc:	bd80      	pop	{r7, pc}

08000ebe <lcdCommand>:
void lcdCommand(uint8_t cmd) { lcdSend(1, cmd); }
 8000ebe:	b580      	push	{r7, lr}
 8000ec0:	b082      	sub	sp, #8
 8000ec2:	af00      	add	r7, sp, #0
 8000ec4:	4603      	mov	r3, r0
 8000ec6:	71fb      	strb	r3, [r7, #7]
 8000ec8:	79fb      	ldrb	r3, [r7, #7]
 8000eca:	4619      	mov	r1, r3
 8000ecc:	2001      	movs	r0, #1
 8000ece:	f7ff ffe7 	bl	8000ea0 <lcdSend>
 8000ed2:	bf00      	nop
 8000ed4:	3708      	adds	r7, #8
 8000ed6:	46bd      	mov	sp, r7
 8000ed8:	bd80      	pop	{r7, pc}

08000eda <parametrsToggle>:
void lcdChar(const char chr) { lcdSend(0, (uint8_t)chr); }

void setCursor(uint8_t col, uint8_t row) {
lcdSend(1,0x80 | (col | row*0x40)); }
void parametrsToggle(uint8_t display,uint8_t cursor,uint8_t blink){ uint8_t comm = 0x08; if(display)comm|=0x04; if(cursor)comm|=0x02; if(blink)comm|=0x01; lcdCommand(comm); }
 8000eda:	b580      	push	{r7, lr}
 8000edc:	b084      	sub	sp, #16
 8000ede:	af00      	add	r7, sp, #0
 8000ee0:	4603      	mov	r3, r0
 8000ee2:	71fb      	strb	r3, [r7, #7]
 8000ee4:	460b      	mov	r3, r1
 8000ee6:	71bb      	strb	r3, [r7, #6]
 8000ee8:	4613      	mov	r3, r2
 8000eea:	717b      	strb	r3, [r7, #5]
 8000eec:	2308      	movs	r3, #8
 8000eee:	73fb      	strb	r3, [r7, #15]
 8000ef0:	79fb      	ldrb	r3, [r7, #7]
 8000ef2:	2b00      	cmp	r3, #0
 8000ef4:	d003      	beq.n	8000efe <parametrsToggle+0x24>
 8000ef6:	7bfb      	ldrb	r3, [r7, #15]
 8000ef8:	f043 0304 	orr.w	r3, r3, #4
 8000efc:	73fb      	strb	r3, [r7, #15]
 8000efe:	79bb      	ldrb	r3, [r7, #6]
 8000f00:	2b00      	cmp	r3, #0
 8000f02:	d003      	beq.n	8000f0c <parametrsToggle+0x32>
 8000f04:	7bfb      	ldrb	r3, [r7, #15]
 8000f06:	f043 0302 	orr.w	r3, r3, #2
 8000f0a:	73fb      	strb	r3, [r7, #15]
 8000f0c:	797b      	ldrb	r3, [r7, #5]
 8000f0e:	2b00      	cmp	r3, #0
 8000f10:	d003      	beq.n	8000f1a <parametrsToggle+0x40>
 8000f12:	7bfb      	ldrb	r3, [r7, #15]
 8000f14:	f043 0301 	orr.w	r3, r3, #1
 8000f18:	73fb      	strb	r3, [r7, #15]
 8000f1a:	7bfb      	ldrb	r3, [r7, #15]
 8000f1c:	4618      	mov	r0, r3
 8000f1e:	f7ff ffce 	bl	8000ebe <lcdCommand>
 8000f22:	bf00      	nop
 8000f24:	3710      	adds	r7, #16
 8000f26:	46bd      	mov	sp, r7
 8000f28:	bd80      	pop	{r7, pc}

08000f2a <shiftToggle>:
void shiftToggle(uint8_t rightShift,uint8_t scrollInc){ uint8_t comm = 0x04; if(rightShift)comm|=0x02; if(scrollInc)comm|=0x01; lcdCommand(comm); }
 8000f2a:	b580      	push	{r7, lr}
 8000f2c:	b084      	sub	sp, #16
 8000f2e:	af00      	add	r7, sp, #0
 8000f30:	4603      	mov	r3, r0
 8000f32:	460a      	mov	r2, r1
 8000f34:	71fb      	strb	r3, [r7, #7]
 8000f36:	4613      	mov	r3, r2
 8000f38:	71bb      	strb	r3, [r7, #6]
 8000f3a:	2304      	movs	r3, #4
 8000f3c:	73fb      	strb	r3, [r7, #15]
 8000f3e:	79fb      	ldrb	r3, [r7, #7]
 8000f40:	2b00      	cmp	r3, #0
 8000f42:	d003      	beq.n	8000f4c <shiftToggle+0x22>
 8000f44:	7bfb      	ldrb	r3, [r7, #15]
 8000f46:	f043 0302 	orr.w	r3, r3, #2
 8000f4a:	73fb      	strb	r3, [r7, #15]
 8000f4c:	79bb      	ldrb	r3, [r7, #6]
 8000f4e:	2b00      	cmp	r3, #0
 8000f50:	d003      	beq.n	8000f5a <shiftToggle+0x30>
 8000f52:	7bfb      	ldrb	r3, [r7, #15]
 8000f54:	f043 0301 	orr.w	r3, r3, #1
 8000f58:	73fb      	strb	r3, [r7, #15]
 8000f5a:	7bfb      	ldrb	r3, [r7, #15]
 8000f5c:	4618      	mov	r0, r3
 8000f5e:	f7ff ffae 	bl	8000ebe <lcdCommand>
 8000f62:	bf00      	nop
 8000f64:	3710      	adds	r7, #16
 8000f66:	46bd      	mov	sp, r7
 8000f68:	bd80      	pop	{r7, pc}

08000f6a <clear>:
void scrollRight(void){ lcdCommand(0x10|0x08|0x00); }
void scrollLeft(void){ lcdCommand(0x10|0x08|0x04); }
void clear(void) {
 8000f6a:	b580      	push	{r7, lr}
 8000f6c:	af00      	add	r7, sp, #0
lcdCommand(0x01); HAL_Delay(2); }
 8000f6e:	2001      	movs	r0, #1
 8000f70:	f7ff ffa5 	bl	8000ebe <lcdCommand>
 8000f74:	2002      	movs	r0, #2
 8000f76:	f000 fb7d 	bl	8001674 <HAL_Delay>
 8000f7a:	bf00      	nop
 8000f7c:	bd80      	pop	{r7, pc}

08000f7e <initLCD>:
void home(void) {
lcdCommand(0x02); HAL_Delay(2);
}

void initLCD(void){
 8000f7e:	b580      	push	{r7, lr}
 8000f80:	af00      	add	r7, sp, #0
	HAL_Delay(40); lcdCommand(0x02); HAL_Delay(1); lcdCommand(0x28); HAL_Delay(1); lcdCommand(0x28); HAL_Delay(1);
 8000f82:	2028      	movs	r0, #40	; 0x28
 8000f84:	f000 fb76 	bl	8001674 <HAL_Delay>
 8000f88:	2002      	movs	r0, #2
 8000f8a:	f7ff ff98 	bl	8000ebe <lcdCommand>
 8000f8e:	2001      	movs	r0, #1
 8000f90:	f000 fb70 	bl	8001674 <HAL_Delay>
 8000f94:	2028      	movs	r0, #40	; 0x28
 8000f96:	f7ff ff92 	bl	8000ebe <lcdCommand>
 8000f9a:	2001      	movs	r0, #1
 8000f9c:	f000 fb6a 	bl	8001674 <HAL_Delay>
 8000fa0:	2028      	movs	r0, #40	; 0x28
 8000fa2:	f7ff ff8c 	bl	8000ebe <lcdCommand>
 8000fa6:	2001      	movs	r0, #1
 8000fa8:	f000 fb64 	bl	8001674 <HAL_Delay>
	parametrsToggle(1,0,0); HAL_Delay(1); clear(); shiftToggle(1,0); }
 8000fac:	2200      	movs	r2, #0
 8000fae:	2100      	movs	r1, #0
 8000fb0:	2001      	movs	r0, #1
 8000fb2:	f7ff ff92 	bl	8000eda <parametrsToggle>
 8000fb6:	2001      	movs	r0, #1
 8000fb8:	f000 fb5c 	bl	8001674 <HAL_Delay>
 8000fbc:	f7ff ffd5 	bl	8000f6a <clear>
 8000fc0:	2100      	movs	r1, #0
 8000fc2:	2001      	movs	r0, #1
 8000fc4:	f7ff ffb1 	bl	8000f2a <shiftToggle>
 8000fc8:	bf00      	nop
 8000fca:	bd80      	pop	{r7, pc}

08000fcc <main>:

int main(void)
{
 8000fcc:	b580      	push	{r7, lr}
 8000fce:	b086      	sub	sp, #24
 8000fd0:	af04      	add	r7, sp, #16
	HAL_Init();
 8000fd2:	f000 fb0d 	bl	80015f0 <HAL_Init>
	  SystemClock_Config();
 8000fd6:	f000 f867 	bl	80010a8 <SystemClock_Config>
	  MX_GPIO_Init();
 8000fda:	f000 f8cf 	bl	800117c <MX_GPIO_Init>
	  lcd16x2_init_4bits(RS_GPIO_Port, RS_Pin, E_Pin, D4_GPIO_Port, D4_Pin, D5_Pin, D6_Pin, D7_Pin);
 8000fde:	2380      	movs	r3, #128	; 0x80
 8000fe0:	9303      	str	r3, [sp, #12]
 8000fe2:	2340      	movs	r3, #64	; 0x40
 8000fe4:	9302      	str	r3, [sp, #8]
 8000fe6:	2320      	movs	r3, #32
 8000fe8:	9301      	str	r3, [sp, #4]
 8000fea:	2310      	movs	r3, #16
 8000fec:	9300      	str	r3, [sp, #0]
 8000fee:	4b28      	ldr	r3, [pc, #160]	; (8001090 <main+0xc4>)
 8000ff0:	2210      	movs	r2, #16
 8000ff2:	2108      	movs	r1, #8
 8000ff4:	4827      	ldr	r0, [pc, #156]	; (8001094 <main+0xc8>)
 8000ff6:	f001 ff0b 	bl	8002e10 <lcd16x2_init_4bits>
	  lcd16x2_printf("Laba3");
 8000ffa:	4827      	ldr	r0, [pc, #156]	; (8001098 <main+0xcc>)
 8000ffc:	f001 ffae 	bl	8002f5c <lcd16x2_printf>
	  HAL_Delay(700);
 8001000:	f44f 702f 	mov.w	r0, #700	; 0x2bc
 8001004:	f000 fb36 	bl	8001674 <HAL_Delay>
	  initLCD();
 8001008:	f7ff ffb9 	bl	8000f7e <initLCD>
	  int i = 0;
 800100c:	2300      	movs	r3, #0
 800100e:	607b      	str	r3, [r7, #4]
	  while (1<10)
	  {
		  GPIOD->ODR = 0x9000;
 8001010:	4b1f      	ldr	r3, [pc, #124]	; (8001090 <main+0xc4>)
 8001012:	f44f 4210 	mov.w	r2, #36864	; 0x9000
 8001016:	615a      	str	r2, [r3, #20]
		  		  HAL_Delay(500);
 8001018:	f44f 70fa 	mov.w	r0, #500	; 0x1f4
 800101c:	f000 fb2a 	bl	8001674 <HAL_Delay>
		  		  GPIOD->ODR = 0x0000;
 8001020:	4b1b      	ldr	r3, [pc, #108]	; (8001090 <main+0xc4>)
 8001022:	2200      	movs	r2, #0
 8001024:	615a      	str	r2, [r3, #20]
		  		  HAL_Delay(500);
 8001026:	f44f 70fa 	mov.w	r0, #500	; 0x1f4
 800102a:	f000 fb23 	bl	8001674 <HAL_Delay>
		  		  GPIOD->ODR = 0x6000;
 800102e:	4b18      	ldr	r3, [pc, #96]	; (8001090 <main+0xc4>)
 8001030:	f44f 42c0 	mov.w	r2, #24576	; 0x6000
 8001034:	615a      	str	r2, [r3, #20]
		  		  HAL_Delay(500);
 8001036:	f44f 70fa 	mov.w	r0, #500	; 0x1f4
 800103a:	f000 fb1b 	bl	8001674 <HAL_Delay>
		  		  GPIOD->ODR = 0x2000;
 800103e:	4b14      	ldr	r3, [pc, #80]	; (8001090 <main+0xc4>)
 8001040:	f44f 5200 	mov.w	r2, #8192	; 0x2000
 8001044:	615a      	str	r2, [r3, #20]
		  		  HAL_Delay(500);
 8001046:	f44f 70fa 	mov.w	r0, #500	; 0x1f4
 800104a:	f000 fb13 	bl	8001674 <HAL_Delay>
		  		  GPIOD->ODR = 0x0000;
 800104e:	4b10      	ldr	r3, [pc, #64]	; (8001090 <main+0xc4>)
 8001050:	2200      	movs	r2, #0
 8001052:	615a      	str	r2, [r3, #20]

		  		lcd16x2_clear();
 8001054:	f001 ff78 	bl	8002f48 <lcd16x2_clear>
	    lcd16x2_1stLine("Khamar");
 8001058:	4810      	ldr	r0, [pc, #64]	; (800109c <main+0xd0>)
 800105a:	f001 ff65 	bl	8002f28 <lcd16x2_1stLine>
	    lcd16x2_printf("Khamar Ivan");
 800105e:	4810      	ldr	r0, [pc, #64]	; (80010a0 <main+0xd4>)
 8001060:	f001 ff7c 	bl	8002f5c <lcd16x2_printf>
	    HAL_Delay(700);
 8001064:	f44f 702f 	mov.w	r0, #700	; 0x2bc
 8001068:	f000 fb04 	bl	8001674 <HAL_Delay>
	    lcd16x2_2ndLine();
 800106c:	f001 ff64 	bl	8002f38 <lcd16x2_2ndLine>
	    lcd16x2_printf("Khamar Ivan Olegovich");
 8001070:	480c      	ldr	r0, [pc, #48]	; (80010a4 <main+0xd8>)
 8001072:	f001 ff73 	bl	8002f5c <lcd16x2_printf>
	    HAL_Delay(700);
 8001076:	f44f 702f 	mov.w	r0, #700	; 0x2bc
 800107a:	f000 fafb 	bl	8001674 <HAL_Delay>
	    //lcd16x2_clear();
	    HAL_Delay(700);
 800107e:	f44f 702f 	mov.w	r0, #700	; 0x2bc
 8001082:	f000 faf7 	bl	8001674 <HAL_Delay>
	    i++;
 8001086:	687b      	ldr	r3, [r7, #4]
 8001088:	3301      	adds	r3, #1
 800108a:	607b      	str	r3, [r7, #4]
	  {
 800108c:	e7c0      	b.n	8001010 <main+0x44>
 800108e:	bf00      	nop
 8001090:	40020c00 	.word	0x40020c00
 8001094:	40020400 	.word	0x40020400
 8001098:	08005d68 	.word	0x08005d68
 800109c:	08005d70 	.word	0x08005d70
 80010a0:	08005d78 	.word	0x08005d78
 80010a4:	08005d84 	.word	0x08005d84

080010a8 <SystemClock_Config>:
/**
  * @brief System Clock Configuration
  * @retval None
  */
void SystemClock_Config(void)
{
 80010a8:	b580      	push	{r7, lr}
 80010aa:	b094      	sub	sp, #80	; 0x50
 80010ac:	af00      	add	r7, sp, #0
  RCC_OscInitTypeDef RCC_OscInitStruct = {0};
 80010ae:	f107 0320 	add.w	r3, r7, #32
 80010b2:	2230      	movs	r2, #48	; 0x30
 80010b4:	2100      	movs	r1, #0
 80010b6:	4618      	mov	r0, r3
 80010b8:	f001 ffaa 	bl	8003010 <memset>
  RCC_ClkInitTypeDef RCC_ClkInitStruct = {0};
 80010bc:	f107 030c 	add.w	r3, r7, #12
 80010c0:	2200      	movs	r2, #0
 80010c2:	601a      	str	r2, [r3, #0]
 80010c4:	605a      	str	r2, [r3, #4]
 80010c6:	609a      	str	r2, [r3, #8]
 80010c8:	60da      	str	r2, [r3, #12]
 80010ca:	611a      	str	r2, [r3, #16]

  /** Configure the main internal regulator output voltage
  */
  __HAL_RCC_PWR_CLK_ENABLE();
 80010cc:	2300      	movs	r3, #0
 80010ce:	60bb      	str	r3, [r7, #8]
 80010d0:	4b28      	ldr	r3, [pc, #160]	; (8001174 <SystemClock_Config+0xcc>)
 80010d2:	6c1b      	ldr	r3, [r3, #64]	; 0x40
 80010d4:	4a27      	ldr	r2, [pc, #156]	; (8001174 <SystemClock_Config+0xcc>)
 80010d6:	f043 5380 	orr.w	r3, r3, #268435456	; 0x10000000
 80010da:	6413      	str	r3, [r2, #64]	; 0x40
 80010dc:	4b25      	ldr	r3, [pc, #148]	; (8001174 <SystemClock_Config+0xcc>)
 80010de:	6c1b      	ldr	r3, [r3, #64]	; 0x40
 80010e0:	f003 5380 	and.w	r3, r3, #268435456	; 0x10000000
 80010e4:	60bb      	str	r3, [r7, #8]
 80010e6:	68bb      	ldr	r3, [r7, #8]
  __HAL_PWR_VOLTAGESCALING_CONFIG(PWR_REGULATOR_VOLTAGE_SCALE1);
 80010e8:	2300      	movs	r3, #0
 80010ea:	607b      	str	r3, [r7, #4]
 80010ec:	4b22      	ldr	r3, [pc, #136]	; (8001178 <SystemClock_Config+0xd0>)
 80010ee:	681b      	ldr	r3, [r3, #0]
 80010f0:	4a21      	ldr	r2, [pc, #132]	; (8001178 <SystemClock_Config+0xd0>)
 80010f2:	f443 4380 	orr.w	r3, r3, #16384	; 0x4000
 80010f6:	6013      	str	r3, [r2, #0]
 80010f8:	4b1f      	ldr	r3, [pc, #124]	; (8001178 <SystemClock_Config+0xd0>)
 80010fa:	681b      	ldr	r3, [r3, #0]
 80010fc:	f403 4380 	and.w	r3, r3, #16384	; 0x4000
 8001100:	607b      	str	r3, [r7, #4]
 8001102:	687b      	ldr	r3, [r7, #4]
  /** Initializes the RCC Oscillators according to the specified parameters
  * in the RCC_OscInitTypeDef structure.
  */
  RCC_OscInitStruct.OscillatorType = RCC_OSCILLATORTYPE_HSE;
 8001104:	2301      	movs	r3, #1
 8001106:	623b      	str	r3, [r7, #32]
  RCC_OscInitStruct.HSEState = RCC_HSE_ON;
 8001108:	f44f 3380 	mov.w	r3, #65536	; 0x10000
 800110c:	627b      	str	r3, [r7, #36]	; 0x24
  RCC_OscInitStruct.PLL.PLLState = RCC_PLL_ON;
 800110e:	2302      	movs	r3, #2
 8001110:	63bb      	str	r3, [r7, #56]	; 0x38
  RCC_OscInitStruct.PLL.PLLSource = RCC_PLLSOURCE_HSE;
 8001112:	f44f 0380 	mov.w	r3, #4194304	; 0x400000
 8001116:	63fb      	str	r3, [r7, #60]	; 0x3c
  RCC_OscInitStruct.PLL.PLLM = 8;
 8001118:	2308      	movs	r3, #8
 800111a:	643b      	str	r3, [r7, #64]	; 0x40
  RCC_OscInitStruct.PLL.PLLN = 336;
 800111c:	f44f 73a8 	mov.w	r3, #336	; 0x150
 8001120:	647b      	str	r3, [r7, #68]	; 0x44
  RCC_OscInitStruct.PLL.PLLP = RCC_PLLP_DIV2;
 8001122:	2302      	movs	r3, #2
 8001124:	64bb      	str	r3, [r7, #72]	; 0x48
  RCC_OscInitStruct.PLL.PLLQ = 7;
 8001126:	2307      	movs	r3, #7
 8001128:	64fb      	str	r3, [r7, #76]	; 0x4c
  if (HAL_RCC_OscConfig(&RCC_OscInitStruct) != HAL_OK)
 800112a:	f107 0320 	add.w	r3, r7, #32
 800112e:	4618      	mov	r0, r3
 8001130:	f000 fd5c 	bl	8001bec <HAL_RCC_OscConfig>
 8001134:	4603      	mov	r3, r0
 8001136:	2b00      	cmp	r3, #0
 8001138:	d001      	beq.n	800113e <SystemClock_Config+0x96>
  {
    Error_Handler();
 800113a:	f000 f899 	bl	8001270 <Error_Handler>
  }
  /** Initializes the CPU, AHB and APB buses clocks
  */
  RCC_ClkInitStruct.ClockType = RCC_CLOCKTYPE_HCLK|RCC_CLOCKTYPE_SYSCLK
 800113e:	230f      	movs	r3, #15
 8001140:	60fb      	str	r3, [r7, #12]
                              |RCC_CLOCKTYPE_PCLK1|RCC_CLOCKTYPE_PCLK2;
  RCC_ClkInitStruct.SYSCLKSource = RCC_SYSCLKSOURCE_PLLCLK;
 8001142:	2302      	movs	r3, #2
 8001144:	613b      	str	r3, [r7, #16]
  RCC_ClkInitStruct.AHBCLKDivider = RCC_SYSCLK_DIV1;
 8001146:	2300      	movs	r3, #0
 8001148:	617b      	str	r3, [r7, #20]
  RCC_ClkInitStruct.APB1CLKDivider = RCC_HCLK_DIV4;
 800114a:	f44f 53a0 	mov.w	r3, #5120	; 0x1400
 800114e:	61bb      	str	r3, [r7, #24]
  RCC_ClkInitStruct.APB2CLKDivider = RCC_HCLK_DIV2;
 8001150:	f44f 5380 	mov.w	r3, #4096	; 0x1000
 8001154:	61fb      	str	r3, [r7, #28]

  if (HAL_RCC_ClockConfig(&RCC_ClkInitStruct, FLASH_LATENCY_5) != HAL_OK)
 8001156:	f107 030c 	add.w	r3, r7, #12
 800115a:	2105      	movs	r1, #5
 800115c:	4618      	mov	r0, r3
 800115e:	f000 ffbd 	bl	80020dc <HAL_RCC_ClockConfig>
 8001162:	4603      	mov	r3, r0
 8001164:	2b00      	cmp	r3, #0
 8001166:	d001      	beq.n	800116c <SystemClock_Config+0xc4>
  {
    Error_Handler();
 8001168:	f000 f882 	bl	8001270 <Error_Handler>
  }
}
 800116c:	bf00      	nop
 800116e:	3750      	adds	r7, #80	; 0x50
 8001170:	46bd      	mov	sp, r7
 8001172:	bd80      	pop	{r7, pc}
 8001174:	40023800 	.word	0x40023800
 8001178:	40007000 	.word	0x40007000

0800117c <MX_GPIO_Init>:
  * @brief GPIO Initialization Function
  * @param None
  * @retval None
  */
static void MX_GPIO_Init(void)
{
 800117c:	b580      	push	{r7, lr}
 800117e:	b088      	sub	sp, #32
 8001180:	af00      	add	r7, sp, #0
  GPIO_InitTypeDef GPIO_InitStruct = {0};
 8001182:	f107 030c 	add.w	r3, r7, #12
 8001186:	2200      	movs	r2, #0
 8001188:	601a      	str	r2, [r3, #0]
 800118a:	605a      	str	r2, [r3, #4]
 800118c:	609a      	str	r2, [r3, #8]
 800118e:	60da      	str	r2, [r3, #12]
 8001190:	611a      	str	r2, [r3, #16]

  /* GPIO Ports Clock Enable */
  __HAL_RCC_GPIOH_CLK_ENABLE();
 8001192:	2300      	movs	r3, #0
 8001194:	60bb      	str	r3, [r7, #8]
 8001196:	4b2a      	ldr	r3, [pc, #168]	; (8001240 <MX_GPIO_Init+0xc4>)
 8001198:	6b1b      	ldr	r3, [r3, #48]	; 0x30
 800119a:	4a29      	ldr	r2, [pc, #164]	; (8001240 <MX_GPIO_Init+0xc4>)
 800119c:	f043 0380 	orr.w	r3, r3, #128	; 0x80
 80011a0:	6313      	str	r3, [r2, #48]	; 0x30
 80011a2:	4b27      	ldr	r3, [pc, #156]	; (8001240 <MX_GPIO_Init+0xc4>)
 80011a4:	6b1b      	ldr	r3, [r3, #48]	; 0x30
 80011a6:	f003 0380 	and.w	r3, r3, #128	; 0x80
 80011aa:	60bb      	str	r3, [r7, #8]
 80011ac:	68bb      	ldr	r3, [r7, #8]
  __HAL_RCC_GPIOD_CLK_ENABLE();
 80011ae:	2300      	movs	r3, #0
 80011b0:	607b      	str	r3, [r7, #4]
 80011b2:	4b23      	ldr	r3, [pc, #140]	; (8001240 <MX_GPIO_Init+0xc4>)
 80011b4:	6b1b      	ldr	r3, [r3, #48]	; 0x30
 80011b6:	4a22      	ldr	r2, [pc, #136]	; (8001240 <MX_GPIO_Init+0xc4>)
 80011b8:	f043 0308 	orr.w	r3, r3, #8
 80011bc:	6313      	str	r3, [r2, #48]	; 0x30
 80011be:	4b20      	ldr	r3, [pc, #128]	; (8001240 <MX_GPIO_Init+0xc4>)
 80011c0:	6b1b      	ldr	r3, [r3, #48]	; 0x30
 80011c2:	f003 0308 	and.w	r3, r3, #8
 80011c6:	607b      	str	r3, [r7, #4]
 80011c8:	687b      	ldr	r3, [r7, #4]
  __HAL_RCC_GPIOB_CLK_ENABLE();
 80011ca:	2300      	movs	r3, #0
 80011cc:	603b      	str	r3, [r7, #0]
 80011ce:	4b1c      	ldr	r3, [pc, #112]	; (8001240 <MX_GPIO_Init+0xc4>)
 80011d0:	6b1b      	ldr	r3, [r3, #48]	; 0x30
 80011d2:	4a1b      	ldr	r2, [pc, #108]	; (8001240 <MX_GPIO_Init+0xc4>)
 80011d4:	f043 0302 	orr.w	r3, r3, #2
 80011d8:	6313      	str	r3, [r2, #48]	; 0x30
 80011da:	4b19      	ldr	r3, [pc, #100]	; (8001240 <MX_GPIO_Init+0xc4>)
 80011dc:	6b1b      	ldr	r3, [r3, #48]	; 0x30
 80011de:	f003 0302 	and.w	r3, r3, #2
 80011e2:	603b      	str	r3, [r7, #0]
 80011e4:	683b      	ldr	r3, [r7, #0]

  /*Configure GPIO pin Output Level */
  HAL_GPIO_WritePin(GPIOD, GPIO_PIN_12|GPIO_PIN_13|GPIO_PIN_14|GPIO_PIN_15
 80011e6:	2200      	movs	r2, #0
 80011e8:	f24f 01ff 	movw	r1, #61695	; 0xf0ff
 80011ec:	4815      	ldr	r0, [pc, #84]	; (8001244 <MX_GPIO_Init+0xc8>)
 80011ee:	f000 fce3 	bl	8001bb8 <HAL_GPIO_WritePin>
                          |D0_Pin|D1_Pin|D2_Pin|D3_Pin
                          |D4_Pin|D5_Pin|D6_Pin|D7_Pin, GPIO_PIN_RESET);

  /*Configure GPIO pin Output Level */
  HAL_GPIO_WritePin(GPIOB, RS_Pin|E_Pin, GPIO_PIN_RESET);
 80011f2:	2200      	movs	r2, #0
 80011f4:	2118      	movs	r1, #24
 80011f6:	4814      	ldr	r0, [pc, #80]	; (8001248 <MX_GPIO_Init+0xcc>)
 80011f8:	f000 fcde 	bl	8001bb8 <HAL_GPIO_WritePin>

  /*Configure GPIO pins : PD12 PD13 PD14 PD15
                           D0_Pin D1_Pin D2_Pin D3_Pin
                           D4_Pin D5_Pin D6_Pin D7_Pin */
  GPIO_InitStruct.Pin = GPIO_PIN_12|GPIO_PIN_13|GPIO_PIN_14|GPIO_PIN_15
 80011fc:	f24f 03ff 	movw	r3, #61695	; 0xf0ff
 8001200:	60fb      	str	r3, [r7, #12]
                          |D0_Pin|D1_Pin|D2_Pin|D3_Pin
                          |D4_Pin|D5_Pin|D6_Pin|D7_Pin;
  GPIO_InitStruct.Mode = GPIO_MODE_OUTPUT_PP;
 8001202:	2301      	movs	r3, #1
 8001204:	613b      	str	r3, [r7, #16]
  GPIO_InitStruct.Pull = GPIO_NOPULL;
 8001206:	2300      	movs	r3, #0
 8001208:	617b      	str	r3, [r7, #20]
  GPIO_InitStruct.Speed = GPIO_SPEED_FREQ_LOW;
 800120a:	2300      	movs	r3, #0
 800120c:	61bb      	str	r3, [r7, #24]
  HAL_GPIO_Init(GPIOD, &GPIO_InitStruct);
 800120e:	f107 030c 	add.w	r3, r7, #12
 8001212:	4619      	mov	r1, r3
 8001214:	480b      	ldr	r0, [pc, #44]	; (8001244 <MX_GPIO_Init+0xc8>)
 8001216:	f000 fb33 	bl	8001880 <HAL_GPIO_Init>

  /*Configure GPIO pins : RS_Pin E_Pin */
  GPIO_InitStruct.Pin = RS_Pin|E_Pin;
 800121a:	2318      	movs	r3, #24
 800121c:	60fb      	str	r3, [r7, #12]
  GPIO_InitStruct.Mode = GPIO_MODE_OUTPUT_PP;
 800121e:	2301      	movs	r3, #1
 8001220:	613b      	str	r3, [r7, #16]
  GPIO_InitStruct.Pull = GPIO_NOPULL;
 8001222:	2300      	movs	r3, #0
 8001224:	617b      	str	r3, [r7, #20]
  GPIO_InitStruct.Speed = GPIO_SPEED_FREQ_LOW;
 8001226:	2300      	movs	r3, #0
 8001228:	61bb      	str	r3, [r7, #24]
  HAL_GPIO_Init(GPIOB, &GPIO_InitStruct);
 800122a:	f107 030c 	add.w	r3, r7, #12
 800122e:	4619      	mov	r1, r3
 8001230:	4805      	ldr	r0, [pc, #20]	; (8001248 <MX_GPIO_Init+0xcc>)
 8001232:	f000 fb25 	bl	8001880 <HAL_GPIO_Init>

}
 8001236:	bf00      	nop
 8001238:	3720      	adds	r7, #32
 800123a:	46bd      	mov	sp, r7
 800123c:	bd80      	pop	{r7, pc}
 800123e:	bf00      	nop
 8001240:	40023800 	.word	0x40023800
 8001244:	40020c00 	.word	0x40020c00
 8001248:	40020400 	.word	0x40020400

0800124c <HAL_TIM_PeriodElapsedCallback>:
  * a global variable "uwTick" used as application time base.
  * @param  htim : TIM handle
  * @retval None
  */
void HAL_TIM_PeriodElapsedCallback(TIM_HandleTypeDef *htim)
{
 800124c:	b580      	push	{r7, lr}
 800124e:	b082      	sub	sp, #8
 8001250:	af00      	add	r7, sp, #0
 8001252:	6078      	str	r0, [r7, #4]
  /* USER CODE BEGIN Callback 0 */

  /* USER CODE END Callback 0 */
  if (htim->Instance == TIM1) {
 8001254:	687b      	ldr	r3, [r7, #4]
 8001256:	681b      	ldr	r3, [r3, #0]
 8001258:	4a04      	ldr	r2, [pc, #16]	; (800126c <HAL_TIM_PeriodElapsedCallback+0x20>)
 800125a:	4293      	cmp	r3, r2
 800125c:	d101      	bne.n	8001262 <HAL_TIM_PeriodElapsedCallback+0x16>
    HAL_IncTick();
 800125e:	f000 f9e9 	bl	8001634 <HAL_IncTick>
  }
  /* USER CODE BEGIN Callback 1 */

  /* USER CODE END Callback 1 */
}
 8001262:	bf00      	nop
 8001264:	3708      	adds	r7, #8
 8001266:	46bd      	mov	sp, r7
 8001268:	bd80      	pop	{r7, pc}
 800126a:	bf00      	nop
 800126c:	40010000 	.word	0x40010000

08001270 <Error_Handler>:
/**
  * @brief  This function is executed in case of error occurrence.
  * @retval None
  */
void Error_Handler(void)
{
 8001270:	b480      	push	{r7}
 8001272:	af00      	add	r7, sp, #0
  \details Disables IRQ interrupts by setting the I-bit in the CPSR.
           Can only be executed in Privileged modes.
 */
__STATIC_FORCEINLINE void __disable_irq(void)
{
  __ASM volatile ("cpsid i" : : : "memory");
 8001274:	b672      	cpsid	i
}
 8001276:	bf00      	nop
  /* USER CODE BEGIN Error_Handler_Debug */
  /* User can add his own implementation to report the HAL error return state */
  __disable_irq();
  while (1)
 8001278:	e7fe      	b.n	8001278 <Error_Handler+0x8>
	...

0800127c <HAL_MspInit>:
/* USER CODE END 0 */
/**
  * Initializes the Global MSP.
  */
void HAL_MspInit(void)
{
 800127c:	b580      	push	{r7, lr}
 800127e:	b082      	sub	sp, #8
 8001280:	af00      	add	r7, sp, #0
  /* USER CODE BEGIN MspInit 0 */

  /* USER CODE END MspInit 0 */

  __HAL_RCC_SYSCFG_CLK_ENABLE();
 8001282:	2300      	movs	r3, #0
 8001284:	607b      	str	r3, [r7, #4]
 8001286:	4b10      	ldr	r3, [pc, #64]	; (80012c8 <HAL_MspInit+0x4c>)
 8001288:	6c5b      	ldr	r3, [r3, #68]	; 0x44
 800128a:	4a0f      	ldr	r2, [pc, #60]	; (80012c8 <HAL_MspInit+0x4c>)
 800128c:	f443 4380 	orr.w	r3, r3, #16384	; 0x4000
 8001290:	6453      	str	r3, [r2, #68]	; 0x44
 8001292:	4b0d      	ldr	r3, [pc, #52]	; (80012c8 <HAL_MspInit+0x4c>)
 8001294:	6c5b      	ldr	r3, [r3, #68]	; 0x44
 8001296:	f403 4380 	and.w	r3, r3, #16384	; 0x4000
 800129a:	607b      	str	r3, [r7, #4]
 800129c:	687b      	ldr	r3, [r7, #4]
  __HAL_RCC_PWR_CLK_ENABLE();
 800129e:	2300      	movs	r3, #0
 80012a0:	603b      	str	r3, [r7, #0]
 80012a2:	4b09      	ldr	r3, [pc, #36]	; (80012c8 <HAL_MspInit+0x4c>)
 80012a4:	6c1b      	ldr	r3, [r3, #64]	; 0x40
 80012a6:	4a08      	ldr	r2, [pc, #32]	; (80012c8 <HAL_MspInit+0x4c>)
 80012a8:	f043 5380 	orr.w	r3, r3, #268435456	; 0x10000000
 80012ac:	6413      	str	r3, [r2, #64]	; 0x40
 80012ae:	4b06      	ldr	r3, [pc, #24]	; (80012c8 <HAL_MspInit+0x4c>)
 80012b0:	6c1b      	ldr	r3, [r3, #64]	; 0x40
 80012b2:	f003 5380 	and.w	r3, r3, #268435456	; 0x10000000
 80012b6:	603b      	str	r3, [r7, #0]
 80012b8:	683b      	ldr	r3, [r7, #0]

  HAL_NVIC_SetPriorityGrouping(NVIC_PRIORITYGROUP_0);
 80012ba:	2007      	movs	r0, #7
 80012bc:	f000 faab 	bl	8001816 <HAL_NVIC_SetPriorityGrouping>
  /* System interrupt init*/

  /* USER CODE BEGIN MspInit 1 */

  /* USER CODE END MspInit 1 */
}
 80012c0:	bf00      	nop
 80012c2:	3708      	adds	r7, #8
 80012c4:	46bd      	mov	sp, r7
 80012c6:	bd80      	pop	{r7, pc}
 80012c8:	40023800 	.word	0x40023800

080012cc <HAL_InitTick>:
  *         reset by HAL_Init() or at any time when clock is configured, by HAL_RCC_ClockConfig().
  * @param  TickPriority: Tick interrupt priority.
  * @retval HAL status
  */
HAL_StatusTypeDef HAL_InitTick(uint32_t TickPriority)
{
 80012cc:	b580      	push	{r7, lr}
 80012ce:	b08c      	sub	sp, #48	; 0x30
 80012d0:	af00      	add	r7, sp, #0
 80012d2:	6078      	str	r0, [r7, #4]
  RCC_ClkInitTypeDef    clkconfig;
  uint32_t              uwTimclock = 0;
 80012d4:	2300      	movs	r3, #0
 80012d6:	62fb      	str	r3, [r7, #44]	; 0x2c
  uint32_t              uwPrescalerValue = 0;
 80012d8:	2300      	movs	r3, #0
 80012da:	62bb      	str	r3, [r7, #40]	; 0x28
  uint32_t              pFLatency;
  /*Configure the TIM1 IRQ priority */
  HAL_NVIC_SetPriority(TIM1_UP_TIM10_IRQn, TickPriority ,0);
 80012dc:	2200      	movs	r2, #0
 80012de:	6879      	ldr	r1, [r7, #4]
 80012e0:	2019      	movs	r0, #25
 80012e2:	f000 faa3 	bl	800182c <HAL_NVIC_SetPriority>

  /* Enable the TIM1 global Interrupt */
  HAL_NVIC_EnableIRQ(TIM1_UP_TIM10_IRQn);
 80012e6:	2019      	movs	r0, #25
 80012e8:	f000 fabc 	bl	8001864 <HAL_NVIC_EnableIRQ>

  /* Enable TIM1 clock */
  __HAL_RCC_TIM1_CLK_ENABLE();
 80012ec:	2300      	movs	r3, #0
 80012ee:	60fb      	str	r3, [r7, #12]
 80012f0:	4b1f      	ldr	r3, [pc, #124]	; (8001370 <HAL_InitTick+0xa4>)
 80012f2:	6c5b      	ldr	r3, [r3, #68]	; 0x44
 80012f4:	4a1e      	ldr	r2, [pc, #120]	; (8001370 <HAL_InitTick+0xa4>)
 80012f6:	f043 0301 	orr.w	r3, r3, #1
 80012fa:	6453      	str	r3, [r2, #68]	; 0x44
 80012fc:	4b1c      	ldr	r3, [pc, #112]	; (8001370 <HAL_InitTick+0xa4>)
 80012fe:	6c5b      	ldr	r3, [r3, #68]	; 0x44
 8001300:	f003 0301 	and.w	r3, r3, #1
 8001304:	60fb      	str	r3, [r7, #12]
 8001306:	68fb      	ldr	r3, [r7, #12]

  /* Get clock configuration */
  HAL_RCC_GetClockConfig(&clkconfig, &pFLatency);
 8001308:	f107 0210 	add.w	r2, r7, #16
 800130c:	f107 0314 	add.w	r3, r7, #20
 8001310:	4611      	mov	r1, r2
 8001312:	4618      	mov	r0, r3
 8001314:	f001 f8ca 	bl	80024ac <HAL_RCC_GetClockConfig>

  /* Compute TIM1 clock */
  uwTimclock = 2*HAL_RCC_GetPCLK2Freq();
 8001318:	f001 f8b4 	bl	8002484 <HAL_RCC_GetPCLK2Freq>
 800131c:	4603      	mov	r3, r0
 800131e:	005b      	lsls	r3, r3, #1
 8001320:	62fb      	str	r3, [r7, #44]	; 0x2c
  /* Compute the prescaler value to have TIM1 counter clock equal to 1MHz */
  uwPrescalerValue = (uint32_t) ((uwTimclock / 1000000U) - 1U);
 8001322:	6afb      	ldr	r3, [r7, #44]	; 0x2c
 8001324:	4a13      	ldr	r2, [pc, #76]	; (8001374 <HAL_InitTick+0xa8>)
 8001326:	fba2 2303 	umull	r2, r3, r2, r3
 800132a:	0c9b      	lsrs	r3, r3, #18
 800132c:	3b01      	subs	r3, #1
 800132e:	62bb      	str	r3, [r7, #40]	; 0x28

  /* Initialize TIM1 */
  htim1.Instance = TIM1;
 8001330:	4b11      	ldr	r3, [pc, #68]	; (8001378 <HAL_InitTick+0xac>)
 8001332:	4a12      	ldr	r2, [pc, #72]	; (800137c <HAL_InitTick+0xb0>)
 8001334:	601a      	str	r2, [r3, #0]
  + Period = [(TIM1CLK/1000) - 1]. to have a (1/1000) s time base.
  + Prescaler = (uwTimclock/1000000 - 1) to have a 1MHz counter clock.
  + ClockDivision = 0
  + Counter direction = Up
  */
  htim1.Init.Period = (1000000U / 1000U) - 1U;
 8001336:	4b10      	ldr	r3, [pc, #64]	; (8001378 <HAL_InitTick+0xac>)
 8001338:	f240 32e7 	movw	r2, #999	; 0x3e7
 800133c:	60da      	str	r2, [r3, #12]
  htim1.Init.Prescaler = uwPrescalerValue;
 800133e:	4a0e      	ldr	r2, [pc, #56]	; (8001378 <HAL_InitTick+0xac>)
 8001340:	6abb      	ldr	r3, [r7, #40]	; 0x28
 8001342:	6053      	str	r3, [r2, #4]
  htim1.Init.ClockDivision = 0;
 8001344:	4b0c      	ldr	r3, [pc, #48]	; (8001378 <HAL_InitTick+0xac>)
 8001346:	2200      	movs	r2, #0
 8001348:	611a      	str	r2, [r3, #16]
  htim1.Init.CounterMode = TIM_COUNTERMODE_UP;
 800134a:	4b0b      	ldr	r3, [pc, #44]	; (8001378 <HAL_InitTick+0xac>)
 800134c:	2200      	movs	r2, #0
 800134e:	609a      	str	r2, [r3, #8]

  if(HAL_TIM_Base_Init(&htim1) == HAL_OK)
 8001350:	4809      	ldr	r0, [pc, #36]	; (8001378 <HAL_InitTick+0xac>)
 8001352:	f001 f8dd 	bl	8002510 <HAL_TIM_Base_Init>
 8001356:	4603      	mov	r3, r0
 8001358:	2b00      	cmp	r3, #0
 800135a:	d104      	bne.n	8001366 <HAL_InitTick+0x9a>
  {
    /* Start the TIM time Base generation in interrupt mode */
    return HAL_TIM_Base_Start_IT(&htim1);
 800135c:	4806      	ldr	r0, [pc, #24]	; (8001378 <HAL_InitTick+0xac>)
 800135e:	f001 f931 	bl	80025c4 <HAL_TIM_Base_Start_IT>
 8001362:	4603      	mov	r3, r0
 8001364:	e000      	b.n	8001368 <HAL_InitTick+0x9c>
  }

  /* Return function status */
  return HAL_ERROR;
 8001366:	2301      	movs	r3, #1
}
 8001368:	4618      	mov	r0, r3
 800136a:	3730      	adds	r7, #48	; 0x30
 800136c:	46bd      	mov	sp, r7
 800136e:	bd80      	pop	{r7, pc}
 8001370:	40023800 	.word	0x40023800
 8001374:	431bde83 	.word	0x431bde83
 8001378:	20000224 	.word	0x20000224
 800137c:	40010000 	.word	0x40010000

08001380 <NMI_Handler>:
/******************************************************************************/
/**
  * @brief This function handles Non maskable interrupt.
  */
void NMI_Handler(void)
{
 8001380:	b480      	push	{r7}
 8001382:	af00      	add	r7, sp, #0
  /* USER CODE BEGIN NonMaskableInt_IRQn 0 */

  /* USER CODE END NonMaskableInt_IRQn 0 */
  /* USER CODE BEGIN NonMaskableInt_IRQn 1 */
  while (1)
 8001384:	e7fe      	b.n	8001384 <NMI_Handler+0x4>

08001386 <HardFault_Handler>:

/**
  * @brief This function handles Hard fault interrupt.
  */
void HardFault_Handler(void)
{
 8001386:	b480      	push	{r7}
 8001388:	af00      	add	r7, sp, #0
  /* USER CODE BEGIN HardFault_IRQn 0 */

  /* USER CODE END HardFault_IRQn 0 */
  while (1)
 800138a:	e7fe      	b.n	800138a <HardFault_Handler+0x4>

0800138c <MemManage_Handler>:

/**
  * @brief This function handles Memory management fault.
  */
void MemManage_Handler(void)
{
 800138c:	b480      	push	{r7}
 800138e:	af00      	add	r7, sp, #0
  /* USER CODE BEGIN MemoryManagement_IRQn 0 */

  /* USER CODE END MemoryManagement_IRQn 0 */
  while (1)
 8001390:	e7fe      	b.n	8001390 <MemManage_Handler+0x4>

08001392 <BusFault_Handler>:

/**
  * @brief This function handles Pre-fetch fault, memory access fault.
  */
void BusFault_Handler(void)
{
 8001392:	b480      	push	{r7}
 8001394:	af00      	add	r7, sp, #0
  /* USER CODE BEGIN BusFault_IRQn 0 */

  /* USER CODE END BusFault_IRQn 0 */
  while (1)
 8001396:	e7fe      	b.n	8001396 <BusFault_Handler+0x4>

08001398 <UsageFault_Handler>:

/**
  * @brief This function handles Undefined instruction or illegal state.
  */
void UsageFault_Handler(void)
{
 8001398:	b480      	push	{r7}
 800139a:	af00      	add	r7, sp, #0
  /* USER CODE BEGIN UsageFault_IRQn 0 */

  /* USER CODE END UsageFault_IRQn 0 */
  while (1)
 800139c:	e7fe      	b.n	800139c <UsageFault_Handler+0x4>

0800139e <SVC_Handler>:

/**
  * @brief This function handles System service call via SWI instruction.
  */
void SVC_Handler(void)
{
 800139e:	b480      	push	{r7}
 80013a0:	af00      	add	r7, sp, #0

  /* USER CODE END SVCall_IRQn 0 */
  /* USER CODE BEGIN SVCall_IRQn 1 */

  /* USER CODE END SVCall_IRQn 1 */
}
 80013a2:	bf00      	nop
 80013a4:	46bd      	mov	sp, r7
 80013a6:	f85d 7b04 	ldr.w	r7, [sp], #4
 80013aa:	4770      	bx	lr

080013ac <DebugMon_Handler>:

/**
  * @brief This function handles Debug monitor.
  */
void DebugMon_Handler(void)
{
 80013ac:	b480      	push	{r7}
 80013ae:	af00      	add	r7, sp, #0

  /* USER CODE END DebugMonitor_IRQn 0 */
  /* USER CODE BEGIN DebugMonitor_IRQn 1 */

  /* USER CODE END DebugMonitor_IRQn 1 */
}
 80013b0:	bf00      	nop
 80013b2:	46bd      	mov	sp, r7
 80013b4:	f85d 7b04 	ldr.w	r7, [sp], #4
 80013b8:	4770      	bx	lr

080013ba <PendSV_Handler>:

/**
  * @brief This function handles Pendable request for system service.
  */
void PendSV_Handler(void)
{
 80013ba:	b480      	push	{r7}
 80013bc:	af00      	add	r7, sp, #0

  /* USER CODE END PendSV_IRQn 0 */
  /* USER CODE BEGIN PendSV_IRQn 1 */

  /* USER CODE END PendSV_IRQn 1 */
}
 80013be:	bf00      	nop
 80013c0:	46bd      	mov	sp, r7
 80013c2:	f85d 7b04 	ldr.w	r7, [sp], #4
 80013c6:	4770      	bx	lr

080013c8 <SysTick_Handler>:

/**
  * @brief This function handles System tick timer.
  */
void SysTick_Handler(void)
{
 80013c8:	b480      	push	{r7}
 80013ca:	af00      	add	r7, sp, #0
  /* USER CODE END SysTick_IRQn 0 */

  /* USER CODE BEGIN SysTick_IRQn 1 */

  /* USER CODE END SysTick_IRQn 1 */
}
 80013cc:	bf00      	nop
 80013ce:	46bd      	mov	sp, r7
 80013d0:	f85d 7b04 	ldr.w	r7, [sp], #4
 80013d4:	4770      	bx	lr
	...

080013d8 <TIM1_UP_TIM10_IRQHandler>:

/**
  * @brief This function handles TIM1 update interrupt and TIM10 global interrupt.
  */
void TIM1_UP_TIM10_IRQHandler(void)
{
 80013d8:	b580      	push	{r7, lr}
 80013da:	af00      	add	r7, sp, #0
  /* USER CODE BEGIN TIM1_UP_TIM10_IRQn 0 */

  /* USER CODE END TIM1_UP_TIM10_IRQn 0 */
  HAL_TIM_IRQHandler(&htim1);
 80013dc:	4802      	ldr	r0, [pc, #8]	; (80013e8 <TIM1_UP_TIM10_IRQHandler+0x10>)
 80013de:	f001 f961 	bl	80026a4 <HAL_TIM_IRQHandler>
  /* USER CODE BEGIN TIM1_UP_TIM10_IRQn 1 */

  /* USER CODE END TIM1_UP_TIM10_IRQn 1 */
}
 80013e2:	bf00      	nop
 80013e4:	bd80      	pop	{r7, pc}
 80013e6:	bf00      	nop
 80013e8:	20000224 	.word	0x20000224

080013ec <_getpid>:
 80013ec:	b480      	push	{r7}
 80013ee:	af00      	add	r7, sp, #0
 80013f0:	2301      	movs	r3, #1
 80013f2:	4618      	mov	r0, r3
 80013f4:	46bd      	mov	sp, r7
 80013f6:	f85d 7b04 	ldr.w	r7, [sp], #4
 80013fa:	4770      	bx	lr

080013fc <_kill>:
 80013fc:	b580      	push	{r7, lr}
 80013fe:	b082      	sub	sp, #8
 8001400:	af00      	add	r7, sp, #0
 8001402:	6078      	str	r0, [r7, #4]
 8001404:	6039      	str	r1, [r7, #0]
 8001406:	f001 fdd9 	bl	8002fbc <__errno>
 800140a:	4603      	mov	r3, r0
 800140c:	2216      	movs	r2, #22
 800140e:	601a      	str	r2, [r3, #0]
 8001410:	f04f 33ff 	mov.w	r3, #4294967295
 8001414:	4618      	mov	r0, r3
 8001416:	3708      	adds	r7, #8
 8001418:	46bd      	mov	sp, r7
 800141a:	bd80      	pop	{r7, pc}

0800141c <_exit>:
 800141c:	b580      	push	{r7, lr}
 800141e:	b082      	sub	sp, #8
 8001420:	af00      	add	r7, sp, #0
 8001422:	6078      	str	r0, [r7, #4]
 8001424:	f04f 31ff 	mov.w	r1, #4294967295
 8001428:	6878      	ldr	r0, [r7, #4]
 800142a:	f7ff ffe7 	bl	80013fc <_kill>
 800142e:	e7fe      	b.n	800142e <_exit+0x12>

08001430 <_read>:
 8001430:	b580      	push	{r7, lr}
 8001432:	b086      	sub	sp, #24
 8001434:	af00      	add	r7, sp, #0
 8001436:	60f8      	str	r0, [r7, #12]
 8001438:	60b9      	str	r1, [r7, #8]
 800143a:	607a      	str	r2, [r7, #4]
 800143c:	2300      	movs	r3, #0
 800143e:	617b      	str	r3, [r7, #20]
 8001440:	e00a      	b.n	8001458 <_read+0x28>
 8001442:	f3af 8000 	nop.w
 8001446:	4601      	mov	r1, r0
 8001448:	68bb      	ldr	r3, [r7, #8]
 800144a:	1c5a      	adds	r2, r3, #1
 800144c:	60ba      	str	r2, [r7, #8]
 800144e:	b2ca      	uxtb	r2, r1
 8001450:	701a      	strb	r2, [r3, #0]
 8001452:	697b      	ldr	r3, [r7, #20]
 8001454:	3301      	adds	r3, #1
 8001456:	617b      	str	r3, [r7, #20]
 8001458:	697a      	ldr	r2, [r7, #20]
 800145a:	687b      	ldr	r3, [r7, #4]
 800145c:	429a      	cmp	r2, r3
 800145e:	dbf0      	blt.n	8001442 <_read+0x12>
 8001460:	687b      	ldr	r3, [r7, #4]
 8001462:	4618      	mov	r0, r3
 8001464:	3718      	adds	r7, #24
 8001466:	46bd      	mov	sp, r7
 8001468:	bd80      	pop	{r7, pc}

0800146a <_write>:
 800146a:	b580      	push	{r7, lr}
 800146c:	b086      	sub	sp, #24
 800146e:	af00      	add	r7, sp, #0
 8001470:	60f8      	str	r0, [r7, #12]
 8001472:	60b9      	str	r1, [r7, #8]
 8001474:	607a      	str	r2, [r7, #4]
 8001476:	2300      	movs	r3, #0
 8001478:	617b      	str	r3, [r7, #20]
 800147a:	e009      	b.n	8001490 <_write+0x26>
 800147c:	68bb      	ldr	r3, [r7, #8]
 800147e:	1c5a      	adds	r2, r3, #1
 8001480:	60ba      	str	r2, [r7, #8]
 8001482:	781b      	ldrb	r3, [r3, #0]
 8001484:	4618      	mov	r0, r3
 8001486:	f3af 8000 	nop.w
 800148a:	697b      	ldr	r3, [r7, #20]
 800148c:	3301      	adds	r3, #1
 800148e:	617b      	str	r3, [r7, #20]
 8001490:	697a      	ldr	r2, [r7, #20]
 8001492:	687b      	ldr	r3, [r7, #4]
 8001494:	429a      	cmp	r2, r3
 8001496:	dbf1      	blt.n	800147c <_write+0x12>
 8001498:	687b      	ldr	r3, [r7, #4]
 800149a:	4618      	mov	r0, r3
 800149c:	3718      	adds	r7, #24
 800149e:	46bd      	mov	sp, r7
 80014a0:	bd80      	pop	{r7, pc}

080014a2 <_close>:
 80014a2:	b480      	push	{r7}
 80014a4:	b083      	sub	sp, #12
 80014a6:	af00      	add	r7, sp, #0
 80014a8:	6078      	str	r0, [r7, #4]
 80014aa:	f04f 33ff 	mov.w	r3, #4294967295
 80014ae:	4618      	mov	r0, r3
 80014b0:	370c      	adds	r7, #12
 80014b2:	46bd      	mov	sp, r7
 80014b4:	f85d 7b04 	ldr.w	r7, [sp], #4
 80014b8:	4770      	bx	lr

080014ba <_fstat>:
 80014ba:	b480      	push	{r7}
 80014bc:	b083      	sub	sp, #12
 80014be:	af00      	add	r7, sp, #0
 80014c0:	6078      	str	r0, [r7, #4]
 80014c2:	6039      	str	r1, [r7, #0]
 80014c4:	683b      	ldr	r3, [r7, #0]
 80014c6:	f44f 5200 	mov.w	r2, #8192	; 0x2000
 80014ca:	605a      	str	r2, [r3, #4]
 80014cc:	2300      	movs	r3, #0
 80014ce:	4618      	mov	r0, r3
 80014d0:	370c      	adds	r7, #12
 80014d2:	46bd      	mov	sp, r7
 80014d4:	f85d 7b04 	ldr.w	r7, [sp], #4
 80014d8:	4770      	bx	lr

080014da <_isatty>:
 80014da:	b480      	push	{r7}
 80014dc:	b083      	sub	sp, #12
 80014de:	af00      	add	r7, sp, #0
 80014e0:	6078      	str	r0, [r7, #4]
 80014e2:	2301      	movs	r3, #1
 80014e4:	4618      	mov	r0, r3
 80014e6:	370c      	adds	r7, #12
 80014e8:	46bd      	mov	sp, r7
 80014ea:	f85d 7b04 	ldr.w	r7, [sp], #4
 80014ee:	4770      	bx	lr

080014f0 <_lseek>:
 80014f0:	b480      	push	{r7}
 80014f2:	b085      	sub	sp, #20
 80014f4:	af00      	add	r7, sp, #0
 80014f6:	60f8      	str	r0, [r7, #12]
 80014f8:	60b9      	str	r1, [r7, #8]
 80014fa:	607a      	str	r2, [r7, #4]
 80014fc:	2300      	movs	r3, #0
 80014fe:	4618      	mov	r0, r3
 8001500:	3714      	adds	r7, #20
 8001502:	46bd      	mov	sp, r7
 8001504:	f85d 7b04 	ldr.w	r7, [sp], #4
 8001508:	4770      	bx	lr
	...

0800150c <_sbrk>:
 800150c:	b580      	push	{r7, lr}
 800150e:	b086      	sub	sp, #24
 8001510:	af00      	add	r7, sp, #0
 8001512:	6078      	str	r0, [r7, #4]
 8001514:	4a14      	ldr	r2, [pc, #80]	; (8001568 <_sbrk+0x5c>)
 8001516:	4b15      	ldr	r3, [pc, #84]	; (800156c <_sbrk+0x60>)
 8001518:	1ad3      	subs	r3, r2, r3
 800151a:	617b      	str	r3, [r7, #20]
 800151c:	697b      	ldr	r3, [r7, #20]
 800151e:	613b      	str	r3, [r7, #16]
 8001520:	4b13      	ldr	r3, [pc, #76]	; (8001570 <_sbrk+0x64>)
 8001522:	681b      	ldr	r3, [r3, #0]
 8001524:	2b00      	cmp	r3, #0
 8001526:	d102      	bne.n	800152e <_sbrk+0x22>
 8001528:	4b11      	ldr	r3, [pc, #68]	; (8001570 <_sbrk+0x64>)
 800152a:	4a12      	ldr	r2, [pc, #72]	; (8001574 <_sbrk+0x68>)
 800152c:	601a      	str	r2, [r3, #0]
 800152e:	4b10      	ldr	r3, [pc, #64]	; (8001570 <_sbrk+0x64>)
 8001530:	681a      	ldr	r2, [r3, #0]
 8001532:	687b      	ldr	r3, [r7, #4]
 8001534:	4413      	add	r3, r2
 8001536:	693a      	ldr	r2, [r7, #16]
 8001538:	429a      	cmp	r2, r3
 800153a:	d207      	bcs.n	800154c <_sbrk+0x40>
 800153c:	f001 fd3e 	bl	8002fbc <__errno>
 8001540:	4603      	mov	r3, r0
 8001542:	220c      	movs	r2, #12
 8001544:	601a      	str	r2, [r3, #0]
 8001546:	f04f 33ff 	mov.w	r3, #4294967295
 800154a:	e009      	b.n	8001560 <_sbrk+0x54>
 800154c:	4b08      	ldr	r3, [pc, #32]	; (8001570 <_sbrk+0x64>)
 800154e:	681b      	ldr	r3, [r3, #0]
 8001550:	60fb      	str	r3, [r7, #12]
 8001552:	4b07      	ldr	r3, [pc, #28]	; (8001570 <_sbrk+0x64>)
 8001554:	681a      	ldr	r2, [r3, #0]
 8001556:	687b      	ldr	r3, [r7, #4]
 8001558:	4413      	add	r3, r2
 800155a:	4a05      	ldr	r2, [pc, #20]	; (8001570 <_sbrk+0x64>)
 800155c:	6013      	str	r3, [r2, #0]
 800155e:	68fb      	ldr	r3, [r7, #12]
 8001560:	4618      	mov	r0, r3
 8001562:	3718      	adds	r7, #24
 8001564:	46bd      	mov	sp, r7
 8001566:	bd80      	pop	{r7, pc}
 8001568:	20020000 	.word	0x20020000
 800156c:	00000400 	.word	0x00000400
 8001570:	200001f8 	.word	0x200001f8
 8001574:	20000280 	.word	0x20000280

08001578 <SystemInit>:
  *         configuration.
  * @param  None
  * @retval None
  */
void SystemInit(void)
{
 8001578:	b480      	push	{r7}
 800157a:	af00      	add	r7, sp, #0
  /* FPU settings ------------------------------------------------------------*/
  #if (__FPU_PRESENT == 1) && (__FPU_USED == 1)
    SCB->CPACR |= ((3UL << 10*2)|(3UL << 11*2));  /* set CP10 and CP11 Full Access */
 800157c:	4b06      	ldr	r3, [pc, #24]	; (8001598 <SystemInit+0x20>)
 800157e:	f8d3 3088 	ldr.w	r3, [r3, #136]	; 0x88
 8001582:	4a05      	ldr	r2, [pc, #20]	; (8001598 <SystemInit+0x20>)
 8001584:	f443 0370 	orr.w	r3, r3, #15728640	; 0xf00000
 8001588:	f8c2 3088 	str.w	r3, [r2, #136]	; 0x88

  /* Configure the Vector Table location -------------------------------------*/
#if defined(USER_VECT_TAB_ADDRESS)
  SCB->VTOR = VECT_TAB_BASE_ADDRESS | VECT_TAB_OFFSET; /* Vector Table Relocation in Internal SRAM */
#endif /* USER_VECT_TAB_ADDRESS */
}
 800158c:	bf00      	nop
 800158e:	46bd      	mov	sp, r7
 8001590:	f85d 7b04 	ldr.w	r7, [sp], #4
 8001594:	4770      	bx	lr
 8001596:	bf00      	nop
 8001598:	e000ed00 	.word	0xe000ed00

0800159c <Reset_Handler>:
 800159c:	f8df d034 	ldr.w	sp, [pc, #52]	; 80015d4 <LoopFillZerobss+0x12>
 80015a0:	480d      	ldr	r0, [pc, #52]	; (80015d8 <LoopFillZerobss+0x16>)
 80015a2:	490e      	ldr	r1, [pc, #56]	; (80015dc <LoopFillZerobss+0x1a>)
 80015a4:	4a0e      	ldr	r2, [pc, #56]	; (80015e0 <LoopFillZerobss+0x1e>)
 80015a6:	2300      	movs	r3, #0
 80015a8:	e002      	b.n	80015b0 <LoopCopyDataInit>

080015aa <CopyDataInit>:
 80015aa:	58d4      	ldr	r4, [r2, r3]
 80015ac:	50c4      	str	r4, [r0, r3]
 80015ae:	3304      	adds	r3, #4

080015b0 <LoopCopyDataInit>:
 80015b0:	18c4      	adds	r4, r0, r3
 80015b2:	428c      	cmp	r4, r1
 80015b4:	d3f9      	bcc.n	80015aa <CopyDataInit>
 80015b6:	4a0b      	ldr	r2, [pc, #44]	; (80015e4 <LoopFillZerobss+0x22>)
 80015b8:	4c0b      	ldr	r4, [pc, #44]	; (80015e8 <LoopFillZerobss+0x26>)
 80015ba:	2300      	movs	r3, #0
 80015bc:	e001      	b.n	80015c2 <LoopFillZerobss>

080015be <FillZerobss>:
 80015be:	6013      	str	r3, [r2, #0]
 80015c0:	3204      	adds	r2, #4

080015c2 <LoopFillZerobss>:
 80015c2:	42a2      	cmp	r2, r4
 80015c4:	d3fb      	bcc.n	80015be <FillZerobss>
 80015c6:	f7ff ffd7 	bl	8001578 <SystemInit>
 80015ca:	f001 fcfd 	bl	8002fc8 <__libc_init_array>
 80015ce:	f7ff fcfd 	bl	8000fcc <main>
 80015d2:	4770      	bx	lr
 80015d4:	20020000 	.word	0x20020000
 80015d8:	20000000 	.word	0x20000000
 80015dc:	200001dc 	.word	0x200001dc
 80015e0:	080061a4 	.word	0x080061a4
 80015e4:	200001dc 	.word	0x200001dc
 80015e8:	20000280 	.word	0x20000280

080015ec <ADC_IRQHandler>:
 80015ec:	e7fe      	b.n	80015ec <ADC_IRQHandler>
	...

080015f0 <HAL_Init>:
  *         need to ensure that the SysTick time base is always set to 1 millisecond
  *         to have correct HAL operation.
  * @retval HAL status
  */
HAL_StatusTypeDef HAL_Init(void)
{
 80015f0:	b580      	push	{r7, lr}
 80015f2:	af00      	add	r7, sp, #0
  /* Configure Flash prefetch, Instruction cache, Data cache */ 
#if (INSTRUCTION_CACHE_ENABLE != 0U)
  __HAL_FLASH_INSTRUCTION_CACHE_ENABLE();
 80015f4:	4b0e      	ldr	r3, [pc, #56]	; (8001630 <HAL_Init+0x40>)
 80015f6:	681b      	ldr	r3, [r3, #0]
 80015f8:	4a0d      	ldr	r2, [pc, #52]	; (8001630 <HAL_Init+0x40>)
 80015fa:	f443 7300 	orr.w	r3, r3, #512	; 0x200
 80015fe:	6013      	str	r3, [r2, #0]
#endif /* INSTRUCTION_CACHE_ENABLE */

#if (DATA_CACHE_ENABLE != 0U)
  __HAL_FLASH_DATA_CACHE_ENABLE();
 8001600:	4b0b      	ldr	r3, [pc, #44]	; (8001630 <HAL_Init+0x40>)
 8001602:	681b      	ldr	r3, [r3, #0]
 8001604:	4a0a      	ldr	r2, [pc, #40]	; (8001630 <HAL_Init+0x40>)
 8001606:	f443 6380 	orr.w	r3, r3, #1024	; 0x400
 800160a:	6013      	str	r3, [r2, #0]
#endif /* DATA_CACHE_ENABLE */

#if (PREFETCH_ENABLE != 0U)
  __HAL_FLASH_PREFETCH_BUFFER_ENABLE();
 800160c:	4b08      	ldr	r3, [pc, #32]	; (8001630 <HAL_Init+0x40>)
 800160e:	681b      	ldr	r3, [r3, #0]
 8001610:	4a07      	ldr	r2, [pc, #28]	; (8001630 <HAL_Init+0x40>)
 8001612:	f443 7380 	orr.w	r3, r3, #256	; 0x100
 8001616:	6013      	str	r3, [r2, #0]
#endif /* PREFETCH_ENABLE */

  /* Set Interrupt Group Priority */
  HAL_NVIC_SetPriorityGrouping(NVIC_PRIORITYGROUP_4);
 8001618:	2003      	movs	r0, #3
 800161a:	f000 f8fc 	bl	8001816 <HAL_NVIC_SetPriorityGrouping>

  /* Use systick as time base source and configure 1ms tick (default clock after Reset is HSI) */
  HAL_InitTick(TICK_INT_PRIORITY);
 800161e:	2000      	movs	r0, #0
 8001620:	f7ff fe54 	bl	80012cc <HAL_InitTick>

  /* Init the low level hardware */
  HAL_MspInit();
 8001624:	f7ff fe2a 	bl	800127c <HAL_MspInit>

  /* Return function status */
  return HAL_OK;
 8001628:	2300      	movs	r3, #0
}
 800162a:	4618      	mov	r0, r3
 800162c:	bd80      	pop	{r7, pc}
 800162e:	bf00      	nop
 8001630:	40023c00 	.word	0x40023c00

08001634 <HAL_IncTick>:
 * @note This function is declared as __weak to be overwritten in case of other 
  *      implementations in user file.
  * @retval None
  */
__weak void HAL_IncTick(void)
{
 8001634:	b480      	push	{r7}
 8001636:	af00      	add	r7, sp, #0
  uwTick += uwTickFreq;
 8001638:	4b06      	ldr	r3, [pc, #24]	; (8001654 <HAL_IncTick+0x20>)
 800163a:	781b      	ldrb	r3, [r3, #0]
 800163c:	461a      	mov	r2, r3
 800163e:	4b06      	ldr	r3, [pc, #24]	; (8001658 <HAL_IncTick+0x24>)
 8001640:	681b      	ldr	r3, [r3, #0]
 8001642:	4413      	add	r3, r2
 8001644:	4a04      	ldr	r2, [pc, #16]	; (8001658 <HAL_IncTick+0x24>)
 8001646:	6013      	str	r3, [r2, #0]
}
 8001648:	bf00      	nop
 800164a:	46bd      	mov	sp, r7
 800164c:	f85d 7b04 	ldr.w	r7, [sp], #4
 8001650:	4770      	bx	lr
 8001652:	bf00      	nop
 8001654:	20000008 	.word	0x20000008
 8001658:	2000026c 	.word	0x2000026c

0800165c <HAL_GetTick>:
  * @note This function is declared as __weak to be overwritten in case of other 
  *       implementations in user file.
  * @retval tick value
  */
__weak uint32_t HAL_GetTick(void)
{
 800165c:	b480      	push	{r7}
 800165e:	af00      	add	r7, sp, #0
  return uwTick;
 8001660:	4b03      	ldr	r3, [pc, #12]	; (8001670 <HAL_GetTick+0x14>)
 8001662:	681b      	ldr	r3, [r3, #0]
}
 8001664:	4618      	mov	r0, r3
 8001666:	46bd      	mov	sp, r7
 8001668:	f85d 7b04 	ldr.w	r7, [sp], #4
 800166c:	4770      	bx	lr
 800166e:	bf00      	nop
 8001670:	2000026c 	.word	0x2000026c

08001674 <HAL_Delay>:
  *       implementations in user file.
  * @param Delay specifies the delay time length, in milliseconds.
  * @retval None
  */
__weak void HAL_Delay(uint32_t Delay)
{
 8001674:	b580      	push	{r7, lr}
 8001676:	b084      	sub	sp, #16
 8001678:	af00      	add	r7, sp, #0
 800167a:	6078      	str	r0, [r7, #4]
  uint32_t tickstart = HAL_GetTick();
 800167c:	f7ff ffee 	bl	800165c <HAL_GetTick>
 8001680:	60b8      	str	r0, [r7, #8]
  uint32_t wait = Delay;
 8001682:	687b      	ldr	r3, [r7, #4]
 8001684:	60fb      	str	r3, [r7, #12]

  /* Add a freq to guarantee minimum wait */
  if (wait < HAL_MAX_DELAY)
 8001686:	68fb      	ldr	r3, [r7, #12]
 8001688:	f1b3 3fff 	cmp.w	r3, #4294967295
 800168c:	d005      	beq.n	800169a <HAL_Delay+0x26>
  {
    wait += (uint32_t)(uwTickFreq);
 800168e:	4b0a      	ldr	r3, [pc, #40]	; (80016b8 <HAL_Delay+0x44>)
 8001690:	781b      	ldrb	r3, [r3, #0]
 8001692:	461a      	mov	r2, r3
 8001694:	68fb      	ldr	r3, [r7, #12]
 8001696:	4413      	add	r3, r2
 8001698:	60fb      	str	r3, [r7, #12]
  }

  while((HAL_GetTick() - tickstart) < wait)
 800169a:	bf00      	nop
 800169c:	f7ff ffde 	bl	800165c <HAL_GetTick>
 80016a0:	4602      	mov	r2, r0
 80016a2:	68bb      	ldr	r3, [r7, #8]
 80016a4:	1ad3      	subs	r3, r2, r3
 80016a6:	68fa      	ldr	r2, [r7, #12]
 80016a8:	429a      	cmp	r2, r3
 80016aa:	d8f7      	bhi.n	800169c <HAL_Delay+0x28>
  {
  }
}
 80016ac:	bf00      	nop
 80016ae:	bf00      	nop
 80016b0:	3710      	adds	r7, #16
 80016b2:	46bd      	mov	sp, r7
 80016b4:	bd80      	pop	{r7, pc}
 80016b6:	bf00      	nop
 80016b8:	20000008 	.word	0x20000008

080016bc <__NVIC_SetPriorityGrouping>:
           In case of a conflict between priority grouping and available
           priority bits (__NVIC_PRIO_BITS), the smallest possible priority group is set.
  \param [in]      PriorityGroup  Priority grouping field.
 */
__STATIC_INLINE void __NVIC_SetPriorityGrouping(uint32_t PriorityGroup)
{
 80016bc:	b480      	push	{r7}
 80016be:	b085      	sub	sp, #20
 80016c0:	af00      	add	r7, sp, #0
 80016c2:	6078      	str	r0, [r7, #4]
  uint32_t reg_value;
  uint32_t PriorityGroupTmp = (PriorityGroup & (uint32_t)0x07UL);             /* only values 0..7 are used          */
 80016c4:	687b      	ldr	r3, [r7, #4]
 80016c6:	f003 0307 	and.w	r3, r3, #7
 80016ca:	60fb      	str	r3, [r7, #12]

  reg_value  =  SCB->AIRCR;                                                   /* read old register configuration    */
 80016cc:	4b0c      	ldr	r3, [pc, #48]	; (8001700 <__NVIC_SetPriorityGrouping+0x44>)
 80016ce:	68db      	ldr	r3, [r3, #12]
 80016d0:	60bb      	str	r3, [r7, #8]
  reg_value &= ~((uint32_t)(SCB_AIRCR_VECTKEY_Msk | SCB_AIRCR_PRIGROUP_Msk)); /* clear bits to change               */
 80016d2:	68ba      	ldr	r2, [r7, #8]
 80016d4:	f64f 03ff 	movw	r3, #63743	; 0xf8ff
 80016d8:	4013      	ands	r3, r2
 80016da:	60bb      	str	r3, [r7, #8]
  reg_value  =  (reg_value                                   |
                ((uint32_t)0x5FAUL << SCB_AIRCR_VECTKEY_Pos) |
                (PriorityGroupTmp << SCB_AIRCR_PRIGROUP_Pos)  );              /* Insert write key and priority group */
 80016dc:	68fb      	ldr	r3, [r7, #12]
 80016de:	021a      	lsls	r2, r3, #8
                ((uint32_t)0x5FAUL << SCB_AIRCR_VECTKEY_Pos) |
 80016e0:	68bb      	ldr	r3, [r7, #8]
 80016e2:	4313      	orrs	r3, r2
  reg_value  =  (reg_value                                   |
 80016e4:	f043 63bf 	orr.w	r3, r3, #100139008	; 0x5f80000
 80016e8:	f443 3300 	orr.w	r3, r3, #131072	; 0x20000
 80016ec:	60bb      	str	r3, [r7, #8]
  SCB->AIRCR =  reg_value;
 80016ee:	4a04      	ldr	r2, [pc, #16]	; (8001700 <__NVIC_SetPriorityGrouping+0x44>)
 80016f0:	68bb      	ldr	r3, [r7, #8]
 80016f2:	60d3      	str	r3, [r2, #12]
}
 80016f4:	bf00      	nop
 80016f6:	3714      	adds	r7, #20
 80016f8:	46bd      	mov	sp, r7
 80016fa:	f85d 7b04 	ldr.w	r7, [sp], #4
 80016fe:	4770      	bx	lr
 8001700:	e000ed00 	.word	0xe000ed00

08001704 <__NVIC_GetPriorityGrouping>:
  \brief   Get Priority Grouping
  \details Reads the priority grouping field from the NVIC Interrupt Controller.
  \return                Priority grouping field (SCB->AIRCR [10:8] PRIGROUP field).
 */
__STATIC_INLINE uint32_t __NVIC_GetPriorityGrouping(void)
{
 8001704:	b480      	push	{r7}
 8001706:	af00      	add	r7, sp, #0
  return ((uint32_t)((SCB->AIRCR & SCB_AIRCR_PRIGROUP_Msk) >> SCB_AIRCR_PRIGROUP_Pos));
 8001708:	4b04      	ldr	r3, [pc, #16]	; (800171c <__NVIC_GetPriorityGrouping+0x18>)
 800170a:	68db      	ldr	r3, [r3, #12]
 800170c:	0a1b      	lsrs	r3, r3, #8
 800170e:	f003 0307 	and.w	r3, r3, #7
}
 8001712:	4618      	mov	r0, r3
 8001714:	46bd      	mov	sp, r7
 8001716:	f85d 7b04 	ldr.w	r7, [sp], #4
 800171a:	4770      	bx	lr
 800171c:	e000ed00 	.word	0xe000ed00

08001720 <__NVIC_EnableIRQ>:
  \details Enables a device specific interrupt in the NVIC interrupt controller.
  \param [in]      IRQn  Device specific interrupt number.
  \note    IRQn must not be negative.
 */
__STATIC_INLINE void __NVIC_EnableIRQ(IRQn_Type IRQn)
{
 8001720:	b480      	push	{r7}
 8001722:	b083      	sub	sp, #12
 8001724:	af00      	add	r7, sp, #0
 8001726:	4603      	mov	r3, r0
 8001728:	71fb      	strb	r3, [r7, #7]
  if ((int32_t)(IRQn) >= 0)
 800172a:	f997 3007 	ldrsb.w	r3, [r7, #7]
 800172e:	2b00      	cmp	r3, #0
 8001730:	db0b      	blt.n	800174a <__NVIC_EnableIRQ+0x2a>
  {
    NVIC->ISER[(((uint32_t)IRQn) >> 5UL)] = (uint32_t)(1UL << (((uint32_t)IRQn) & 0x1FUL));
 8001732:	79fb      	ldrb	r3, [r7, #7]
 8001734:	f003 021f 	and.w	r2, r3, #31
 8001738:	4907      	ldr	r1, [pc, #28]	; (8001758 <__NVIC_EnableIRQ+0x38>)
 800173a:	f997 3007 	ldrsb.w	r3, [r7, #7]
 800173e:	095b      	lsrs	r3, r3, #5
 8001740:	2001      	movs	r0, #1
 8001742:	fa00 f202 	lsl.w	r2, r0, r2
 8001746:	f841 2023 	str.w	r2, [r1, r3, lsl #2]
  }
}
 800174a:	bf00      	nop
 800174c:	370c      	adds	r7, #12
 800174e:	46bd      	mov	sp, r7
 8001750:	f85d 7b04 	ldr.w	r7, [sp], #4
 8001754:	4770      	bx	lr
 8001756:	bf00      	nop
 8001758:	e000e100 	.word	0xe000e100

0800175c <__NVIC_SetPriority>:
  \param [in]      IRQn  Interrupt number.
  \param [in]  priority  Priority to set.
  \note    The priority cannot be set for every processor exception.
 */
__STATIC_INLINE void __NVIC_SetPriority(IRQn_Type IRQn, uint32_t priority)
{
 800175c:	b480      	push	{r7}
 800175e:	b083      	sub	sp, #12
 8001760:	af00      	add	r7, sp, #0
 8001762:	4603      	mov	r3, r0
 8001764:	6039      	str	r1, [r7, #0]
 8001766:	71fb      	strb	r3, [r7, #7]
  if ((int32_t)(IRQn) >= 0)
 8001768:	f997 3007 	ldrsb.w	r3, [r7, #7]
 800176c:	2b00      	cmp	r3, #0
 800176e:	db0a      	blt.n	8001786 <__NVIC_SetPriority+0x2a>
  {
    NVIC->IP[((uint32_t)IRQn)]               = (uint8_t)((priority << (8U - __NVIC_PRIO_BITS)) & (uint32_t)0xFFUL);
 8001770:	683b      	ldr	r3, [r7, #0]
 8001772:	b2da      	uxtb	r2, r3
 8001774:	490c      	ldr	r1, [pc, #48]	; (80017a8 <__NVIC_SetPriority+0x4c>)
 8001776:	f997 3007 	ldrsb.w	r3, [r7, #7]
 800177a:	0112      	lsls	r2, r2, #4
 800177c:	b2d2      	uxtb	r2, r2
 800177e:	440b      	add	r3, r1
 8001780:	f883 2300 	strb.w	r2, [r3, #768]	; 0x300
  }
  else
  {
    SCB->SHP[(((uint32_t)IRQn) & 0xFUL)-4UL] = (uint8_t)((priority << (8U - __NVIC_PRIO_BITS)) & (uint32_t)0xFFUL);
  }
}
 8001784:	e00a      	b.n	800179c <__NVIC_SetPriority+0x40>
    SCB->SHP[(((uint32_t)IRQn) & 0xFUL)-4UL] = (uint8_t)((priority << (8U - __NVIC_PRIO_BITS)) & (uint32_t)0xFFUL);
 8001786:	683b      	ldr	r3, [r7, #0]
 8001788:	b2da      	uxtb	r2, r3
 800178a:	4908      	ldr	r1, [pc, #32]	; (80017ac <__NVIC_SetPriority+0x50>)
 800178c:	79fb      	ldrb	r3, [r7, #7]
 800178e:	f003 030f 	and.w	r3, r3, #15
 8001792:	3b04      	subs	r3, #4
 8001794:	0112      	lsls	r2, r2, #4
 8001796:	b2d2      	uxtb	r2, r2
 8001798:	440b      	add	r3, r1
 800179a:	761a      	strb	r2, [r3, #24]
}
 800179c:	bf00      	nop
 800179e:	370c      	adds	r7, #12
 80017a0:	46bd      	mov	sp, r7
 80017a2:	f85d 7b04 	ldr.w	r7, [sp], #4
 80017a6:	4770      	bx	lr
 80017a8:	e000e100 	.word	0xe000e100
 80017ac:	e000ed00 	.word	0xe000ed00

080017b0 <NVIC_EncodePriority>:
  \param [in]   PreemptPriority  Preemptive priority value (starting from 0).
  \param [in]       SubPriority  Subpriority value (starting from 0).
  \return                        Encoded priority. Value can be used in the function \ref NVIC_SetPriority().
 */
__STATIC_INLINE uint32_t NVIC_EncodePriority (uint32_t PriorityGroup, uint32_t PreemptPriority, uint32_t SubPriority)
{
 80017b0:	b480      	push	{r7}
 80017b2:	b089      	sub	sp, #36	; 0x24
 80017b4:	af00      	add	r7, sp, #0
 80017b6:	60f8      	str	r0, [r7, #12]
 80017b8:	60b9      	str	r1, [r7, #8]
 80017ba:	607a      	str	r2, [r7, #4]
  uint32_t PriorityGroupTmp = (PriorityGroup & (uint32_t)0x07UL);   /* only values 0..7 are used          */
 80017bc:	68fb      	ldr	r3, [r7, #12]
 80017be:	f003 0307 	and.w	r3, r3, #7
 80017c2:	61fb      	str	r3, [r7, #28]
  uint32_t PreemptPriorityBits;
  uint32_t SubPriorityBits;

  PreemptPriorityBits = ((7UL - PriorityGroupTmp) > (uint32_t)(__NVIC_PRIO_BITS)) ? (uint32_t)(__NVIC_PRIO_BITS) : (uint32_t)(7UL - PriorityGroupTmp);
 80017c4:	69fb      	ldr	r3, [r7, #28]
 80017c6:	f1c3 0307 	rsb	r3, r3, #7
 80017ca:	2b04      	cmp	r3, #4
 80017cc:	bf28      	it	cs
 80017ce:	2304      	movcs	r3, #4
 80017d0:	61bb      	str	r3, [r7, #24]
  SubPriorityBits     = ((PriorityGroupTmp + (uint32_t)(__NVIC_PRIO_BITS)) < (uint32_t)7UL) ? (uint32_t)0UL : (uint32_t)((PriorityGroupTmp - 7UL) + (uint32_t)(__NVIC_PRIO_BITS));
 80017d2:	69fb      	ldr	r3, [r7, #28]
 80017d4:	3304      	adds	r3, #4
 80017d6:	2b06      	cmp	r3, #6
 80017d8:	d902      	bls.n	80017e0 <NVIC_EncodePriority+0x30>
 80017da:	69fb      	ldr	r3, [r7, #28]
 80017dc:	3b03      	subs	r3, #3
 80017de:	e000      	b.n	80017e2 <NVIC_EncodePriority+0x32>
 80017e0:	2300      	movs	r3, #0
 80017e2:	617b      	str	r3, [r7, #20]

  return (
           ((PreemptPriority & (uint32_t)((1UL << (PreemptPriorityBits)) - 1UL)) << SubPriorityBits) |
 80017e4:	f04f 32ff 	mov.w	r2, #4294967295
 80017e8:	69bb      	ldr	r3, [r7, #24]
 80017ea:	fa02 f303 	lsl.w	r3, r2, r3
 80017ee:	43da      	mvns	r2, r3
 80017f0:	68bb      	ldr	r3, [r7, #8]
 80017f2:	401a      	ands	r2, r3
 80017f4:	697b      	ldr	r3, [r7, #20]
 80017f6:	409a      	lsls	r2, r3
           ((SubPriority     & (uint32_t)((1UL << (SubPriorityBits    )) - 1UL)))
 80017f8:	f04f 31ff 	mov.w	r1, #4294967295
 80017fc:	697b      	ldr	r3, [r7, #20]
 80017fe:	fa01 f303 	lsl.w	r3, r1, r3
 8001802:	43d9      	mvns	r1, r3
 8001804:	687b      	ldr	r3, [r7, #4]
 8001806:	400b      	ands	r3, r1
           ((PreemptPriority & (uint32_t)((1UL << (PreemptPriorityBits)) - 1UL)) << SubPriorityBits) |
 8001808:	4313      	orrs	r3, r2
         );
}
 800180a:	4618      	mov	r0, r3
 800180c:	3724      	adds	r7, #36	; 0x24
 800180e:	46bd      	mov	sp, r7
 8001810:	f85d 7b04 	ldr.w	r7, [sp], #4
 8001814:	4770      	bx	lr

08001816 <HAL_NVIC_SetPriorityGrouping>:
  * @note   When the NVIC_PriorityGroup_0 is selected, IRQ preemption is no more possible. 
  *         The pending IRQ priority will be managed only by the subpriority. 
  * @retval None
  */
void HAL_NVIC_SetPriorityGrouping(uint32_t PriorityGroup)
{
 8001816:	b580      	push	{r7, lr}
 8001818:	b082      	sub	sp, #8
 800181a:	af00      	add	r7, sp, #0
 800181c:	6078      	str	r0, [r7, #4]
  /* Check the parameters */
  assert_param(IS_NVIC_PRIORITY_GROUP(PriorityGroup));
  
  /* Set the PRIGROUP[10:8] bits according to the PriorityGroup parameter value */
  NVIC_SetPriorityGrouping(PriorityGroup);
 800181e:	6878      	ldr	r0, [r7, #4]
 8001820:	f7ff ff4c 	bl	80016bc <__NVIC_SetPriorityGrouping>
}
 8001824:	bf00      	nop
 8001826:	3708      	adds	r7, #8
 8001828:	46bd      	mov	sp, r7
 800182a:	bd80      	pop	{r7, pc}

0800182c <HAL_NVIC_SetPriority>:
  *         This parameter can be a value between 0 and 15
  *         A lower priority value indicates a higher priority.          
  * @retval None
  */
void HAL_NVIC_SetPriority(IRQn_Type IRQn, uint32_t PreemptPriority, uint32_t SubPriority)
{ 
 800182c:	b580      	push	{r7, lr}
 800182e:	b086      	sub	sp, #24
 8001830:	af00      	add	r7, sp, #0
 8001832:	4603      	mov	r3, r0
 8001834:	60b9      	str	r1, [r7, #8]
 8001836:	607a      	str	r2, [r7, #4]
 8001838:	73fb      	strb	r3, [r7, #15]
  uint32_t prioritygroup = 0x00U;
 800183a:	2300      	movs	r3, #0
 800183c:	617b      	str	r3, [r7, #20]
  
  /* Check the parameters */
  assert_param(IS_NVIC_SUB_PRIORITY(SubPriority));
  assert_param(IS_NVIC_PREEMPTION_PRIORITY(PreemptPriority));
  
  prioritygroup = NVIC_GetPriorityGrouping();
 800183e:	f7ff ff61 	bl	8001704 <__NVIC_GetPriorityGrouping>
 8001842:	6178      	str	r0, [r7, #20]
  
  NVIC_SetPriority(IRQn, NVIC_EncodePriority(prioritygroup, PreemptPriority, SubPriority));
 8001844:	687a      	ldr	r2, [r7, #4]
 8001846:	68b9      	ldr	r1, [r7, #8]
 8001848:	6978      	ldr	r0, [r7, #20]
 800184a:	f7ff ffb1 	bl	80017b0 <NVIC_EncodePriority>
 800184e:	4602      	mov	r2, r0
 8001850:	f997 300f 	ldrsb.w	r3, [r7, #15]
 8001854:	4611      	mov	r1, r2
 8001856:	4618      	mov	r0, r3
 8001858:	f7ff ff80 	bl	800175c <__NVIC_SetPriority>
}
 800185c:	bf00      	nop
 800185e:	3718      	adds	r7, #24
 8001860:	46bd      	mov	sp, r7
 8001862:	bd80      	pop	{r7, pc}

08001864 <HAL_NVIC_EnableIRQ>:
  *         This parameter can be an enumerator of IRQn_Type enumeration
  *         (For the complete STM32 Devices IRQ Channels list, please refer to the appropriate CMSIS device file (stm32f4xxxx.h))
  * @retval None
  */
void HAL_NVIC_EnableIRQ(IRQn_Type IRQn)
{
 8001864:	b580      	push	{r7, lr}
 8001866:	b082      	sub	sp, #8
 8001868:	af00      	add	r7, sp, #0
 800186a:	4603      	mov	r3, r0
 800186c:	71fb      	strb	r3, [r7, #7]
  /* Check the parameters */
  assert_param(IS_NVIC_DEVICE_IRQ(IRQn));
  
  /* Enable interrupt */
  NVIC_EnableIRQ(IRQn);
 800186e:	f997 3007 	ldrsb.w	r3, [r7, #7]
 8001872:	4618      	mov	r0, r3
 8001874:	f7ff ff54 	bl	8001720 <__NVIC_EnableIRQ>
}
 8001878:	bf00      	nop
 800187a:	3708      	adds	r7, #8
 800187c:	46bd      	mov	sp, r7
 800187e:	bd80      	pop	{r7, pc}

08001880 <HAL_GPIO_Init>:
  * @param  GPIO_Init pointer to a GPIO_InitTypeDef structure that contains
  *         the configuration information for the specified GPIO peripheral.
  * @retval None
  */
void HAL_GPIO_Init(GPIO_TypeDef  *GPIOx, GPIO_InitTypeDef *GPIO_Init)
{
 8001880:	b480      	push	{r7}
 8001882:	b089      	sub	sp, #36	; 0x24
 8001884:	af00      	add	r7, sp, #0
 8001886:	6078      	str	r0, [r7, #4]
 8001888:	6039      	str	r1, [r7, #0]
  uint32_t position;
  uint32_t ioposition = 0x00U;
 800188a:	2300      	movs	r3, #0
 800188c:	617b      	str	r3, [r7, #20]
  uint32_t iocurrent = 0x00U;
 800188e:	2300      	movs	r3, #0
 8001890:	613b      	str	r3, [r7, #16]
  uint32_t temp = 0x00U;
 8001892:	2300      	movs	r3, #0
 8001894:	61bb      	str	r3, [r7, #24]
  assert_param(IS_GPIO_ALL_INSTANCE(GPIOx));
  assert_param(IS_GPIO_PIN(GPIO_Init->Pin));
  assert_param(IS_GPIO_MODE(GPIO_Init->Mode));

  /* Configure the port pins */
  for(position = 0U; position < GPIO_NUMBER; position++)
 8001896:	2300      	movs	r3, #0
 8001898:	61fb      	str	r3, [r7, #28]
 800189a:	e16b      	b.n	8001b74 <HAL_GPIO_Init+0x2f4>
  {
    /* Get the IO position */
    ioposition = 0x01U << position;
 800189c:	2201      	movs	r2, #1
 800189e:	69fb      	ldr	r3, [r7, #28]
 80018a0:	fa02 f303 	lsl.w	r3, r2, r3
 80018a4:	617b      	str	r3, [r7, #20]
    /* Get the current IO position */
    iocurrent = (uint32_t)(GPIO_Init->Pin) & ioposition;
 80018a6:	683b      	ldr	r3, [r7, #0]
 80018a8:	681b      	ldr	r3, [r3, #0]
 80018aa:	697a      	ldr	r2, [r7, #20]
 80018ac:	4013      	ands	r3, r2
 80018ae:	613b      	str	r3, [r7, #16]

    if(iocurrent == ioposition)
 80018b0:	693a      	ldr	r2, [r7, #16]
 80018b2:	697b      	ldr	r3, [r7, #20]
 80018b4:	429a      	cmp	r2, r3
 80018b6:	f040 815a 	bne.w	8001b6e <HAL_GPIO_Init+0x2ee>
    {
      /*--------------------- GPIO Mode Configuration ------------------------*/
      /* In case of Output or Alternate function mode selection */
      if(((GPIO_Init->Mode & GPIO_MODE) == MODE_OUTPUT) || \
 80018ba:	683b      	ldr	r3, [r7, #0]
 80018bc:	685b      	ldr	r3, [r3, #4]
 80018be:	f003 0303 	and.w	r3, r3, #3
 80018c2:	2b01      	cmp	r3, #1
 80018c4:	d005      	beq.n	80018d2 <HAL_GPIO_Init+0x52>
          (GPIO_Init->Mode & GPIO_MODE) == MODE_AF)
 80018c6:	683b      	ldr	r3, [r7, #0]
 80018c8:	685b      	ldr	r3, [r3, #4]
 80018ca:	f003 0303 	and.w	r3, r3, #3
      if(((GPIO_Init->Mode & GPIO_MODE) == MODE_OUTPUT) || \
 80018ce:	2b02      	cmp	r3, #2
 80018d0:	d130      	bne.n	8001934 <HAL_GPIO_Init+0xb4>
      {
        /* Check the Speed parameter */
        assert_param(IS_GPIO_SPEED(GPIO_Init->Speed));
        /* Configure the IO Speed */
        temp = GPIOx->OSPEEDR; 
 80018d2:	687b      	ldr	r3, [r7, #4]
 80018d4:	689b      	ldr	r3, [r3, #8]
 80018d6:	61bb      	str	r3, [r7, #24]
        temp &= ~(GPIO_OSPEEDER_OSPEEDR0 << (position * 2U));
 80018d8:	69fb      	ldr	r3, [r7, #28]
 80018da:	005b      	lsls	r3, r3, #1
 80018dc:	2203      	movs	r2, #3
 80018de:	fa02 f303 	lsl.w	r3, r2, r3
 80018e2:	43db      	mvns	r3, r3
 80018e4:	69ba      	ldr	r2, [r7, #24]
 80018e6:	4013      	ands	r3, r2
 80018e8:	61bb      	str	r3, [r7, #24]
        temp |= (GPIO_Init->Speed << (position * 2U));
 80018ea:	683b      	ldr	r3, [r7, #0]
 80018ec:	68da      	ldr	r2, [r3, #12]
 80018ee:	69fb      	ldr	r3, [r7, #28]
 80018f0:	005b      	lsls	r3, r3, #1
 80018f2:	fa02 f303 	lsl.w	r3, r2, r3
 80018f6:	69ba      	ldr	r2, [r7, #24]
 80018f8:	4313      	orrs	r3, r2
 80018fa:	61bb      	str	r3, [r7, #24]
        GPIOx->OSPEEDR = temp;
 80018fc:	687b      	ldr	r3, [r7, #4]
 80018fe:	69ba      	ldr	r2, [r7, #24]
 8001900:	609a      	str	r2, [r3, #8]

        /* Configure the IO Output Type */
        temp = GPIOx->OTYPER;
 8001902:	687b      	ldr	r3, [r7, #4]
 8001904:	685b      	ldr	r3, [r3, #4]
 8001906:	61bb      	str	r3, [r7, #24]
        temp &= ~(GPIO_OTYPER_OT_0 << position) ;
 8001908:	2201      	movs	r2, #1
 800190a:	69fb      	ldr	r3, [r7, #28]
 800190c:	fa02 f303 	lsl.w	r3, r2, r3
 8001910:	43db      	mvns	r3, r3
 8001912:	69ba      	ldr	r2, [r7, #24]
 8001914:	4013      	ands	r3, r2
 8001916:	61bb      	str	r3, [r7, #24]
        temp |= (((GPIO_Init->Mode & OUTPUT_TYPE) >> OUTPUT_TYPE_Pos) << position);
 8001918:	683b      	ldr	r3, [r7, #0]
 800191a:	685b      	ldr	r3, [r3, #4]
 800191c:	091b      	lsrs	r3, r3, #4
 800191e:	f003 0201 	and.w	r2, r3, #1
 8001922:	69fb      	ldr	r3, [r7, #28]
 8001924:	fa02 f303 	lsl.w	r3, r2, r3
 8001928:	69ba      	ldr	r2, [r7, #24]
 800192a:	4313      	orrs	r3, r2
 800192c:	61bb      	str	r3, [r7, #24]
        GPIOx->OTYPER = temp;
 800192e:	687b      	ldr	r3, [r7, #4]
 8001930:	69ba      	ldr	r2, [r7, #24]
 8001932:	605a      	str	r2, [r3, #4]
       }

      if((GPIO_Init->Mode & GPIO_MODE) != MODE_ANALOG)
 8001934:	683b      	ldr	r3, [r7, #0]
 8001936:	685b      	ldr	r3, [r3, #4]
 8001938:	f003 0303 	and.w	r3, r3, #3
 800193c:	2b03      	cmp	r3, #3
 800193e:	d017      	beq.n	8001970 <HAL_GPIO_Init+0xf0>
      {
        /* Check the parameters */
        assert_param(IS_GPIO_PULL(GPIO_Init->Pull));
        
        /* Activate the Pull-up or Pull down resistor for the current IO */
        temp = GPIOx->PUPDR;
 8001940:	687b      	ldr	r3, [r7, #4]
 8001942:	68db      	ldr	r3, [r3, #12]
 8001944:	61bb      	str	r3, [r7, #24]
        temp &= ~(GPIO_PUPDR_PUPDR0 << (position * 2U));
 8001946:	69fb      	ldr	r3, [r7, #28]
 8001948:	005b      	lsls	r3, r3, #1
 800194a:	2203      	movs	r2, #3
 800194c:	fa02 f303 	lsl.w	r3, r2, r3
 8001950:	43db      	mvns	r3, r3
 8001952:	69ba      	ldr	r2, [r7, #24]
 8001954:	4013      	ands	r3, r2
 8001956:	61bb      	str	r3, [r7, #24]
        temp |= ((GPIO_Init->Pull) << (position * 2U));
 8001958:	683b      	ldr	r3, [r7, #0]
 800195a:	689a      	ldr	r2, [r3, #8]
 800195c:	69fb      	ldr	r3, [r7, #28]
 800195e:	005b      	lsls	r3, r3, #1
 8001960:	fa02 f303 	lsl.w	r3, r2, r3
 8001964:	69ba      	ldr	r2, [r7, #24]
 8001966:	4313      	orrs	r3, r2
 8001968:	61bb      	str	r3, [r7, #24]
        GPIOx->PUPDR = temp;
 800196a:	687b      	ldr	r3, [r7, #4]
 800196c:	69ba      	ldr	r2, [r7, #24]
 800196e:	60da      	str	r2, [r3, #12]
      }

      /* In case of Alternate function mode selection */
      if((GPIO_Init->Mode & GPIO_MODE) == MODE_AF)
 8001970:	683b      	ldr	r3, [r7, #0]
 8001972:	685b      	ldr	r3, [r3, #4]
 8001974:	f003 0303 	and.w	r3, r3, #3
 8001978:	2b02      	cmp	r3, #2
 800197a:	d123      	bne.n	80019c4 <HAL_GPIO_Init+0x144>
      {
        /* Check the Alternate function parameter */
        assert_param(IS_GPIO_AF(GPIO_Init->Alternate));
        /* Configure Alternate function mapped with the current IO */
        temp = GPIOx->AFR[position >> 3U];
 800197c:	69fb      	ldr	r3, [r7, #28]
 800197e:	08da      	lsrs	r2, r3, #3
 8001980:	687b      	ldr	r3, [r7, #4]
 8001982:	3208      	adds	r2, #8
 8001984:	f853 3022 	ldr.w	r3, [r3, r2, lsl #2]
 8001988:	61bb      	str	r3, [r7, #24]
        temp &= ~(0xFU << ((uint32_t)(position & 0x07U) * 4U)) ;
 800198a:	69fb      	ldr	r3, [r7, #28]
 800198c:	f003 0307 	and.w	r3, r3, #7
 8001990:	009b      	lsls	r3, r3, #2
 8001992:	220f      	movs	r2, #15
 8001994:	fa02 f303 	lsl.w	r3, r2, r3
 8001998:	43db      	mvns	r3, r3
 800199a:	69ba      	ldr	r2, [r7, #24]
 800199c:	4013      	ands	r3, r2
 800199e:	61bb      	str	r3, [r7, #24]
        temp |= ((uint32_t)(GPIO_Init->Alternate) << (((uint32_t)position & 0x07U) * 4U));
 80019a0:	683b      	ldr	r3, [r7, #0]
 80019a2:	691a      	ldr	r2, [r3, #16]
 80019a4:	69fb      	ldr	r3, [r7, #28]
 80019a6:	f003 0307 	and.w	r3, r3, #7
 80019aa:	009b      	lsls	r3, r3, #2
 80019ac:	fa02 f303 	lsl.w	r3, r2, r3
 80019b0:	69ba      	ldr	r2, [r7, #24]
 80019b2:	4313      	orrs	r3, r2
 80019b4:	61bb      	str	r3, [r7, #24]
        GPIOx->AFR[position >> 3U] = temp;
 80019b6:	69fb      	ldr	r3, [r7, #28]
 80019b8:	08da      	lsrs	r2, r3, #3
 80019ba:	687b      	ldr	r3, [r7, #4]
 80019bc:	3208      	adds	r2, #8
 80019be:	69b9      	ldr	r1, [r7, #24]
 80019c0:	f843 1022 	str.w	r1, [r3, r2, lsl #2]
      }

      /* Configure IO Direction mode (Input, Output, Alternate or Analog) */
      temp = GPIOx->MODER;
 80019c4:	687b      	ldr	r3, [r7, #4]
 80019c6:	681b      	ldr	r3, [r3, #0]
 80019c8:	61bb      	str	r3, [r7, #24]
      temp &= ~(GPIO_MODER_MODER0 << (position * 2U));
 80019ca:	69fb      	ldr	r3, [r7, #28]
 80019cc:	005b      	lsls	r3, r3, #1
 80019ce:	2203      	movs	r2, #3
 80019d0:	fa02 f303 	lsl.w	r3, r2, r3
 80019d4:	43db      	mvns	r3, r3
 80019d6:	69ba      	ldr	r2, [r7, #24]
 80019d8:	4013      	ands	r3, r2
 80019da:	61bb      	str	r3, [r7, #24]
      temp |= ((GPIO_Init->Mode & GPIO_MODE) << (position * 2U));
 80019dc:	683b      	ldr	r3, [r7, #0]
 80019de:	685b      	ldr	r3, [r3, #4]
 80019e0:	f003 0203 	and.w	r2, r3, #3
 80019e4:	69fb      	ldr	r3, [r7, #28]
 80019e6:	005b      	lsls	r3, r3, #1
 80019e8:	fa02 f303 	lsl.w	r3, r2, r3
 80019ec:	69ba      	ldr	r2, [r7, #24]
 80019ee:	4313      	orrs	r3, r2
 80019f0:	61bb      	str	r3, [r7, #24]
      GPIOx->MODER = temp;
 80019f2:	687b      	ldr	r3, [r7, #4]
 80019f4:	69ba      	ldr	r2, [r7, #24]
 80019f6:	601a      	str	r2, [r3, #0]

      /*--------------------- EXTI Mode Configuration ------------------------*/
      /* Configure the External Interrupt or event for the current IO */
      if((GPIO_Init->Mode & EXTI_MODE) != 0x00U)
 80019f8:	683b      	ldr	r3, [r7, #0]
 80019fa:	685b      	ldr	r3, [r3, #4]
 80019fc:	f403 3340 	and.w	r3, r3, #196608	; 0x30000
 8001a00:	2b00      	cmp	r3, #0
 8001a02:	f000 80b4 	beq.w	8001b6e <HAL_GPIO_Init+0x2ee>
      {
        /* Enable SYSCFG Clock */
        __HAL_RCC_SYSCFG_CLK_ENABLE();
 8001a06:	2300      	movs	r3, #0
 8001a08:	60fb      	str	r3, [r7, #12]
 8001a0a:	4b60      	ldr	r3, [pc, #384]	; (8001b8c <HAL_GPIO_Init+0x30c>)
 8001a0c:	6c5b      	ldr	r3, [r3, #68]	; 0x44
 8001a0e:	4a5f      	ldr	r2, [pc, #380]	; (8001b8c <HAL_GPIO_Init+0x30c>)
 8001a10:	f443 4380 	orr.w	r3, r3, #16384	; 0x4000
 8001a14:	6453      	str	r3, [r2, #68]	; 0x44
 8001a16:	4b5d      	ldr	r3, [pc, #372]	; (8001b8c <HAL_GPIO_Init+0x30c>)
 8001a18:	6c5b      	ldr	r3, [r3, #68]	; 0x44
 8001a1a:	f403 4380 	and.w	r3, r3, #16384	; 0x4000
 8001a1e:	60fb      	str	r3, [r7, #12]
 8001a20:	68fb      	ldr	r3, [r7, #12]

        temp = SYSCFG->EXTICR[position >> 2U];
 8001a22:	4a5b      	ldr	r2, [pc, #364]	; (8001b90 <HAL_GPIO_Init+0x310>)
 8001a24:	69fb      	ldr	r3, [r7, #28]
 8001a26:	089b      	lsrs	r3, r3, #2
 8001a28:	3302      	adds	r3, #2
 8001a2a:	f852 3023 	ldr.w	r3, [r2, r3, lsl #2]
 8001a2e:	61bb      	str	r3, [r7, #24]
        temp &= ~(0x0FU << (4U * (position & 0x03U)));
 8001a30:	69fb      	ldr	r3, [r7, #28]
 8001a32:	f003 0303 	and.w	r3, r3, #3
 8001a36:	009b      	lsls	r3, r3, #2
 8001a38:	220f      	movs	r2, #15
 8001a3a:	fa02 f303 	lsl.w	r3, r2, r3
 8001a3e:	43db      	mvns	r3, r3
 8001a40:	69ba      	ldr	r2, [r7, #24]
 8001a42:	4013      	ands	r3, r2
 8001a44:	61bb      	str	r3, [r7, #24]
        temp |= ((uint32_t)(GPIO_GET_INDEX(GPIOx)) << (4U * (position & 0x03U)));
 8001a46:	687b      	ldr	r3, [r7, #4]
 8001a48:	4a52      	ldr	r2, [pc, #328]	; (8001b94 <HAL_GPIO_Init+0x314>)
 8001a4a:	4293      	cmp	r3, r2
 8001a4c:	d02b      	beq.n	8001aa6 <HAL_GPIO_Init+0x226>
 8001a4e:	687b      	ldr	r3, [r7, #4]
 8001a50:	4a51      	ldr	r2, [pc, #324]	; (8001b98 <HAL_GPIO_Init+0x318>)
 8001a52:	4293      	cmp	r3, r2
 8001a54:	d025      	beq.n	8001aa2 <HAL_GPIO_Init+0x222>
 8001a56:	687b      	ldr	r3, [r7, #4]
 8001a58:	4a50      	ldr	r2, [pc, #320]	; (8001b9c <HAL_GPIO_Init+0x31c>)
 8001a5a:	4293      	cmp	r3, r2
 8001a5c:	d01f      	beq.n	8001a9e <HAL_GPIO_Init+0x21e>
 8001a5e:	687b      	ldr	r3, [r7, #4]
 8001a60:	4a4f      	ldr	r2, [pc, #316]	; (8001ba0 <HAL_GPIO_Init+0x320>)
 8001a62:	4293      	cmp	r3, r2
 8001a64:	d019      	beq.n	8001a9a <HAL_GPIO_Init+0x21a>
 8001a66:	687b      	ldr	r3, [r7, #4]
 8001a68:	4a4e      	ldr	r2, [pc, #312]	; (8001ba4 <HAL_GPIO_Init+0x324>)
 8001a6a:	4293      	cmp	r3, r2
 8001a6c:	d013      	beq.n	8001a96 <HAL_GPIO_Init+0x216>
 8001a6e:	687b      	ldr	r3, [r7, #4]
 8001a70:	4a4d      	ldr	r2, [pc, #308]	; (8001ba8 <HAL_GPIO_Init+0x328>)
 8001a72:	4293      	cmp	r3, r2
 8001a74:	d00d      	beq.n	8001a92 <HAL_GPIO_Init+0x212>
 8001a76:	687b      	ldr	r3, [r7, #4]
 8001a78:	4a4c      	ldr	r2, [pc, #304]	; (8001bac <HAL_GPIO_Init+0x32c>)
 8001a7a:	4293      	cmp	r3, r2
 8001a7c:	d007      	beq.n	8001a8e <HAL_GPIO_Init+0x20e>
 8001a7e:	687b      	ldr	r3, [r7, #4]
 8001a80:	4a4b      	ldr	r2, [pc, #300]	; (8001bb0 <HAL_GPIO_Init+0x330>)
 8001a82:	4293      	cmp	r3, r2
 8001a84:	d101      	bne.n	8001a8a <HAL_GPIO_Init+0x20a>
 8001a86:	2307      	movs	r3, #7
 8001a88:	e00e      	b.n	8001aa8 <HAL_GPIO_Init+0x228>
 8001a8a:	2308      	movs	r3, #8
 8001a8c:	e00c      	b.n	8001aa8 <HAL_GPIO_Init+0x228>
 8001a8e:	2306      	movs	r3, #6
 8001a90:	e00a      	b.n	8001aa8 <HAL_GPIO_Init+0x228>
 8001a92:	2305      	movs	r3, #5
 8001a94:	e008      	b.n	8001aa8 <HAL_GPIO_Init+0x228>
 8001a96:	2304      	movs	r3, #4
 8001a98:	e006      	b.n	8001aa8 <HAL_GPIO_Init+0x228>
 8001a9a:	2303      	movs	r3, #3
 8001a9c:	e004      	b.n	8001aa8 <HAL_GPIO_Init+0x228>
 8001a9e:	2302      	movs	r3, #2
 8001aa0:	e002      	b.n	8001aa8 <HAL_GPIO_Init+0x228>
 8001aa2:	2301      	movs	r3, #1
 8001aa4:	e000      	b.n	8001aa8 <HAL_GPIO_Init+0x228>
 8001aa6:	2300      	movs	r3, #0
 8001aa8:	69fa      	ldr	r2, [r7, #28]
 8001aaa:	f002 0203 	and.w	r2, r2, #3
 8001aae:	0092      	lsls	r2, r2, #2
 8001ab0:	4093      	lsls	r3, r2
 8001ab2:	69ba      	ldr	r2, [r7, #24]
 8001ab4:	4313      	orrs	r3, r2
 8001ab6:	61bb      	str	r3, [r7, #24]
        SYSCFG->EXTICR[position >> 2U] = temp;
 8001ab8:	4935      	ldr	r1, [pc, #212]	; (8001b90 <HAL_GPIO_Init+0x310>)
 8001aba:	69fb      	ldr	r3, [r7, #28]
 8001abc:	089b      	lsrs	r3, r3, #2
 8001abe:	3302      	adds	r3, #2
 8001ac0:	69ba      	ldr	r2, [r7, #24]
 8001ac2:	f841 2023 	str.w	r2, [r1, r3, lsl #2]

        /* Clear EXTI line configuration */
        temp = EXTI->IMR;
 8001ac6:	4b3b      	ldr	r3, [pc, #236]	; (8001bb4 <HAL_GPIO_Init+0x334>)
 8001ac8:	681b      	ldr	r3, [r3, #0]
 8001aca:	61bb      	str	r3, [r7, #24]
        temp &= ~((uint32_t)iocurrent);
 8001acc:	693b      	ldr	r3, [r7, #16]
 8001ace:	43db      	mvns	r3, r3
 8001ad0:	69ba      	ldr	r2, [r7, #24]
 8001ad2:	4013      	ands	r3, r2
 8001ad4:	61bb      	str	r3, [r7, #24]
        if((GPIO_Init->Mode & EXTI_IT) != 0x00U)
 8001ad6:	683b      	ldr	r3, [r7, #0]
 8001ad8:	685b      	ldr	r3, [r3, #4]
 8001ada:	f403 3380 	and.w	r3, r3, #65536	; 0x10000
 8001ade:	2b00      	cmp	r3, #0
 8001ae0:	d003      	beq.n	8001aea <HAL_GPIO_Init+0x26a>
        {
          temp |= iocurrent;
 8001ae2:	69ba      	ldr	r2, [r7, #24]
 8001ae4:	693b      	ldr	r3, [r7, #16]
 8001ae6:	4313      	orrs	r3, r2
 8001ae8:	61bb      	str	r3, [r7, #24]
        }
        EXTI->IMR = temp;
 8001aea:	4a32      	ldr	r2, [pc, #200]	; (8001bb4 <HAL_GPIO_Init+0x334>)
 8001aec:	69bb      	ldr	r3, [r7, #24]
 8001aee:	6013      	str	r3, [r2, #0]

        temp = EXTI->EMR;
 8001af0:	4b30      	ldr	r3, [pc, #192]	; (8001bb4 <HAL_GPIO_Init+0x334>)
 8001af2:	685b      	ldr	r3, [r3, #4]
 8001af4:	61bb      	str	r3, [r7, #24]
        temp &= ~((uint32_t)iocurrent);
 8001af6:	693b      	ldr	r3, [r7, #16]
 8001af8:	43db      	mvns	r3, r3
 8001afa:	69ba      	ldr	r2, [r7, #24]
 8001afc:	4013      	ands	r3, r2
 8001afe:	61bb      	str	r3, [r7, #24]
        if((GPIO_Init->Mode & EXTI_EVT) != 0x00U)
 8001b00:	683b      	ldr	r3, [r7, #0]
 8001b02:	685b      	ldr	r3, [r3, #4]
 8001b04:	f403 3300 	and.w	r3, r3, #131072	; 0x20000
 8001b08:	2b00      	cmp	r3, #0
 8001b0a:	d003      	beq.n	8001b14 <HAL_GPIO_Init+0x294>
        {
          temp |= iocurrent;
 8001b0c:	69ba      	ldr	r2, [r7, #24]
 8001b0e:	693b      	ldr	r3, [r7, #16]
 8001b10:	4313      	orrs	r3, r2
 8001b12:	61bb      	str	r3, [r7, #24]
        }
        EXTI->EMR = temp;
 8001b14:	4a27      	ldr	r2, [pc, #156]	; (8001bb4 <HAL_GPIO_Init+0x334>)
 8001b16:	69bb      	ldr	r3, [r7, #24]
 8001b18:	6053      	str	r3, [r2, #4]

        /* Clear Rising Falling edge configuration */
        temp = EXTI->RTSR;
 8001b1a:	4b26      	ldr	r3, [pc, #152]	; (8001bb4 <HAL_GPIO_Init+0x334>)
 8001b1c:	689b      	ldr	r3, [r3, #8]
 8001b1e:	61bb      	str	r3, [r7, #24]
        temp &= ~((uint32_t)iocurrent);
 8001b20:	693b      	ldr	r3, [r7, #16]
 8001b22:	43db      	mvns	r3, r3
 8001b24:	69ba      	ldr	r2, [r7, #24]
 8001b26:	4013      	ands	r3, r2
 8001b28:	61bb      	str	r3, [r7, #24]
        if((GPIO_Init->Mode & TRIGGER_RISING) != 0x00U)
 8001b2a:	683b      	ldr	r3, [r7, #0]
 8001b2c:	685b      	ldr	r3, [r3, #4]
 8001b2e:	f403 1380 	and.w	r3, r3, #1048576	; 0x100000
 8001b32:	2b00      	cmp	r3, #0
 8001b34:	d003      	beq.n	8001b3e <HAL_GPIO_Init+0x2be>
        {
          temp |= iocurrent;
 8001b36:	69ba      	ldr	r2, [r7, #24]
 8001b38:	693b      	ldr	r3, [r7, #16]
 8001b3a:	4313      	orrs	r3, r2
 8001b3c:	61bb      	str	r3, [r7, #24]
        }
        EXTI->RTSR = temp;
 8001b3e:	4a1d      	ldr	r2, [pc, #116]	; (8001bb4 <HAL_GPIO_Init+0x334>)
 8001b40:	69bb      	ldr	r3, [r7, #24]
 8001b42:	6093      	str	r3, [r2, #8]

        temp = EXTI->FTSR;
 8001b44:	4b1b      	ldr	r3, [pc, #108]	; (8001bb4 <HAL_GPIO_Init+0x334>)
 8001b46:	68db      	ldr	r3, [r3, #12]
 8001b48:	61bb      	str	r3, [r7, #24]
        temp &= ~((uint32_t)iocurrent);
 8001b4a:	693b      	ldr	r3, [r7, #16]
 8001b4c:	43db      	mvns	r3, r3
 8001b4e:	69ba      	ldr	r2, [r7, #24]
 8001b50:	4013      	ands	r3, r2
 8001b52:	61bb      	str	r3, [r7, #24]
        if((GPIO_Init->Mode & TRIGGER_FALLING) != 0x00U)
 8001b54:	683b      	ldr	r3, [r7, #0]
 8001b56:	685b      	ldr	r3, [r3, #4]
 8001b58:	f403 1300 	and.w	r3, r3, #2097152	; 0x200000
 8001b5c:	2b00      	cmp	r3, #0
 8001b5e:	d003      	beq.n	8001b68 <HAL_GPIO_Init+0x2e8>
        {
          temp |= iocurrent;
 8001b60:	69ba      	ldr	r2, [r7, #24]
 8001b62:	693b      	ldr	r3, [r7, #16]
 8001b64:	4313      	orrs	r3, r2
 8001b66:	61bb      	str	r3, [r7, #24]
        }
        EXTI->FTSR = temp;
 8001b68:	4a12      	ldr	r2, [pc, #72]	; (8001bb4 <HAL_GPIO_Init+0x334>)
 8001b6a:	69bb      	ldr	r3, [r7, #24]
 8001b6c:	60d3      	str	r3, [r2, #12]
  for(position = 0U; position < GPIO_NUMBER; position++)
 8001b6e:	69fb      	ldr	r3, [r7, #28]
 8001b70:	3301      	adds	r3, #1
 8001b72:	61fb      	str	r3, [r7, #28]
 8001b74:	69fb      	ldr	r3, [r7, #28]
 8001b76:	2b0f      	cmp	r3, #15
 8001b78:	f67f ae90 	bls.w	800189c <HAL_GPIO_Init+0x1c>
      }
    }
  }
}
 8001b7c:	bf00      	nop
 8001b7e:	bf00      	nop
 8001b80:	3724      	adds	r7, #36	; 0x24
 8001b82:	46bd      	mov	sp, r7
 8001b84:	f85d 7b04 	ldr.w	r7, [sp], #4
 8001b88:	4770      	bx	lr
 8001b8a:	bf00      	nop
 8001b8c:	40023800 	.word	0x40023800
 8001b90:	40013800 	.word	0x40013800
 8001b94:	40020000 	.word	0x40020000
 8001b98:	40020400 	.word	0x40020400
 8001b9c:	40020800 	.word	0x40020800
 8001ba0:	40020c00 	.word	0x40020c00
 8001ba4:	40021000 	.word	0x40021000
 8001ba8:	40021400 	.word	0x40021400
 8001bac:	40021800 	.word	0x40021800
 8001bb0:	40021c00 	.word	0x40021c00
 8001bb4:	40013c00 	.word	0x40013c00

08001bb8 <HAL_GPIO_WritePin>:
  *            @arg GPIO_PIN_RESET: to clear the port pin
  *            @arg GPIO_PIN_SET: to set the port pin
  * @retval None
  */
void HAL_GPIO_WritePin(GPIO_TypeDef* GPIOx, uint16_t GPIO_Pin, GPIO_PinState PinState)
{
 8001bb8:	b480      	push	{r7}
 8001bba:	b083      	sub	sp, #12
 8001bbc:	af00      	add	r7, sp, #0
 8001bbe:	6078      	str	r0, [r7, #4]
 8001bc0:	460b      	mov	r3, r1
 8001bc2:	807b      	strh	r3, [r7, #2]
 8001bc4:	4613      	mov	r3, r2
 8001bc6:	707b      	strb	r3, [r7, #1]
  /* Check the parameters */
  assert_param(IS_GPIO_PIN(GPIO_Pin));
  assert_param(IS_GPIO_PIN_ACTION(PinState));

  if(PinState != GPIO_PIN_RESET)
 8001bc8:	787b      	ldrb	r3, [r7, #1]
 8001bca:	2b00      	cmp	r3, #0
 8001bcc:	d003      	beq.n	8001bd6 <HAL_GPIO_WritePin+0x1e>
  {
    GPIOx->BSRR = GPIO_Pin;
 8001bce:	887a      	ldrh	r2, [r7, #2]
 8001bd0:	687b      	ldr	r3, [r7, #4]
 8001bd2:	619a      	str	r2, [r3, #24]
  }
  else
  {
    GPIOx->BSRR = (uint32_t)GPIO_Pin << 16U;
  }
}
 8001bd4:	e003      	b.n	8001bde <HAL_GPIO_WritePin+0x26>
    GPIOx->BSRR = (uint32_t)GPIO_Pin << 16U;
 8001bd6:	887b      	ldrh	r3, [r7, #2]
 8001bd8:	041a      	lsls	r2, r3, #16
 8001bda:	687b      	ldr	r3, [r7, #4]
 8001bdc:	619a      	str	r2, [r3, #24]
}
 8001bde:	bf00      	nop
 8001be0:	370c      	adds	r7, #12
 8001be2:	46bd      	mov	sp, r7
 8001be4:	f85d 7b04 	ldr.w	r7, [sp], #4
 8001be8:	4770      	bx	lr
	...

08001bec <HAL_RCC_OscConfig>:
  *         supported by this API. User should request a transition to HSE Off
  *         first and then HSE On or HSE Bypass.
  * @retval HAL status
  */
__weak HAL_StatusTypeDef HAL_RCC_OscConfig(RCC_OscInitTypeDef  *RCC_OscInitStruct)
{
 8001bec:	b580      	push	{r7, lr}
 8001bee:	b086      	sub	sp, #24
 8001bf0:	af00      	add	r7, sp, #0
 8001bf2:	6078      	str	r0, [r7, #4]
  uint32_t tickstart, pll_config;

  /* Check Null pointer */
  if(RCC_OscInitStruct == NULL)
 8001bf4:	687b      	ldr	r3, [r7, #4]
 8001bf6:	2b00      	cmp	r3, #0
 8001bf8:	d101      	bne.n	8001bfe <HAL_RCC_OscConfig+0x12>
  {
    return HAL_ERROR;
 8001bfa:	2301      	movs	r3, #1
 8001bfc:	e264      	b.n	80020c8 <HAL_RCC_OscConfig+0x4dc>
  }

  /* Check the parameters */
  assert_param(IS_RCC_OSCILLATORTYPE(RCC_OscInitStruct->OscillatorType));
  /*------------------------------- HSE Configuration ------------------------*/
  if(((RCC_OscInitStruct->OscillatorType) & RCC_OSCILLATORTYPE_HSE) == RCC_OSCILLATORTYPE_HSE)
 8001bfe:	687b      	ldr	r3, [r7, #4]
 8001c00:	681b      	ldr	r3, [r3, #0]
 8001c02:	f003 0301 	and.w	r3, r3, #1
 8001c06:	2b00      	cmp	r3, #0
 8001c08:	d075      	beq.n	8001cf6 <HAL_RCC_OscConfig+0x10a>
  {
    /* Check the parameters */
    assert_param(IS_RCC_HSE(RCC_OscInitStruct->HSEState));
    /* When the HSE is used as system clock or clock source for PLL in these cases HSE will not disabled */
    if((__HAL_RCC_GET_SYSCLK_SOURCE() == RCC_CFGR_SWS_HSE) ||\
 8001c0a:	4ba3      	ldr	r3, [pc, #652]	; (8001e98 <HAL_RCC_OscConfig+0x2ac>)
 8001c0c:	689b      	ldr	r3, [r3, #8]
 8001c0e:	f003 030c 	and.w	r3, r3, #12
 8001c12:	2b04      	cmp	r3, #4
 8001c14:	d00c      	beq.n	8001c30 <HAL_RCC_OscConfig+0x44>
      ((__HAL_RCC_GET_SYSCLK_SOURCE() == RCC_CFGR_SWS_PLL) && ((RCC->PLLCFGR & RCC_PLLCFGR_PLLSRC) == RCC_PLLCFGR_PLLSRC_HSE)))
 8001c16:	4ba0      	ldr	r3, [pc, #640]	; (8001e98 <HAL_RCC_OscConfig+0x2ac>)
 8001c18:	689b      	ldr	r3, [r3, #8]
 8001c1a:	f003 030c 	and.w	r3, r3, #12
    if((__HAL_RCC_GET_SYSCLK_SOURCE() == RCC_CFGR_SWS_HSE) ||\
 8001c1e:	2b08      	cmp	r3, #8
 8001c20:	d112      	bne.n	8001c48 <HAL_RCC_OscConfig+0x5c>
      ((__HAL_RCC_GET_SYSCLK_SOURCE() == RCC_CFGR_SWS_PLL) && ((RCC->PLLCFGR & RCC_PLLCFGR_PLLSRC) == RCC_PLLCFGR_PLLSRC_HSE)))
 8001c22:	4b9d      	ldr	r3, [pc, #628]	; (8001e98 <HAL_RCC_OscConfig+0x2ac>)
 8001c24:	685b      	ldr	r3, [r3, #4]
 8001c26:	f403 0380 	and.w	r3, r3, #4194304	; 0x400000
 8001c2a:	f5b3 0f80 	cmp.w	r3, #4194304	; 0x400000
 8001c2e:	d10b      	bne.n	8001c48 <HAL_RCC_OscConfig+0x5c>
    {
      if((__HAL_RCC_GET_FLAG(RCC_FLAG_HSERDY) != RESET) && (RCC_OscInitStruct->HSEState == RCC_HSE_OFF))
 8001c30:	4b99      	ldr	r3, [pc, #612]	; (8001e98 <HAL_RCC_OscConfig+0x2ac>)
 8001c32:	681b      	ldr	r3, [r3, #0]
 8001c34:	f403 3300 	and.w	r3, r3, #131072	; 0x20000
 8001c38:	2b00      	cmp	r3, #0
 8001c3a:	d05b      	beq.n	8001cf4 <HAL_RCC_OscConfig+0x108>
 8001c3c:	687b      	ldr	r3, [r7, #4]
 8001c3e:	685b      	ldr	r3, [r3, #4]
 8001c40:	2b00      	cmp	r3, #0
 8001c42:	d157      	bne.n	8001cf4 <HAL_RCC_OscConfig+0x108>
      {
        return HAL_ERROR;
 8001c44:	2301      	movs	r3, #1
 8001c46:	e23f      	b.n	80020c8 <HAL_RCC_OscConfig+0x4dc>
      }
    }
    else
    {
      /* Set the new HSE configuration ---------------------------------------*/
      __HAL_RCC_HSE_CONFIG(RCC_OscInitStruct->HSEState);
 8001c48:	687b      	ldr	r3, [r7, #4]
 8001c4a:	685b      	ldr	r3, [r3, #4]
 8001c4c:	f5b3 3f80 	cmp.w	r3, #65536	; 0x10000
 8001c50:	d106      	bne.n	8001c60 <HAL_RCC_OscConfig+0x74>
 8001c52:	4b91      	ldr	r3, [pc, #580]	; (8001e98 <HAL_RCC_OscConfig+0x2ac>)
 8001c54:	681b      	ldr	r3, [r3, #0]
 8001c56:	4a90      	ldr	r2, [pc, #576]	; (8001e98 <HAL_RCC_OscConfig+0x2ac>)
 8001c58:	f443 3380 	orr.w	r3, r3, #65536	; 0x10000
 8001c5c:	6013      	str	r3, [r2, #0]
 8001c5e:	e01d      	b.n	8001c9c <HAL_RCC_OscConfig+0xb0>
 8001c60:	687b      	ldr	r3, [r7, #4]
 8001c62:	685b      	ldr	r3, [r3, #4]
 8001c64:	f5b3 2fa0 	cmp.w	r3, #327680	; 0x50000
 8001c68:	d10c      	bne.n	8001c84 <HAL_RCC_OscConfig+0x98>
 8001c6a:	4b8b      	ldr	r3, [pc, #556]	; (8001e98 <HAL_RCC_OscConfig+0x2ac>)
 8001c6c:	681b      	ldr	r3, [r3, #0]
 8001c6e:	4a8a      	ldr	r2, [pc, #552]	; (8001e98 <HAL_RCC_OscConfig+0x2ac>)
 8001c70:	f443 2380 	orr.w	r3, r3, #262144	; 0x40000
 8001c74:	6013      	str	r3, [r2, #0]
 8001c76:	4b88      	ldr	r3, [pc, #544]	; (8001e98 <HAL_RCC_OscConfig+0x2ac>)
 8001c78:	681b      	ldr	r3, [r3, #0]
 8001c7a:	4a87      	ldr	r2, [pc, #540]	; (8001e98 <HAL_RCC_OscConfig+0x2ac>)
 8001c7c:	f443 3380 	orr.w	r3, r3, #65536	; 0x10000
 8001c80:	6013      	str	r3, [r2, #0]
 8001c82:	e00b      	b.n	8001c9c <HAL_RCC_OscConfig+0xb0>
 8001c84:	4b84      	ldr	r3, [pc, #528]	; (8001e98 <HAL_RCC_OscConfig+0x2ac>)
 8001c86:	681b      	ldr	r3, [r3, #0]
 8001c88:	4a83      	ldr	r2, [pc, #524]	; (8001e98 <HAL_RCC_OscConfig+0x2ac>)
 8001c8a:	f423 3380 	bic.w	r3, r3, #65536	; 0x10000
 8001c8e:	6013      	str	r3, [r2, #0]
 8001c90:	4b81      	ldr	r3, [pc, #516]	; (8001e98 <HAL_RCC_OscConfig+0x2ac>)
 8001c92:	681b      	ldr	r3, [r3, #0]
 8001c94:	4a80      	ldr	r2, [pc, #512]	; (8001e98 <HAL_RCC_OscConfig+0x2ac>)
 8001c96:	f423 2380 	bic.w	r3, r3, #262144	; 0x40000
 8001c9a:	6013      	str	r3, [r2, #0]

      /* Check the HSE State */
      if((RCC_OscInitStruct->HSEState) != RCC_HSE_OFF)
 8001c9c:	687b      	ldr	r3, [r7, #4]
 8001c9e:	685b      	ldr	r3, [r3, #4]
 8001ca0:	2b00      	cmp	r3, #0
 8001ca2:	d013      	beq.n	8001ccc <HAL_RCC_OscConfig+0xe0>
      {
        /* Get Start Tick */
        tickstart = HAL_GetTick();
 8001ca4:	f7ff fcda 	bl	800165c <HAL_GetTick>
 8001ca8:	6138      	str	r0, [r7, #16]

        /* Wait till HSE is ready */
        while(__HAL_RCC_GET_FLAG(RCC_FLAG_HSERDY) == RESET)
 8001caa:	e008      	b.n	8001cbe <HAL_RCC_OscConfig+0xd2>
        {
          if((HAL_GetTick() - tickstart ) > HSE_TIMEOUT_VALUE)
 8001cac:	f7ff fcd6 	bl	800165c <HAL_GetTick>
 8001cb0:	4602      	mov	r2, r0
 8001cb2:	693b      	ldr	r3, [r7, #16]
 8001cb4:	1ad3      	subs	r3, r2, r3
 8001cb6:	2b64      	cmp	r3, #100	; 0x64
 8001cb8:	d901      	bls.n	8001cbe <HAL_RCC_OscConfig+0xd2>
          {
            return HAL_TIMEOUT;
 8001cba:	2303      	movs	r3, #3
 8001cbc:	e204      	b.n	80020c8 <HAL_RCC_OscConfig+0x4dc>
        while(__HAL_RCC_GET_FLAG(RCC_FLAG_HSERDY) == RESET)
 8001cbe:	4b76      	ldr	r3, [pc, #472]	; (8001e98 <HAL_RCC_OscConfig+0x2ac>)
 8001cc0:	681b      	ldr	r3, [r3, #0]
 8001cc2:	f403 3300 	and.w	r3, r3, #131072	; 0x20000
 8001cc6:	2b00      	cmp	r3, #0
 8001cc8:	d0f0      	beq.n	8001cac <HAL_RCC_OscConfig+0xc0>
 8001cca:	e014      	b.n	8001cf6 <HAL_RCC_OscConfig+0x10a>
        }
      }
      else
      {
        /* Get Start Tick */
        tickstart = HAL_GetTick();
 8001ccc:	f7ff fcc6 	bl	800165c <HAL_GetTick>
 8001cd0:	6138      	str	r0, [r7, #16]

        /* Wait till HSE is bypassed or disabled */
        while(__HAL_RCC_GET_FLAG(RCC_FLAG_HSERDY) != RESET)
 8001cd2:	e008      	b.n	8001ce6 <HAL_RCC_OscConfig+0xfa>
        {
          if((HAL_GetTick() - tickstart ) > HSE_TIMEOUT_VALUE)
 8001cd4:	f7ff fcc2 	bl	800165c <HAL_GetTick>
 8001cd8:	4602      	mov	r2, r0
 8001cda:	693b      	ldr	r3, [r7, #16]
 8001cdc:	1ad3      	subs	r3, r2, r3
 8001cde:	2b64      	cmp	r3, #100	; 0x64
 8001ce0:	d901      	bls.n	8001ce6 <HAL_RCC_OscConfig+0xfa>
          {
            return HAL_TIMEOUT;
 8001ce2:	2303      	movs	r3, #3
 8001ce4:	e1f0      	b.n	80020c8 <HAL_RCC_OscConfig+0x4dc>
        while(__HAL_RCC_GET_FLAG(RCC_FLAG_HSERDY) != RESET)
 8001ce6:	4b6c      	ldr	r3, [pc, #432]	; (8001e98 <HAL_RCC_OscConfig+0x2ac>)
 8001ce8:	681b      	ldr	r3, [r3, #0]
 8001cea:	f403 3300 	and.w	r3, r3, #131072	; 0x20000
 8001cee:	2b00      	cmp	r3, #0
 8001cf0:	d1f0      	bne.n	8001cd4 <HAL_RCC_OscConfig+0xe8>
 8001cf2:	e000      	b.n	8001cf6 <HAL_RCC_OscConfig+0x10a>
      if((__HAL_RCC_GET_FLAG(RCC_FLAG_HSERDY) != RESET) && (RCC_OscInitStruct->HSEState == RCC_HSE_OFF))
 8001cf4:	bf00      	nop
        }
      }
    }
  }
  /*----------------------------- HSI Configuration --------------------------*/
  if(((RCC_OscInitStruct->OscillatorType) & RCC_OSCILLATORTYPE_HSI) == RCC_OSCILLATORTYPE_HSI)
 8001cf6:	687b      	ldr	r3, [r7, #4]
 8001cf8:	681b      	ldr	r3, [r3, #0]
 8001cfa:	f003 0302 	and.w	r3, r3, #2
 8001cfe:	2b00      	cmp	r3, #0
 8001d00:	d063      	beq.n	8001dca <HAL_RCC_OscConfig+0x1de>
    /* Check the parameters */
    assert_param(IS_RCC_HSI(RCC_OscInitStruct->HSIState));
    assert_param(IS_RCC_CALIBRATION_VALUE(RCC_OscInitStruct->HSICalibrationValue));

    /* Check if HSI is used as system clock or as PLL source when PLL is selected as system clock */
    if((__HAL_RCC_GET_SYSCLK_SOURCE() == RCC_CFGR_SWS_HSI) ||\
 8001d02:	4b65      	ldr	r3, [pc, #404]	; (8001e98 <HAL_RCC_OscConfig+0x2ac>)
 8001d04:	689b      	ldr	r3, [r3, #8]
 8001d06:	f003 030c 	and.w	r3, r3, #12
 8001d0a:	2b00      	cmp	r3, #0
 8001d0c:	d00b      	beq.n	8001d26 <HAL_RCC_OscConfig+0x13a>
      ((__HAL_RCC_GET_SYSCLK_SOURCE() == RCC_CFGR_SWS_PLL) && ((RCC->PLLCFGR & RCC_PLLCFGR_PLLSRC) == RCC_PLLCFGR_PLLSRC_HSI)))
 8001d0e:	4b62      	ldr	r3, [pc, #392]	; (8001e98 <HAL_RCC_OscConfig+0x2ac>)
 8001d10:	689b      	ldr	r3, [r3, #8]
 8001d12:	f003 030c 	and.w	r3, r3, #12
    if((__HAL_RCC_GET_SYSCLK_SOURCE() == RCC_CFGR_SWS_HSI) ||\
 8001d16:	2b08      	cmp	r3, #8
 8001d18:	d11c      	bne.n	8001d54 <HAL_RCC_OscConfig+0x168>
      ((__HAL_RCC_GET_SYSCLK_SOURCE() == RCC_CFGR_SWS_PLL) && ((RCC->PLLCFGR & RCC_PLLCFGR_PLLSRC) == RCC_PLLCFGR_PLLSRC_HSI)))
 8001d1a:	4b5f      	ldr	r3, [pc, #380]	; (8001e98 <HAL_RCC_OscConfig+0x2ac>)
 8001d1c:	685b      	ldr	r3, [r3, #4]
 8001d1e:	f403 0380 	and.w	r3, r3, #4194304	; 0x400000
 8001d22:	2b00      	cmp	r3, #0
 8001d24:	d116      	bne.n	8001d54 <HAL_RCC_OscConfig+0x168>
    {
      /* When HSI is used as system clock it will not disabled */
      if((__HAL_RCC_GET_FLAG(RCC_FLAG_HSIRDY) != RESET) && (RCC_OscInitStruct->HSIState != RCC_HSI_ON))
 8001d26:	4b5c      	ldr	r3, [pc, #368]	; (8001e98 <HAL_RCC_OscConfig+0x2ac>)
 8001d28:	681b      	ldr	r3, [r3, #0]
 8001d2a:	f003 0302 	and.w	r3, r3, #2
 8001d2e:	2b00      	cmp	r3, #0
 8001d30:	d005      	beq.n	8001d3e <HAL_RCC_OscConfig+0x152>
 8001d32:	687b      	ldr	r3, [r7, #4]
 8001d34:	68db      	ldr	r3, [r3, #12]
 8001d36:	2b01      	cmp	r3, #1
 8001d38:	d001      	beq.n	8001d3e <HAL_RCC_OscConfig+0x152>
      {
        return HAL_ERROR;
 8001d3a:	2301      	movs	r3, #1
 8001d3c:	e1c4      	b.n	80020c8 <HAL_RCC_OscConfig+0x4dc>
      }
      /* Otherwise, just the calibration is allowed */
      else
      {
        /* Adjusts the Internal High Speed oscillator (HSI) calibration value.*/
        __HAL_RCC_HSI_CALIBRATIONVALUE_ADJUST(RCC_OscInitStruct->HSICalibrationValue);
 8001d3e:	4b56      	ldr	r3, [pc, #344]	; (8001e98 <HAL_RCC_OscConfig+0x2ac>)
 8001d40:	681b      	ldr	r3, [r3, #0]
 8001d42:	f023 02f8 	bic.w	r2, r3, #248	; 0xf8
 8001d46:	687b      	ldr	r3, [r7, #4]
 8001d48:	691b      	ldr	r3, [r3, #16]
 8001d4a:	00db      	lsls	r3, r3, #3
 8001d4c:	4952      	ldr	r1, [pc, #328]	; (8001e98 <HAL_RCC_OscConfig+0x2ac>)
 8001d4e:	4313      	orrs	r3, r2
 8001d50:	600b      	str	r3, [r1, #0]
      if((__HAL_RCC_GET_FLAG(RCC_FLAG_HSIRDY) != RESET) && (RCC_OscInitStruct->HSIState != RCC_HSI_ON))
 8001d52:	e03a      	b.n	8001dca <HAL_RCC_OscConfig+0x1de>
      }
    }
    else
    {
      /* Check the HSI State */
      if((RCC_OscInitStruct->HSIState)!= RCC_HSI_OFF)
 8001d54:	687b      	ldr	r3, [r7, #4]
 8001d56:	68db      	ldr	r3, [r3, #12]
 8001d58:	2b00      	cmp	r3, #0
 8001d5a:	d020      	beq.n	8001d9e <HAL_RCC_OscConfig+0x1b2>
      {
        /* Enable the Internal High Speed oscillator (HSI). */
        __HAL_RCC_HSI_ENABLE();
 8001d5c:	4b4f      	ldr	r3, [pc, #316]	; (8001e9c <HAL_RCC_OscConfig+0x2b0>)
 8001d5e:	2201      	movs	r2, #1
 8001d60:	601a      	str	r2, [r3, #0]

        /* Get Start Tick*/
        tickstart = HAL_GetTick();
 8001d62:	f7ff fc7b 	bl	800165c <HAL_GetTick>
 8001d66:	6138      	str	r0, [r7, #16]

        /* Wait till HSI is ready */
        while(__HAL_RCC_GET_FLAG(RCC_FLAG_HSIRDY) == RESET)
 8001d68:	e008      	b.n	8001d7c <HAL_RCC_OscConfig+0x190>
        {
          if((HAL_GetTick() - tickstart ) > HSI_TIMEOUT_VALUE)
 8001d6a:	f7ff fc77 	bl	800165c <HAL_GetTick>
 8001d6e:	4602      	mov	r2, r0
 8001d70:	693b      	ldr	r3, [r7, #16]
 8001d72:	1ad3      	subs	r3, r2, r3
 8001d74:	2b02      	cmp	r3, #2
 8001d76:	d901      	bls.n	8001d7c <HAL_RCC_OscConfig+0x190>
          {
            return HAL_TIMEOUT;
 8001d78:	2303      	movs	r3, #3
 8001d7a:	e1a5      	b.n	80020c8 <HAL_RCC_OscConfig+0x4dc>
        while(__HAL_RCC_GET_FLAG(RCC_FLAG_HSIRDY) == RESET)
 8001d7c:	4b46      	ldr	r3, [pc, #280]	; (8001e98 <HAL_RCC_OscConfig+0x2ac>)
 8001d7e:	681b      	ldr	r3, [r3, #0]
 8001d80:	f003 0302 	and.w	r3, r3, #2
 8001d84:	2b00      	cmp	r3, #0
 8001d86:	d0f0      	beq.n	8001d6a <HAL_RCC_OscConfig+0x17e>
          }
        }

        /* Adjusts the Internal High Speed oscillator (HSI) calibration value. */
        __HAL_RCC_HSI_CALIBRATIONVALUE_ADJUST(RCC_OscInitStruct->HSICalibrationValue);
 8001d88:	4b43      	ldr	r3, [pc, #268]	; (8001e98 <HAL_RCC_OscConfig+0x2ac>)
 8001d8a:	681b      	ldr	r3, [r3, #0]
 8001d8c:	f023 02f8 	bic.w	r2, r3, #248	; 0xf8
 8001d90:	687b      	ldr	r3, [r7, #4]
 8001d92:	691b      	ldr	r3, [r3, #16]
 8001d94:	00db      	lsls	r3, r3, #3
 8001d96:	4940      	ldr	r1, [pc, #256]	; (8001e98 <HAL_RCC_OscConfig+0x2ac>)
 8001d98:	4313      	orrs	r3, r2
 8001d9a:	600b      	str	r3, [r1, #0]
 8001d9c:	e015      	b.n	8001dca <HAL_RCC_OscConfig+0x1de>
      }
      else
      {
        /* Disable the Internal High Speed oscillator (HSI). */
        __HAL_RCC_HSI_DISABLE();
 8001d9e:	4b3f      	ldr	r3, [pc, #252]	; (8001e9c <HAL_RCC_OscConfig+0x2b0>)
 8001da0:	2200      	movs	r2, #0
 8001da2:	601a      	str	r2, [r3, #0]

        /* Get Start Tick*/
        tickstart = HAL_GetTick();
 8001da4:	f7ff fc5a 	bl	800165c <HAL_GetTick>
 8001da8:	6138      	str	r0, [r7, #16]

        /* Wait till HSI is ready */
        while(__HAL_RCC_GET_FLAG(RCC_FLAG_HSIRDY) != RESET)
 8001daa:	e008      	b.n	8001dbe <HAL_RCC_OscConfig+0x1d2>
        {
          if((HAL_GetTick() - tickstart ) > HSI_TIMEOUT_VALUE)
 8001dac:	f7ff fc56 	bl	800165c <HAL_GetTick>
 8001db0:	4602      	mov	r2, r0
 8001db2:	693b      	ldr	r3, [r7, #16]
 8001db4:	1ad3      	subs	r3, r2, r3
 8001db6:	2b02      	cmp	r3, #2
 8001db8:	d901      	bls.n	8001dbe <HAL_RCC_OscConfig+0x1d2>
          {
            return HAL_TIMEOUT;
 8001dba:	2303      	movs	r3, #3
 8001dbc:	e184      	b.n	80020c8 <HAL_RCC_OscConfig+0x4dc>
        while(__HAL_RCC_GET_FLAG(RCC_FLAG_HSIRDY) != RESET)
 8001dbe:	4b36      	ldr	r3, [pc, #216]	; (8001e98 <HAL_RCC_OscConfig+0x2ac>)
 8001dc0:	681b      	ldr	r3, [r3, #0]
 8001dc2:	f003 0302 	and.w	r3, r3, #2
 8001dc6:	2b00      	cmp	r3, #0
 8001dc8:	d1f0      	bne.n	8001dac <HAL_RCC_OscConfig+0x1c0>
        }
      }
    }
  }
  /*------------------------------ LSI Configuration -------------------------*/
  if(((RCC_OscInitStruct->OscillatorType) & RCC_OSCILLATORTYPE_LSI) == RCC_OSCILLATORTYPE_LSI)
 8001dca:	687b      	ldr	r3, [r7, #4]
 8001dcc:	681b      	ldr	r3, [r3, #0]
 8001dce:	f003 0308 	and.w	r3, r3, #8
 8001dd2:	2b00      	cmp	r3, #0
 8001dd4:	d030      	beq.n	8001e38 <HAL_RCC_OscConfig+0x24c>
  {
    /* Check the parameters */
    assert_param(IS_RCC_LSI(RCC_OscInitStruct->LSIState));

    /* Check the LSI State */
    if((RCC_OscInitStruct->LSIState)!= RCC_LSI_OFF)
 8001dd6:	687b      	ldr	r3, [r7, #4]
 8001dd8:	695b      	ldr	r3, [r3, #20]
 8001dda:	2b00      	cmp	r3, #0
 8001ddc:	d016      	beq.n	8001e0c <HAL_RCC_OscConfig+0x220>
    {
      /* Enable the Internal Low Speed oscillator (LSI). */
      __HAL_RCC_LSI_ENABLE();
 8001dde:	4b30      	ldr	r3, [pc, #192]	; (8001ea0 <HAL_RCC_OscConfig+0x2b4>)
 8001de0:	2201      	movs	r2, #1
 8001de2:	601a      	str	r2, [r3, #0]

      /* Get Start Tick*/
      tickstart = HAL_GetTick();
 8001de4:	f7ff fc3a 	bl	800165c <HAL_GetTick>
 8001de8:	6138      	str	r0, [r7, #16]

      /* Wait till LSI is ready */
      while(__HAL_RCC_GET_FLAG(RCC_FLAG_LSIRDY) == RESET)
 8001dea:	e008      	b.n	8001dfe <HAL_RCC_OscConfig+0x212>
      {
        if((HAL_GetTick() - tickstart ) > LSI_TIMEOUT_VALUE)
 8001dec:	f7ff fc36 	bl	800165c <HAL_GetTick>
 8001df0:	4602      	mov	r2, r0
 8001df2:	693b      	ldr	r3, [r7, #16]
 8001df4:	1ad3      	subs	r3, r2, r3
 8001df6:	2b02      	cmp	r3, #2
 8001df8:	d901      	bls.n	8001dfe <HAL_RCC_OscConfig+0x212>
        {
          return HAL_TIMEOUT;
 8001dfa:	2303      	movs	r3, #3
 8001dfc:	e164      	b.n	80020c8 <HAL_RCC_OscConfig+0x4dc>
      while(__HAL_RCC_GET_FLAG(RCC_FLAG_LSIRDY) == RESET)
 8001dfe:	4b26      	ldr	r3, [pc, #152]	; (8001e98 <HAL_RCC_OscConfig+0x2ac>)
 8001e00:	6f5b      	ldr	r3, [r3, #116]	; 0x74
 8001e02:	f003 0302 	and.w	r3, r3, #2
 8001e06:	2b00      	cmp	r3, #0
 8001e08:	d0f0      	beq.n	8001dec <HAL_RCC_OscConfig+0x200>
 8001e0a:	e015      	b.n	8001e38 <HAL_RCC_OscConfig+0x24c>
      }
    }
    else
    {
      /* Disable the Internal Low Speed oscillator (LSI). */
      __HAL_RCC_LSI_DISABLE();
 8001e0c:	4b24      	ldr	r3, [pc, #144]	; (8001ea0 <HAL_RCC_OscConfig+0x2b4>)
 8001e0e:	2200      	movs	r2, #0
 8001e10:	601a      	str	r2, [r3, #0]

      /* Get Start Tick */
      tickstart = HAL_GetTick();
 8001e12:	f7ff fc23 	bl	800165c <HAL_GetTick>
 8001e16:	6138      	str	r0, [r7, #16]

      /* Wait till LSI is ready */
      while(__HAL_RCC_GET_FLAG(RCC_FLAG_LSIRDY) != RESET)
 8001e18:	e008      	b.n	8001e2c <HAL_RCC_OscConfig+0x240>
      {
        if((HAL_GetTick() - tickstart ) > LSI_TIMEOUT_VALUE)
 8001e1a:	f7ff fc1f 	bl	800165c <HAL_GetTick>
 8001e1e:	4602      	mov	r2, r0
 8001e20:	693b      	ldr	r3, [r7, #16]
 8001e22:	1ad3      	subs	r3, r2, r3
 8001e24:	2b02      	cmp	r3, #2
 8001e26:	d901      	bls.n	8001e2c <HAL_RCC_OscConfig+0x240>
        {
          return HAL_TIMEOUT;
 8001e28:	2303      	movs	r3, #3
 8001e2a:	e14d      	b.n	80020c8 <HAL_RCC_OscConfig+0x4dc>
      while(__HAL_RCC_GET_FLAG(RCC_FLAG_LSIRDY) != RESET)
 8001e2c:	4b1a      	ldr	r3, [pc, #104]	; (8001e98 <HAL_RCC_OscConfig+0x2ac>)
 8001e2e:	6f5b      	ldr	r3, [r3, #116]	; 0x74
 8001e30:	f003 0302 	and.w	r3, r3, #2
 8001e34:	2b00      	cmp	r3, #0
 8001e36:	d1f0      	bne.n	8001e1a <HAL_RCC_OscConfig+0x22e>
        }
      }
    }
  }
  /*------------------------------ LSE Configuration -------------------------*/
  if(((RCC_OscInitStruct->OscillatorType) & RCC_OSCILLATORTYPE_LSE) == RCC_OSCILLATORTYPE_LSE)
 8001e38:	687b      	ldr	r3, [r7, #4]
 8001e3a:	681b      	ldr	r3, [r3, #0]
 8001e3c:	f003 0304 	and.w	r3, r3, #4
 8001e40:	2b00      	cmp	r3, #0
 8001e42:	f000 80a0 	beq.w	8001f86 <HAL_RCC_OscConfig+0x39a>
  {
    FlagStatus       pwrclkchanged = RESET;
 8001e46:	2300      	movs	r3, #0
 8001e48:	75fb      	strb	r3, [r7, #23]
    /* Check the parameters */
    assert_param(IS_RCC_LSE(RCC_OscInitStruct->LSEState));

    /* Update LSE configuration in Backup Domain control register    */
    /* Requires to enable write access to Backup Domain of necessary */
    if(__HAL_RCC_PWR_IS_CLK_DISABLED())
 8001e4a:	4b13      	ldr	r3, [pc, #76]	; (8001e98 <HAL_RCC_OscConfig+0x2ac>)
 8001e4c:	6c1b      	ldr	r3, [r3, #64]	; 0x40
 8001e4e:	f003 5380 	and.w	r3, r3, #268435456	; 0x10000000
 8001e52:	2b00      	cmp	r3, #0
 8001e54:	d10f      	bne.n	8001e76 <HAL_RCC_OscConfig+0x28a>
    {
      __HAL_RCC_PWR_CLK_ENABLE();
 8001e56:	2300      	movs	r3, #0
 8001e58:	60bb      	str	r3, [r7, #8]
 8001e5a:	4b0f      	ldr	r3, [pc, #60]	; (8001e98 <HAL_RCC_OscConfig+0x2ac>)
 8001e5c:	6c1b      	ldr	r3, [r3, #64]	; 0x40
 8001e5e:	4a0e      	ldr	r2, [pc, #56]	; (8001e98 <HAL_RCC_OscConfig+0x2ac>)
 8001e60:	f043 5380 	orr.w	r3, r3, #268435456	; 0x10000000
 8001e64:	6413      	str	r3, [r2, #64]	; 0x40
 8001e66:	4b0c      	ldr	r3, [pc, #48]	; (8001e98 <HAL_RCC_OscConfig+0x2ac>)
 8001e68:	6c1b      	ldr	r3, [r3, #64]	; 0x40
 8001e6a:	f003 5380 	and.w	r3, r3, #268435456	; 0x10000000
 8001e6e:	60bb      	str	r3, [r7, #8]
 8001e70:	68bb      	ldr	r3, [r7, #8]
      pwrclkchanged = SET;
 8001e72:	2301      	movs	r3, #1
 8001e74:	75fb      	strb	r3, [r7, #23]
    }

    if(HAL_IS_BIT_CLR(PWR->CR, PWR_CR_DBP))
 8001e76:	4b0b      	ldr	r3, [pc, #44]	; (8001ea4 <HAL_RCC_OscConfig+0x2b8>)
 8001e78:	681b      	ldr	r3, [r3, #0]
 8001e7a:	f403 7380 	and.w	r3, r3, #256	; 0x100
 8001e7e:	2b00      	cmp	r3, #0
 8001e80:	d121      	bne.n	8001ec6 <HAL_RCC_OscConfig+0x2da>
    {
      /* Enable write access to Backup domain */
      SET_BIT(PWR->CR, PWR_CR_DBP);
 8001e82:	4b08      	ldr	r3, [pc, #32]	; (8001ea4 <HAL_RCC_OscConfig+0x2b8>)
 8001e84:	681b      	ldr	r3, [r3, #0]
 8001e86:	4a07      	ldr	r2, [pc, #28]	; (8001ea4 <HAL_RCC_OscConfig+0x2b8>)
 8001e88:	f443 7380 	orr.w	r3, r3, #256	; 0x100
 8001e8c:	6013      	str	r3, [r2, #0]

      /* Wait for Backup domain Write protection disable */
      tickstart = HAL_GetTick();
 8001e8e:	f7ff fbe5 	bl	800165c <HAL_GetTick>
 8001e92:	6138      	str	r0, [r7, #16]

      while(HAL_IS_BIT_CLR(PWR->CR, PWR_CR_DBP))
 8001e94:	e011      	b.n	8001eba <HAL_RCC_OscConfig+0x2ce>
 8001e96:	bf00      	nop
 8001e98:	40023800 	.word	0x40023800
 8001e9c:	42470000 	.word	0x42470000
 8001ea0:	42470e80 	.word	0x42470e80
 8001ea4:	40007000 	.word	0x40007000
      {
        if((HAL_GetTick() - tickstart) > RCC_DBP_TIMEOUT_VALUE)
 8001ea8:	f7ff fbd8 	bl	800165c <HAL_GetTick>
 8001eac:	4602      	mov	r2, r0
 8001eae:	693b      	ldr	r3, [r7, #16]
 8001eb0:	1ad3      	subs	r3, r2, r3
 8001eb2:	2b02      	cmp	r3, #2
 8001eb4:	d901      	bls.n	8001eba <HAL_RCC_OscConfig+0x2ce>
        {
          return HAL_TIMEOUT;
 8001eb6:	2303      	movs	r3, #3
 8001eb8:	e106      	b.n	80020c8 <HAL_RCC_OscConfig+0x4dc>
      while(HAL_IS_BIT_CLR(PWR->CR, PWR_CR_DBP))
 8001eba:	4b85      	ldr	r3, [pc, #532]	; (80020d0 <HAL_RCC_OscConfig+0x4e4>)
 8001ebc:	681b      	ldr	r3, [r3, #0]
 8001ebe:	f403 7380 	and.w	r3, r3, #256	; 0x100
 8001ec2:	2b00      	cmp	r3, #0
 8001ec4:	d0f0      	beq.n	8001ea8 <HAL_RCC_OscConfig+0x2bc>
        }
      }
    }

    /* Set the new LSE configuration -----------------------------------------*/
    __HAL_RCC_LSE_CONFIG(RCC_OscInitStruct->LSEState);
 8001ec6:	687b      	ldr	r3, [r7, #4]
 8001ec8:	689b      	ldr	r3, [r3, #8]
 8001eca:	2b01      	cmp	r3, #1
 8001ecc:	d106      	bne.n	8001edc <HAL_RCC_OscConfig+0x2f0>
 8001ece:	4b81      	ldr	r3, [pc, #516]	; (80020d4 <HAL_RCC_OscConfig+0x4e8>)
 8001ed0:	6f1b      	ldr	r3, [r3, #112]	; 0x70
 8001ed2:	4a80      	ldr	r2, [pc, #512]	; (80020d4 <HAL_RCC_OscConfig+0x4e8>)
 8001ed4:	f043 0301 	orr.w	r3, r3, #1
 8001ed8:	6713      	str	r3, [r2, #112]	; 0x70
 8001eda:	e01c      	b.n	8001f16 <HAL_RCC_OscConfig+0x32a>
 8001edc:	687b      	ldr	r3, [r7, #4]
 8001ede:	689b      	ldr	r3, [r3, #8]
 8001ee0:	2b05      	cmp	r3, #5
 8001ee2:	d10c      	bne.n	8001efe <HAL_RCC_OscConfig+0x312>
 8001ee4:	4b7b      	ldr	r3, [pc, #492]	; (80020d4 <HAL_RCC_OscConfig+0x4e8>)
 8001ee6:	6f1b      	ldr	r3, [r3, #112]	; 0x70
 8001ee8:	4a7a      	ldr	r2, [pc, #488]	; (80020d4 <HAL_RCC_OscConfig+0x4e8>)
 8001eea:	f043 0304 	orr.w	r3, r3, #4
 8001eee:	6713      	str	r3, [r2, #112]	; 0x70
 8001ef0:	4b78      	ldr	r3, [pc, #480]	; (80020d4 <HAL_RCC_OscConfig+0x4e8>)
 8001ef2:	6f1b      	ldr	r3, [r3, #112]	; 0x70
 8001ef4:	4a77      	ldr	r2, [pc, #476]	; (80020d4 <HAL_RCC_OscConfig+0x4e8>)
 8001ef6:	f043 0301 	orr.w	r3, r3, #1
 8001efa:	6713      	str	r3, [r2, #112]	; 0x70
 8001efc:	e00b      	b.n	8001f16 <HAL_RCC_OscConfig+0x32a>
 8001efe:	4b75      	ldr	r3, [pc, #468]	; (80020d4 <HAL_RCC_OscConfig+0x4e8>)
 8001f00:	6f1b      	ldr	r3, [r3, #112]	; 0x70
 8001f02:	4a74      	ldr	r2, [pc, #464]	; (80020d4 <HAL_RCC_OscConfig+0x4e8>)
 8001f04:	f023 0301 	bic.w	r3, r3, #1
 8001f08:	6713      	str	r3, [r2, #112]	; 0x70
 8001f0a:	4b72      	ldr	r3, [pc, #456]	; (80020d4 <HAL_RCC_OscConfig+0x4e8>)
 8001f0c:	6f1b      	ldr	r3, [r3, #112]	; 0x70
 8001f0e:	4a71      	ldr	r2, [pc, #452]	; (80020d4 <HAL_RCC_OscConfig+0x4e8>)
 8001f10:	f023 0304 	bic.w	r3, r3, #4
 8001f14:	6713      	str	r3, [r2, #112]	; 0x70
    /* Check the LSE State */
    if((RCC_OscInitStruct->LSEState) != RCC_LSE_OFF)
 8001f16:	687b      	ldr	r3, [r7, #4]
 8001f18:	689b      	ldr	r3, [r3, #8]
 8001f1a:	2b00      	cmp	r3, #0
 8001f1c:	d015      	beq.n	8001f4a <HAL_RCC_OscConfig+0x35e>
    {
      /* Get Start Tick*/
      tickstart = HAL_GetTick();
 8001f1e:	f7ff fb9d 	bl	800165c <HAL_GetTick>
 8001f22:	6138      	str	r0, [r7, #16]

      /* Wait till LSE is ready */
      while(__HAL_RCC_GET_FLAG(RCC_FLAG_LSERDY) == RESET)
 8001f24:	e00a      	b.n	8001f3c <HAL_RCC_OscConfig+0x350>
      {
        if((HAL_GetTick() - tickstart ) > RCC_LSE_TIMEOUT_VALUE)
 8001f26:	f7ff fb99 	bl	800165c <HAL_GetTick>
 8001f2a:	4602      	mov	r2, r0
 8001f2c:	693b      	ldr	r3, [r7, #16]
 8001f2e:	1ad3      	subs	r3, r2, r3
 8001f30:	f241 3288 	movw	r2, #5000	; 0x1388
 8001f34:	4293      	cmp	r3, r2
 8001f36:	d901      	bls.n	8001f3c <HAL_RCC_OscConfig+0x350>
        {
          return HAL_TIMEOUT;
 8001f38:	2303      	movs	r3, #3
 8001f3a:	e0c5      	b.n	80020c8 <HAL_RCC_OscConfig+0x4dc>
      while(__HAL_RCC_GET_FLAG(RCC_FLAG_LSERDY) == RESET)
 8001f3c:	4b65      	ldr	r3, [pc, #404]	; (80020d4 <HAL_RCC_OscConfig+0x4e8>)
 8001f3e:	6f1b      	ldr	r3, [r3, #112]	; 0x70
 8001f40:	f003 0302 	and.w	r3, r3, #2
 8001f44:	2b00      	cmp	r3, #0
 8001f46:	d0ee      	beq.n	8001f26 <HAL_RCC_OscConfig+0x33a>
 8001f48:	e014      	b.n	8001f74 <HAL_RCC_OscConfig+0x388>
      }
    }
    else
    {
      /* Get Start Tick */
      tickstart = HAL_GetTick();
 8001f4a:	f7ff fb87 	bl	800165c <HAL_GetTick>
 8001f4e:	6138      	str	r0, [r7, #16]

      /* Wait till LSE is ready */
      while(__HAL_RCC_GET_FLAG(RCC_FLAG_LSERDY) != RESET)
 8001f50:	e00a      	b.n	8001f68 <HAL_RCC_OscConfig+0x37c>
      {
        if((HAL_GetTick() - tickstart ) > RCC_LSE_TIMEOUT_VALUE)
 8001f52:	f7ff fb83 	bl	800165c <HAL_GetTick>
 8001f56:	4602      	mov	r2, r0
 8001f58:	693b      	ldr	r3, [r7, #16]
 8001f5a:	1ad3      	subs	r3, r2, r3
 8001f5c:	f241 3288 	movw	r2, #5000	; 0x1388
 8001f60:	4293      	cmp	r3, r2
 8001f62:	d901      	bls.n	8001f68 <HAL_RCC_OscConfig+0x37c>
        {
          return HAL_TIMEOUT;
 8001f64:	2303      	movs	r3, #3
 8001f66:	e0af      	b.n	80020c8 <HAL_RCC_OscConfig+0x4dc>
      while(__HAL_RCC_GET_FLAG(RCC_FLAG_LSERDY) != RESET)
 8001f68:	4b5a      	ldr	r3, [pc, #360]	; (80020d4 <HAL_RCC_OscConfig+0x4e8>)
 8001f6a:	6f1b      	ldr	r3, [r3, #112]	; 0x70
 8001f6c:	f003 0302 	and.w	r3, r3, #2
 8001f70:	2b00      	cmp	r3, #0
 8001f72:	d1ee      	bne.n	8001f52 <HAL_RCC_OscConfig+0x366>
        }
      }
    }

    /* Restore clock configuration if changed */
    if(pwrclkchanged == SET)
 8001f74:	7dfb      	ldrb	r3, [r7, #23]
 8001f76:	2b01      	cmp	r3, #1
 8001f78:	d105      	bne.n	8001f86 <HAL_RCC_OscConfig+0x39a>
    {
      __HAL_RCC_PWR_CLK_DISABLE();
 8001f7a:	4b56      	ldr	r3, [pc, #344]	; (80020d4 <HAL_RCC_OscConfig+0x4e8>)
 8001f7c:	6c1b      	ldr	r3, [r3, #64]	; 0x40
 8001f7e:	4a55      	ldr	r2, [pc, #340]	; (80020d4 <HAL_RCC_OscConfig+0x4e8>)
 8001f80:	f023 5380 	bic.w	r3, r3, #268435456	; 0x10000000
 8001f84:	6413      	str	r3, [r2, #64]	; 0x40
    }
  }
  /*-------------------------------- PLL Configuration -----------------------*/
  /* Check the parameters */
  assert_param(IS_RCC_PLL(RCC_OscInitStruct->PLL.PLLState));
  if ((RCC_OscInitStruct->PLL.PLLState) != RCC_PLL_NONE)
 8001f86:	687b      	ldr	r3, [r7, #4]
 8001f88:	699b      	ldr	r3, [r3, #24]
 8001f8a:	2b00      	cmp	r3, #0
 8001f8c:	f000 809b 	beq.w	80020c6 <HAL_RCC_OscConfig+0x4da>
  {
    /* Check if the PLL is used as system clock or not */
    if(__HAL_RCC_GET_SYSCLK_SOURCE() != RCC_CFGR_SWS_PLL)
 8001f90:	4b50      	ldr	r3, [pc, #320]	; (80020d4 <HAL_RCC_OscConfig+0x4e8>)
 8001f92:	689b      	ldr	r3, [r3, #8]
 8001f94:	f003 030c 	and.w	r3, r3, #12
 8001f98:	2b08      	cmp	r3, #8
 8001f9a:	d05c      	beq.n	8002056 <HAL_RCC_OscConfig+0x46a>
    {
      if((RCC_OscInitStruct->PLL.PLLState) == RCC_PLL_ON)
 8001f9c:	687b      	ldr	r3, [r7, #4]
 8001f9e:	699b      	ldr	r3, [r3, #24]
 8001fa0:	2b02      	cmp	r3, #2
 8001fa2:	d141      	bne.n	8002028 <HAL_RCC_OscConfig+0x43c>
        assert_param(IS_RCC_PLLN_VALUE(RCC_OscInitStruct->PLL.PLLN));
        assert_param(IS_RCC_PLLP_VALUE(RCC_OscInitStruct->PLL.PLLP));
        assert_param(IS_RCC_PLLQ_VALUE(RCC_OscInitStruct->PLL.PLLQ));

        /* Disable the main PLL. */
        __HAL_RCC_PLL_DISABLE();
 8001fa4:	4b4c      	ldr	r3, [pc, #304]	; (80020d8 <HAL_RCC_OscConfig+0x4ec>)
 8001fa6:	2200      	movs	r2, #0
 8001fa8:	601a      	str	r2, [r3, #0]

        /* Get Start Tick */
        tickstart = HAL_GetTick();
 8001faa:	f7ff fb57 	bl	800165c <HAL_GetTick>
 8001fae:	6138      	str	r0, [r7, #16]

        /* Wait till PLL is ready */
        while(__HAL_RCC_GET_FLAG(RCC_FLAG_PLLRDY) != RESET)
 8001fb0:	e008      	b.n	8001fc4 <HAL_RCC_OscConfig+0x3d8>
        {
          if((HAL_GetTick() - tickstart ) > PLL_TIMEOUT_VALUE)
 8001fb2:	f7ff fb53 	bl	800165c <HAL_GetTick>
 8001fb6:	4602      	mov	r2, r0
 8001fb8:	693b      	ldr	r3, [r7, #16]
 8001fba:	1ad3      	subs	r3, r2, r3
 8001fbc:	2b02      	cmp	r3, #2
 8001fbe:	d901      	bls.n	8001fc4 <HAL_RCC_OscConfig+0x3d8>
          {
            return HAL_TIMEOUT;
 8001fc0:	2303      	movs	r3, #3
 8001fc2:	e081      	b.n	80020c8 <HAL_RCC_OscConfig+0x4dc>
        while(__HAL_RCC_GET_FLAG(RCC_FLAG_PLLRDY) != RESET)
 8001fc4:	4b43      	ldr	r3, [pc, #268]	; (80020d4 <HAL_RCC_OscConfig+0x4e8>)
 8001fc6:	681b      	ldr	r3, [r3, #0]
 8001fc8:	f003 7300 	and.w	r3, r3, #33554432	; 0x2000000
 8001fcc:	2b00      	cmp	r3, #0
 8001fce:	d1f0      	bne.n	8001fb2 <HAL_RCC_OscConfig+0x3c6>
          }
        }

        /* Configure the main PLL clock source, multiplication and division factors. */
        WRITE_REG(RCC->PLLCFGR, (RCC_OscInitStruct->PLL.PLLSource                                            | \
 8001fd0:	687b      	ldr	r3, [r7, #4]
 8001fd2:	69da      	ldr	r2, [r3, #28]
 8001fd4:	687b      	ldr	r3, [r7, #4]
 8001fd6:	6a1b      	ldr	r3, [r3, #32]
 8001fd8:	431a      	orrs	r2, r3
 8001fda:	687b      	ldr	r3, [r7, #4]
 8001fdc:	6a5b      	ldr	r3, [r3, #36]	; 0x24
 8001fde:	019b      	lsls	r3, r3, #6
 8001fe0:	431a      	orrs	r2, r3
 8001fe2:	687b      	ldr	r3, [r7, #4]
 8001fe4:	6a9b      	ldr	r3, [r3, #40]	; 0x28
 8001fe6:	085b      	lsrs	r3, r3, #1
 8001fe8:	3b01      	subs	r3, #1
 8001fea:	041b      	lsls	r3, r3, #16
 8001fec:	431a      	orrs	r2, r3
 8001fee:	687b      	ldr	r3, [r7, #4]
 8001ff0:	6adb      	ldr	r3, [r3, #44]	; 0x2c
 8001ff2:	061b      	lsls	r3, r3, #24
 8001ff4:	4937      	ldr	r1, [pc, #220]	; (80020d4 <HAL_RCC_OscConfig+0x4e8>)
 8001ff6:	4313      	orrs	r3, r2
 8001ff8:	604b      	str	r3, [r1, #4]
                                 RCC_OscInitStruct->PLL.PLLM                                                 | \
                                 (RCC_OscInitStruct->PLL.PLLN << RCC_PLLCFGR_PLLN_Pos)             | \
                                 (((RCC_OscInitStruct->PLL.PLLP >> 1U) - 1U) << RCC_PLLCFGR_PLLP_Pos) | \
                                 (RCC_OscInitStruct->PLL.PLLQ << RCC_PLLCFGR_PLLQ_Pos)));
        /* Enable the main PLL. */
        __HAL_RCC_PLL_ENABLE();
 8001ffa:	4b37      	ldr	r3, [pc, #220]	; (80020d8 <HAL_RCC_OscConfig+0x4ec>)
 8001ffc:	2201      	movs	r2, #1
 8001ffe:	601a      	str	r2, [r3, #0]

        /* Get Start Tick */
        tickstart = HAL_GetTick();
 8002000:	f7ff fb2c 	bl	800165c <HAL_GetTick>
 8002004:	6138      	str	r0, [r7, #16]

        /* Wait till PLL is ready */
        while(__HAL_RCC_GET_FLAG(RCC_FLAG_PLLRDY) == RESET)
 8002006:	e008      	b.n	800201a <HAL_RCC_OscConfig+0x42e>
        {
          if((HAL_GetTick() - tickstart ) > PLL_TIMEOUT_VALUE)
 8002008:	f7ff fb28 	bl	800165c <HAL_GetTick>
 800200c:	4602      	mov	r2, r0
 800200e:	693b      	ldr	r3, [r7, #16]
 8002010:	1ad3      	subs	r3, r2, r3
 8002012:	2b02      	cmp	r3, #2
 8002014:	d901      	bls.n	800201a <HAL_RCC_OscConfig+0x42e>
          {
            return HAL_TIMEOUT;
 8002016:	2303      	movs	r3, #3
 8002018:	e056      	b.n	80020c8 <HAL_RCC_OscConfig+0x4dc>
        while(__HAL_RCC_GET_FLAG(RCC_FLAG_PLLRDY) == RESET)
 800201a:	4b2e      	ldr	r3, [pc, #184]	; (80020d4 <HAL_RCC_OscConfig+0x4e8>)
 800201c:	681b      	ldr	r3, [r3, #0]
 800201e:	f003 7300 	and.w	r3, r3, #33554432	; 0x2000000
 8002022:	2b00      	cmp	r3, #0
 8002024:	d0f0      	beq.n	8002008 <HAL_RCC_OscConfig+0x41c>
 8002026:	e04e      	b.n	80020c6 <HAL_RCC_OscConfig+0x4da>
        }
      }
      else
      {
        /* Disable the main PLL. */
        __HAL_RCC_PLL_DISABLE();
 8002028:	4b2b      	ldr	r3, [pc, #172]	; (80020d8 <HAL_RCC_OscConfig+0x4ec>)
 800202a:	2200      	movs	r2, #0
 800202c:	601a      	str	r2, [r3, #0]

        /* Get Start Tick */
        tickstart = HAL_GetTick();
 800202e:	f7ff fb15 	bl	800165c <HAL_GetTick>
 8002032:	6138      	str	r0, [r7, #16]

        /* Wait till PLL is ready */
        while(__HAL_RCC_GET_FLAG(RCC_FLAG_PLLRDY) != RESET)
 8002034:	e008      	b.n	8002048 <HAL_RCC_OscConfig+0x45c>
        {
          if((HAL_GetTick() - tickstart ) > PLL_TIMEOUT_VALUE)
 8002036:	f7ff fb11 	bl	800165c <HAL_GetTick>
 800203a:	4602      	mov	r2, r0
 800203c:	693b      	ldr	r3, [r7, #16]
 800203e:	1ad3      	subs	r3, r2, r3
 8002040:	2b02      	cmp	r3, #2
 8002042:	d901      	bls.n	8002048 <HAL_RCC_OscConfig+0x45c>
          {
            return HAL_TIMEOUT;
 8002044:	2303      	movs	r3, #3
 8002046:	e03f      	b.n	80020c8 <HAL_RCC_OscConfig+0x4dc>
        while(__HAL_RCC_GET_FLAG(RCC_FLAG_PLLRDY) != RESET)
 8002048:	4b22      	ldr	r3, [pc, #136]	; (80020d4 <HAL_RCC_OscConfig+0x4e8>)
 800204a:	681b      	ldr	r3, [r3, #0]
 800204c:	f003 7300 	and.w	r3, r3, #33554432	; 0x2000000
 8002050:	2b00      	cmp	r3, #0
 8002052:	d1f0      	bne.n	8002036 <HAL_RCC_OscConfig+0x44a>
 8002054:	e037      	b.n	80020c6 <HAL_RCC_OscConfig+0x4da>
      }
    }
    else
    {
      /* Check if there is a request to disable the PLL used as System clock source */
      if((RCC_OscInitStruct->PLL.PLLState) == RCC_PLL_OFF)
 8002056:	687b      	ldr	r3, [r7, #4]
 8002058:	699b      	ldr	r3, [r3, #24]
 800205a:	2b01      	cmp	r3, #1
 800205c:	d101      	bne.n	8002062 <HAL_RCC_OscConfig+0x476>
      {
        return HAL_ERROR;
 800205e:	2301      	movs	r3, #1
 8002060:	e032      	b.n	80020c8 <HAL_RCC_OscConfig+0x4dc>
      }
      else
      {
        /* Do not return HAL_ERROR if request repeats the current configuration */
        pll_config = RCC->PLLCFGR;
 8002062:	4b1c      	ldr	r3, [pc, #112]	; (80020d4 <HAL_RCC_OscConfig+0x4e8>)
 8002064:	685b      	ldr	r3, [r3, #4]
 8002066:	60fb      	str	r3, [r7, #12]
            (READ_BIT(pll_config, RCC_PLLCFGR_PLLN) != (RCC_OscInitStruct->PLL.PLLN) << RCC_PLLCFGR_PLLN_Pos) ||
            (READ_BIT(pll_config, RCC_PLLCFGR_PLLP) != (((RCC_OscInitStruct->PLL.PLLP >> 1U) - 1U)) << RCC_PLLCFGR_PLLP_Pos) ||
            (READ_BIT(pll_config, RCC_PLLCFGR_PLLQ) != (RCC_OscInitStruct->PLL.PLLQ << RCC_PLLCFGR_PLLQ_Pos)) ||
            (READ_BIT(pll_config, RCC_PLLCFGR_PLLR) != (RCC_OscInitStruct->PLL.PLLR << RCC_PLLCFGR_PLLR_Pos)))
#else
        if (((RCC_OscInitStruct->PLL.PLLState) == RCC_PLL_OFF) ||
 8002068:	687b      	ldr	r3, [r7, #4]
 800206a:	699b      	ldr	r3, [r3, #24]
 800206c:	2b01      	cmp	r3, #1
 800206e:	d028      	beq.n	80020c2 <HAL_RCC_OscConfig+0x4d6>
            (READ_BIT(pll_config, RCC_PLLCFGR_PLLSRC) != RCC_OscInitStruct->PLL.PLLSource) ||
 8002070:	68fb      	ldr	r3, [r7, #12]
 8002072:	f403 0280 	and.w	r2, r3, #4194304	; 0x400000
 8002076:	687b      	ldr	r3, [r7, #4]
 8002078:	69db      	ldr	r3, [r3, #28]
        if (((RCC_OscInitStruct->PLL.PLLState) == RCC_PLL_OFF) ||
 800207a:	429a      	cmp	r2, r3
 800207c:	d121      	bne.n	80020c2 <HAL_RCC_OscConfig+0x4d6>
            (READ_BIT(pll_config, RCC_PLLCFGR_PLLM) != (RCC_OscInitStruct->PLL.PLLM) << RCC_PLLCFGR_PLLM_Pos) ||
 800207e:	68fb      	ldr	r3, [r7, #12]
 8002080:	f003 023f 	and.w	r2, r3, #63	; 0x3f
 8002084:	687b      	ldr	r3, [r7, #4]
 8002086:	6a1b      	ldr	r3, [r3, #32]
            (READ_BIT(pll_config, RCC_PLLCFGR_PLLSRC) != RCC_OscInitStruct->PLL.PLLSource) ||
 8002088:	429a      	cmp	r2, r3
 800208a:	d11a      	bne.n	80020c2 <HAL_RCC_OscConfig+0x4d6>
            (READ_BIT(pll_config, RCC_PLLCFGR_PLLN) != (RCC_OscInitStruct->PLL.PLLN) << RCC_PLLCFGR_PLLN_Pos) ||
 800208c:	68fa      	ldr	r2, [r7, #12]
 800208e:	f647 73c0 	movw	r3, #32704	; 0x7fc0
 8002092:	4013      	ands	r3, r2
 8002094:	687a      	ldr	r2, [r7, #4]
 8002096:	6a52      	ldr	r2, [r2, #36]	; 0x24
 8002098:	0192      	lsls	r2, r2, #6
            (READ_BIT(pll_config, RCC_PLLCFGR_PLLM) != (RCC_OscInitStruct->PLL.PLLM) << RCC_PLLCFGR_PLLM_Pos) ||
 800209a:	4293      	cmp	r3, r2
 800209c:	d111      	bne.n	80020c2 <HAL_RCC_OscConfig+0x4d6>
            (READ_BIT(pll_config, RCC_PLLCFGR_PLLP) != (((RCC_OscInitStruct->PLL.PLLP >> 1U) - 1U)) << RCC_PLLCFGR_PLLP_Pos) ||
 800209e:	68fb      	ldr	r3, [r7, #12]
 80020a0:	f403 3240 	and.w	r2, r3, #196608	; 0x30000
 80020a4:	687b      	ldr	r3, [r7, #4]
 80020a6:	6a9b      	ldr	r3, [r3, #40]	; 0x28
 80020a8:	085b      	lsrs	r3, r3, #1
 80020aa:	3b01      	subs	r3, #1
 80020ac:	041b      	lsls	r3, r3, #16
            (READ_BIT(pll_config, RCC_PLLCFGR_PLLN) != (RCC_OscInitStruct->PLL.PLLN) << RCC_PLLCFGR_PLLN_Pos) ||
 80020ae:	429a      	cmp	r2, r3
 80020b0:	d107      	bne.n	80020c2 <HAL_RCC_OscConfig+0x4d6>
            (READ_BIT(pll_config, RCC_PLLCFGR_PLLQ) != (RCC_OscInitStruct->PLL.PLLQ << RCC_PLLCFGR_PLLQ_Pos)))
 80020b2:	68fb      	ldr	r3, [r7, #12]
 80020b4:	f003 6270 	and.w	r2, r3, #251658240	; 0xf000000
 80020b8:	687b      	ldr	r3, [r7, #4]
 80020ba:	6adb      	ldr	r3, [r3, #44]	; 0x2c
 80020bc:	061b      	lsls	r3, r3, #24
            (READ_BIT(pll_config, RCC_PLLCFGR_PLLP) != (((RCC_OscInitStruct->PLL.PLLP >> 1U) - 1U)) << RCC_PLLCFGR_PLLP_Pos) ||
 80020be:	429a      	cmp	r2, r3
 80020c0:	d001      	beq.n	80020c6 <HAL_RCC_OscConfig+0x4da>
#endif
        {
          return HAL_ERROR;
 80020c2:	2301      	movs	r3, #1
 80020c4:	e000      	b.n	80020c8 <HAL_RCC_OscConfig+0x4dc>
        }
      }
    }
  }
  return HAL_OK;
 80020c6:	2300      	movs	r3, #0
}
 80020c8:	4618      	mov	r0, r3
 80020ca:	3718      	adds	r7, #24
 80020cc:	46bd      	mov	sp, r7
 80020ce:	bd80      	pop	{r7, pc}
 80020d0:	40007000 	.word	0x40007000
 80020d4:	40023800 	.word	0x40023800
 80020d8:	42470060 	.word	0x42470060

080020dc <HAL_RCC_ClockConfig>:
  *         HPRE[3:0] bits to ensure that HCLK not exceed the maximum allowed frequency
  *         (for more details refer to section above "Initialization/de-initialization functions")
  * @retval None
  */
HAL_StatusTypeDef HAL_RCC_ClockConfig(RCC_ClkInitTypeDef  *RCC_ClkInitStruct, uint32_t FLatency)
{
 80020dc:	b580      	push	{r7, lr}
 80020de:	b084      	sub	sp, #16
 80020e0:	af00      	add	r7, sp, #0
 80020e2:	6078      	str	r0, [r7, #4]
 80020e4:	6039      	str	r1, [r7, #0]
  uint32_t tickstart;

  /* Check Null pointer */
  if(RCC_ClkInitStruct == NULL)
 80020e6:	687b      	ldr	r3, [r7, #4]
 80020e8:	2b00      	cmp	r3, #0
 80020ea:	d101      	bne.n	80020f0 <HAL_RCC_ClockConfig+0x14>
  {
    return HAL_ERROR;
 80020ec:	2301      	movs	r3, #1
 80020ee:	e0cc      	b.n	800228a <HAL_RCC_ClockConfig+0x1ae>
  /* To correctly read data from FLASH memory, the number of wait states (LATENCY)
    must be correctly programmed according to the frequency of the CPU clock
    (HCLK) and the supply voltage of the device. */

  /* Increasing the number of wait states because of higher CPU frequency */
  if(FLatency > __HAL_FLASH_GET_LATENCY())
 80020f0:	4b68      	ldr	r3, [pc, #416]	; (8002294 <HAL_RCC_ClockConfig+0x1b8>)
 80020f2:	681b      	ldr	r3, [r3, #0]
 80020f4:	f003 0307 	and.w	r3, r3, #7
 80020f8:	683a      	ldr	r2, [r7, #0]
 80020fa:	429a      	cmp	r2, r3
 80020fc:	d90c      	bls.n	8002118 <HAL_RCC_ClockConfig+0x3c>
  {
    /* Program the new number of wait states to the LATENCY bits in the FLASH_ACR register */
    __HAL_FLASH_SET_LATENCY(FLatency);
 80020fe:	4b65      	ldr	r3, [pc, #404]	; (8002294 <HAL_RCC_ClockConfig+0x1b8>)
 8002100:	683a      	ldr	r2, [r7, #0]
 8002102:	b2d2      	uxtb	r2, r2
 8002104:	701a      	strb	r2, [r3, #0]

    /* Check that the new number of wait states is taken into account to access the Flash
    memory by reading the FLASH_ACR register */
    if(__HAL_FLASH_GET_LATENCY() != FLatency)
 8002106:	4b63      	ldr	r3, [pc, #396]	; (8002294 <HAL_RCC_ClockConfig+0x1b8>)
 8002108:	681b      	ldr	r3, [r3, #0]
 800210a:	f003 0307 	and.w	r3, r3, #7
 800210e:	683a      	ldr	r2, [r7, #0]
 8002110:	429a      	cmp	r2, r3
 8002112:	d001      	beq.n	8002118 <HAL_RCC_ClockConfig+0x3c>
    {
      return HAL_ERROR;
 8002114:	2301      	movs	r3, #1
 8002116:	e0b8      	b.n	800228a <HAL_RCC_ClockConfig+0x1ae>
    }
  }

  /*-------------------------- HCLK Configuration --------------------------*/
  if(((RCC_ClkInitStruct->ClockType) & RCC_CLOCKTYPE_HCLK) == RCC_CLOCKTYPE_HCLK)
 8002118:	687b      	ldr	r3, [r7, #4]
 800211a:	681b      	ldr	r3, [r3, #0]
 800211c:	f003 0302 	and.w	r3, r3, #2
 8002120:	2b00      	cmp	r3, #0
 8002122:	d020      	beq.n	8002166 <HAL_RCC_ClockConfig+0x8a>
  {
    /* Set the highest APBx dividers in order to ensure that we do not go through
       a non-spec phase whatever we decrease or increase HCLK. */
    if(((RCC_ClkInitStruct->ClockType) & RCC_CLOCKTYPE_PCLK1) == RCC_CLOCKTYPE_PCLK1)
 8002124:	687b      	ldr	r3, [r7, #4]
 8002126:	681b      	ldr	r3, [r3, #0]
 8002128:	f003 0304 	and.w	r3, r3, #4
 800212c:	2b00      	cmp	r3, #0
 800212e:	d005      	beq.n	800213c <HAL_RCC_ClockConfig+0x60>
    {
      MODIFY_REG(RCC->CFGR, RCC_CFGR_PPRE1, RCC_HCLK_DIV16);
 8002130:	4b59      	ldr	r3, [pc, #356]	; (8002298 <HAL_RCC_ClockConfig+0x1bc>)
 8002132:	689b      	ldr	r3, [r3, #8]
 8002134:	4a58      	ldr	r2, [pc, #352]	; (8002298 <HAL_RCC_ClockConfig+0x1bc>)
 8002136:	f443 53e0 	orr.w	r3, r3, #7168	; 0x1c00
 800213a:	6093      	str	r3, [r2, #8]
    }

    if(((RCC_ClkInitStruct->ClockType) & RCC_CLOCKTYPE_PCLK2) == RCC_CLOCKTYPE_PCLK2)
 800213c:	687b      	ldr	r3, [r7, #4]
 800213e:	681b      	ldr	r3, [r3, #0]
 8002140:	f003 0308 	and.w	r3, r3, #8
 8002144:	2b00      	cmp	r3, #0
 8002146:	d005      	beq.n	8002154 <HAL_RCC_ClockConfig+0x78>
    {
      MODIFY_REG(RCC->CFGR, RCC_CFGR_PPRE2, (RCC_HCLK_DIV16 << 3));
 8002148:	4b53      	ldr	r3, [pc, #332]	; (8002298 <HAL_RCC_ClockConfig+0x1bc>)
 800214a:	689b      	ldr	r3, [r3, #8]
 800214c:	4a52      	ldr	r2, [pc, #328]	; (8002298 <HAL_RCC_ClockConfig+0x1bc>)
 800214e:	f443 4360 	orr.w	r3, r3, #57344	; 0xe000
 8002152:	6093      	str	r3, [r2, #8]
    }

    assert_param(IS_RCC_HCLK(RCC_ClkInitStruct->AHBCLKDivider));
    MODIFY_REG(RCC->CFGR, RCC_CFGR_HPRE, RCC_ClkInitStruct->AHBCLKDivider);
 8002154:	4b50      	ldr	r3, [pc, #320]	; (8002298 <HAL_RCC_ClockConfig+0x1bc>)
 8002156:	689b      	ldr	r3, [r3, #8]
 8002158:	f023 02f0 	bic.w	r2, r3, #240	; 0xf0
 800215c:	687b      	ldr	r3, [r7, #4]
 800215e:	689b      	ldr	r3, [r3, #8]
 8002160:	494d      	ldr	r1, [pc, #308]	; (8002298 <HAL_RCC_ClockConfig+0x1bc>)
 8002162:	4313      	orrs	r3, r2
 8002164:	608b      	str	r3, [r1, #8]
  }

  /*------------------------- SYSCLK Configuration ---------------------------*/
  if(((RCC_ClkInitStruct->ClockType) & RCC_CLOCKTYPE_SYSCLK) == RCC_CLOCKTYPE_SYSCLK)
 8002166:	687b      	ldr	r3, [r7, #4]
 8002168:	681b      	ldr	r3, [r3, #0]
 800216a:	f003 0301 	and.w	r3, r3, #1
 800216e:	2b00      	cmp	r3, #0
 8002170:	d044      	beq.n	80021fc <HAL_RCC_ClockConfig+0x120>
  {
    assert_param(IS_RCC_SYSCLKSOURCE(RCC_ClkInitStruct->SYSCLKSource));

    /* HSE is selected as System Clock Source */
    if(RCC_ClkInitStruct->SYSCLKSource == RCC_SYSCLKSOURCE_HSE)
 8002172:	687b      	ldr	r3, [r7, #4]
 8002174:	685b      	ldr	r3, [r3, #4]
 8002176:	2b01      	cmp	r3, #1
 8002178:	d107      	bne.n	800218a <HAL_RCC_ClockConfig+0xae>
    {
      /* Check the HSE ready flag */
      if(__HAL_RCC_GET_FLAG(RCC_FLAG_HSERDY) == RESET)
 800217a:	4b47      	ldr	r3, [pc, #284]	; (8002298 <HAL_RCC_ClockConfig+0x1bc>)
 800217c:	681b      	ldr	r3, [r3, #0]
 800217e:	f403 3300 	and.w	r3, r3, #131072	; 0x20000
 8002182:	2b00      	cmp	r3, #0
 8002184:	d119      	bne.n	80021ba <HAL_RCC_ClockConfig+0xde>
      {
        return HAL_ERROR;
 8002186:	2301      	movs	r3, #1
 8002188:	e07f      	b.n	800228a <HAL_RCC_ClockConfig+0x1ae>
      }
    }
    /* PLL is selected as System Clock Source */
    else if((RCC_ClkInitStruct->SYSCLKSource == RCC_SYSCLKSOURCE_PLLCLK)   ||
 800218a:	687b      	ldr	r3, [r7, #4]
 800218c:	685b      	ldr	r3, [r3, #4]
 800218e:	2b02      	cmp	r3, #2
 8002190:	d003      	beq.n	800219a <HAL_RCC_ClockConfig+0xbe>
            (RCC_ClkInitStruct->SYSCLKSource == RCC_SYSCLKSOURCE_PLLRCLK))
 8002192:	687b      	ldr	r3, [r7, #4]
 8002194:	685b      	ldr	r3, [r3, #4]
    else if((RCC_ClkInitStruct->SYSCLKSource == RCC_SYSCLKSOURCE_PLLCLK)   ||
 8002196:	2b03      	cmp	r3, #3
 8002198:	d107      	bne.n	80021aa <HAL_RCC_ClockConfig+0xce>
    {
      /* Check the PLL ready flag */
      if(__HAL_RCC_GET_FLAG(RCC_FLAG_PLLRDY) == RESET)
 800219a:	4b3f      	ldr	r3, [pc, #252]	; (8002298 <HAL_RCC_ClockConfig+0x1bc>)
 800219c:	681b      	ldr	r3, [r3, #0]
 800219e:	f003 7300 	and.w	r3, r3, #33554432	; 0x2000000
 80021a2:	2b00      	cmp	r3, #0
 80021a4:	d109      	bne.n	80021ba <HAL_RCC_ClockConfig+0xde>
      {
        return HAL_ERROR;
 80021a6:	2301      	movs	r3, #1
 80021a8:	e06f      	b.n	800228a <HAL_RCC_ClockConfig+0x1ae>
    }
    /* HSI is selected as System Clock Source */
    else
    {
      /* Check the HSI ready flag */
      if(__HAL_RCC_GET_FLAG(RCC_FLAG_HSIRDY) == RESET)
 80021aa:	4b3b      	ldr	r3, [pc, #236]	; (8002298 <HAL_RCC_ClockConfig+0x1bc>)
 80021ac:	681b      	ldr	r3, [r3, #0]
 80021ae:	f003 0302 	and.w	r3, r3, #2
 80021b2:	2b00      	cmp	r3, #0
 80021b4:	d101      	bne.n	80021ba <HAL_RCC_ClockConfig+0xde>
      {
        return HAL_ERROR;
 80021b6:	2301      	movs	r3, #1
 80021b8:	e067      	b.n	800228a <HAL_RCC_ClockConfig+0x1ae>
      }
    }

    __HAL_RCC_SYSCLK_CONFIG(RCC_ClkInitStruct->SYSCLKSource);
 80021ba:	4b37      	ldr	r3, [pc, #220]	; (8002298 <HAL_RCC_ClockConfig+0x1bc>)
 80021bc:	689b      	ldr	r3, [r3, #8]
 80021be:	f023 0203 	bic.w	r2, r3, #3
 80021c2:	687b      	ldr	r3, [r7, #4]
 80021c4:	685b      	ldr	r3, [r3, #4]
 80021c6:	4934      	ldr	r1, [pc, #208]	; (8002298 <HAL_RCC_ClockConfig+0x1bc>)
 80021c8:	4313      	orrs	r3, r2
 80021ca:	608b      	str	r3, [r1, #8]

    /* Get Start Tick */
    tickstart = HAL_GetTick();
 80021cc:	f7ff fa46 	bl	800165c <HAL_GetTick>
 80021d0:	60f8      	str	r0, [r7, #12]

    while (__HAL_RCC_GET_SYSCLK_SOURCE() != (RCC_ClkInitStruct->SYSCLKSource << RCC_CFGR_SWS_Pos))
 80021d2:	e00a      	b.n	80021ea <HAL_RCC_ClockConfig+0x10e>
    {
      if ((HAL_GetTick() - tickstart) > CLOCKSWITCH_TIMEOUT_VALUE)
 80021d4:	f7ff fa42 	bl	800165c <HAL_GetTick>
 80021d8:	4602      	mov	r2, r0
 80021da:	68fb      	ldr	r3, [r7, #12]
 80021dc:	1ad3      	subs	r3, r2, r3
 80021de:	f241 3288 	movw	r2, #5000	; 0x1388
 80021e2:	4293      	cmp	r3, r2
 80021e4:	d901      	bls.n	80021ea <HAL_RCC_ClockConfig+0x10e>
      {
        return HAL_TIMEOUT;
 80021e6:	2303      	movs	r3, #3
 80021e8:	e04f      	b.n	800228a <HAL_RCC_ClockConfig+0x1ae>
    while (__HAL_RCC_GET_SYSCLK_SOURCE() != (RCC_ClkInitStruct->SYSCLKSource << RCC_CFGR_SWS_Pos))
 80021ea:	4b2b      	ldr	r3, [pc, #172]	; (8002298 <HAL_RCC_ClockConfig+0x1bc>)
 80021ec:	689b      	ldr	r3, [r3, #8]
 80021ee:	f003 020c 	and.w	r2, r3, #12
 80021f2:	687b      	ldr	r3, [r7, #4]
 80021f4:	685b      	ldr	r3, [r3, #4]
 80021f6:	009b      	lsls	r3, r3, #2
 80021f8:	429a      	cmp	r2, r3
 80021fa:	d1eb      	bne.n	80021d4 <HAL_RCC_ClockConfig+0xf8>
      }
    }
  }

  /* Decreasing the number of wait states because of lower CPU frequency */
  if(FLatency < __HAL_FLASH_GET_LATENCY())
 80021fc:	4b25      	ldr	r3, [pc, #148]	; (8002294 <HAL_RCC_ClockConfig+0x1b8>)
 80021fe:	681b      	ldr	r3, [r3, #0]
 8002200:	f003 0307 	and.w	r3, r3, #7
 8002204:	683a      	ldr	r2, [r7, #0]
 8002206:	429a      	cmp	r2, r3
 8002208:	d20c      	bcs.n	8002224 <HAL_RCC_ClockConfig+0x148>
  {
     /* Program the new number of wait states to the LATENCY bits in the FLASH_ACR register */
    __HAL_FLASH_SET_LATENCY(FLatency);
 800220a:	4b22      	ldr	r3, [pc, #136]	; (8002294 <HAL_RCC_ClockConfig+0x1b8>)
 800220c:	683a      	ldr	r2, [r7, #0]
 800220e:	b2d2      	uxtb	r2, r2
 8002210:	701a      	strb	r2, [r3, #0]

    /* Check that the new number of wait states is taken into account to access the Flash
    memory by reading the FLASH_ACR register */
    if(__HAL_FLASH_GET_LATENCY() != FLatency)
 8002212:	4b20      	ldr	r3, [pc, #128]	; (8002294 <HAL_RCC_ClockConfig+0x1b8>)
 8002214:	681b      	ldr	r3, [r3, #0]
 8002216:	f003 0307 	and.w	r3, r3, #7
 800221a:	683a      	ldr	r2, [r7, #0]
 800221c:	429a      	cmp	r2, r3
 800221e:	d001      	beq.n	8002224 <HAL_RCC_ClockConfig+0x148>
    {
      return HAL_ERROR;
 8002220:	2301      	movs	r3, #1
 8002222:	e032      	b.n	800228a <HAL_RCC_ClockConfig+0x1ae>
    }
  }

  /*-------------------------- PCLK1 Configuration ---------------------------*/
  if(((RCC_ClkInitStruct->ClockType) & RCC_CLOCKTYPE_PCLK1) == RCC_CLOCKTYPE_PCLK1)
 8002224:	687b      	ldr	r3, [r7, #4]
 8002226:	681b      	ldr	r3, [r3, #0]
 8002228:	f003 0304 	and.w	r3, r3, #4
 800222c:	2b00      	cmp	r3, #0
 800222e:	d008      	beq.n	8002242 <HAL_RCC_ClockConfig+0x166>
  {
    assert_param(IS_RCC_PCLK(RCC_ClkInitStruct->APB1CLKDivider));
    MODIFY_REG(RCC->CFGR, RCC_CFGR_PPRE1, RCC_ClkInitStruct->APB1CLKDivider);
 8002230:	4b19      	ldr	r3, [pc, #100]	; (8002298 <HAL_RCC_ClockConfig+0x1bc>)
 8002232:	689b      	ldr	r3, [r3, #8]
 8002234:	f423 52e0 	bic.w	r2, r3, #7168	; 0x1c00
 8002238:	687b      	ldr	r3, [r7, #4]
 800223a:	68db      	ldr	r3, [r3, #12]
 800223c:	4916      	ldr	r1, [pc, #88]	; (8002298 <HAL_RCC_ClockConfig+0x1bc>)
 800223e:	4313      	orrs	r3, r2
 8002240:	608b      	str	r3, [r1, #8]
  }

  /*-------------------------- PCLK2 Configuration ---------------------------*/
  if(((RCC_ClkInitStruct->ClockType) & RCC_CLOCKTYPE_PCLK2) == RCC_CLOCKTYPE_PCLK2)
 8002242:	687b      	ldr	r3, [r7, #4]
 8002244:	681b      	ldr	r3, [r3, #0]
 8002246:	f003 0308 	and.w	r3, r3, #8
 800224a:	2b00      	cmp	r3, #0
 800224c:	d009      	beq.n	8002262 <HAL_RCC_ClockConfig+0x186>
  {
    assert_param(IS_RCC_PCLK(RCC_ClkInitStruct->APB2CLKDivider));
    MODIFY_REG(RCC->CFGR, RCC_CFGR_PPRE2, ((RCC_ClkInitStruct->APB2CLKDivider) << 3U));
 800224e:	4b12      	ldr	r3, [pc, #72]	; (8002298 <HAL_RCC_ClockConfig+0x1bc>)
 8002250:	689b      	ldr	r3, [r3, #8]
 8002252:	f423 4260 	bic.w	r2, r3, #57344	; 0xe000
 8002256:	687b      	ldr	r3, [r7, #4]
 8002258:	691b      	ldr	r3, [r3, #16]
 800225a:	00db      	lsls	r3, r3, #3
 800225c:	490e      	ldr	r1, [pc, #56]	; (8002298 <HAL_RCC_ClockConfig+0x1bc>)
 800225e:	4313      	orrs	r3, r2
 8002260:	608b      	str	r3, [r1, #8]
  }

  /* Update the SystemCoreClock global variable */
  SystemCoreClock = HAL_RCC_GetSysClockFreq() >> AHBPrescTable[(RCC->CFGR & RCC_CFGR_HPRE)>> RCC_CFGR_HPRE_Pos];
 8002262:	f000 f821 	bl	80022a8 <HAL_RCC_GetSysClockFreq>
 8002266:	4602      	mov	r2, r0
 8002268:	4b0b      	ldr	r3, [pc, #44]	; (8002298 <HAL_RCC_ClockConfig+0x1bc>)
 800226a:	689b      	ldr	r3, [r3, #8]
 800226c:	091b      	lsrs	r3, r3, #4
 800226e:	f003 030f 	and.w	r3, r3, #15
 8002272:	490a      	ldr	r1, [pc, #40]	; (800229c <HAL_RCC_ClockConfig+0x1c0>)
 8002274:	5ccb      	ldrb	r3, [r1, r3]
 8002276:	fa22 f303 	lsr.w	r3, r2, r3
 800227a:	4a09      	ldr	r2, [pc, #36]	; (80022a0 <HAL_RCC_ClockConfig+0x1c4>)
 800227c:	6013      	str	r3, [r2, #0]

  /* Configure the source of time base considering new system clocks settings */
  HAL_InitTick (uwTickPrio);
 800227e:	4b09      	ldr	r3, [pc, #36]	; (80022a4 <HAL_RCC_ClockConfig+0x1c8>)
 8002280:	681b      	ldr	r3, [r3, #0]
 8002282:	4618      	mov	r0, r3
 8002284:	f7ff f822 	bl	80012cc <HAL_InitTick>

  return HAL_OK;
 8002288:	2300      	movs	r3, #0
}
 800228a:	4618      	mov	r0, r3
 800228c:	3710      	adds	r7, #16
 800228e:	46bd      	mov	sp, r7
 8002290:	bd80      	pop	{r7, pc}
 8002292:	bf00      	nop
 8002294:	40023c00 	.word	0x40023c00
 8002298:	40023800 	.word	0x40023800
 800229c:	08005d9c 	.word	0x08005d9c
 80022a0:	20000000 	.word	0x20000000
 80022a4:	20000004 	.word	0x20000004

080022a8 <HAL_RCC_GetSysClockFreq>:
  *
  *
  * @retval SYSCLK frequency
  */
__weak uint32_t HAL_RCC_GetSysClockFreq(void)
{
 80022a8:	e92d 43b0 	stmdb	sp!, {r4, r5, r7, r8, r9, lr}
 80022ac:	b084      	sub	sp, #16
 80022ae:	af00      	add	r7, sp, #0
  uint32_t pllm = 0U, pllvco = 0U, pllp = 0U;
 80022b0:	2300      	movs	r3, #0
 80022b2:	607b      	str	r3, [r7, #4]
 80022b4:	2300      	movs	r3, #0
 80022b6:	60fb      	str	r3, [r7, #12]
 80022b8:	2300      	movs	r3, #0
 80022ba:	603b      	str	r3, [r7, #0]
  uint32_t sysclockfreq = 0U;
 80022bc:	2300      	movs	r3, #0
 80022be:	60bb      	str	r3, [r7, #8]

  /* Get SYSCLK source -------------------------------------------------------*/
  switch (RCC->CFGR & RCC_CFGR_SWS)
 80022c0:	4b67      	ldr	r3, [pc, #412]	; (8002460 <HAL_RCC_GetSysClockFreq+0x1b8>)
 80022c2:	689b      	ldr	r3, [r3, #8]
 80022c4:	f003 030c 	and.w	r3, r3, #12
 80022c8:	2b08      	cmp	r3, #8
 80022ca:	d00d      	beq.n	80022e8 <HAL_RCC_GetSysClockFreq+0x40>
 80022cc:	2b08      	cmp	r3, #8
 80022ce:	f200 80bd 	bhi.w	800244c <HAL_RCC_GetSysClockFreq+0x1a4>
 80022d2:	2b00      	cmp	r3, #0
 80022d4:	d002      	beq.n	80022dc <HAL_RCC_GetSysClockFreq+0x34>
 80022d6:	2b04      	cmp	r3, #4
 80022d8:	d003      	beq.n	80022e2 <HAL_RCC_GetSysClockFreq+0x3a>
 80022da:	e0b7      	b.n	800244c <HAL_RCC_GetSysClockFreq+0x1a4>
  {
    case RCC_CFGR_SWS_HSI:  /* HSI used as system clock source */
    {
      sysclockfreq = HSI_VALUE;
 80022dc:	4b61      	ldr	r3, [pc, #388]	; (8002464 <HAL_RCC_GetSysClockFreq+0x1bc>)
 80022de:	60bb      	str	r3, [r7, #8]
       break;
 80022e0:	e0b7      	b.n	8002452 <HAL_RCC_GetSysClockFreq+0x1aa>
    }
    case RCC_CFGR_SWS_HSE:  /* HSE used as system clock  source */
    {
      sysclockfreq = HSE_VALUE;
 80022e2:	4b61      	ldr	r3, [pc, #388]	; (8002468 <HAL_RCC_GetSysClockFreq+0x1c0>)
 80022e4:	60bb      	str	r3, [r7, #8]
      break;
 80022e6:	e0b4      	b.n	8002452 <HAL_RCC_GetSysClockFreq+0x1aa>
    }
    case RCC_CFGR_SWS_PLL:  /* PLL used as system clock  source */
    {
      /* PLL_VCO = (HSE_VALUE or HSI_VALUE / PLLM) * PLLN
      SYSCLK = PLL_VCO / PLLP */
      pllm = RCC->PLLCFGR & RCC_PLLCFGR_PLLM;
 80022e8:	4b5d      	ldr	r3, [pc, #372]	; (8002460 <HAL_RCC_GetSysClockFreq+0x1b8>)
 80022ea:	685b      	ldr	r3, [r3, #4]
 80022ec:	f003 033f 	and.w	r3, r3, #63	; 0x3f
 80022f0:	607b      	str	r3, [r7, #4]
      if(__HAL_RCC_GET_PLL_OSCSOURCE() != RCC_PLLSOURCE_HSI)
 80022f2:	4b5b      	ldr	r3, [pc, #364]	; (8002460 <HAL_RCC_GetSysClockFreq+0x1b8>)
 80022f4:	685b      	ldr	r3, [r3, #4]
 80022f6:	f403 0380 	and.w	r3, r3, #4194304	; 0x400000
 80022fa:	2b00      	cmp	r3, #0
 80022fc:	d04d      	beq.n	800239a <HAL_RCC_GetSysClockFreq+0xf2>
      {
        /* HSE used as PLL clock source */
        pllvco = (uint32_t) ((((uint64_t) HSE_VALUE * ((uint64_t) ((RCC->PLLCFGR & RCC_PLLCFGR_PLLN) >> RCC_PLLCFGR_PLLN_Pos)))) / (uint64_t)pllm);
 80022fe:	4b58      	ldr	r3, [pc, #352]	; (8002460 <HAL_RCC_GetSysClockFreq+0x1b8>)
 8002300:	685b      	ldr	r3, [r3, #4]
 8002302:	099b      	lsrs	r3, r3, #6
 8002304:	461a      	mov	r2, r3
 8002306:	f04f 0300 	mov.w	r3, #0
 800230a:	f240 10ff 	movw	r0, #511	; 0x1ff
 800230e:	f04f 0100 	mov.w	r1, #0
 8002312:	ea02 0800 	and.w	r8, r2, r0
 8002316:	ea03 0901 	and.w	r9, r3, r1
 800231a:	4640      	mov	r0, r8
 800231c:	4649      	mov	r1, r9
 800231e:	f04f 0200 	mov.w	r2, #0
 8002322:	f04f 0300 	mov.w	r3, #0
 8002326:	014b      	lsls	r3, r1, #5
 8002328:	ea43 63d0 	orr.w	r3, r3, r0, lsr #27
 800232c:	0142      	lsls	r2, r0, #5
 800232e:	4610      	mov	r0, r2
 8002330:	4619      	mov	r1, r3
 8002332:	ebb0 0008 	subs.w	r0, r0, r8
 8002336:	eb61 0109 	sbc.w	r1, r1, r9
 800233a:	f04f 0200 	mov.w	r2, #0
 800233e:	f04f 0300 	mov.w	r3, #0
 8002342:	018b      	lsls	r3, r1, #6
 8002344:	ea43 6390 	orr.w	r3, r3, r0, lsr #26
 8002348:	0182      	lsls	r2, r0, #6
 800234a:	1a12      	subs	r2, r2, r0
 800234c:	eb63 0301 	sbc.w	r3, r3, r1
 8002350:	f04f 0000 	mov.w	r0, #0
 8002354:	f04f 0100 	mov.w	r1, #0
 8002358:	00d9      	lsls	r1, r3, #3
 800235a:	ea41 7152 	orr.w	r1, r1, r2, lsr #29
 800235e:	00d0      	lsls	r0, r2, #3
 8002360:	4602      	mov	r2, r0
 8002362:	460b      	mov	r3, r1
 8002364:	eb12 0208 	adds.w	r2, r2, r8
 8002368:	eb43 0309 	adc.w	r3, r3, r9
 800236c:	f04f 0000 	mov.w	r0, #0
 8002370:	f04f 0100 	mov.w	r1, #0
 8002374:	0259      	lsls	r1, r3, #9
 8002376:	ea41 51d2 	orr.w	r1, r1, r2, lsr #23
 800237a:	0250      	lsls	r0, r2, #9
 800237c:	4602      	mov	r2, r0
 800237e:	460b      	mov	r3, r1
 8002380:	4610      	mov	r0, r2
 8002382:	4619      	mov	r1, r3
 8002384:	687b      	ldr	r3, [r7, #4]
 8002386:	461a      	mov	r2, r3
 8002388:	f04f 0300 	mov.w	r3, #0
 800238c:	f7fe fc0c 	bl	8000ba8 <__aeabi_uldivmod>
 8002390:	4602      	mov	r2, r0
 8002392:	460b      	mov	r3, r1
 8002394:	4613      	mov	r3, r2
 8002396:	60fb      	str	r3, [r7, #12]
 8002398:	e04a      	b.n	8002430 <HAL_RCC_GetSysClockFreq+0x188>
      }
      else
      {
        /* HSI used as PLL clock source */
        pllvco = (uint32_t) ((((uint64_t) HSI_VALUE * ((uint64_t) ((RCC->PLLCFGR & RCC_PLLCFGR_PLLN) >> RCC_PLLCFGR_PLLN_Pos)))) / (uint64_t)pllm);
 800239a:	4b31      	ldr	r3, [pc, #196]	; (8002460 <HAL_RCC_GetSysClockFreq+0x1b8>)
 800239c:	685b      	ldr	r3, [r3, #4]
 800239e:	099b      	lsrs	r3, r3, #6
 80023a0:	461a      	mov	r2, r3
 80023a2:	f04f 0300 	mov.w	r3, #0
 80023a6:	f240 10ff 	movw	r0, #511	; 0x1ff
 80023aa:	f04f 0100 	mov.w	r1, #0
 80023ae:	ea02 0400 	and.w	r4, r2, r0
 80023b2:	ea03 0501 	and.w	r5, r3, r1
 80023b6:	4620      	mov	r0, r4
 80023b8:	4629      	mov	r1, r5
 80023ba:	f04f 0200 	mov.w	r2, #0
 80023be:	f04f 0300 	mov.w	r3, #0
 80023c2:	014b      	lsls	r3, r1, #5
 80023c4:	ea43 63d0 	orr.w	r3, r3, r0, lsr #27
 80023c8:	0142      	lsls	r2, r0, #5
 80023ca:	4610      	mov	r0, r2
 80023cc:	4619      	mov	r1, r3
 80023ce:	1b00      	subs	r0, r0, r4
 80023d0:	eb61 0105 	sbc.w	r1, r1, r5
 80023d4:	f04f 0200 	mov.w	r2, #0
 80023d8:	f04f 0300 	mov.w	r3, #0
 80023dc:	018b      	lsls	r3, r1, #6
 80023de:	ea43 6390 	orr.w	r3, r3, r0, lsr #26
 80023e2:	0182      	lsls	r2, r0, #6
 80023e4:	1a12      	subs	r2, r2, r0
 80023e6:	eb63 0301 	sbc.w	r3, r3, r1
 80023ea:	f04f 0000 	mov.w	r0, #0
 80023ee:	f04f 0100 	mov.w	r1, #0
 80023f2:	00d9      	lsls	r1, r3, #3
 80023f4:	ea41 7152 	orr.w	r1, r1, r2, lsr #29
 80023f8:	00d0      	lsls	r0, r2, #3
 80023fa:	4602      	mov	r2, r0
 80023fc:	460b      	mov	r3, r1
 80023fe:	1912      	adds	r2, r2, r4
 8002400:	eb45 0303 	adc.w	r3, r5, r3
 8002404:	f04f 0000 	mov.w	r0, #0
 8002408:	f04f 0100 	mov.w	r1, #0
 800240c:	0299      	lsls	r1, r3, #10
 800240e:	ea41 5192 	orr.w	r1, r1, r2, lsr #22
 8002412:	0290      	lsls	r0, r2, #10
 8002414:	4602      	mov	r2, r0
 8002416:	460b      	mov	r3, r1
 8002418:	4610      	mov	r0, r2
 800241a:	4619      	mov	r1, r3
 800241c:	687b      	ldr	r3, [r7, #4]
 800241e:	461a      	mov	r2, r3
 8002420:	f04f 0300 	mov.w	r3, #0
 8002424:	f7fe fbc0 	bl	8000ba8 <__aeabi_uldivmod>
 8002428:	4602      	mov	r2, r0
 800242a:	460b      	mov	r3, r1
 800242c:	4613      	mov	r3, r2
 800242e:	60fb      	str	r3, [r7, #12]
      }
      pllp = ((((RCC->PLLCFGR & RCC_PLLCFGR_PLLP) >> RCC_PLLCFGR_PLLP_Pos) + 1U) *2U);
 8002430:	4b0b      	ldr	r3, [pc, #44]	; (8002460 <HAL_RCC_GetSysClockFreq+0x1b8>)
 8002432:	685b      	ldr	r3, [r3, #4]
 8002434:	0c1b      	lsrs	r3, r3, #16
 8002436:	f003 0303 	and.w	r3, r3, #3
 800243a:	3301      	adds	r3, #1
 800243c:	005b      	lsls	r3, r3, #1
 800243e:	603b      	str	r3, [r7, #0]

      sysclockfreq = pllvco/pllp;
 8002440:	68fa      	ldr	r2, [r7, #12]
 8002442:	683b      	ldr	r3, [r7, #0]
 8002444:	fbb2 f3f3 	udiv	r3, r2, r3
 8002448:	60bb      	str	r3, [r7, #8]
      break;
 800244a:	e002      	b.n	8002452 <HAL_RCC_GetSysClockFreq+0x1aa>
    }
    default:
    {
      sysclockfreq = HSI_VALUE;
 800244c:	4b05      	ldr	r3, [pc, #20]	; (8002464 <HAL_RCC_GetSysClockFreq+0x1bc>)
 800244e:	60bb      	str	r3, [r7, #8]
      break;
 8002450:	bf00      	nop
    }
  }
  return sysclockfreq;
 8002452:	68bb      	ldr	r3, [r7, #8]
}
 8002454:	4618      	mov	r0, r3
 8002456:	3710      	adds	r7, #16
 8002458:	46bd      	mov	sp, r7
 800245a:	e8bd 83b0 	ldmia.w	sp!, {r4, r5, r7, r8, r9, pc}
 800245e:	bf00      	nop
 8002460:	40023800 	.word	0x40023800
 8002464:	00f42400 	.word	0x00f42400
 8002468:	007a1200 	.word	0x007a1200

0800246c <HAL_RCC_GetHCLKFreq>:
  * @note   The SystemCoreClock CMSIS variable is used to store System Clock Frequency
  *         and updated within this function
  * @retval HCLK frequency
  */
uint32_t HAL_RCC_GetHCLKFreq(void)
{
 800246c:	b480      	push	{r7}
 800246e:	af00      	add	r7, sp, #0
  return SystemCoreClock;
 8002470:	4b03      	ldr	r3, [pc, #12]	; (8002480 <HAL_RCC_GetHCLKFreq+0x14>)
 8002472:	681b      	ldr	r3, [r3, #0]
}
 8002474:	4618      	mov	r0, r3
 8002476:	46bd      	mov	sp, r7
 8002478:	f85d 7b04 	ldr.w	r7, [sp], #4
 800247c:	4770      	bx	lr
 800247e:	bf00      	nop
 8002480:	20000000 	.word	0x20000000

08002484 <HAL_RCC_GetPCLK2Freq>:
  * @note   Each time PCLK2 changes, this function must be called to update the
  *         right PCLK2 value. Otherwise, any configuration based on this function will be incorrect.
  * @retval PCLK2 frequency
  */
uint32_t HAL_RCC_GetPCLK2Freq(void)
{
 8002484:	b580      	push	{r7, lr}
 8002486:	af00      	add	r7, sp, #0
  /* Get HCLK source and Compute PCLK2 frequency ---------------------------*/
  return (HAL_RCC_GetHCLKFreq()>> APBPrescTable[(RCC->CFGR & RCC_CFGR_PPRE2)>> RCC_CFGR_PPRE2_Pos]);
 8002488:	f7ff fff0 	bl	800246c <HAL_RCC_GetHCLKFreq>
 800248c:	4602      	mov	r2, r0
 800248e:	4b05      	ldr	r3, [pc, #20]	; (80024a4 <HAL_RCC_GetPCLK2Freq+0x20>)
 8002490:	689b      	ldr	r3, [r3, #8]
 8002492:	0b5b      	lsrs	r3, r3, #13
 8002494:	f003 0307 	and.w	r3, r3, #7
 8002498:	4903      	ldr	r1, [pc, #12]	; (80024a8 <HAL_RCC_GetPCLK2Freq+0x24>)
 800249a:	5ccb      	ldrb	r3, [r1, r3]
 800249c:	fa22 f303 	lsr.w	r3, r2, r3
}
 80024a0:	4618      	mov	r0, r3
 80024a2:	bd80      	pop	{r7, pc}
 80024a4:	40023800 	.word	0x40023800
 80024a8:	08005dac 	.word	0x08005dac

080024ac <HAL_RCC_GetClockConfig>:
  * will be configured.
  * @param  pFLatency Pointer on the Flash Latency.
  * @retval None
  */
void HAL_RCC_GetClockConfig(RCC_ClkInitTypeDef  *RCC_ClkInitStruct, uint32_t *pFLatency)
{
 80024ac:	b480      	push	{r7}
 80024ae:	b083      	sub	sp, #12
 80024b0:	af00      	add	r7, sp, #0
 80024b2:	6078      	str	r0, [r7, #4]
 80024b4:	6039      	str	r1, [r7, #0]
  /* Set all possible values for the Clock type parameter --------------------*/
  RCC_ClkInitStruct->ClockType = RCC_CLOCKTYPE_SYSCLK | RCC_CLOCKTYPE_HCLK | RCC_CLOCKTYPE_PCLK1 | RCC_CLOCKTYPE_PCLK2;
 80024b6:	687b      	ldr	r3, [r7, #4]
 80024b8:	220f      	movs	r2, #15
 80024ba:	601a      	str	r2, [r3, #0]

  /* Get the SYSCLK configuration --------------------------------------------*/
  RCC_ClkInitStruct->SYSCLKSource = (uint32_t)(RCC->CFGR & RCC_CFGR_SW);
 80024bc:	4b12      	ldr	r3, [pc, #72]	; (8002508 <HAL_RCC_GetClockConfig+0x5c>)
 80024be:	689b      	ldr	r3, [r3, #8]
 80024c0:	f003 0203 	and.w	r2, r3, #3
 80024c4:	687b      	ldr	r3, [r7, #4]
 80024c6:	605a      	str	r2, [r3, #4]

  /* Get the HCLK configuration ----------------------------------------------*/
  RCC_ClkInitStruct->AHBCLKDivider = (uint32_t)(RCC->CFGR & RCC_CFGR_HPRE);
 80024c8:	4b0f      	ldr	r3, [pc, #60]	; (8002508 <HAL_RCC_GetClockConfig+0x5c>)
 80024ca:	689b      	ldr	r3, [r3, #8]
 80024cc:	f003 02f0 	and.w	r2, r3, #240	; 0xf0
 80024d0:	687b      	ldr	r3, [r7, #4]
 80024d2:	609a      	str	r2, [r3, #8]

  /* Get the APB1 configuration ----------------------------------------------*/
  RCC_ClkInitStruct->APB1CLKDivider = (uint32_t)(RCC->CFGR & RCC_CFGR_PPRE1);
 80024d4:	4b0c      	ldr	r3, [pc, #48]	; (8002508 <HAL_RCC_GetClockConfig+0x5c>)
 80024d6:	689b      	ldr	r3, [r3, #8]
 80024d8:	f403 52e0 	and.w	r2, r3, #7168	; 0x1c00
 80024dc:	687b      	ldr	r3, [r7, #4]
 80024de:	60da      	str	r2, [r3, #12]

  /* Get the APB2 configuration ----------------------------------------------*/
  RCC_ClkInitStruct->APB2CLKDivider = (uint32_t)((RCC->CFGR & RCC_CFGR_PPRE2) >> 3U);
 80024e0:	4b09      	ldr	r3, [pc, #36]	; (8002508 <HAL_RCC_GetClockConfig+0x5c>)
 80024e2:	689b      	ldr	r3, [r3, #8]
 80024e4:	08db      	lsrs	r3, r3, #3
 80024e6:	f403 52e0 	and.w	r2, r3, #7168	; 0x1c00
 80024ea:	687b      	ldr	r3, [r7, #4]
 80024ec:	611a      	str	r2, [r3, #16]

  /* Get the Flash Wait State (Latency) configuration ------------------------*/
  *pFLatency = (uint32_t)(FLASH->ACR & FLASH_ACR_LATENCY);
 80024ee:	4b07      	ldr	r3, [pc, #28]	; (800250c <HAL_RCC_GetClockConfig+0x60>)
 80024f0:	681b      	ldr	r3, [r3, #0]
 80024f2:	f003 0207 	and.w	r2, r3, #7
 80024f6:	683b      	ldr	r3, [r7, #0]
 80024f8:	601a      	str	r2, [r3, #0]
}
 80024fa:	bf00      	nop
 80024fc:	370c      	adds	r7, #12
 80024fe:	46bd      	mov	sp, r7
 8002500:	f85d 7b04 	ldr.w	r7, [sp], #4
 8002504:	4770      	bx	lr
 8002506:	bf00      	nop
 8002508:	40023800 	.word	0x40023800
 800250c:	40023c00 	.word	0x40023c00

08002510 <HAL_TIM_Base_Init>:
  *         Ex: call @ref HAL_TIM_Base_DeInit() before HAL_TIM_Base_Init()
  * @param  htim TIM Base handle
  * @retval HAL status
  */
HAL_StatusTypeDef HAL_TIM_Base_Init(TIM_HandleTypeDef *htim)
{
 8002510:	b580      	push	{r7, lr}
 8002512:	b082      	sub	sp, #8
 8002514:	af00      	add	r7, sp, #0
 8002516:	6078      	str	r0, [r7, #4]
  /* Check the TIM handle allocation */
  if (htim == NULL)
 8002518:	687b      	ldr	r3, [r7, #4]
 800251a:	2b00      	cmp	r3, #0
 800251c:	d101      	bne.n	8002522 <HAL_TIM_Base_Init+0x12>
  {
    return HAL_ERROR;
 800251e:	2301      	movs	r3, #1
 8002520:	e041      	b.n	80025a6 <HAL_TIM_Base_Init+0x96>
  assert_param(IS_TIM_INSTANCE(htim->Instance));
  assert_param(IS_TIM_COUNTER_MODE(htim->Init.CounterMode));
  assert_param(IS_TIM_CLOCKDIVISION_DIV(htim->Init.ClockDivision));
  assert_param(IS_TIM_AUTORELOAD_PRELOAD(htim->Init.AutoReloadPreload));

  if (htim->State == HAL_TIM_STATE_RESET)
 8002522:	687b      	ldr	r3, [r7, #4]
 8002524:	f893 303d 	ldrb.w	r3, [r3, #61]	; 0x3d
 8002528:	b2db      	uxtb	r3, r3
 800252a:	2b00      	cmp	r3, #0
 800252c:	d106      	bne.n	800253c <HAL_TIM_Base_Init+0x2c>
  {
    /* Allocate lock resource and initialize it */
    htim->Lock = HAL_UNLOCKED;
 800252e:	687b      	ldr	r3, [r7, #4]
 8002530:	2200      	movs	r2, #0
 8002532:	f883 203c 	strb.w	r2, [r3, #60]	; 0x3c
    }
    /* Init the low level hardware : GPIO, CLOCK, NVIC */
    htim->Base_MspInitCallback(htim);
#else
    /* Init the low level hardware : GPIO, CLOCK, NVIC */
    HAL_TIM_Base_MspInit(htim);
 8002536:	6878      	ldr	r0, [r7, #4]
 8002538:	f000 f839 	bl	80025ae <HAL_TIM_Base_MspInit>
#endif /* USE_HAL_TIM_REGISTER_CALLBACKS */
  }

  /* Set the TIM state */
  htim->State = HAL_TIM_STATE_BUSY;
 800253c:	687b      	ldr	r3, [r7, #4]
 800253e:	2202      	movs	r2, #2
 8002540:	f883 203d 	strb.w	r2, [r3, #61]	; 0x3d

  /* Set the Time Base configuration */
  TIM_Base_SetConfig(htim->Instance, &htim->Init);
 8002544:	687b      	ldr	r3, [r7, #4]
 8002546:	681a      	ldr	r2, [r3, #0]
 8002548:	687b      	ldr	r3, [r7, #4]
 800254a:	3304      	adds	r3, #4
 800254c:	4619      	mov	r1, r3
 800254e:	4610      	mov	r0, r2
 8002550:	f000 f9d8 	bl	8002904 <TIM_Base_SetConfig>

  /* Initialize the DMA burst operation state */
  htim->DMABurstState = HAL_DMA_BURST_STATE_READY;
 8002554:	687b      	ldr	r3, [r7, #4]
 8002556:	2201      	movs	r2, #1
 8002558:	f883 2046 	strb.w	r2, [r3, #70]	; 0x46

  /* Initialize the TIM channels state */
  TIM_CHANNEL_STATE_SET_ALL(htim, HAL_TIM_CHANNEL_STATE_READY);
 800255c:	687b      	ldr	r3, [r7, #4]
 800255e:	2201      	movs	r2, #1
 8002560:	f883 203e 	strb.w	r2, [r3, #62]	; 0x3e
 8002564:	687b      	ldr	r3, [r7, #4]
 8002566:	2201      	movs	r2, #1
 8002568:	f883 203f 	strb.w	r2, [r3, #63]	; 0x3f
 800256c:	687b      	ldr	r3, [r7, #4]
 800256e:	2201      	movs	r2, #1
 8002570:	f883 2040 	strb.w	r2, [r3, #64]	; 0x40
 8002574:	687b      	ldr	r3, [r7, #4]
 8002576:	2201      	movs	r2, #1
 8002578:	f883 2041 	strb.w	r2, [r3, #65]	; 0x41
  TIM_CHANNEL_N_STATE_SET_ALL(htim, HAL_TIM_CHANNEL_STATE_READY);
 800257c:	687b      	ldr	r3, [r7, #4]
 800257e:	2201      	movs	r2, #1
 8002580:	f883 2042 	strb.w	r2, [r3, #66]	; 0x42
 8002584:	687b      	ldr	r3, [r7, #4]
 8002586:	2201      	movs	r2, #1
 8002588:	f883 2043 	strb.w	r2, [r3, #67]	; 0x43
 800258c:	687b      	ldr	r3, [r7, #4]
 800258e:	2201      	movs	r2, #1
 8002590:	f883 2044 	strb.w	r2, [r3, #68]	; 0x44
 8002594:	687b      	ldr	r3, [r7, #4]
 8002596:	2201      	movs	r2, #1
 8002598:	f883 2045 	strb.w	r2, [r3, #69]	; 0x45

  /* Initialize the TIM state*/
  htim->State = HAL_TIM_STATE_READY;
 800259c:	687b      	ldr	r3, [r7, #4]
 800259e:	2201      	movs	r2, #1
 80025a0:	f883 203d 	strb.w	r2, [r3, #61]	; 0x3d

  return HAL_OK;
 80025a4:	2300      	movs	r3, #0
}
 80025a6:	4618      	mov	r0, r3
 80025a8:	3708      	adds	r7, #8
 80025aa:	46bd      	mov	sp, r7
 80025ac:	bd80      	pop	{r7, pc}

080025ae <HAL_TIM_Base_MspInit>:
  * @brief  Initializes the TIM Base MSP.
  * @param  htim TIM Base handle
  * @retval None
  */
