
lab4_1Stm32f407.elf:     file format elf32-littlearm

Sections:
Idx Name          Size      VMA       LMA       File off  Algn
  0 .isr_vector   00000188  08000000  08000000  00010000  2**0
                  CONTENTS, ALLOC, LOAD, READONLY, DATA
  1 .text         00001b50  08000188  08000188  00010188  2**2
                  CONTENTS, ALLOC, LOAD, READONLY, CODE
  2 .rodata       00000010  08001cd8  08001cd8  00011cd8  2**2
                  CONTENTS, ALLOC, LOAD, READONLY, DATA
  3 .ARM.extab    00000000  08001ce8  08001ce8  0002000c  2**0
                  CONTENTS
  4 .ARM          00000008  08001ce8  08001ce8  00011ce8  2**2
                  CONTENTS, ALLOC, LOAD, READONLY, DATA
  5 .preinit_array 00000000  08001cf0  08001cf0  0002000c  2**0
                  CONTENTS, ALLOC, LOAD, DATA
  6 .init_array   00000004  08001cf0  08001cf0  00011cf0  2**2
                  CONTENTS, ALLOC, LOAD, DATA
  7 .fini_array   00000004  08001cf4  08001cf4  00011cf4  2**2
                  CONTENTS, ALLOC, LOAD, DATA
  8 .data         0000000c  20000000  08001cf8  00020000  2**2
                  CONTENTS, ALLOC, LOAD, DATA
  9 .ccmram       00000000  10000000  10000000  0002000c  2**0
                  CONTENTS
 10 .bss          00000068  2000000c  2000000c  0002000c  2**2
                  ALLOC
 11 ._user_heap_stack 00000604  20000074  20000074  0002000c  2**0
                  ALLOC
 12 .ARM.attributes 00000030  00000000  00000000  0002000c  2**0
                  CONTENTS, READONLY
 13 .debug_info   00008b7e  00000000  00000000  0002003c  2**0
                  CONTENTS, READONLY, DEBUGGING, OCTETS
 14 .debug_abbrev 00001445  00000000  00000000  00028bba  2**0
                  CONTENTS, READONLY, DEBUGGING, OCTETS
 15 .debug_aranges 00000940  00000000  00000000  0002a000  2**3
                  CONTENTS, READONLY, DEBUGGING, OCTETS
 16 .debug_ranges 00000898  00000000  00000000  0002a940  2**3
                  CONTENTS, READONLY, DEBUGGING, OCTETS
 17 .debug_macro  0000125b  00000000  00000000  0002b1d8  2**0
                  CONTENTS, READONLY, DEBUGGING, OCTETS
 18 .debug_line   00009d61  00000000  00000000  0002c433  2**0
                  CONTENTS, READONLY, DEBUGGING, OCTETS
 19 .debug_str    000c449c  00000000  00000000  00036194  2**0
                  CONTENTS, READONLY, DEBUGGING, OCTETS
 20 .comment      00000053  00000000  00000000  000fa630  2**0
                  CONTENTS, READONLY
 21 .debug_frame  00002680  00000000  00000000  000fa684  2**2
                  CONTENTS, READONLY, DEBUGGING, OCTETS

Disassembly of section .text:

08000188 <__do_global_dtors_aux>:
 8000188:	b510      	push	{r4, lr}
 800018a:	4c05      	ldr	r4, [pc, #20]	; (80001a0 <__do_global_dtors_aux+0x18>)
 800018c:	7823      	ldrb	r3, [r4, #0]
 800018e:	b933      	cbnz	r3, 800019e <__do_global_dtors_aux+0x16>
 8000190:	4b04      	ldr	r3, [pc, #16]	; (80001a4 <__do_global_dtors_aux+0x1c>)
 8000192:	b113      	cbz	r3, 800019a <__do_global_dtors_aux+0x12>
 8000194:	4804      	ldr	r0, [pc, #16]	; (80001a8 <__do_global_dtors_aux+0x20>)
 8000196:	f3af 8000 	nop.w
 800019a:	2301      	movs	r3, #1
 800019c:	7023      	strb	r3, [r4, #0]
 800019e:	bd10      	pop	{r4, pc}
 80001a0:	2000000c 	.word	0x2000000c
 80001a4:	00000000 	.word	0x00000000
 80001a8:	08001cc0 	.word	0x08001cc0

080001ac <frame_dummy>:
 80001ac:	b508      	push	{r3, lr}
 80001ae:	4b03      	ldr	r3, [pc, #12]	; (80001bc <frame_dummy+0x10>)
 80001b0:	b11b      	cbz	r3, 80001ba <frame_dummy+0xe>
 80001b2:	4903      	ldr	r1, [pc, #12]	; (80001c0 <frame_dummy+0x14>)
 80001b4:	4803      	ldr	r0, [pc, #12]	; (80001c4 <frame_dummy+0x18>)
 80001b6:	f3af 8000 	nop.w
 80001ba:	bd08      	pop	{r3, pc}
 80001bc:	00000000 	.word	0x00000000
 80001c0:	20000010 	.word	0x20000010
 80001c4:	08001cc0 	.word	0x08001cc0

080001c8 <__aeabi_uldivmod>:
 80001c8:	b953      	cbnz	r3, 80001e0 <__aeabi_uldivmod+0x18>
 80001ca:	b94a      	cbnz	r2, 80001e0 <__aeabi_uldivmod+0x18>
 80001cc:	2900      	cmp	r1, #0
 80001ce:	bf08      	it	eq
 80001d0:	2800      	cmpeq	r0, #0
 80001d2:	bf1c      	itt	ne
 80001d4:	f04f 31ff 	movne.w	r1, #4294967295
 80001d8:	f04f 30ff 	movne.w	r0, #4294967295
 80001dc:	f000 b96e 	b.w	80004bc <__aeabi_idiv0>
 80001e0:	f1ad 0c08 	sub.w	ip, sp, #8
 80001e4:	e96d ce04 	strd	ip, lr, [sp, #-16]!
 80001e8:	f000 f806 	bl	80001f8 <__udivmoddi4>
 80001ec:	f8dd e004 	ldr.w	lr, [sp, #4]
 80001f0:	e9dd 2302 	ldrd	r2, r3, [sp, #8]
 80001f4:	b004      	add	sp, #16
 80001f6:	4770      	bx	lr

080001f8 <__udivmoddi4>:
 80001f8:	e92d 47f0 	stmdb	sp!, {r4, r5, r6, r7, r8, r9, sl, lr}
 80001fc:	9d08      	ldr	r5, [sp, #32]
 80001fe:	4604      	mov	r4, r0
 8000200:	468c      	mov	ip, r1
 8000202:	2b00      	cmp	r3, #0
 8000204:	f040 8083 	bne.w	800030e <__udivmoddi4+0x116>
 8000208:	428a      	cmp	r2, r1
 800020a:	4617      	mov	r7, r2
 800020c:	d947      	bls.n	800029e <__udivmoddi4+0xa6>
 800020e:	fab2 f282 	clz	r2, r2
 8000212:	b142      	cbz	r2, 8000226 <__udivmoddi4+0x2e>
 8000214:	f1c2 0020 	rsb	r0, r2, #32
 8000218:	fa24 f000 	lsr.w	r0, r4, r0
 800021c:	4091      	lsls	r1, r2
 800021e:	4097      	lsls	r7, r2
 8000220:	ea40 0c01 	orr.w	ip, r0, r1
 8000224:	4094      	lsls	r4, r2
 8000226:	ea4f 4817 	mov.w	r8, r7, lsr #16
 800022a:	0c23      	lsrs	r3, r4, #16
 800022c:	fbbc f6f8 	udiv	r6, ip, r8
 8000230:	fa1f fe87 	uxth.w	lr, r7
 8000234:	fb08 c116 	mls	r1, r8, r6, ip
 8000238:	ea43 4301 	orr.w	r3, r3, r1, lsl #16
 800023c:	fb06 f10e 	mul.w	r1, r6, lr
 8000240:	4299      	cmp	r1, r3
 8000242:	d909      	bls.n	8000258 <__udivmoddi4+0x60>
 8000244:	18fb      	adds	r3, r7, r3
 8000246:	f106 30ff 	add.w	r0, r6, #4294967295
 800024a:	f080 8119 	bcs.w	8000480 <__udivmoddi4+0x288>
 800024e:	4299      	cmp	r1, r3
 8000250:	f240 8116 	bls.w	8000480 <__udivmoddi4+0x288>
 8000254:	3e02      	subs	r6, #2
 8000256:	443b      	add	r3, r7
 8000258:	1a5b      	subs	r3, r3, r1
 800025a:	b2a4      	uxth	r4, r4
 800025c:	fbb3 f0f8 	udiv	r0, r3, r8
 8000260:	fb08 3310 	mls	r3, r8, r0, r3
 8000264:	ea44 4403 	orr.w	r4, r4, r3, lsl #16
 8000268:	fb00 fe0e 	mul.w	lr, r0, lr
 800026c:	45a6      	cmp	lr, r4
 800026e:	d909      	bls.n	8000284 <__udivmoddi4+0x8c>
 8000270:	193c      	adds	r4, r7, r4
 8000272:	f100 33ff 	add.w	r3, r0, #4294967295
 8000276:	f080 8105 	bcs.w	8000484 <__udivmoddi4+0x28c>
 800027a:	45a6      	cmp	lr, r4
 800027c:	f240 8102 	bls.w	8000484 <__udivmoddi4+0x28c>
 8000280:	3802      	subs	r0, #2
 8000282:	443c      	add	r4, r7
 8000284:	ea40 4006 	orr.w	r0, r0, r6, lsl #16
 8000288:	eba4 040e 	sub.w	r4, r4, lr
 800028c:	2600      	movs	r6, #0
 800028e:	b11d      	cbz	r5, 8000298 <__udivmoddi4+0xa0>
 8000290:	40d4      	lsrs	r4, r2
 8000292:	2300      	movs	r3, #0
 8000294:	e9c5 4300 	strd	r4, r3, [r5]
 8000298:	4631      	mov	r1, r6
 800029a:	e8bd 87f0 	ldmia.w	sp!, {r4, r5, r6, r7, r8, r9, sl, pc}
 800029e:	b902      	cbnz	r2, 80002a2 <__udivmoddi4+0xaa>
 80002a0:	deff      	udf	#255	; 0xff
 80002a2:	fab2 f282 	clz	r2, r2
 80002a6:	2a00      	cmp	r2, #0
 80002a8:	d150      	bne.n	800034c <__udivmoddi4+0x154>
 80002aa:	1bcb      	subs	r3, r1, r7
 80002ac:	ea4f 4e17 	mov.w	lr, r7, lsr #16
 80002b0:	fa1f f887 	uxth.w	r8, r7
 80002b4:	2601      	movs	r6, #1
 80002b6:	fbb3 fcfe 	udiv	ip, r3, lr
 80002ba:	0c21      	lsrs	r1, r4, #16
 80002bc:	fb0e 331c 	mls	r3, lr, ip, r3
 80002c0:	ea41 4103 	orr.w	r1, r1, r3, lsl #16
 80002c4:	fb08 f30c 	mul.w	r3, r8, ip
 80002c8:	428b      	cmp	r3, r1
 80002ca:	d907      	bls.n	80002dc <__udivmoddi4+0xe4>
 80002cc:	1879      	adds	r1, r7, r1
 80002ce:	f10c 30ff 	add.w	r0, ip, #4294967295
 80002d2:	d202      	bcs.n	80002da <__udivmoddi4+0xe2>
 80002d4:	428b      	cmp	r3, r1
 80002d6:	f200 80e9 	bhi.w	80004ac <__udivmoddi4+0x2b4>
 80002da:	4684      	mov	ip, r0
 80002dc:	1ac9      	subs	r1, r1, r3
 80002de:	b2a3      	uxth	r3, r4
 80002e0:	fbb1 f0fe 	udiv	r0, r1, lr
 80002e4:	fb0e 1110 	mls	r1, lr, r0, r1
 80002e8:	ea43 4401 	orr.w	r4, r3, r1, lsl #16
 80002ec:	fb08 f800 	mul.w	r8, r8, r0
 80002f0:	45a0      	cmp	r8, r4
 80002f2:	d907      	bls.n	8000304 <__udivmoddi4+0x10c>
 80002f4:	193c      	adds	r4, r7, r4
 80002f6:	f100 33ff 	add.w	r3, r0, #4294967295
 80002fa:	d202      	bcs.n	8000302 <__udivmoddi4+0x10a>
 80002fc:	45a0      	cmp	r8, r4
 80002fe:	f200 80d9 	bhi.w	80004b4 <__udivmoddi4+0x2bc>
 8000302:	4618      	mov	r0, r3
 8000304:	eba4 0408 	sub.w	r4, r4, r8
 8000308:	ea40 400c 	orr.w	r0, r0, ip, lsl #16
 800030c:	e7bf      	b.n	800028e <__udivmoddi4+0x96>
 800030e:	428b      	cmp	r3, r1
 8000310:	d909      	bls.n	8000326 <__udivmoddi4+0x12e>
 8000312:	2d00      	cmp	r5, #0
 8000314:	f000 80b1 	beq.w	800047a <__udivmoddi4+0x282>
 8000318:	2600      	movs	r6, #0
 800031a:	e9c5 0100 	strd	r0, r1, [r5]
 800031e:	4630      	mov	r0, r6
 8000320:	4631      	mov	r1, r6
 8000322:	e8bd 87f0 	ldmia.w	sp!, {r4, r5, r6, r7, r8, r9, sl, pc}
 8000326:	fab3 f683 	clz	r6, r3
 800032a:	2e00      	cmp	r6, #0
 800032c:	d14a      	bne.n	80003c4 <__udivmoddi4+0x1cc>
 800032e:	428b      	cmp	r3, r1
 8000330:	d302      	bcc.n	8000338 <__udivmoddi4+0x140>
 8000332:	4282      	cmp	r2, r0
 8000334:	f200 80b8 	bhi.w	80004a8 <__udivmoddi4+0x2b0>
 8000338:	1a84      	subs	r4, r0, r2
 800033a:	eb61 0103 	sbc.w	r1, r1, r3
 800033e:	2001      	movs	r0, #1
 8000340:	468c      	mov	ip, r1
 8000342:	2d00      	cmp	r5, #0
 8000344:	d0a8      	beq.n	8000298 <__udivmoddi4+0xa0>
 8000346:	e9c5 4c00 	strd	r4, ip, [r5]
 800034a:	e7a5      	b.n	8000298 <__udivmoddi4+0xa0>
 800034c:	f1c2 0320 	rsb	r3, r2, #32
 8000350:	fa20 f603 	lsr.w	r6, r0, r3
 8000354:	4097      	lsls	r7, r2
 8000356:	fa01 f002 	lsl.w	r0, r1, r2
 800035a:	ea4f 4e17 	mov.w	lr, r7, lsr #16
 800035e:	40d9      	lsrs	r1, r3
 8000360:	4330      	orrs	r0, r6
 8000362:	0c03      	lsrs	r3, r0, #16
 8000364:	fbb1 f6fe 	udiv	r6, r1, lr
 8000368:	fa1f f887 	uxth.w	r8, r7
 800036c:	fb0e 1116 	mls	r1, lr, r6, r1
 8000370:	ea43 4301 	orr.w	r3, r3, r1, lsl #16
 8000374:	fb06 f108 	mul.w	r1, r6, r8
 8000378:	4299      	cmp	r1, r3
 800037a:	fa04 f402 	lsl.w	r4, r4, r2
 800037e:	d909      	bls.n	8000394 <__udivmoddi4+0x19c>
 8000380:	18fb      	adds	r3, r7, r3
 8000382:	f106 3cff 	add.w	ip, r6, #4294967295
 8000386:	f080 808d 	bcs.w	80004a4 <__udivmoddi4+0x2ac>
 800038a:	4299      	cmp	r1, r3
 800038c:	f240 808a 	bls.w	80004a4 <__udivmoddi4+0x2ac>
 8000390:	3e02      	subs	r6, #2
 8000392:	443b      	add	r3, r7
 8000394:	1a5b      	subs	r3, r3, r1
 8000396:	b281      	uxth	r1, r0
 8000398:	fbb3 f0fe 	udiv	r0, r3, lr
 800039c:	fb0e 3310 	mls	r3, lr, r0, r3
 80003a0:	ea41 4103 	orr.w	r1, r1, r3, lsl #16
 80003a4:	fb00 f308 	mul.w	r3, r0, r8
 80003a8:	428b      	cmp	r3, r1
 80003aa:	d907      	bls.n	80003bc <__udivmoddi4+0x1c4>
 80003ac:	1879      	adds	r1, r7, r1
 80003ae:	f100 3cff 	add.w	ip, r0, #4294967295
 80003b2:	d273      	bcs.n	800049c <__udivmoddi4+0x2a4>
 80003b4:	428b      	cmp	r3, r1
 80003b6:	d971      	bls.n	800049c <__udivmoddi4+0x2a4>
 80003b8:	3802      	subs	r0, #2
 80003ba:	4439      	add	r1, r7
 80003bc:	1acb      	subs	r3, r1, r3
 80003be:	ea40 4606 	orr.w	r6, r0, r6, lsl #16
 80003c2:	e778      	b.n	80002b6 <__udivmoddi4+0xbe>
 80003c4:	f1c6 0c20 	rsb	ip, r6, #32
 80003c8:	fa03 f406 	lsl.w	r4, r3, r6
 80003cc:	fa22 f30c 	lsr.w	r3, r2, ip
 80003d0:	431c      	orrs	r4, r3
 80003d2:	fa20 f70c 	lsr.w	r7, r0, ip
 80003d6:	fa01 f306 	lsl.w	r3, r1, r6
 80003da:	ea4f 4e14 	mov.w	lr, r4, lsr #16
 80003de:	fa21 f10c 	lsr.w	r1, r1, ip
 80003e2:	431f      	orrs	r7, r3
 80003e4:	0c3b      	lsrs	r3, r7, #16
 80003e6:	fbb1 f9fe 	udiv	r9, r1, lr
 80003ea:	fa1f f884 	uxth.w	r8, r4
 80003ee:	fb0e 1119 	mls	r1, lr, r9, r1
 80003f2:	ea43 4101 	orr.w	r1, r3, r1, lsl #16
 80003f6:	fb09 fa08 	mul.w	sl, r9, r8
 80003fa:	458a      	cmp	sl, r1
 80003fc:	fa02 f206 	lsl.w	r2, r2, r6
 8000400:	fa00 f306 	lsl.w	r3, r0, r6
 8000404:	d908      	bls.n	8000418 <__udivmoddi4+0x220>
 8000406:	1861      	adds	r1, r4, r1
 8000408:	f109 30ff 	add.w	r0, r9, #4294967295
 800040c:	d248      	bcs.n	80004a0 <__udivmoddi4+0x2a8>
 800040e:	458a      	cmp	sl, r1
 8000410:	d946      	bls.n	80004a0 <__udivmoddi4+0x2a8>
 8000412:	f1a9 0902 	sub.w	r9, r9, #2
 8000416:	4421      	add	r1, r4
 8000418:	eba1 010a 	sub.w	r1, r1, sl
 800041c:	b2bf      	uxth	r7, r7
 800041e:	fbb1 f0fe 	udiv	r0, r1, lr
 8000422:	fb0e 1110 	mls	r1, lr, r0, r1
 8000426:	ea47 4701 	orr.w	r7, r7, r1, lsl #16
 800042a:	fb00 f808 	mul.w	r8, r0, r8
 800042e:	45b8      	cmp	r8, r7
 8000430:	d907      	bls.n	8000442 <__udivmoddi4+0x24a>
 8000432:	19e7      	adds	r7, r4, r7
 8000434:	f100 31ff 	add.w	r1, r0, #4294967295
 8000438:	d22e      	bcs.n	8000498 <__udivmoddi4+0x2a0>
 800043a:	45b8      	cmp	r8, r7
 800043c:	d92c      	bls.n	8000498 <__udivmoddi4+0x2a0>
 800043e:	3802      	subs	r0, #2
 8000440:	4427      	add	r7, r4
 8000442:	ea40 4009 	orr.w	r0, r0, r9, lsl #16
 8000446:	eba7 0708 	sub.w	r7, r7, r8
 800044a:	fba0 8902 	umull	r8, r9, r0, r2
 800044e:	454f      	cmp	r7, r9
 8000450:	46c6      	mov	lr, r8
 8000452:	4649      	mov	r1, r9
 8000454:	d31a      	bcc.n	800048c <__udivmoddi4+0x294>
 8000456:	d017      	beq.n	8000488 <__udivmoddi4+0x290>
 8000458:	b15d      	cbz	r5, 8000472 <__udivmoddi4+0x27a>
 800045a:	ebb3 020e 	subs.w	r2, r3, lr
 800045e:	eb67 0701 	sbc.w	r7, r7, r1
 8000462:	fa07 fc0c 	lsl.w	ip, r7, ip
 8000466:	40f2      	lsrs	r2, r6
 8000468:	ea4c 0202 	orr.w	r2, ip, r2
 800046c:	40f7      	lsrs	r7, r6
 800046e:	e9c5 2700 	strd	r2, r7, [r5]
 8000472:	2600      	movs	r6, #0
 8000474:	4631      	mov	r1, r6
 8000476:	e8bd 87f0 	ldmia.w	sp!, {r4, r5, r6, r7, r8, r9, sl, pc}
 800047a:	462e      	mov	r6, r5
 800047c:	4628      	mov	r0, r5
 800047e:	e70b      	b.n	8000298 <__udivmoddi4+0xa0>
 8000480:	4606      	mov	r6, r0
 8000482:	e6e9      	b.n	8000258 <__udivmoddi4+0x60>
 8000484:	4618      	mov	r0, r3
 8000486:	e6fd      	b.n	8000284 <__udivmoddi4+0x8c>
 8000488:	4543      	cmp	r3, r8
 800048a:	d2e5      	bcs.n	8000458 <__udivmoddi4+0x260>
 800048c:	ebb8 0e02 	subs.w	lr, r8, r2
 8000490:	eb69 0104 	sbc.w	r1, r9, r4
 8000494:	3801      	subs	r0, #1
 8000496:	e7df      	b.n	8000458 <__udivmoddi4+0x260>
 8000498:	4608      	mov	r0, r1
 800049a:	e7d2      	b.n	8000442 <__udivmoddi4+0x24a>
 800049c:	4660      	mov	r0, ip
 800049e:	e78d      	b.n	80003bc <__udivmoddi4+0x1c4>
 80004a0:	4681      	mov	r9, r0
 80004a2:	e7b9      	b.n	8000418 <__udivmoddi4+0x220>
 80004a4:	4666      	mov	r6, ip
 80004a6:	e775      	b.n	8000394 <__udivmoddi4+0x19c>
 80004a8:	4630      	mov	r0, r6
 80004aa:	e74a      	b.n	8000342 <__udivmoddi4+0x14a>
 80004ac:	f1ac 0c02 	sub.w	ip, ip, #2
 80004b0:	4439      	add	r1, r7
 80004b2:	e713      	b.n	80002dc <__udivmoddi4+0xe4>
 80004b4:	3802      	subs	r0, #2
 80004b6:	443c      	add	r4, r7
 80004b8:	e724      	b.n	8000304 <__udivmoddi4+0x10c>
 80004ba:	bf00      	nop

080004bc <__aeabi_idiv0>:
 80004bc:	4770      	bx	lr
 80004be:	bf00      	nop

080004c0 <main>:
/**
  * @brief  The application entry point.
  * @retval int
  */
int main(void)
{
 80004c0:	b580      	push	{r7, lr}
 80004c2:	af00      	add	r7, sp, #0
  /* USER CODE END 1 */

  /* MCU Configuration--------------------------------------------------------*/

  /* Reset of all peripherals, Initializes the Flash interface and the Systick. */
  HAL_Init();
 80004c4:	f000 f9e2 	bl	800088c <HAL_Init>
  /* USER CODE BEGIN Init */

  /* USER CODE END Init */

  /* Configure the system clock */
  SystemClock_Config();
 80004c8:	f000 f806 	bl	80004d8 <SystemClock_Config>
  /* USER CODE BEGIN SysInit */

  /* USER CODE END SysInit */

  /* Initialize all configured peripherals */
  MX_GPIO_Init();
 80004cc:	f000 f8be 	bl	800064c <MX_GPIO_Init>
  MX_TIM1_Init();
 80004d0:	f000 f86c 	bl	80005ac <MX_TIM1_Init>
  /* USER CODE BEGIN 2 */
  /* USER CODE END 2 */

  /* Infinite loop */
  /* USER CODE BEGIN WHILE */
  while (1)
 80004d4:	e7fe      	b.n	80004d4 <main+0x14>
	...

080004d8 <SystemClock_Config>:
/**
  * @brief System Clock Configuration
  * @retval None
  */
void SystemClock_Config(void)
{
 80004d8:	b580      	push	{r7, lr}
 80004da:	b094      	sub	sp, #80	; 0x50
 80004dc:	af00      	add	r7, sp, #0
  RCC_OscInitTypeDef RCC_OscInitStruct = {0};
 80004de:	f107 0320 	add.w	r3, r7, #32
 80004e2:	2230      	movs	r2, #48	; 0x30
 80004e4:	2100      	movs	r1, #0
 80004e6:	4618      	mov	r0, r3
 80004e8:	f001 fbe2 	bl	8001cb0 <memset>
  RCC_ClkInitTypeDef RCC_ClkInitStruct = {0};
 80004ec:	f107 030c 	add.w	r3, r7, #12
 80004f0:	2200      	movs	r2, #0
 80004f2:	601a      	str	r2, [r3, #0]
 80004f4:	605a      	str	r2, [r3, #4]
 80004f6:	609a      	str	r2, [r3, #8]
 80004f8:	60da      	str	r2, [r3, #12]
 80004fa:	611a      	str	r2, [r3, #16]

  /** Configure the main internal regulator output voltage
  */
  __HAL_RCC_PWR_CLK_ENABLE();
 80004fc:	2300      	movs	r3, #0
 80004fe:	60bb      	str	r3, [r7, #8]
 8000500:	4b28      	ldr	r3, [pc, #160]	; (80005a4 <SystemClock_Config+0xcc>)
 8000502:	6c1b      	ldr	r3, [r3, #64]	; 0x40
 8000504:	4a27      	ldr	r2, [pc, #156]	; (80005a4 <SystemClock_Config+0xcc>)
 8000506:	f043 5380 	orr.w	r3, r3, #268435456	; 0x10000000
 800050a:	6413      	str	r3, [r2, #64]	; 0x40
 800050c:	4b25      	ldr	r3, [pc, #148]	; (80005a4 <SystemClock_Config+0xcc>)
 800050e:	6c1b      	ldr	r3, [r3, #64]	; 0x40
 8000510:	f003 5380 	and.w	r3, r3, #268435456	; 0x10000000
 8000514:	60bb      	str	r3, [r7, #8]
 8000516:	68bb      	ldr	r3, [r7, #8]
  __HAL_PWR_VOLTAGESCALING_CONFIG(PWR_REGULATOR_VOLTAGE_SCALE1);
 8000518:	2300      	movs	r3, #0
 800051a:	607b      	str	r3, [r7, #4]
 800051c:	4b22      	ldr	r3, [pc, #136]	; (80005a8 <SystemClock_Config+0xd0>)
 800051e:	681b      	ldr	r3, [r3, #0]
 8000520:	4a21      	ldr	r2, [pc, #132]	; (80005a8 <SystemClock_Config+0xd0>)
 8000522:	f443 4380 	orr.w	r3, r3, #16384	; 0x4000
 8000526:	6013      	str	r3, [r2, #0]
 8000528:	4b1f      	ldr	r3, [pc, #124]	; (80005a8 <SystemClock_Config+0xd0>)
 800052a:	681b      	ldr	r3, [r3, #0]
 800052c:	f403 4380 	and.w	r3, r3, #16384	; 0x4000
 8000530:	607b      	str	r3, [r7, #4]
 8000532:	687b      	ldr	r3, [r7, #4]
  /** Initializes the RCC Oscillators according to the specified parameters
  * in the RCC_OscInitTypeDef structure.
  */
  RCC_OscInitStruct.OscillatorType = RCC_OSCILLATORTYPE_HSI;
 8000534:	2302      	movs	r3, #2
 8000536:	623b      	str	r3, [r7, #32]
  RCC_OscInitStruct.HSIState = RCC_HSI_ON;
 8000538:	2301      	movs	r3, #1
 800053a:	62fb      	str	r3, [r7, #44]	; 0x2c
  RCC_OscInitStruct.HSICalibrationValue = RCC_HSICALIBRATION_DEFAULT;
 800053c:	2310      	movs	r3, #16
 800053e:	633b      	str	r3, [r7, #48]	; 0x30
  RCC_OscInitStruct.PLL.PLLState = RCC_PLL_ON;
 8000540:	2302      	movs	r3, #2
 8000542:	63bb      	str	r3, [r7, #56]	; 0x38
  RCC_OscInitStruct.PLL.PLLSource = RCC_PLLSOURCE_HSI;
 8000544:	2300      	movs	r3, #0
 8000546:	63fb      	str	r3, [r7, #60]	; 0x3c
  RCC_OscInitStruct.PLL.PLLM = 8;
 8000548:	2308      	movs	r3, #8
 800054a:	643b      	str	r3, [r7, #64]	; 0x40
  RCC_OscInitStruct.PLL.PLLN = 100;
 800054c:	2364      	movs	r3, #100	; 0x64
 800054e:	647b      	str	r3, [r7, #68]	; 0x44
  RCC_OscInitStruct.PLL.PLLP = RCC_PLLP_DIV2;
 8000550:	2302      	movs	r3, #2
 8000552:	64bb      	str	r3, [r7, #72]	; 0x48
  RCC_OscInitStruct.PLL.PLLQ = 4;
 8000554:	2304      	movs	r3, #4
 8000556:	64fb      	str	r3, [r7, #76]	; 0x4c
  if (HAL_RCC_OscConfig(&RCC_OscInitStruct) != HAL_OK)
 8000558:	f107 0320 	add.w	r3, r7, #32
 800055c:	4618      	mov	r0, r3
 800055e:	f000 fca3 	bl	8000ea8 <HAL_RCC_OscConfig>
 8000562:	4603      	mov	r3, r0
 8000564:	2b00      	cmp	r3, #0
 8000566:	d001      	beq.n	800056c <SystemClock_Config+0x94>
  {
    Error_Handler();
 8000568:	f000 f8da 	bl	8000720 <Error_Handler>
  }
  /** Initializes the CPU, AHB and APB buses clocks
  */
  RCC_ClkInitStruct.ClockType = RCC_CLOCKTYPE_HCLK|RCC_CLOCKTYPE_SYSCLK
 800056c:	230f      	movs	r3, #15
 800056e:	60fb      	str	r3, [r7, #12]
                              |RCC_CLOCKTYPE_PCLK1|RCC_CLOCKTYPE_PCLK2;
  RCC_ClkInitStruct.SYSCLKSource = RCC_SYSCLKSOURCE_PLLCLK;
 8000570:	2302      	movs	r3, #2
 8000572:	613b      	str	r3, [r7, #16]
  RCC_ClkInitStruct.AHBCLKDivider = RCC_SYSCLK_DIV1;
 8000574:	2300      	movs	r3, #0
 8000576:	617b      	str	r3, [r7, #20]
  RCC_ClkInitStruct.APB1CLKDivider = RCC_HCLK_DIV4;
 8000578:	f44f 53a0 	mov.w	r3, #5120	; 0x1400
 800057c:	61bb      	str	r3, [r7, #24]
  RCC_ClkInitStruct.APB2CLKDivider = RCC_HCLK_DIV2;
 800057e:	f44f 5380 	mov.w	r3, #4096	; 0x1000
 8000582:	61fb      	str	r3, [r7, #28]

  if (HAL_RCC_ClockConfig(&RCC_ClkInitStruct, FLASH_LATENCY_3) != HAL_OK)
 8000584:	f107 030c 	add.w	r3, r7, #12
 8000588:	2103      	movs	r1, #3
 800058a:	4618      	mov	r0, r3
 800058c:	f000 ff04 	bl	8001398 <HAL_RCC_ClockConfig>
 8000590:	4603      	mov	r3, r0
 8000592:	2b00      	cmp	r3, #0
 8000594:	d001      	beq.n	800059a <SystemClock_Config+0xc2>
  {
    Error_Handler();
 8000596:	f000 f8c3 	bl	8000720 <Error_Handler>
  }
}
 800059a:	bf00      	nop
 800059c:	3750      	adds	r7, #80	; 0x50
 800059e:	46bd      	mov	sp, r7
 80005a0:	bd80      	pop	{r7, pc}
 80005a2:	bf00      	nop
 80005a4:	40023800 	.word	0x40023800
 80005a8:	40007000 	.word	0x40007000

080005ac <MX_TIM1_Init>:
  * @brief TIM1 Initialization Function
  * @param None
  * @retval None
  */
static void MX_TIM1_Init(void)
{
 80005ac:	b580      	push	{r7, lr}
 80005ae:	b086      	sub	sp, #24
 80005b0:	af00      	add	r7, sp, #0

  /* USER CODE BEGIN TIM1_Init 0 */

  /* USER CODE END TIM1_Init 0 */

  TIM_ClockConfigTypeDef sClockSourceConfig = {0};
 80005b2:	f107 0308 	add.w	r3, r7, #8
 80005b6:	2200      	movs	r2, #0
 80005b8:	601a      	str	r2, [r3, #0]
 80005ba:	605a      	str	r2, [r3, #4]
 80005bc:	609a      	str	r2, [r3, #8]
 80005be:	60da      	str	r2, [r3, #12]
  TIM_MasterConfigTypeDef sMasterConfig = {0};
 80005c0:	463b      	mov	r3, r7
 80005c2:	2200      	movs	r2, #0
 80005c4:	601a      	str	r2, [r3, #0]
 80005c6:	605a      	str	r2, [r3, #4]

  /* USER CODE BEGIN TIM1_Init 1 */

  /* USER CODE END TIM1_Init 1 */
  htim1.Instance = TIM1;
 80005c8:	4b1e      	ldr	r3, [pc, #120]	; (8000644 <MX_TIM1_Init+0x98>)
 80005ca:	4a1f      	ldr	r2, [pc, #124]	; (8000648 <MX_TIM1_Init+0x9c>)
 80005cc:	601a      	str	r2, [r3, #0]
  htim1.Init.Prescaler = 100;
 80005ce:	4b1d      	ldr	r3, [pc, #116]	; (8000644 <MX_TIM1_Init+0x98>)
 80005d0:	2264      	movs	r2, #100	; 0x64
 80005d2:	605a      	str	r2, [r3, #4]
  htim1.Init.CounterMode = TIM_COUNTERMODE_UP;
 80005d4:	4b1b      	ldr	r3, [pc, #108]	; (8000644 <MX_TIM1_Init+0x98>)
 80005d6:	2200      	movs	r2, #0
 80005d8:	609a      	str	r2, [r3, #8]
  htim1.Init.Period = 65535;
 80005da:	4b1a      	ldr	r3, [pc, #104]	; (8000644 <MX_TIM1_Init+0x98>)
 80005dc:	f64f 72ff 	movw	r2, #65535	; 0xffff
 80005e0:	60da      	str	r2, [r3, #12]
  htim1.Init.ClockDivision = TIM_CLOCKDIVISION_DIV1;
 80005e2:	4b18      	ldr	r3, [pc, #96]	; (8000644 <MX_TIM1_Init+0x98>)
 80005e4:	2200      	movs	r2, #0
 80005e6:	611a      	str	r2, [r3, #16]
  htim1.Init.RepetitionCounter = 0;
 80005e8:	4b16      	ldr	r3, [pc, #88]	; (8000644 <MX_TIM1_Init+0x98>)
 80005ea:	2200      	movs	r2, #0
 80005ec:	615a      	str	r2, [r3, #20]
  htim1.Init.AutoReloadPreload = TIM_AUTORELOAD_PRELOAD_DISABLE;
 80005ee:	4b15      	ldr	r3, [pc, #84]	; (8000644 <MX_TIM1_Init+0x98>)
 80005f0:	2200      	movs	r2, #0
 80005f2:	619a      	str	r2, [r3, #24]
  if (HAL_TIM_Base_Init(&htim1) != HAL_OK)
 80005f4:	4813      	ldr	r0, [pc, #76]	; (8000644 <MX_TIM1_Init+0x98>)
 80005f6:	f001 f86b 	bl	80016d0 <HAL_TIM_Base_Init>
 80005fa:	4603      	mov	r3, r0
 80005fc:	2b00      	cmp	r3, #0
 80005fe:	d001      	beq.n	8000604 <MX_TIM1_Init+0x58>
  {
    Error_Handler();
 8000600:	f000 f88e 	bl	8000720 <Error_Handler>
  }
  sClockSourceConfig.ClockSource = TIM_CLOCKSOURCE_INTERNAL;
 8000604:	f44f 5380 	mov.w	r3, #4096	; 0x1000
 8000608:	60bb      	str	r3, [r7, #8]
  if (HAL_TIM_ConfigClockSource(&htim1, &sClockSourceConfig) != HAL_OK)
 800060a:	f107 0308 	add.w	r3, r7, #8
 800060e:	4619      	mov	r1, r3
 8000610:	480c      	ldr	r0, [pc, #48]	; (8000644 <MX_TIM1_Init+0x98>)
 8000612:	f001 f8ac 	bl	800176e <HAL_TIM_ConfigClockSource>
 8000616:	4603      	mov	r3, r0
 8000618:	2b00      	cmp	r3, #0
 800061a:	d001      	beq.n	8000620 <MX_TIM1_Init+0x74>
  {
    Error_Handler();
 800061c:	f000 f880 	bl	8000720 <Error_Handler>
  }
  sMasterConfig.MasterOutputTrigger = TIM_TRGO_RESET;
 8000620:	2300      	movs	r3, #0
 8000622:	603b      	str	r3, [r7, #0]
  sMasterConfig.MasterSlaveMode = TIM_MASTERSLAVEMODE_DISABLE;
 8000624:	2300      	movs	r3, #0
 8000626:	607b      	str	r3, [r7, #4]
  if (HAL_TIMEx_MasterConfigSynchronization(&htim1, &sMasterConfig) != HAL_OK)
 8000628:	463b      	mov	r3, r7
 800062a:	4619      	mov	r1, r3
 800062c:	4805      	ldr	r0, [pc, #20]	; (8000644 <MX_TIM1_Init+0x98>)
 800062e:	f001 fa9f 	bl	8001b70 <HAL_TIMEx_MasterConfigSynchronization>
 8000632:	4603      	mov	r3, r0
 8000634:	2b00      	cmp	r3, #0
 8000636:	d001      	beq.n	800063c <MX_TIM1_Init+0x90>
  {
    Error_Handler();
 8000638:	f000 f872 	bl	8000720 <Error_Handler>
  }
  /* USER CODE BEGIN TIM1_Init 2 */

  /* USER CODE END TIM1_Init 2 */

}
 800063c:	bf00      	nop
 800063e:	3718      	adds	r7, #24
 8000640:	46bd      	mov	sp, r7
 8000642:	bd80      	pop	{r7, pc}
 8000644:	20000028 	.word	0x20000028
 8000648:	40010000 	.word	0x40010000

0800064c <MX_GPIO_Init>:
  * @brief GPIO Initialization Function
  * @param None
  * @retval None
  */
static void MX_GPIO_Init(void)
{
 800064c:	b580      	push	{r7, lr}
 800064e:	b088      	sub	sp, #32
 8000650:	af00      	add	r7, sp, #0
  GPIO_InitTypeDef GPIO_InitStruct = {0};
 8000652:	f107 030c 	add.w	r3, r7, #12
 8000656:	2200      	movs	r2, #0
 8000658:	601a      	str	r2, [r3, #0]
 800065a:	605a      	str	r2, [r3, #4]
 800065c:	609a      	str	r2, [r3, #8]
 800065e:	60da      	str	r2, [r3, #12]
 8000660:	611a      	str	r2, [r3, #16]

  /* GPIO Ports Clock Enable */
  __HAL_RCC_GPIOE_CLK_ENABLE();
 8000662:	2300      	movs	r3, #0
 8000664:	60bb      	str	r3, [r7, #8]
 8000666:	4b2b      	ldr	r3, [pc, #172]	; (8000714 <MX_GPIO_Init+0xc8>)
 8000668:	6b1b      	ldr	r3, [r3, #48]	; 0x30
 800066a:	4a2a      	ldr	r2, [pc, #168]	; (8000714 <MX_GPIO_Init+0xc8>)
 800066c:	f043 0310 	orr.w	r3, r3, #16
 8000670:	6313      	str	r3, [r2, #48]	; 0x30
 8000672:	4b28      	ldr	r3, [pc, #160]	; (8000714 <MX_GPIO_Init+0xc8>)
 8000674:	6b1b      	ldr	r3, [r3, #48]	; 0x30
 8000676:	f003 0310 	and.w	r3, r3, #16
 800067a:	60bb      	str	r3, [r7, #8]
 800067c:	68bb      	ldr	r3, [r7, #8]
  __HAL_RCC_GPIOH_CLK_ENABLE();
 800067e:	2300      	movs	r3, #0
 8000680:	607b      	str	r3, [r7, #4]
 8000682:	4b24      	ldr	r3, [pc, #144]	; (8000714 <MX_GPIO_Init+0xc8>)
 8000684:	6b1b      	ldr	r3, [r3, #48]	; 0x30
 8000686:	4a23      	ldr	r2, [pc, #140]	; (8000714 <MX_GPIO_Init+0xc8>)
 8000688:	f043 0380 	orr.w	r3, r3, #128	; 0x80
 800068c:	6313      	str	r3, [r2, #48]	; 0x30
 800068e:	4b21      	ldr	r3, [pc, #132]	; (8000714 <MX_GPIO_Init+0xc8>)
 8000690:	6b1b      	ldr	r3, [r3, #48]	; 0x30
 8000692:	f003 0380 	and.w	r3, r3, #128	; 0x80
 8000696:	607b      	str	r3, [r7, #4]
 8000698:	687b      	ldr	r3, [r7, #4]
  __HAL_RCC_GPIOD_CLK_ENABLE();
 800069a:	2300      	movs	r3, #0
 800069c:	603b      	str	r3, [r7, #0]
 800069e:	4b1d      	ldr	r3, [pc, #116]	; (8000714 <MX_GPIO_Init+0xc8>)
 80006a0:	6b1b      	ldr	r3, [r3, #48]	; 0x30
 80006a2:	4a1c      	ldr	r2, [pc, #112]	; (8000714 <MX_GPIO_Init+0xc8>)
 80006a4:	f043 0308 	orr.w	r3, r3, #8
 80006a8:	6313      	str	r3, [r2, #48]	; 0x30
 80006aa:	4b1a      	ldr	r3, [pc, #104]	; (8000714 <MX_GPIO_Init+0xc8>)
 80006ac:	6b1b      	ldr	r3, [r3, #48]	; 0x30
 80006ae:	f003 0308 	and.w	r3, r3, #8
 80006b2:	603b      	str	r3, [r7, #0]
 80006b4:	683b      	ldr	r3, [r7, #0]

  /*Configure GPIO pin Output Level */
  HAL_GPIO_WritePin(GPIOE, GPIO_PIN_5|GPIO_PIN_7|GPIO_PIN_8|GPIO_PIN_9
 80006b6:	2200      	movs	r2, #0
 80006b8:	f64f 71a0 	movw	r1, #65440	; 0xffa0
 80006bc:	4816      	ldr	r0, [pc, #88]	; (8000718 <MX_GPIO_Init+0xcc>)
 80006be:	f000 fbd9 	bl	8000e74 <HAL_GPIO_WritePin>
                          |GPIO_PIN_10|GPIO_PIN_11|GPIO_PIN_12|GPIO_PIN_13
                          |GPIO_PIN_14|GPIO_PIN_15, GPIO_PIN_RESET);

  /*Configure GPIO pin Output Level */
  HAL_GPIO_WritePin(GPIOD, GPIO_PIN_11, GPIO_PIN_RESET);
 80006c2:	2200      	movs	r2, #0
 80006c4:	f44f 6100 	mov.w	r1, #2048	; 0x800
 80006c8:	4814      	ldr	r0, [pc, #80]	; (800071c <MX_GPIO_Init+0xd0>)
 80006ca:	f000 fbd3 	bl	8000e74 <HAL_GPIO_WritePin>

  /*Configure GPIO pins : PE5 PE7 PE8 PE9
                           PE10 PE11 PE12 PE13
                           PE14 PE15 */
  GPIO_InitStruct.Pin = GPIO_PIN_5|GPIO_PIN_7|GPIO_PIN_8|GPIO_PIN_9
 80006ce:	f64f 73a0 	movw	r3, #65440	; 0xffa0
 80006d2:	60fb      	str	r3, [r7, #12]
                          |GPIO_PIN_10|GPIO_PIN_11|GPIO_PIN_12|GPIO_PIN_13
                          |GPIO_PIN_14|GPIO_PIN_15;
  GPIO_InitStruct.Mode = GPIO_MODE_OUTPUT_PP;
 80006d4:	2301      	movs	r3, #1
 80006d6:	613b      	str	r3, [r7, #16]
  GPIO_InitStruct.Pull = GPIO_NOPULL;
 80006d8:	2300      	movs	r3, #0
 80006da:	617b      	str	r3, [r7, #20]
  GPIO_InitStruct.Speed = GPIO_SPEED_FREQ_LOW;
 80006dc:	2300      	movs	r3, #0
 80006de:	61bb      	str	r3, [r7, #24]
  HAL_GPIO_Init(GPIOE, &GPIO_InitStruct);
 80006e0:	f107 030c 	add.w	r3, r7, #12
 80006e4:	4619      	mov	r1, r3
 80006e6:	480c      	ldr	r0, [pc, #48]	; (8000718 <MX_GPIO_Init+0xcc>)
 80006e8:	f000 fa28 	bl	8000b3c <HAL_GPIO_Init>

  /*Configure GPIO pin : PD11 */
  GPIO_InitStruct.Pin = GPIO_PIN_11;
 80006ec:	f44f 6300 	mov.w	r3, #2048	; 0x800
 80006f0:	60fb      	str	r3, [r7, #12]
  GPIO_InitStruct.Mode = GPIO_MODE_OUTPUT_PP;
 80006f2:	2301      	movs	r3, #1
 80006f4:	613b      	str	r3, [r7, #16]
  GPIO_InitStruct.Pull = GPIO_NOPULL;
 80006f6:	2300      	movs	r3, #0
 80006f8:	617b      	str	r3, [r7, #20]
  GPIO_InitStruct.Speed = GPIO_SPEED_FREQ_LOW;
 80006fa:	2300      	movs	r3, #0
 80006fc:	61bb      	str	r3, [r7, #24]
  HAL_GPIO_Init(GPIOD, &GPIO_InitStruct);
 80006fe:	f107 030c 	add.w	r3, r7, #12
 8000702:	4619      	mov	r1, r3
 8000704:	4805      	ldr	r0, [pc, #20]	; (800071c <MX_GPIO_Init+0xd0>)
 8000706:	f000 fa19 	bl	8000b3c <HAL_GPIO_Init>

}
 800070a:	bf00      	nop
 800070c:	3720      	adds	r7, #32
 800070e:	46bd      	mov	sp, r7
 8000710:	bd80      	pop	{r7, pc}
 8000712:	bf00      	nop
 8000714:	40023800 	.word	0x40023800
 8000718:	40021000 	.word	0x40021000
 800071c:	40020c00 	.word	0x40020c00

08000720 <Error_Handler>:
/**
  * @brief  This function is executed in case of error occurrence.
  * @retval None
  */
void Error_Handler(void)
{
 8000720:	b480      	push	{r7}
 8000722:	af00      	add	r7, sp, #0
  \details Disables IRQ interrupts by setting the I-bit in the CPSR.
           Can only be executed in Privileged modes.
 */
__STATIC_FORCEINLINE void __disable_irq(void)
{
  __ASM volatile ("cpsid i" : : : "memory");
 8000724:	b672      	cpsid	i
}
 8000726:	bf00      	nop
  /* USER CODE BEGIN Error_Handler_Debug */
  /* User can add his own implementation to report the HAL error return state */
  __disable_irq();
  while (1)
 8000728:	e7fe      	b.n	8000728 <Error_Handler+0x8>
	...

0800072c <HAL_MspInit>:
/* USER CODE END 0 */
/**
  * Initializes the Global MSP.
  */
void HAL_MspInit(void)
{
 800072c:	b480      	push	{r7}
 800072e:	b083      	sub	sp, #12
 8000730:	af00      	add	r7, sp, #0
  /* USER CODE BEGIN MspInit 0 */

  /* USER CODE END MspInit 0 */

  __HAL_RCC_SYSCFG_CLK_ENABLE();
 8000732:	2300      	movs	r3, #0
 8000734:	607b      	str	r3, [r7, #4]
 8000736:	4b10      	ldr	r3, [pc, #64]	; (8000778 <HAL_MspInit+0x4c>)
 8000738:	6c5b      	ldr	r3, [r3, #68]	; 0x44
 800073a:	4a0f      	ldr	r2, [pc, #60]	; (8000778 <HAL_MspInit+0x4c>)
 800073c:	f443 4380 	orr.w	r3, r3, #16384	; 0x4000
 8000740:	6453      	str	r3, [r2, #68]	; 0x44
 8000742:	4b0d      	ldr	r3, [pc, #52]	; (8000778 <HAL_MspInit+0x4c>)
 8000744:	6c5b      	ldr	r3, [r3, #68]	; 0x44
 8000746:	f403 4380 	and.w	r3, r3, #16384	; 0x4000
 800074a:	607b      	str	r3, [r7, #4]
 800074c:	687b      	ldr	r3, [r7, #4]
  __HAL_RCC_PWR_CLK_ENABLE();
 800074e:	2300      	movs	r3, #0
 8000750:	603b      	str	r3, [r7, #0]
 8000752:	4b09      	ldr	r3, [pc, #36]	; (8000778 <HAL_MspInit+0x4c>)
 8000754:	6c1b      	ldr	r3, [r3, #64]	; 0x40
 8000756:	4a08      	ldr	r2, [pc, #32]	; (8000778 <HAL_MspInit+0x4c>)
 8000758:	f043 5380 	orr.w	r3, r3, #268435456	; 0x10000000
 800075c:	6413      	str	r3, [r2, #64]	; 0x40
 800075e:	4b06      	ldr	r3, [pc, #24]	; (8000778 <HAL_MspInit+0x4c>)
 8000760:	6c1b      	ldr	r3, [r3, #64]	; 0x40
 8000762:	f003 5380 	and.w	r3, r3, #268435456	; 0x10000000
 8000766:	603b      	str	r3, [r7, #0]
 8000768:	683b      	ldr	r3, [r7, #0]
  /* System interrupt init*/

  /* USER CODE BEGIN MspInit 1 */

  /* USER CODE END MspInit 1 */
}
 800076a:	bf00      	nop
 800076c:	370c      	adds	r7, #12
 800076e:	46bd      	mov	sp, r7
 8000770:	f85d 7b04 	ldr.w	r7, [sp], #4
 8000774:	4770      	bx	lr
 8000776:	bf00      	nop
 8000778:	40023800 	.word	0x40023800

0800077c <HAL_TIM_Base_MspInit>:
* This function configures the hardware resources used in this example
* @param htim_base: TIM_Base handle pointer
* @retval None
*/
void HAL_TIM_Base_MspInit(TIM_HandleTypeDef* htim_base)
{
 800077c:	b480      	push	{r7}
 800077e:	b085      	sub	sp, #20
 8000780:	af00      	add	r7, sp, #0
 8000782:	6078      	str	r0, [r7, #4]
  if(htim_base->Instance==TIM1)
 8000784:	687b      	ldr	r3, [r7, #4]
 8000786:	681b      	ldr	r3, [r3, #0]
 8000788:	4a0b      	ldr	r2, [pc, #44]	; (80007b8 <HAL_TIM_Base_MspInit+0x3c>)
 800078a:	4293      	cmp	r3, r2
 800078c:	d10d      	bne.n	80007aa <HAL_TIM_Base_MspInit+0x2e>
  {
  /* USER CODE BEGIN TIM1_MspInit 0 */

  /* USER CODE END TIM1_MspInit 0 */
    /* Peripheral clock enable */
    __HAL_RCC_TIM1_CLK_ENABLE();
 800078e:	2300      	movs	r3, #0
 8000790:	60fb      	str	r3, [r7, #12]
 8000792:	4b0a      	ldr	r3, [pc, #40]	; (80007bc <HAL_TIM_Base_MspInit+0x40>)
 8000794:	6c5b      	ldr	r3, [r3, #68]	; 0x44
 8000796:	4a09      	ldr	r2, [pc, #36]	; (80007bc <HAL_TIM_Base_MspInit+0x40>)
 8000798:	f043 0301 	orr.w	r3, r3, #1
 800079c:	6453      	str	r3, [r2, #68]	; 0x44
 800079e:	4b07      	ldr	r3, [pc, #28]	; (80007bc <HAL_TIM_Base_MspInit+0x40>)
 80007a0:	6c5b      	ldr	r3, [r3, #68]	; 0x44
 80007a2:	f003 0301 	and.w	r3, r3, #1
 80007a6:	60fb      	str	r3, [r7, #12]
 80007a8:	68fb      	ldr	r3, [r7, #12]
  /* USER CODE BEGIN TIM1_MspInit 1 */

  /* USER CODE END TIM1_MspInit 1 */
  }

}
 80007aa:	bf00      	nop
 80007ac:	3714      	adds	r7, #20
 80007ae:	46bd      	mov	sp, r7
 80007b0:	f85d 7b04 	ldr.w	r7, [sp], #4
 80007b4:	4770      	bx	lr
 80007b6:	bf00      	nop
 80007b8:	40010000 	.word	0x40010000
 80007bc:	40023800 	.word	0x40023800

080007c0 <NMI_Handler>:
/******************************************************************************/
/**
  * @brief This function handles Non maskable interrupt.
  */
void NMI_Handler(void)
{
 80007c0:	b480      	push	{r7}
 80007c2:	af00      	add	r7, sp, #0
  /* USER CODE BEGIN NonMaskableInt_IRQn 0 */

  /* USER CODE END NonMaskableInt_IRQn 0 */
  /* USER CODE BEGIN NonMaskableInt_IRQn 1 */
  while (1)
 80007c4:	e7fe      	b.n	80007c4 <NMI_Handler+0x4>

080007c6 <HardFault_Handler>:

/**
  * @brief This function handles Hard fault interrupt.
  */
void HardFault_Handler(void)
{
 80007c6:	b480      	push	{r7}
 80007c8:	af00      	add	r7, sp, #0
  /* USER CODE BEGIN HardFault_IRQn 0 */

  /* USER CODE END HardFault_IRQn 0 */
  while (1)
 80007ca:	e7fe      	b.n	80007ca <HardFault_Handler+0x4>

080007cc <MemManage_Handler>:

/**
  * @brief This function handles Memory management fault.
  */
void MemManage_Handler(void)
{
 80007cc:	b480      	push	{r7}
 80007ce:	af00      	add	r7, sp, #0
  /* USER CODE BEGIN MemoryManagement_IRQn 0 */

  /* USER CODE END MemoryManagement_IRQn 0 */
  while (1)
 80007d0:	e7fe      	b.n	80007d0 <MemManage_Handler+0x4>

080007d2 <BusFault_Handler>:

/**
  * @brief This function handles Pre-fetch fault, memory access fault.
  */
void BusFault_Handler(void)
{
 80007d2:	b480      	push	{r7}
 80007d4:	af00      	add	r7, sp, #0
  /* USER CODE BEGIN BusFault_IRQn 0 */

  /* USER CODE END BusFault_IRQn 0 */
  while (1)
 80007d6:	e7fe      	b.n	80007d6 <BusFault_Handler+0x4>

080007d8 <UsageFault_Handler>:

/**
  * @brief This function handles Undefined instruction or illegal state.
  */
void UsageFault_Handler(void)
{
 80007d8:	b480      	push	{r7}
 80007da:	af00      	add	r7, sp, #0
  /* USER CODE BEGIN UsageFault_IRQn 0 */

  /* USER CODE END UsageFault_IRQn 0 */
  while (1)
 80007dc:	e7fe      	b.n	80007dc <UsageFault_Handler+0x4>

080007de <SVC_Handler>:

/**
  * @brief This function handles System service call via SWI instruction.
  */
void SVC_Handler(void)
{
 80007de:	b480      	push	{r7}
 80007e0:	af00      	add	r7, sp, #0

  /* USER CODE END SVCall_IRQn 0 */
  /* USER CODE BEGIN SVCall_IRQn 1 */

  /* USER CODE END SVCall_IRQn 1 */
}
 80007e2:	bf00      	nop
 80007e4:	46bd      	mov	sp, r7
 80007e6:	f85d 7b04 	ldr.w	r7, [sp], #4
 80007ea:	4770      	bx	lr

080007ec <DebugMon_Handler>:

/**
  * @brief This function handles Debug monitor.
  */
void DebugMon_Handler(void)
{
 80007ec:	b480      	push	{r7}
 80007ee:	af00      	add	r7, sp, #0

  /* USER CODE END DebugMonitor_IRQn 0 */
  /* USER CODE BEGIN DebugMonitor_IRQn 1 */

  /* USER CODE END DebugMonitor_IRQn 1 */
}
 80007f0:	bf00      	nop
 80007f2:	46bd      	mov	sp, r7
 80007f4:	f85d 7b04 	ldr.w	r7, [sp], #4
 80007f8:	4770      	bx	lr

080007fa <PendSV_Handler>:

/**
  * @brief This function handles Pendable request for system service.
  */
void PendSV_Handler(void)
{
 80007fa:	b480      	push	{r7}
 80007fc:	af00      	add	r7, sp, #0

  /* USER CODE END PendSV_IRQn 0 */
  /* USER CODE BEGIN PendSV_IRQn 1 */

  /* USER CODE END PendSV_IRQn 1 */
}
 80007fe:	bf00      	nop
 8000800:	46bd      	mov	sp, r7
 8000802:	f85d 7b04 	ldr.w	r7, [sp], #4
 8000806:	4770      	bx	lr

08000808 <SysTick_Handler>:

/**
  * @brief This function handles System tick timer.
  */
void SysTick_Handler(void)
{
 8000808:	b580      	push	{r7, lr}
 800080a:	af00      	add	r7, sp, #0
  /* USER CODE BEGIN SysTick_IRQn 0 */

  /* USER CODE END SysTick_IRQn 0 */
  HAL_IncTick();
 800080c:	f000 f890 	bl	8000930 <HAL_IncTick>
  /* USER CODE BEGIN SysTick_IRQn 1 */

  /* USER CODE END SysTick_IRQn 1 */
}
 8000810:	bf00      	nop
 8000812:	bd80      	pop	{r7, pc}

08000814 <SystemInit>:
  *         configuration.
  * @param  None
  * @retval None
  */
void SystemInit(void)
{
 8000814:	b480      	push	{r7}
 8000816:	af00      	add	r7, sp, #0
  /* FPU settings ------------------------------------------------------------*/
  #if (__FPU_PRESENT == 1) && (__FPU_USED == 1)
    SCB->CPACR |= ((3UL << 10*2)|(3UL << 11*2));  /* set CP10 and CP11 Full Access */
 8000818:	4b06      	ldr	r3, [pc, #24]	; (8000834 <SystemInit+0x20>)
 800081a:	f8d3 3088 	ldr.w	r3, [r3, #136]	; 0x88
 800081e:	4a05      	ldr	r2, [pc, #20]	; (8000834 <SystemInit+0x20>)
 8000820:	f443 0370 	orr.w	r3, r3, #15728640	; 0xf00000
 8000824:	f8c2 3088 	str.w	r3, [r2, #136]	; 0x88

  /* Configure the Vector Table location -------------------------------------*/
#if defined(USER_VECT_TAB_ADDRESS)
  SCB->VTOR = VECT_TAB_BASE_ADDRESS | VECT_TAB_OFFSET; /* Vector Table Relocation in Internal SRAM */
#endif /* USER_VECT_TAB_ADDRESS */
}
 8000828:	bf00      	nop
 800082a:	46bd      	mov	sp, r7
 800082c:	f85d 7b04 	ldr.w	r7, [sp], #4
 8000830:	4770      	bx	lr
 8000832:	bf00      	nop
 8000834:	e000ed00 	.word	0xe000ed00

08000838 <Reset_Handler>:

    .section  .text.Reset_Handler
  .weak  Reset_Handler
  .type  Reset_Handler, %function
Reset_Handler:  
  ldr   sp, =_estack     /* set stack pointer */
 8000838:	f8df d034 	ldr.w	sp, [pc, #52]	; 8000870 <LoopFillZerobss+0x12>

/* Copy the data segment initializers from flash to SRAM */  
  ldr r0, =_sdata
 800083c:	480d      	ldr	r0, [pc, #52]	; (8000874 <LoopFillZerobss+0x16>)
  ldr r1, =_edata
 800083e:	490e      	ldr	r1, [pc, #56]	; (8000878 <LoopFillZerobss+0x1a>)
  ldr r2, =_sidata
 8000840:	4a0e      	ldr	r2, [pc, #56]	; (800087c <LoopFillZerobss+0x1e>)
  movs r3, #0
 8000842:	2300      	movs	r3, #0
  b LoopCopyDataInit
 8000844:	e002      	b.n	800084c <LoopCopyDataInit>

08000846 <CopyDataInit>:

CopyDataInit:
  ldr r4, [r2, r3]
 8000846:	58d4      	ldr	r4, [r2, r3]
  str r4, [r0, r3]
 8000848:	50c4      	str	r4, [r0, r3]
  adds r3, r3, #4
 800084a:	3304      	adds	r3, #4

0800084c <LoopCopyDataInit>:

LoopCopyDataInit:
  adds r4, r0, r3
 800084c:	18c4      	adds	r4, r0, r3
  cmp r4, r1
 800084e:	428c      	cmp	r4, r1
  bcc CopyDataInit
 8000850:	d3f9      	bcc.n	8000846 <CopyDataInit>
  
/* Zero fill the bss segment. */
  ldr r2, =_sbss
 8000852:	4a0b      	ldr	r2, [pc, #44]	; (8000880 <LoopFillZerobss+0x22>)
  ldr r4, =_ebss
 8000854:	4c0b      	ldr	r4, [pc, #44]	; (8000884 <LoopFillZerobss+0x26>)
  movs r3, #0
 8000856:	2300      	movs	r3, #0
  b LoopFillZerobss
 8000858:	e001      	b.n	800085e <LoopFillZerobss>

0800085a <FillZerobss>:

FillZerobss:
  str  r3, [r2]
 800085a:	6013      	str	r3, [r2, #0]
  adds r2, r2, #4
 800085c:	3204      	adds	r2, #4

0800085e <LoopFillZerobss>:

LoopFillZerobss:
  cmp r2, r4
 800085e:	42a2      	cmp	r2, r4
  bcc FillZerobss
 8000860:	d3fb      	bcc.n	800085a <FillZerobss>

/* Call the clock system intitialization function.*/
  bl  SystemInit   
 8000862:	f7ff ffd7 	bl	8000814 <SystemInit>
/* Call static constructors */
    bl __libc_init_array
 8000866:	f001 f9ff 	bl	8001c68 <__libc_init_array>
/* Call the application's entry point.*/
  bl  main
 800086a:	f7ff fe29 	bl	80004c0 <main>
  bx  lr    
 800086e:	4770      	bx	lr
  ldr   sp, =_estack     /* set stack pointer */
 8000870:	20020000 	.word	0x20020000
  ldr r0, =_sdata
 8000874:	20000000 	.word	0x20000000
  ldr r1, =_edata
 8000878:	2000000c 	.word	0x2000000c
  ldr r2, =_sidata
 800087c:	08001cf8 	.word	0x08001cf8
  ldr r2, =_sbss
 8000880:	2000000c 	.word	0x2000000c
  ldr r4, =_ebss
 8000884:	20000074 	.word	0x20000074

08000888 <ADC_IRQHandler>:
 * @retval None       
*/
    .section  .text.Default_Handler,"ax",%progbits
Default_Handler:
Infinite_Loop:
  b  Infinite_Loop
 8000888:	e7fe      	b.n	8000888 <ADC_IRQHandler>
	...

0800088c <HAL_Init>:
  *         need to ensure that the SysTick time base is always set to 1 millisecond
  *         to have correct HAL operation.
  * @retval HAL status
  */
HAL_StatusTypeDef HAL_Init(void)
{
 800088c:	b580      	push	{r7, lr}
 800088e:	af00      	add	r7, sp, #0
  /* Configure Flash prefetch, Instruction cache, Data cache */ 
#if (INSTRUCTION_CACHE_ENABLE != 0U)
  __HAL_FLASH_INSTRUCTION_CACHE_ENABLE();
 8000890:	4b0e      	ldr	r3, [pc, #56]	; (80008cc <HAL_Init+0x40>)
 8000892:	681b      	ldr	r3, [r3, #0]
 8000894:	4a0d      	ldr	r2, [pc, #52]	; (80008cc <HAL_Init+0x40>)
 8000896:	f443 7300 	orr.w	r3, r3, #512	; 0x200
 800089a:	6013      	str	r3, [r2, #0]
#endif /* INSTRUCTION_CACHE_ENABLE */

#if (DATA_CACHE_ENABLE != 0U)
  __HAL_FLASH_DATA_CACHE_ENABLE();
 800089c:	4b0b      	ldr	r3, [pc, #44]	; (80008cc <HAL_Init+0x40>)
 800089e:	681b      	ldr	r3, [r3, #0]
 80008a0:	4a0a      	ldr	r2, [pc, #40]	; (80008cc <HAL_Init+0x40>)
 80008a2:	f443 6380 	orr.w	r3, r3, #1024	; 0x400
 80008a6:	6013      	str	r3, [r2, #0]
#endif /* DATA_CACHE_ENABLE */

#if (PREFETCH_ENABLE != 0U)
  __HAL_FLASH_PREFETCH_BUFFER_ENABLE();
 80008a8:	4b08      	ldr	r3, [pc, #32]	; (80008cc <HAL_Init+0x40>)
 80008aa:	681b      	ldr	r3, [r3, #0]
 80008ac:	4a07      	ldr	r2, [pc, #28]	; (80008cc <HAL_Init+0x40>)
 80008ae:	f443 7380 	orr.w	r3, r3, #256	; 0x100
 80008b2:	6013      	str	r3, [r2, #0]
#endif /* PREFETCH_ENABLE */

  /* Set Interrupt Group Priority */
  HAL_NVIC_SetPriorityGrouping(NVIC_PRIORITYGROUP_4);
 80008b4:	2003      	movs	r0, #3
 80008b6:	f000 f90d 	bl	8000ad4 <HAL_NVIC_SetPriorityGrouping>

  /* Use systick as time base source and configure 1ms tick (default clock after Reset is HSI) */
  HAL_InitTick(TICK_INT_PRIORITY);
 80008ba:	200f      	movs	r0, #15
 80008bc:	f000 f808 	bl	80008d0 <HAL_InitTick>

  /* Init the low level hardware */
  HAL_MspInit();
 80008c0:	f7ff ff34 	bl	800072c <HAL_MspInit>

  /* Return function status */
  return HAL_OK;
 80008c4:	2300      	movs	r3, #0
}
 80008c6:	4618      	mov	r0, r3
 80008c8:	bd80      	pop	{r7, pc}
 80008ca:	bf00      	nop
 80008cc:	40023c00 	.word	0x40023c00

080008d0 <HAL_InitTick>:
  *       implementation  in user file.
  * @param TickPriority Tick interrupt priority.
  * @retval HAL status
  */
__weak HAL_StatusTypeDef HAL_InitTick(uint32_t TickPriority)
{
 80008d0:	b580      	push	{r7, lr}
 80008d2:	b082      	sub	sp, #8
 80008d4:	af00      	add	r7, sp, #0
 80008d6:	6078      	str	r0, [r7, #4]
  /* Configure the SysTick to have interrupt in 1ms time basis*/
  if (HAL_SYSTICK_Config(SystemCoreClock / (1000U / uwTickFreq)) > 0U)
 80008d8:	4b12      	ldr	r3, [pc, #72]	; (8000924 <HAL_InitTick+0x54>)
 80008da:	681a      	ldr	r2, [r3, #0]
 80008dc:	4b12      	ldr	r3, [pc, #72]	; (8000928 <HAL_InitTick+0x58>)
 80008de:	781b      	ldrb	r3, [r3, #0]
 80008e0:	4619      	mov	r1, r3
 80008e2:	f44f 737a 	mov.w	r3, #1000	; 0x3e8
 80008e6:	fbb3 f3f1 	udiv	r3, r3, r1
 80008ea:	fbb2 f3f3 	udiv	r3, r2, r3
 80008ee:	4618      	mov	r0, r3
 80008f0:	f000 f917 	bl	8000b22 <HAL_SYSTICK_Config>
 80008f4:	4603      	mov	r3, r0
 80008f6:	2b00      	cmp	r3, #0
 80008f8:	d001      	beq.n	80008fe <HAL_InitTick+0x2e>
  {
    return HAL_ERROR;
 80008fa:	2301      	movs	r3, #1
 80008fc:	e00e      	b.n	800091c <HAL_InitTick+0x4c>
  }

  /* Configure the SysTick IRQ priority */
  if (TickPriority < (1UL << __NVIC_PRIO_BITS))
 80008fe:	687b      	ldr	r3, [r7, #4]
 8000900:	2b0f      	cmp	r3, #15
 8000902:	d80a      	bhi.n	800091a <HAL_InitTick+0x4a>
  {
    HAL_NVIC_SetPriority(SysTick_IRQn, TickPriority, 0U);
 8000904:	2200      	movs	r2, #0
 8000906:	6879      	ldr	r1, [r7, #4]
 8000908:	f04f 30ff 	mov.w	r0, #4294967295
 800090c:	f000 f8ed 	bl	8000aea <HAL_NVIC_SetPriority>
    uwTickPrio = TickPriority;
 8000910:	4a06      	ldr	r2, [pc, #24]	; (800092c <HAL_InitTick+0x5c>)
 8000912:	687b      	ldr	r3, [r7, #4]
 8000914:	6013      	str	r3, [r2, #0]
  {
    return HAL_ERROR;
  }

  /* Return function status */
  return HAL_OK;
 8000916:	2300      	movs	r3, #0
 8000918:	e000      	b.n	800091c <HAL_InitTick+0x4c>
    return HAL_ERROR;
 800091a:	2301      	movs	r3, #1
}
 800091c:	4618      	mov	r0, r3
 800091e:	3708      	adds	r7, #8
 8000920:	46bd      	mov	sp, r7
 8000922:	bd80      	pop	{r7, pc}
 8000924:	20000000 	.word	0x20000000
 8000928:	20000008 	.word	0x20000008
 800092c:	20000004 	.word	0x20000004

08000930 <HAL_IncTick>:
 * @note This function is declared as __weak to be overwritten in case of other 
  *      implementations in user file.
  * @retval None
  */
__weak void HAL_IncTick(void)
{
 8000930:	b480      	push	{r7}
 8000932:	af00      	add	r7, sp, #0
  uwTick += uwTickFreq;
 8000934:	4b06      	ldr	r3, [pc, #24]	; (8000950 <HAL_IncTick+0x20>)
 8000936:	781b      	ldrb	r3, [r3, #0]
 8000938:	461a      	mov	r2, r3
 800093a:	4b06      	ldr	r3, [pc, #24]	; (8000954 <HAL_IncTick+0x24>)
 800093c:	681b      	ldr	r3, [r3, #0]
 800093e:	4413      	add	r3, r2
 8000940:	4a04      	ldr	r2, [pc, #16]	; (8000954 <HAL_IncTick+0x24>)
 8000942:	6013      	str	r3, [r2, #0]
}
 8000944:	bf00      	nop
 8000946:	46bd      	mov	sp, r7
 8000948:	f85d 7b04 	ldr.w	r7, [sp], #4
 800094c:	4770      	bx	lr
 800094e:	bf00      	nop
 8000950:	20000008 	.word	0x20000008
 8000954:	20000070 	.word	0x20000070

08000958 <HAL_GetTick>:
  * @note This function is declared as __weak to be overwritten in case of other 
  *       implementations in user file.
  * @retval tick value
  */
__weak uint32_t HAL_GetTick(void)
{
 8000958:	b480      	push	{r7}
 800095a:	af00      	add	r7, sp, #0
  return uwTick;
 800095c:	4b03      	ldr	r3, [pc, #12]	; (800096c <HAL_GetTick+0x14>)
 800095e:	681b      	ldr	r3, [r3, #0]
}
 8000960:	4618      	mov	r0, r3
 8000962:	46bd      	mov	sp, r7
 8000964:	f85d 7b04 	ldr.w	r7, [sp], #4
 8000968:	4770      	bx	lr
 800096a:	bf00      	nop
 800096c:	20000070 	.word	0x20000070

08000970 <__NVIC_SetPriorityGrouping>:
           In case of a conflict between priority grouping and available
           priority bits (__NVIC_PRIO_BITS), the smallest possible priority group is set.
  \param [in]      PriorityGroup  Priority grouping field.
 */
__STATIC_INLINE void __NVIC_SetPriorityGrouping(uint32_t PriorityGroup)
{
 8000970:	b480      	push	{r7}
 8000972:	b085      	sub	sp, #20
 8000974:	af00      	add	r7, sp, #0
 8000976:	6078      	str	r0, [r7, #4]
  uint32_t reg_value;
  uint32_t PriorityGroupTmp = (PriorityGroup & (uint32_t)0x07UL);             /* only values 0..7 are used          */
 8000978:	687b      	ldr	r3, [r7, #4]
 800097a:	f003 0307 	and.w	r3, r3, #7
 800097e:	60fb      	str	r3, [r7, #12]

  reg_value  =  SCB->AIRCR;                                                   /* read old register configuration    */
 8000980:	4b0c      	ldr	r3, [pc, #48]	; (80009b4 <__NVIC_SetPriorityGrouping+0x44>)
 8000982:	68db      	ldr	r3, [r3, #12]
 8000984:	60bb      	str	r3, [r7, #8]
  reg_value &= ~((uint32_t)(SCB_AIRCR_VECTKEY_Msk | SCB_AIRCR_PRIGROUP_Msk)); /* clear bits to change               */
 8000986:	68ba      	ldr	r2, [r7, #8]
 8000988:	f64f 03ff 	movw	r3, #63743	; 0xf8ff
 800098c:	4013      	ands	r3, r2
 800098e:	60bb      	str	r3, [r7, #8]
  reg_value  =  (reg_value                                   |
                ((uint32_t)0x5FAUL << SCB_AIRCR_VECTKEY_Pos) |
                (PriorityGroupTmp << SCB_AIRCR_PRIGROUP_Pos)  );              /* Insert write key and priority group */
 8000990:	68fb      	ldr	r3, [r7, #12]
 8000992:	021a      	lsls	r2, r3, #8
                ((uint32_t)0x5FAUL << SCB_AIRCR_VECTKEY_Pos) |
 8000994:	68bb      	ldr	r3, [r7, #8]
 8000996:	4313      	orrs	r3, r2
  reg_value  =  (reg_value                                   |
 8000998:	f043 63bf 	orr.w	r3, r3, #100139008	; 0x5f80000
 800099c:	f443 3300 	orr.w	r3, r3, #131072	; 0x20000
 80009a0:	60bb      	str	r3, [r7, #8]
  SCB->AIRCR =  reg_value;
 80009a2:	4a04      	ldr	r2, [pc, #16]	; (80009b4 <__NVIC_SetPriorityGrouping+0x44>)
 80009a4:	68bb      	ldr	r3, [r7, #8]
 80009a6:	60d3      	str	r3, [r2, #12]
}
 80009a8:	bf00      	nop
 80009aa:	3714      	adds	r7, #20
 80009ac:	46bd      	mov	sp, r7
 80009ae:	f85d 7b04 	ldr.w	r7, [sp], #4
 80009b2:	4770      	bx	lr
 80009b4:	e000ed00 	.word	0xe000ed00

080009b8 <__NVIC_GetPriorityGrouping>:
  \brief   Get Priority Grouping
  \details Reads the priority grouping field from the NVIC Interrupt Controller.
  \return                Priority grouping field (SCB->AIRCR [10:8] PRIGROUP field).
 */
__STATIC_INLINE uint32_t __NVIC_GetPriorityGrouping(void)
{
 80009b8:	b480      	push	{r7}
 80009ba:	af00      	add	r7, sp, #0
  return ((uint32_t)((SCB->AIRCR & SCB_AIRCR_PRIGROUP_Msk) >> SCB_AIRCR_PRIGROUP_Pos));
 80009bc:	4b04      	ldr	r3, [pc, #16]	; (80009d0 <__NVIC_GetPriorityGrouping+0x18>)
 80009be:	68db      	ldr	r3, [r3, #12]
 80009c0:	0a1b      	lsrs	r3, r3, #8
 80009c2:	f003 0307 	and.w	r3, r3, #7
}
 80009c6:	4618      	mov	r0, r3
 80009c8:	46bd      	mov	sp, r7
 80009ca:	f85d 7b04 	ldr.w	r7, [sp], #4
 80009ce:	4770      	bx	lr
 80009d0:	e000ed00 	.word	0xe000ed00

080009d4 <__NVIC_SetPriority>:
  \param [in]      IRQn  Interrupt number.
  \param [in]  priority  Priority to set.
  \note    The priority cannot be set for every processor exception.
 */
__STATIC_INLINE void __NVIC_SetPriority(IRQn_Type IRQn, uint32_t priority)
{
 80009d4:	b480      	push	{r7}
 80009d6:	b083      	sub	sp, #12
 80009d8:	af00      	add	r7, sp, #0
 80009da:	4603      	mov	r3, r0
 80009dc:	6039      	str	r1, [r7, #0]
 80009de:	71fb      	strb	r3, [r7, #7]
  if ((int32_t)(IRQn) >= 0)
 80009e0:	f997 3007 	ldrsb.w	r3, [r7, #7]
 80009e4:	2b00      	cmp	r3, #0
 80009e6:	db0a      	blt.n	80009fe <__NVIC_SetPriority+0x2a>
  {
    NVIC->IP[((uint32_t)IRQn)]               = (uint8_t)((priority << (8U - __NVIC_PRIO_BITS)) & (uint32_t)0xFFUL);
 80009e8:	683b      	ldr	r3, [r7, #0]
 80009ea:	b2da      	uxtb	r2, r3
 80009ec:	490c      	ldr	r1, [pc, #48]	; (8000a20 <__NVIC_SetPriority+0x4c>)
 80009ee:	f997 3007 	ldrsb.w	r3, [r7, #7]
 80009f2:	0112      	lsls	r2, r2, #4
 80009f4:	b2d2      	uxtb	r2, r2
 80009f6:	440b      	add	r3, r1
 80009f8:	f883 2300 	strb.w	r2, [r3, #768]	; 0x300
  }
  else
  {
    SCB->SHP[(((uint32_t)IRQn) & 0xFUL)-4UL] = (uint8_t)((priority << (8U - __NVIC_PRIO_BITS)) & (uint32_t)0xFFUL);
  }
}
 80009fc:	e00a      	b.n	8000a14 <__NVIC_SetPriority+0x40>
    SCB->SHP[(((uint32_t)IRQn) & 0xFUL)-4UL] = (uint8_t)((priority << (8U - __NVIC_PRIO_BITS)) & (uint32_t)0xFFUL);
 80009fe:	683b      	ldr	r3, [r7, #0]
 8000a00:	b2da      	uxtb	r2, r3
 8000a02:	4908      	ldr	r1, [pc, #32]	; (8000a24 <__NVIC_SetPriority+0x50>)
 8000a04:	79fb      	ldrb	r3, [r7, #7]
 8000a06:	f003 030f 	and.w	r3, r3, #15
 8000a0a:	3b04      	subs	r3, #4
 8000a0c:	0112      	lsls	r2, r2, #4
 8000a0e:	b2d2      	uxtb	r2, r2
 8000a10:	440b      	add	r3, r1
 8000a12:	761a      	strb	r2, [r3, #24]
}
 8000a14:	bf00      	nop
 8000a16:	370c      	adds	r7, #12
 8000a18:	46bd      	mov	sp, r7
 8000a1a:	f85d 7b04 	ldr.w	r7, [sp], #4
 8000a1e:	4770      	bx	lr
 8000a20:	e000e100 	.word	0xe000e100
 8000a24:	e000ed00 	.word	0xe000ed00

08000a28 <NVIC_EncodePriority>:
  \param [in]   PreemptPriority  Preemptive priority value (starting from 0).
  \param [in]       SubPriority  Subpriority value (starting from 0).
  \return                        Encoded priority. Value can be used in the function \ref NVIC_SetPriority().
 */
__STATIC_INLINE uint32_t NVIC_EncodePriority (uint32_t PriorityGroup, uint32_t PreemptPriority, uint32_t SubPriority)
{
 8000a28:	b480      	push	{r7}
 8000a2a:	b089      	sub	sp, #36	; 0x24
 8000a2c:	af00      	add	r7, sp, #0
 8000a2e:	60f8      	str	r0, [r7, #12]
 8000a30:	60b9      	str	r1, [r7, #8]
 8000a32:	607a      	str	r2, [r7, #4]
  uint32_t PriorityGroupTmp = (PriorityGroup & (uint32_t)0x07UL);   /* only values 0..7 are used          */
 8000a34:	68fb      	ldr	r3, [r7, #12]
 8000a36:	f003 0307 	and.w	r3, r3, #7
 8000a3a:	61fb      	str	r3, [r7, #28]
  uint32_t PreemptPriorityBits;
  uint32_t SubPriorityBits;

  PreemptPriorityBits = ((7UL - PriorityGroupTmp) > (uint32_t)(__NVIC_PRIO_BITS)) ? (uint32_t)(__NVIC_PRIO_BITS) : (uint32_t)(7UL - PriorityGroupTmp);
 8000a3c:	69fb      	ldr	r3, [r7, #28]
 8000a3e:	f1c3 0307 	rsb	r3, r3, #7
 8000a42:	2b04      	cmp	r3, #4
 8000a44:	bf28      	it	cs
 8000a46:	2304      	movcs	r3, #4
 8000a48:	61bb      	str	r3, [r7, #24]
  SubPriorityBits     = ((PriorityGroupTmp + (uint32_t)(__NVIC_PRIO_BITS)) < (uint32_t)7UL) ? (uint32_t)0UL : (uint32_t)((PriorityGroupTmp - 7UL) + (uint32_t)(__NVIC_PRIO_BITS));
 8000a4a:	69fb      	ldr	r3, [r7, #28]
 8000a4c:	3304      	adds	r3, #4
 8000a4e:	2b06      	cmp	r3, #6
 8000a50:	d902      	bls.n	8000a58 <NVIC_EncodePriority+0x30>
 8000a52:	69fb      	ldr	r3, [r7, #28]
 8000a54:	3b03      	subs	r3, #3
 8000a56:	e000      	b.n	8000a5a <NVIC_EncodePriority+0x32>
 8000a58:	2300      	movs	r3, #0
 8000a5a:	617b      	str	r3, [r7, #20]

  return (
           ((PreemptPriority & (uint32_t)((1UL << (PreemptPriorityBits)) - 1UL)) << SubPriorityBits) |
 8000a5c:	f04f 32ff 	mov.w	r2, #4294967295
 8000a60:	69bb      	ldr	r3, [r7, #24]
 8000a62:	fa02 f303 	lsl.w	r3, r2, r3
 8000a66:	43da      	mvns	r2, r3
 8000a68:	68bb      	ldr	r3, [r7, #8]
 8000a6a:	401a      	ands	r2, r3
 8000a6c:	697b      	ldr	r3, [r7, #20]
 8000a6e:	409a      	lsls	r2, r3
           ((SubPriority     & (uint32_t)((1UL << (SubPriorityBits    )) - 1UL)))
 8000a70:	f04f 31ff 	mov.w	r1, #4294967295
 8000a74:	697b      	ldr	r3, [r7, #20]
 8000a76:	fa01 f303 	lsl.w	r3, r1, r3
 8000a7a:	43d9      	mvns	r1, r3
 8000a7c:	687b      	ldr	r3, [r7, #4]
 8000a7e:	400b      	ands	r3, r1
           ((PreemptPriority & (uint32_t)((1UL << (PreemptPriorityBits)) - 1UL)) << SubPriorityBits) |
 8000a80:	4313      	orrs	r3, r2
         );
}
 8000a82:	4618      	mov	r0, r3
 8000a84:	3724      	adds	r7, #36	; 0x24
 8000a86:	46bd      	mov	sp, r7
 8000a88:	f85d 7b04 	ldr.w	r7, [sp], #4
 8000a8c:	4770      	bx	lr
	...

08000a90 <SysTick_Config>:
  \note    When the variable <b>__Vendor_SysTickConfig</b> is set to 1, then the
           function <b>SysTick_Config</b> is not included. In this case, the file <b><i>device</i>.h</b>
           must contain a vendor-specific implementation of this function.
 */
__STATIC_INLINE uint32_t SysTick_Config(uint32_t ticks)
{
 8000a90:	b580      	push	{r7, lr}
 8000a92:	b082      	sub	sp, #8
 8000a94:	af00      	add	r7, sp, #0
 8000a96:	6078      	str	r0, [r7, #4]
  if ((ticks - 1UL) > SysTick_LOAD_RELOAD_Msk)
 8000a98:	687b      	ldr	r3, [r7, #4]
 8000a9a:	3b01      	subs	r3, #1
 8000a9c:	f1b3 7f80 	cmp.w	r3, #16777216	; 0x1000000
 8000aa0:	d301      	bcc.n	8000aa6 <SysTick_Config+0x16>
  {
    return (1UL);                                                   /* Reload value impossible */
 8000aa2:	2301      	movs	r3, #1
 8000aa4:	e00f      	b.n	8000ac6 <SysTick_Config+0x36>
  }

  SysTick->LOAD  = (uint32_t)(ticks - 1UL);                         /* set reload register */
 8000aa6:	4a0a      	ldr	r2, [pc, #40]	; (8000ad0 <SysTick_Config+0x40>)
 8000aa8:	687b      	ldr	r3, [r7, #4]
 8000aaa:	3b01      	subs	r3, #1
 8000aac:	6053      	str	r3, [r2, #4]
  NVIC_SetPriority (SysTick_IRQn, (1UL << __NVIC_PRIO_BITS) - 1UL); /* set Priority for Systick Interrupt */
 8000aae:	210f      	movs	r1, #15
 8000ab0:	f04f 30ff 	mov.w	r0, #4294967295
 8000ab4:	f7ff ff8e 	bl	80009d4 <__NVIC_SetPriority>
  SysTick->VAL   = 0UL;                                             /* Load the SysTick Counter Value */
 8000ab8:	4b05      	ldr	r3, [pc, #20]	; (8000ad0 <SysTick_Config+0x40>)
 8000aba:	2200      	movs	r2, #0
 8000abc:	609a      	str	r2, [r3, #8]
  SysTick->CTRL  = SysTick_CTRL_CLKSOURCE_Msk |
 8000abe:	4b04      	ldr	r3, [pc, #16]	; (8000ad0 <SysTick_Config+0x40>)
 8000ac0:	2207      	movs	r2, #7
 8000ac2:	601a      	str	r2, [r3, #0]
                   SysTick_CTRL_TICKINT_Msk   |
                   SysTick_CTRL_ENABLE_Msk;                         /* Enable SysTick IRQ and SysTick Timer */
  return (0UL);                                                     /* Function successful */
 8000ac4:	2300      	movs	r3, #0
}
 8000ac6:	4618      	mov	r0, r3
 8000ac8:	3708      	adds	r7, #8
 8000aca:	46bd      	mov	sp, r7
 8000acc:	bd80      	pop	{r7, pc}
 8000ace:	bf00      	nop
 8000ad0:	e000e010 	.word	0xe000e010

08000ad4 <HAL_NVIC_SetPriorityGrouping>:
  * @note   When the NVIC_PriorityGroup_0 is selected, IRQ preemption is no more possible. 
  *         The pending IRQ priority will be managed only by the subpriority. 
  * @retval None
  */
void HAL_NVIC_SetPriorityGrouping(uint32_t PriorityGroup)
{
 8000ad4:	b580      	push	{r7, lr}
 8000ad6:	b082      	sub	sp, #8
 8000ad8:	af00      	add	r7, sp, #0
 8000ada:	6078      	str	r0, [r7, #4]
  /* Check the parameters */
  assert_param(IS_NVIC_PRIORITY_GROUP(PriorityGroup));
  
  /* Set the PRIGROUP[10:8] bits according to the PriorityGroup parameter value */
  NVIC_SetPriorityGrouping(PriorityGroup);
 8000adc:	6878      	ldr	r0, [r7, #4]
 8000ade:	f7ff ff47 	bl	8000970 <__NVIC_SetPriorityGrouping>
}
 8000ae2:	bf00      	nop
 8000ae4:	3708      	adds	r7, #8
 8000ae6:	46bd      	mov	sp, r7
 8000ae8:	bd80      	pop	{r7, pc}

08000aea <HAL_NVIC_SetPriority>:
  *         This parameter can be a value between 0 and 15
  *         A lower priority value indicates a higher priority.          
  * @retval None
  */
void HAL_NVIC_SetPriority(IRQn_Type IRQn, uint32_t PreemptPriority, uint32_t SubPriority)
{ 
 8000aea:	b580      	push	{r7, lr}
 8000aec:	b086      	sub	sp, #24
 8000aee:	af00      	add	r7, sp, #0
 8000af0:	4603      	mov	r3, r0
 8000af2:	60b9      	str	r1, [r7, #8]
 8000af4:	607a      	str	r2, [r7, #4]
 8000af6:	73fb      	strb	r3, [r7, #15]
  uint32_t prioritygroup = 0x00U;
 8000af8:	2300      	movs	r3, #0
 8000afa:	617b      	str	r3, [r7, #20]
  
  /* Check the parameters */
  assert_param(IS_NVIC_SUB_PRIORITY(SubPriority));
  assert_param(IS_NVIC_PREEMPTION_PRIORITY(PreemptPriority));
  
  prioritygroup = NVIC_GetPriorityGrouping();
 8000afc:	f7ff ff5c 	bl	80009b8 <__NVIC_GetPriorityGrouping>
 8000b00:	6178      	str	r0, [r7, #20]
  
  NVIC_SetPriority(IRQn, NVIC_EncodePriority(prioritygroup, PreemptPriority, SubPriority));
 8000b02:	687a      	ldr	r2, [r7, #4]
 8000b04:	68b9      	ldr	r1, [r7, #8]
 8000b06:	6978      	ldr	r0, [r7, #20]
 8000b08:	f7ff ff8e 	bl	8000a28 <NVIC_EncodePriority>
 8000b0c:	4602      	mov	r2, r0
 8000b0e:	f997 300f 	ldrsb.w	r3, [r7, #15]
 8000b12:	4611      	mov	r1, r2
 8000b14:	4618      	mov	r0, r3
 8000b16:	f7ff ff5d 	bl	80009d4 <__NVIC_SetPriority>
}
 8000b1a:	bf00      	nop
 8000b1c:	3718      	adds	r7, #24
 8000b1e:	46bd      	mov	sp, r7
 8000b20:	bd80      	pop	{r7, pc}

08000b22 <HAL_SYSTICK_Config>:
  * @param  TicksNumb Specifies the ticks Number of ticks between two interrupts.
  * @retval status:  - 0  Function succeeded.
  *                  - 1  Function failed.
  */
uint32_t HAL_SYSTICK_Config(uint32_t TicksNumb)
{
 8000b22:	b580      	push	{r7, lr}
 8000b24:	b082      	sub	sp, #8
 8000b26:	af00      	add	r7, sp, #0
 8000b28:	6078      	str	r0, [r7, #4]
   return SysTick_Config(TicksNumb);
 8000b2a:	6878      	ldr	r0, [r7, #4]
 8000b2c:	f7ff ffb0 	bl	8000a90 <SysTick_Config>
 8000b30:	4603      	mov	r3, r0
}
 8000b32:	4618      	mov	r0, r3
 8000b34:	3708      	adds	r7, #8
 8000b36:	46bd      	mov	sp, r7
 8000b38:	bd80      	pop	{r7, pc}
	...

08000b3c <HAL_GPIO_Init>:
  * @param  GPIO_Init pointer to a GPIO_InitTypeDef structure that contains
  *         the configuration information for the specified GPIO peripheral.
  * @retval None
  */
void HAL_GPIO_Init(GPIO_TypeDef  *GPIOx, GPIO_InitTypeDef *GPIO_Init)
{
 8000b3c:	b480      	push	{r7}
 8000b3e:	b089      	sub	sp, #36	; 0x24
 8000b40:	af00      	add	r7, sp, #0
 8000b42:	6078      	str	r0, [r7, #4]
 8000b44:	6039      	str	r1, [r7, #0]
  uint32_t position;
  uint32_t ioposition = 0x00U;
 8000b46:	2300      	movs	r3, #0
 8000b48:	617b      	str	r3, [r7, #20]
  uint32_t iocurrent = 0x00U;
 8000b4a:	2300      	movs	r3, #0
 8000b4c:	613b      	str	r3, [r7, #16]
  uint32_t temp = 0x00U;
 8000b4e:	2300      	movs	r3, #0
 8000b50:	61bb      	str	r3, [r7, #24]
  assert_param(IS_GPIO_ALL_INSTANCE(GPIOx));
  assert_param(IS_GPIO_PIN(GPIO_Init->Pin));
  assert_param(IS_GPIO_MODE(GPIO_Init->Mode));

  /* Configure the port pins */
  for(position = 0U; position < GPIO_NUMBER; position++)
 8000b52:	2300      	movs	r3, #0
 8000b54:	61fb      	str	r3, [r7, #28]
 8000b56:	e16b      	b.n	8000e30 <HAL_GPIO_Init+0x2f4>
  {
    /* Get the IO position */
    ioposition = 0x01U << position;
 8000b58:	2201      	movs	r2, #1
 8000b5a:	69fb      	ldr	r3, [r7, #28]
 8000b5c:	fa02 f303 	lsl.w	r3, r2, r3
 8000b60:	617b      	str	r3, [r7, #20]
    /* Get the current IO position */
    iocurrent = (uint32_t)(GPIO_Init->Pin) & ioposition;
 8000b62:	683b      	ldr	r3, [r7, #0]
 8000b64:	681b      	ldr	r3, [r3, #0]
 8000b66:	697a      	ldr	r2, [r7, #20]
 8000b68:	4013      	ands	r3, r2
 8000b6a:	613b      	str	r3, [r7, #16]

    if(iocurrent == ioposition)
 8000b6c:	693a      	ldr	r2, [r7, #16]
 8000b6e:	697b      	ldr	r3, [r7, #20]
 8000b70:	429a      	cmp	r2, r3
 8000b72:	f040 815a 	bne.w	8000e2a <HAL_GPIO_Init+0x2ee>
    {
      /*--------------------- GPIO Mode Configuration ------------------------*/
      /* In case of Output or Alternate function mode selection */
      if(((GPIO_Init->Mode & GPIO_MODE) == MODE_OUTPUT) || \
 8000b76:	683b      	ldr	r3, [r7, #0]
 8000b78:	685b      	ldr	r3, [r3, #4]
 8000b7a:	f003 0303 	and.w	r3, r3, #3
 8000b7e:	2b01      	cmp	r3, #1
 8000b80:	d005      	beq.n	8000b8e <HAL_GPIO_Init+0x52>
          (GPIO_Init->Mode & GPIO_MODE) == MODE_AF)
 8000b82:	683b      	ldr	r3, [r7, #0]
 8000b84:	685b      	ldr	r3, [r3, #4]
 8000b86:	f003 0303 	and.w	r3, r3, #3
      if(((GPIO_Init->Mode & GPIO_MODE) == MODE_OUTPUT) || \
 8000b8a:	2b02      	cmp	r3, #2
 8000b8c:	d130      	bne.n	8000bf0 <HAL_GPIO_Init+0xb4>
      {
        /* Check the Speed parameter */
        assert_param(IS_GPIO_SPEED(GPIO_Init->Speed));
        /* Configure the IO Speed */
        temp = GPIOx->OSPEEDR; 
 8000b8e:	687b      	ldr	r3, [r7, #4]
 8000b90:	689b      	ldr	r3, [r3, #8]
 8000b92:	61bb      	str	r3, [r7, #24]
        temp &= ~(GPIO_OSPEEDER_OSPEEDR0 << (position * 2U));
 8000b94:	69fb      	ldr	r3, [r7, #28]
 8000b96:	005b      	lsls	r3, r3, #1
 8000b98:	2203      	movs	r2, #3
 8000b9a:	fa02 f303 	lsl.w	r3, r2, r3
 8000b9e:	43db      	mvns	r3, r3
 8000ba0:	69ba      	ldr	r2, [r7, #24]
 8000ba2:	4013      	ands	r3, r2
 8000ba4:	61bb      	str	r3, [r7, #24]
        temp |= (GPIO_Init->Speed << (position * 2U));
 8000ba6:	683b      	ldr	r3, [r7, #0]
 8000ba8:	68da      	ldr	r2, [r3, #12]
 8000baa:	69fb      	ldr	r3, [r7, #28]
 8000bac:	005b      	lsls	r3, r3, #1
 8000bae:	fa02 f303 	lsl.w	r3, r2, r3
 8000bb2:	69ba      	ldr	r2, [r7, #24]
 8000bb4:	4313      	orrs	r3, r2
 8000bb6:	61bb      	str	r3, [r7, #24]
        GPIOx->OSPEEDR = temp;
 8000bb8:	687b      	ldr	r3, [r7, #4]
 8000bba:	69ba      	ldr	r2, [r7, #24]
 8000bbc:	609a      	str	r2, [r3, #8]

        /* Configure the IO Output Type */
        temp = GPIOx->OTYPER;
 8000bbe:	687b      	ldr	r3, [r7, #4]
 8000bc0:	685b      	ldr	r3, [r3, #4]
 8000bc2:	61bb      	str	r3, [r7, #24]
        temp &= ~(GPIO_OTYPER_OT_0 << position) ;
 8000bc4:	2201      	movs	r2, #1
 8000bc6:	69fb      	ldr	r3, [r7, #28]
 8000bc8:	fa02 f303 	lsl.w	r3, r2, r3
 8000bcc:	43db      	mvns	r3, r3
 8000bce:	69ba      	ldr	r2, [r7, #24]
 8000bd0:	4013      	ands	r3, r2
 8000bd2:	61bb      	str	r3, [r7, #24]
        temp |= (((GPIO_Init->Mode & OUTPUT_TYPE) >> OUTPUT_TYPE_Pos) << position);
 8000bd4:	683b      	ldr	r3, [r7, #0]
 8000bd6:	685b      	ldr	r3, [r3, #4]
 8000bd8:	091b      	lsrs	r3, r3, #4
 8000bda:	f003 0201 	and.w	r2, r3, #1
 8000bde:	69fb      	ldr	r3, [r7, #28]
 8000be0:	fa02 f303 	lsl.w	r3, r2, r3
 8000be4:	69ba      	ldr	r2, [r7, #24]
 8000be6:	4313      	orrs	r3, r2
 8000be8:	61bb      	str	r3, [r7, #24]
        GPIOx->OTYPER = temp;
 8000bea:	687b      	ldr	r3, [r7, #4]
 8000bec:	69ba      	ldr	r2, [r7, #24]
 8000bee:	605a      	str	r2, [r3, #4]
       }

      if((GPIO_Init->Mode & GPIO_MODE) != MODE_ANALOG)
 8000bf0:	683b      	ldr	r3, [r7, #0]
 8000bf2:	685b      	ldr	r3, [r3, #4]
 8000bf4:	f003 0303 	and.w	r3, r3, #3
 8000bf8:	2b03      	cmp	r3, #3
 8000bfa:	d017      	beq.n	8000c2c <HAL_GPIO_Init+0xf0>
      {
        /* Check the parameters */
        assert_param(IS_GPIO_PULL(GPIO_Init->Pull));
        
        /* Activate the Pull-up or Pull down resistor for the current IO */
        temp = GPIOx->PUPDR;
 8000bfc:	687b      	ldr	r3, [r7, #4]
 8000bfe:	68db      	ldr	r3, [r3, #12]
 8000c00:	61bb      	str	r3, [r7, #24]
        temp &= ~(GPIO_PUPDR_PUPDR0 << (position * 2U));
 8000c02:	69fb      	ldr	r3, [r7, #28]
 8000c04:	005b      	lsls	r3, r3, #1
 8000c06:	2203      	movs	r2, #3
 8000c08:	fa02 f303 	lsl.w	r3, r2, r3
 8000c0c:	43db      	mvns	r3, r3
 8000c0e:	69ba      	ldr	r2, [r7, #24]
 8000c10:	4013      	ands	r3, r2
 8000c12:	61bb      	str	r3, [r7, #24]
        temp |= ((GPIO_Init->Pull) << (position * 2U));
 8000c14:	683b      	ldr	r3, [r7, #0]
 8000c16:	689a      	ldr	r2, [r3, #8]
 8000c18:	69fb      	ldr	r3, [r7, #28]
 8000c1a:	005b      	lsls	r3, r3, #1
 8000c1c:	fa02 f303 	lsl.w	r3, r2, r3
 8000c20:	69ba      	ldr	r2, [r7, #24]
 8000c22:	4313      	orrs	r3, r2
 8000c24:	61bb      	str	r3, [r7, #24]
        GPIOx->PUPDR = temp;
 8000c26:	687b      	ldr	r3, [r7, #4]
 8000c28:	69ba      	ldr	r2, [r7, #24]
 8000c2a:	60da      	str	r2, [r3, #12]
      }

      /* In case of Alternate function mode selection */
      if((GPIO_Init->Mode & GPIO_MODE) == MODE_AF)
 8000c2c:	683b      	ldr	r3, [r7, #0]
 8000c2e:	685b      	ldr	r3, [r3, #4]
 8000c30:	f003 0303 	and.w	r3, r3, #3
 8000c34:	2b02      	cmp	r3, #2
 8000c36:	d123      	bne.n	8000c80 <HAL_GPIO_Init+0x144>
      {
        /* Check the Alternate function parameter */
        assert_param(IS_GPIO_AF(GPIO_Init->Alternate));
        /* Configure Alternate function mapped with the current IO */
        temp = GPIOx->AFR[position >> 3U];
 8000c38:	69fb      	ldr	r3, [r7, #28]
 8000c3a:	08da      	lsrs	r2, r3, #3
 8000c3c:	687b      	ldr	r3, [r7, #4]
 8000c3e:	3208      	adds	r2, #8
 8000c40:	f853 3022 	ldr.w	r3, [r3, r2, lsl #2]
 8000c44:	61bb      	str	r3, [r7, #24]
        temp &= ~(0xFU << ((uint32_t)(position & 0x07U) * 4U)) ;
 8000c46:	69fb      	ldr	r3, [r7, #28]
 8000c48:	f003 0307 	and.w	r3, r3, #7
 8000c4c:	009b      	lsls	r3, r3, #2
 8000c4e:	220f      	movs	r2, #15
 8000c50:	fa02 f303 	lsl.w	r3, r2, r3
 8000c54:	43db      	mvns	r3, r3
 8000c56:	69ba      	ldr	r2, [r7, #24]
 8000c58:	4013      	ands	r3, r2
 8000c5a:	61bb      	str	r3, [r7, #24]
        temp |= ((uint32_t)(GPIO_Init->Alternate) << (((uint32_t)position & 0x07U) * 4U));
 8000c5c:	683b      	ldr	r3, [r7, #0]
 8000c5e:	691a      	ldr	r2, [r3, #16]
 8000c60:	69fb      	ldr	r3, [r7, #28]
 8000c62:	f003 0307 	and.w	r3, r3, #7
 8000c66:	009b      	lsls	r3, r3, #2
 8000c68:	fa02 f303 	lsl.w	r3, r2, r3
 8000c6c:	69ba      	ldr	r2, [r7, #24]
 8000c6e:	4313      	orrs	r3, r2
 8000c70:	61bb      	str	r3, [r7, #24]
        GPIOx->AFR[position >> 3U] = temp;
 8000c72:	69fb      	ldr	r3, [r7, #28]
 8000c74:	08da      	lsrs	r2, r3, #3
 8000c76:	687b      	ldr	r3, [r7, #4]
 8000c78:	3208      	adds	r2, #8
 8000c7a:	69b9      	ldr	r1, [r7, #24]
 8000c7c:	f843 1022 	str.w	r1, [r3, r2, lsl #2]
      }

      /* Configure IO Direction mode (Input, Output, Alternate or Analog) */
      temp = GPIOx->MODER;
 8000c80:	687b      	ldr	r3, [r7, #4]
 8000c82:	681b      	ldr	r3, [r3, #0]
 8000c84:	61bb      	str	r3, [r7, #24]
      temp &= ~(GPIO_MODER_MODER0 << (position * 2U));
 8000c86:	69fb      	ldr	r3, [r7, #28]
 8000c88:	005b      	lsls	r3, r3, #1
 8000c8a:	2203      	movs	r2, #3
 8000c8c:	fa02 f303 	lsl.w	r3, r2, r3
 8000c90:	43db      	mvns	r3, r3
 8000c92:	69ba      	ldr	r2, [r7, #24]
 8000c94:	4013      	ands	r3, r2
 8000c96:	61bb      	str	r3, [r7, #24]
      temp |= ((GPIO_Init->Mode & GPIO_MODE) << (position * 2U));
 8000c98:	683b      	ldr	r3, [r7, #0]
 8000c9a:	685b      	ldr	r3, [r3, #4]
 8000c9c:	f003 0203 	and.w	r2, r3, #3
 8000ca0:	69fb      	ldr	r3, [r7, #28]
 8000ca2:	005b      	lsls	r3, r3, #1
 8000ca4:	fa02 f303 	lsl.w	r3, r2, r3
 8000ca8:	69ba      	ldr	r2, [r7, #24]
 8000caa:	4313      	orrs	r3, r2
 8000cac:	61bb      	str	r3, [r7, #24]
      GPIOx->MODER = temp;
 8000cae:	687b      	ldr	r3, [r7, #4]
 8000cb0:	69ba      	ldr	r2, [r7, #24]
 8000cb2:	601a      	str	r2, [r3, #0]

      /*--------------------- EXTI Mode Configuration ------------------------*/
      /* Configure the External Interrupt or event for the current IO */
      if((GPIO_Init->Mode & EXTI_MODE) != 0x00U)
 8000cb4:	683b      	ldr	r3, [r7, #0]
 8000cb6:	685b      	ldr	r3, [r3, #4]
 8000cb8:	f403 3340 	and.w	r3, r3, #196608	; 0x30000
 8000cbc:	2b00      	cmp	r3, #0
 8000cbe:	f000 80b4 	beq.w	8000e2a <HAL_GPIO_Init+0x2ee>
      {
        /* Enable SYSCFG Clock */
        __HAL_RCC_SYSCFG_CLK_ENABLE();
 8000cc2:	2300      	movs	r3, #0
 8000cc4:	60fb      	str	r3, [r7, #12]
 8000cc6:	4b60      	ldr	r3, [pc, #384]	; (8000e48 <HAL_GPIO_Init+0x30c>)
 8000cc8:	6c5b      	ldr	r3, [r3, #68]	; 0x44
 8000cca:	4a5f      	ldr	r2, [pc, #380]	; (8000e48 <HAL_GPIO_Init+0x30c>)
 8000ccc:	f443 4380 	orr.w	r3, r3, #16384	; 0x4000
 8000cd0:	6453      	str	r3, [r2, #68]	; 0x44
 8000cd2:	4b5d      	ldr	r3, [pc, #372]	; (8000e48 <HAL_GPIO_Init+0x30c>)
 8000cd4:	6c5b      	ldr	r3, [r3, #68]	; 0x44
 8000cd6:	f403 4380 	and.w	r3, r3, #16384	; 0x4000
 8000cda:	60fb      	str	r3, [r7, #12]
 8000cdc:	68fb      	ldr	r3, [r7, #12]

        temp = SYSCFG->EXTICR[position >> 2U];
 8000cde:	4a5b      	ldr	r2, [pc, #364]	; (8000e4c <HAL_GPIO_Init+0x310>)
 8000ce0:	69fb      	ldr	r3, [r7, #28]
 8000ce2:	089b      	lsrs	r3, r3, #2
 8000ce4:	3302      	adds	r3, #2
 8000ce6:	f852 3023 	ldr.w	r3, [r2, r3, lsl #2]
 8000cea:	61bb      	str	r3, [r7, #24]
        temp &= ~(0x0FU << (4U * (position & 0x03U)));
 8000cec:	69fb      	ldr	r3, [r7, #28]
 8000cee:	f003 0303 	and.w	r3, r3, #3
 8000cf2:	009b      	lsls	r3, r3, #2
 8000cf4:	220f      	movs	r2, #15
 8000cf6:	fa02 f303 	lsl.w	r3, r2, r3
 8000cfa:	43db      	mvns	r3, r3
 8000cfc:	69ba      	ldr	r2, [r7, #24]
 8000cfe:	4013      	ands	r3, r2
 8000d00:	61bb      	str	r3, [r7, #24]
        temp |= ((uint32_t)(GPIO_GET_INDEX(GPIOx)) << (4U * (position & 0x03U)));
 8000d02:	687b      	ldr	r3, [r7, #4]
 8000d04:	4a52      	ldr	r2, [pc, #328]	; (8000e50 <HAL_GPIO_Init+0x314>)
 8000d06:	4293      	cmp	r3, r2
 8000d08:	d02b      	beq.n	8000d62 <HAL_GPIO_Init+0x226>
 8000d0a:	687b      	ldr	r3, [r7, #4]
 8000d0c:	4a51      	ldr	r2, [pc, #324]	; (8000e54 <HAL_GPIO_Init+0x318>)
 8000d0e:	4293      	cmp	r3, r2
 8000d10:	d025      	beq.n	8000d5e <HAL_GPIO_Init+0x222>
 8000d12:	687b      	ldr	r3, [r7, #4]
 8000d14:	4a50      	ldr	r2, [pc, #320]	; (8000e58 <HAL_GPIO_Init+0x31c>)
 8000d16:	4293      	cmp	r3, r2
 8000d18:	d01f      	beq.n	8000d5a <HAL_GPIO_Init+0x21e>
 8000d1a:	687b      	ldr	r3, [r7, #4]
 8000d1c:	4a4f      	ldr	r2, [pc, #316]	; (8000e5c <HAL_GPIO_Init+0x320>)
 8000d1e:	4293      	cmp	r3, r2
 8000d20:	d019      	beq.n	8000d56 <HAL_GPIO_Init+0x21a>
 8000d22:	687b      	ldr	r3, [r7, #4]
 8000d24:	4a4e      	ldr	r2, [pc, #312]	; (8000e60 <HAL_GPIO_Init+0x324>)
 8000d26:	4293      	cmp	r3, r2
 8000d28:	d013      	beq.n	8000d52 <HAL_GPIO_Init+0x216>
 8000d2a:	687b      	ldr	r3, [r7, #4]
 8000d2c:	4a4d      	ldr	r2, [pc, #308]	; (8000e64 <HAL_GPIO_Init+0x328>)
 8000d2e:	4293      	cmp	r3, r2
 8000d30:	d00d      	beq.n	8000d4e <HAL_GPIO_Init+0x212>
 8000d32:	687b      	ldr	r3, [r7, #4]
 8000d34:	4a4c      	ldr	r2, [pc, #304]	; (8000e68 <HAL_GPIO_Init+0x32c>)
 8000d36:	4293      	cmp	r3, r2
 8000d38:	d007      	beq.n	8000d4a <HAL_GPIO_Init+0x20e>
 8000d3a:	687b      	ldr	r3, [r7, #4]
 8000d3c:	4a4b      	ldr	r2, [pc, #300]	; (8000e6c <HAL_GPIO_Init+0x330>)
 8000d3e:	4293      	cmp	r3, r2
 8000d40:	d101      	bne.n	8000d46 <HAL_GPIO_Init+0x20a>
 8000d42:	2307      	movs	r3, #7
 8000d44:	e00e      	b.n	8000d64 <HAL_GPIO_Init+0x228>
 8000d46:	2308      	movs	r3, #8
 8000d48:	e00c      	b.n	8000d64 <HAL_GPIO_Init+0x228>
 8000d4a:	2306      	movs	r3, #6
 8000d4c:	e00a      	b.n	8000d64 <HAL_GPIO_Init+0x228>
 8000d4e:	2305      	movs	r3, #5
 8000d50:	e008      	b.n	8000d64 <HAL_GPIO_Init+0x228>
 8000d52:	2304      	movs	r3, #4
 8000d54:	e006      	b.n	8000d64 <HAL_GPIO_Init+0x228>
 8000d56:	2303      	movs	r3, #3
 8000d58:	e004      	b.n	8000d64 <HAL_GPIO_Init+0x228>
 8000d5a:	2302      	movs	r3, #2
 8000d5c:	e002      	b.n	8000d64 <HAL_GPIO_Init+0x228>
 8000d5e:	2301      	movs	r3, #1
 8000d60:	e000      	b.n	8000d64 <HAL_GPIO_Init+0x228>
 8000d62:	2300      	movs	r3, #0
 8000d64:	69fa      	ldr	r2, [r7, #28]
 8000d66:	f002 0203 	and.w	r2, r2, #3
 8000d6a:	0092      	lsls	r2, r2, #2
 8000d6c:	4093      	lsls	r3, r2
 8000d6e:	69ba      	ldr	r2, [r7, #24]
 8000d70:	4313      	orrs	r3, r2
 8000d72:	61bb      	str	r3, [r7, #24]
        SYSCFG->EXTICR[position >> 2U] = temp;
 8000d74:	4935      	ldr	r1, [pc, #212]	; (8000e4c <HAL_GPIO_Init+0x310>)
 8000d76:	69fb      	ldr	r3, [r7, #28]
 8000d78:	089b      	lsrs	r3, r3, #2
 8000d7a:	3302      	adds	r3, #2
 8000d7c:	69ba      	ldr	r2, [r7, #24]
 8000d7e:	f841 2023 	str.w	r2, [r1, r3, lsl #2]

        /* Clear EXTI line configuration */
        temp = EXTI->IMR;
 8000d82:	4b3b      	ldr	r3, [pc, #236]	; (8000e70 <HAL_GPIO_Init+0x334>)
 8000d84:	681b      	ldr	r3, [r3, #0]
 8000d86:	61bb      	str	r3, [r7, #24]
        temp &= ~((uint32_t)iocurrent);
 8000d88:	693b      	ldr	r3, [r7, #16]
 8000d8a:	43db      	mvns	r3, r3
 8000d8c:	69ba      	ldr	r2, [r7, #24]
 8000d8e:	4013      	ands	r3, r2
 8000d90:	61bb      	str	r3, [r7, #24]
        if((GPIO_Init->Mode & EXTI_IT) != 0x00U)
 8000d92:	683b      	ldr	r3, [r7, #0]
 8000d94:	685b      	ldr	r3, [r3, #4]
 8000d96:	f403 3380 	and.w	r3, r3, #65536	; 0x10000
 8000d9a:	2b00      	cmp	r3, #0
 8000d9c:	d003      	beq.n	8000da6 <HAL_GPIO_Init+0x26a>
        {
          temp |= iocurrent;
 8000d9e:	69ba      	ldr	r2, [r7, #24]
 8000da0:	693b      	ldr	r3, [r7, #16]
 8000da2:	4313      	orrs	r3, r2
 8000da4:	61bb      	str	r3, [r7, #24]
        }
        EXTI->IMR = temp;
 8000da6:	4a32      	ldr	r2, [pc, #200]	; (8000e70 <HAL_GPIO_Init+0x334>)
 8000da8:	69bb      	ldr	r3, [r7, #24]
 8000daa:	6013      	str	r3, [r2, #0]

        temp = EXTI->EMR;
 8000dac:	4b30      	ldr	r3, [pc, #192]	; (8000e70 <HAL_GPIO_Init+0x334>)
 8000dae:	685b      	ldr	r3, [r3, #4]
 8000db0:	61bb      	str	r3, [r7, #24]
        temp &= ~((uint32_t)iocurrent);
 8000db2:	693b      	ldr	r3, [r7, #16]
 8000db4:	43db      	mvns	r3, r3
 8000db6:	69ba      	ldr	r2, [r7, #24]
 8000db8:	4013      	ands	r3, r2
 8000dba:	61bb      	str	r3, [r7, #24]
        if((GPIO_Init->Mode & EXTI_EVT) != 0x00U)
 8000dbc:	683b      	ldr	r3, [r7, #0]
 8000dbe:	685b      	ldr	r3, [r3, #4]
 8000dc0:	f403 3300 	and.w	r3, r3, #131072	; 0x20000
 8000dc4:	2b00      	cmp	r3, #0
 8000dc6:	d003      	beq.n	8000dd0 <HAL_GPIO_Init+0x294>
        {
          temp |= iocurrent;
 8000dc8:	69ba      	ldr	r2, [r7, #24]
 8000dca:	693b      	ldr	r3, [r7, #16]
 8000dcc:	4313      	orrs	r3, r2
 8000dce:	61bb      	str	r3, [r7, #24]
        }
        EXTI->EMR = temp;
 8000dd0:	4a27      	ldr	r2, [pc, #156]	; (8000e70 <HAL_GPIO_Init+0x334>)
 8000dd2:	69bb      	ldr	r3, [r7, #24]
 8000dd4:	6053      	str	r3, [r2, #4]

        /* Clear Rising Falling edge configuration */
        temp = EXTI->RTSR;
 8000dd6:	4b26      	ldr	r3, [pc, #152]	; (8000e70 <HAL_GPIO_Init+0x334>)
 8000dd8:	689b      	ldr	r3, [r3, #8]
 8000dda:	61bb      	str	r3, [r7, #24]
        temp &= ~((uint32_t)iocurrent);
 8000ddc:	693b      	ldr	r3, [r7, #16]
 8000dde:	43db      	mvns	r3, r3
 8000de0:	69ba      	ldr	r2, [r7, #24]
 8000de2:	4013      	ands	r3, r2
 8000de4:	61bb      	str	r3, [r7, #24]
        if((GPIO_Init->Mode & TRIGGER_RISING) != 0x00U)
 8000de6:	683b      	ldr	r3, [r7, #0]
 8000de8:	685b      	ldr	r3, [r3, #4]
 8000dea:	f403 1380 	and.w	r3, r3, #1048576	; 0x100000
 8000dee:	2b00      	cmp	r3, #0
 8000df0:	d003      	beq.n	8000dfa <HAL_GPIO_Init+0x2be>
        {
          temp |= iocurrent;
 8000df2:	69ba      	ldr	r2, [r7, #24]
 8000df4:	693b      	ldr	r3, [r7, #16]
 8000df6:	4313      	orrs	r3, r2
 8000df8:	61bb      	str	r3, [r7, #24]
        }
        EXTI->RTSR = temp;
 8000dfa:	4a1d      	ldr	r2, [pc, #116]	; (8000e70 <HAL_GPIO_Init+0x334>)
 8000dfc:	69bb      	ldr	r3, [r7, #24]
 8000dfe:	6093      	str	r3, [r2, #8]

        temp = EXTI->FTSR;
 8000e00:	4b1b      	ldr	r3, [pc, #108]	; (8000e70 <HAL_GPIO_Init+0x334>)
 8000e02:	68db      	ldr	r3, [r3, #12]
 8000e04:	61bb      	str	r3, [r7, #24]
        temp &= ~((uint32_t)iocurrent);
 8000e06:	693b      	ldr	r3, [r7, #16]
 8000e08:	43db      	mvns	r3, r3
 8000e0a:	69ba      	ldr	r2, [r7, #24]
 8000e0c:	4013      	ands	r3, r2
 8000e0e:	61bb      	str	r3, [r7, #24]
        if((GPIO_Init->Mode & TRIGGER_FALLING) != 0x00U)
 8000e10:	683b      	ldr	r3, [r7, #0]
 8000e12:	685b      	ldr	r3, [r3, #4]
 8000e14:	f403 1300 	and.w	r3, r3, #2097152	; 0x200000
 8000e18:	2b00      	cmp	r3, #0
 8000e1a:	d003      	beq.n	8000e24 <HAL_GPIO_Init+0x2e8>
        {
          temp |= iocurrent;
 8000e1c:	69ba      	ldr	r2, [r7, #24]
 8000e1e:	693b      	ldr	r3, [r7, #16]
 8000e20:	4313      	orrs	r3, r2
 8000e22:	61bb      	str	r3, [r7, #24]
        }
        EXTI->FTSR = temp;
 8000e24:	4a12      	ldr	r2, [pc, #72]	; (8000e70 <HAL_GPIO_Init+0x334>)
 8000e26:	69bb      	ldr	r3, [r7, #24]
 8000e28:	60d3      	str	r3, [r2, #12]
  for(position = 0U; position < GPIO_NUMBER; position++)
 8000e2a:	69fb      	ldr	r3, [r7, #28]
 8000e2c:	3301      	adds	r3, #1
 8000e2e:	61fb      	str	r3, [r7, #28]
 8000e30:	69fb      	ldr	r3, [r7, #28]
 8000e32:	2b0f      	cmp	r3, #15
 8000e34:	f67f ae90 	bls.w	8000b58 <HAL_GPIO_Init+0x1c>
      }
    }
  }
}
 8000e38:	bf00      	nop
 8000e3a:	bf00      	nop
 8000e3c:	3724      	adds	r7, #36	; 0x24
 8000e3e:	46bd      	mov	sp, r7
 8000e40:	f85d 7b04 	ldr.w	r7, [sp], #4
 8000e44:	4770      	bx	lr
 8000e46:	bf00      	nop
 8000e48:	40023800 	.word	0x40023800
 8000e4c:	40013800 	.word	0x40013800
 8000e50:	40020000 	.word	0x40020000
 8000e54:	40020400 	.word	0x40020400
 8000e58:	40020800 	.word	0x40020800
 8000e5c:	40020c00 	.word	0x40020c00
 8000e60:	40021000 	.word	0x40021000
 8000e64:	40021400 	.word	0x40021400
 8000e68:	40021800 	.word	0x40021800
 8000e6c:	40021c00 	.word	0x40021c00
 8000e70:	40013c00 	.word	0x40013c00

08000e74 <HAL_GPIO_WritePin>:
  *            @arg GPIO_PIN_RESET: to clear the port pin
  *            @arg GPIO_PIN_SET: to set the port pin
  * @retval None
  */
void HAL_GPIO_WritePin(GPIO_TypeDef* GPIOx, uint16_t GPIO_Pin, GPIO_PinState PinState)
{
 8000e74:	b480      	push	{r7}
 8000e76:	b083      	sub	sp, #12
 8000e78:	af00      	add	r7, sp, #0
 8000e7a:	6078      	str	r0, [r7, #4]
 8000e7c:	460b      	mov	r3, r1
 8000e7e:	807b      	strh	r3, [r7, #2]
 8000e80:	4613      	mov	r3, r2
 8000e82:	707b      	strb	r3, [r7, #1]
  /* Check the parameters */
  assert_param(IS_GPIO_PIN(GPIO_Pin));
  assert_param(IS_GPIO_PIN_ACTION(PinState));

  if(PinState != GPIO_PIN_RESET)
 8000e84:	787b      	ldrb	r3, [r7, #1]
 8000e86:	2b00      	cmp	r3, #0
 8000e88:	d003      	beq.n	8000e92 <HAL_GPIO_WritePin+0x1e>
  {
    GPIOx->BSRR = GPIO_Pin;
 8000e8a:	887a      	ldrh	r2, [r7, #2]
 8000e8c:	687b      	ldr	r3, [r7, #4]
 8000e8e:	619a      	str	r2, [r3, #24]
  }
  else
  {
    GPIOx->BSRR = (uint32_t)GPIO_Pin << 16U;
  }
}
 8000e90:	e003      	b.n	8000e9a <HAL_GPIO_WritePin+0x26>
    GPIOx->BSRR = (uint32_t)GPIO_Pin << 16U;
 8000e92:	887b      	ldrh	r3, [r7, #2]
 8000e94:	041a      	lsls	r2, r3, #16
 8000e96:	687b      	ldr	r3, [r7, #4]
 8000e98:	619a      	str	r2, [r3, #24]
}
 8000e9a:	bf00      	nop
 8000e9c:	370c      	adds	r7, #12
 8000e9e:	46bd      	mov	sp, r7
 8000ea0:	f85d 7b04 	ldr.w	r7, [sp], #4
 8000ea4:	4770      	bx	lr
	...

08000ea8 <HAL_RCC_OscConfig>:
  *         supported by this API. User should request a transition to HSE Off
  *         first and then HSE On or HSE Bypass.
  * @retval HAL status
  */
__weak HAL_StatusTypeDef HAL_RCC_OscConfig(RCC_OscInitTypeDef  *RCC_OscInitStruct)
{
 8000ea8:	b580      	push	{r7, lr}
 8000eaa:	b086      	sub	sp, #24
 8000eac:	af00      	add	r7, sp, #0
 8000eae:	6078      	str	r0, [r7, #4]
  uint32_t tickstart, pll_config;

  /* Check Null pointer */
  if(RCC_OscInitStruct == NULL)
 8000eb0:	687b      	ldr	r3, [r7, #4]
 8000eb2:	2b00      	cmp	r3, #0
 8000eb4:	d101      	bne.n	8000eba <HAL_RCC_OscConfig+0x12>
  {
    return HAL_ERROR;
 8000eb6:	2301      	movs	r3, #1
 8000eb8:	e264      	b.n	8001384 <HAL_RCC_OscConfig+0x4dc>
  }

  /* Check the parameters */
  assert_param(IS_RCC_OSCILLATORTYPE(RCC_OscInitStruct->OscillatorType));
  /*------------------------------- HSE Configuration ------------------------*/
  if(((RCC_OscInitStruct->OscillatorType) & RCC_OSCILLATORTYPE_HSE) == RCC_OSCILLATORTYPE_HSE)
 8000eba:	687b      	ldr	r3, [r7, #4]
 8000ebc:	681b      	ldr	r3, [r3, #0]
 8000ebe:	f003 0301 	and.w	r3, r3, #1
 8000ec2:	2b00      	cmp	r3, #0
 8000ec4:	d075      	beq.n	8000fb2 <HAL_RCC_OscConfig+0x10a>
  {
    /* Check the parameters */
    assert_param(IS_RCC_HSE(RCC_OscInitStruct->HSEState));
    /* When the HSE is used as system clock or clock source for PLL in these cases HSE will not disabled */
    if((__HAL_RCC_GET_SYSCLK_SOURCE() == RCC_CFGR_SWS_HSE) ||\
 8000ec6:	4ba3      	ldr	r3, [pc, #652]	; (8001154 <HAL_RCC_OscConfig+0x2ac>)
 8000ec8:	689b      	ldr	r3, [r3, #8]
 8000eca:	f003 030c 	and.w	r3, r3, #12
 8000ece:	2b04      	cmp	r3, #4
 8000ed0:	d00c      	beq.n	8000eec <HAL_RCC_OscConfig+0x44>
      ((__HAL_RCC_GET_SYSCLK_SOURCE() == RCC_CFGR_SWS_PLL) && ((RCC->PLLCFGR & RCC_PLLCFGR_PLLSRC) == RCC_PLLCFGR_PLLSRC_HSE)))
 8000ed2:	4ba0      	ldr	r3, [pc, #640]	; (8001154 <HAL_RCC_OscConfig+0x2ac>)
 8000ed4:	689b      	ldr	r3, [r3, #8]
 8000ed6:	f003 030c 	and.w	r3, r3, #12
    if((__HAL_RCC_GET_SYSCLK_SOURCE() == RCC_CFGR_SWS_HSE) ||\
 8000eda:	2b08      	cmp	r3, #8
 8000edc:	d112      	bne.n	8000f04 <HAL_RCC_OscConfig+0x5c>
      ((__HAL_RCC_GET_SYSCLK_SOURCE() == RCC_CFGR_SWS_PLL) && ((RCC->PLLCFGR & RCC_PLLCFGR_PLLSRC) == RCC_PLLCFGR_PLLSRC_HSE)))
 8000ede:	4b9d      	ldr	r3, [pc, #628]	; (8001154 <HAL_RCC_OscConfig+0x2ac>)
 8000ee0:	685b      	ldr	r3, [r3, #4]
 8000ee2:	f403 0380 	and.w	r3, r3, #4194304	; 0x400000
 8000ee6:	f5b3 0f80 	cmp.w	r3, #4194304	; 0x400000
 8000eea:	d10b      	bne.n	8000f04 <HAL_RCC_OscConfig+0x5c>
    {
      if((__HAL_RCC_GET_FLAG(RCC_FLAG_HSERDY) != RESET) && (RCC_OscInitStruct->HSEState == RCC_HSE_OFF))
 8000eec:	4b99      	ldr	r3, [pc, #612]	; (8001154 <HAL_RCC_OscConfig+0x2ac>)
 8000eee:	681b      	ldr	r3, [r3, #0]
 8000ef0:	f403 3300 	and.w	r3, r3, #131072	; 0x20000
 8000ef4:	2b00      	cmp	r3, #0
 8000ef6:	d05b      	beq.n	8000fb0 <HAL_RCC_OscConfig+0x108>
 8000ef8:	687b      	ldr	r3, [r7, #4]
 8000efa:	685b      	ldr	r3, [r3, #4]
 8000efc:	2b00      	cmp	r3, #0
 8000efe:	d157      	bne.n	8000fb0 <HAL_RCC_OscConfig+0x108>
      {
        return HAL_ERROR;
 8000f00:	2301      	movs	r3, #1
 8000f02:	e23f      	b.n	8001384 <HAL_RCC_OscConfig+0x4dc>
      }
    }
    else
    {
      /* Set the new HSE configuration ---------------------------------------*/
      __HAL_RCC_HSE_CONFIG(RCC_OscInitStruct->HSEState);
 8000f04:	687b      	ldr	r3, [r7, #4]
 8000f06:	685b      	ldr	r3, [r3, #4]
 8000f08:	f5b3 3f80 	cmp.w	r3, #65536	; 0x10000
 8000f0c:	d106      	bne.n	8000f1c <HAL_RCC_OscConfig+0x74>
 8000f0e:	4b91      	ldr	r3, [pc, #580]	; (8001154 <HAL_RCC_OscConfig+0x2ac>)
 8000f10:	681b      	ldr	r3, [r3, #0]
 8000f12:	4a90      	ldr	r2, [pc, #576]	; (8001154 <HAL_RCC_OscConfig+0x2ac>)
 8000f14:	f443 3380 	orr.w	r3, r3, #65536	; 0x10000
 8000f18:	6013      	str	r3, [r2, #0]
 8000f1a:	e01d      	b.n	8000f58 <HAL_RCC_OscConfig+0xb0>
 8000f1c:	687b      	ldr	r3, [r7, #4]
 8000f1e:	685b      	ldr	r3, [r3, #4]
 8000f20:	f5b3 2fa0 	cmp.w	r3, #327680	; 0x50000
 8000f24:	d10c      	bne.n	8000f40 <HAL_RCC_OscConfig+0x98>
 8000f26:	4b8b      	ldr	r3, [pc, #556]	; (8001154 <HAL_RCC_OscConfig+0x2ac>)
 8000f28:	681b      	ldr	r3, [r3, #0]
 8000f2a:	4a8a      	ldr	r2, [pc, #552]	; (8001154 <HAL_RCC_OscConfig+0x2ac>)
 8000f2c:	f443 2380 	orr.w	r3, r3, #262144	; 0x40000
 8000f30:	6013      	str	r3, [r2, #0]
 8000f32:	4b88      	ldr	r3, [pc, #544]	; (8001154 <HAL_RCC_OscConfig+0x2ac>)
 8000f34:	681b      	ldr	r3, [r3, #0]
 8000f36:	4a87      	ldr	r2, [pc, #540]	; (8001154 <HAL_RCC_OscConfig+0x2ac>)
 8000f38:	f443 3380 	orr.w	r3, r3, #65536	; 0x10000
 8000f3c:	6013      	str	r3, [r2, #0]
 8000f3e:	e00b      	b.n	8000f58 <HAL_RCC_OscConfig+0xb0>
 8000f40:	4b84      	ldr	r3, [pc, #528]	; (8001154 <HAL_RCC_OscConfig+0x2ac>)
 8000f42:	681b      	ldr	r3, [r3, #0]
 8000f44:	4a83      	ldr	r2, [pc, #524]	; (8001154 <HAL_RCC_OscConfig+0x2ac>)
 8000f46:	f423 3380 	bic.w	r3, r3, #65536	; 0x10000
 8000f4a:	6013      	str	r3, [r2, #0]
 8000f4c:	4b81      	ldr	r3, [pc, #516]	; (8001154 <HAL_RCC_OscConfig+0x2ac>)
 8000f4e:	681b      	ldr	r3, [r3, #0]
 8000f50:	4a80      	ldr	r2, [pc, #512]	; (8001154 <HAL_RCC_OscConfig+0x2ac>)
 8000f52:	f423 2380 	bic.w	r3, r3, #262144	; 0x40000
 8000f56:	6013      	str	r3, [r2, #0]

      /* Check the HSE State */
      if((RCC_OscInitStruct->HSEState) != RCC_HSE_OFF)
 8000f58:	687b      	ldr	r3, [r7, #4]
 8000f5a:	685b      	ldr	r3, [r3, #4]
 8000f5c:	2b00      	cmp	r3, #0
 8000f5e:	d013      	beq.n	8000f88 <HAL_RCC_OscConfig+0xe0>
      {
        /* Get Start Tick */
        tickstart = HAL_GetTick();
 8000f60:	f7ff fcfa 	bl	8000958 <HAL_GetTick>
 8000f64:	6138      	str	r0, [r7, #16]

        /* Wait till HSE is ready */
        while(__HAL_RCC_GET_FLAG(RCC_FLAG_HSERDY) == RESET)
 8000f66:	e008      	b.n	8000f7a <HAL_RCC_OscConfig+0xd2>
        {
          if((HAL_GetTick() - tickstart ) > HSE_TIMEOUT_VALUE)
 8000f68:	f7ff fcf6 	bl	8000958 <HAL_GetTick>
 8000f6c:	4602      	mov	r2, r0
 8000f6e:	693b      	ldr	r3, [r7, #16]
 8000f70:	1ad3      	subs	r3, r2, r3
 8000f72:	2b64      	cmp	r3, #100	; 0x64
 8000f74:	d901      	bls.n	8000f7a <HAL_RCC_OscConfig+0xd2>
          {
            return HAL_TIMEOUT;
 8000f76:	2303      	movs	r3, #3
 8000f78:	e204      	b.n	8001384 <HAL_RCC_OscConfig+0x4dc>
        while(__HAL_RCC_GET_FLAG(RCC_FLAG_HSERDY) == RESET)
 8000f7a:	4b76      	ldr	r3, [pc, #472]	; (8001154 <HAL_RCC_OscConfig+0x2ac>)
 8000f7c:	681b      	ldr	r3, [r3, #0]
 8000f7e:	f403 3300 	and.w	r3, r3, #131072	; 0x20000
 8000f82:	2b00      	cmp	r3, #0
 8000f84:	d0f0      	beq.n	8000f68 <HAL_RCC_OscConfig+0xc0>
 8000f86:	e014      	b.n	8000fb2 <HAL_RCC_OscConfig+0x10a>
        }
      }
      else
      {
        /* Get Start Tick */
        tickstart = HAL_GetTick();
 8000f88:	f7ff fce6 	bl	8000958 <HAL_GetTick>
 8000f8c:	6138      	str	r0, [r7, #16]

        /* Wait till HSE is bypassed or disabled */
        while(__HAL_RCC_GET_FLAG(RCC_FLAG_HSERDY) != RESET)
 8000f8e:	e008      	b.n	8000fa2 <HAL_RCC_OscConfig+0xfa>
        {
          if((HAL_GetTick() - tickstart ) > HSE_TIMEOUT_VALUE)
 8000f90:	f7ff fce2 	bl	8000958 <HAL_GetTick>
 8000f94:	4602      	mov	r2, r0
 8000f96:	693b      	ldr	r3, [r7, #16]
 8000f98:	1ad3      	subs	r3, r2, r3
 8000f9a:	2b64      	cmp	r3, #100	; 0x64
 8000f9c:	d901      	bls.n	8000fa2 <HAL_RCC_OscConfig+0xfa>
          {
            return HAL_TIMEOUT;
 8000f9e:	2303      	movs	r3, #3
 8000fa0:	e1f0      	b.n	8001384 <HAL_RCC_OscConfig+0x4dc>
        while(__HAL_RCC_GET_FLAG(RCC_FLAG_HSERDY) != RESET)
 8000fa2:	4b6c      	ldr	r3, [pc, #432]	; (8001154 <HAL_RCC_OscConfig+0x2ac>)
 8000fa4:	681b      	ldr	r3, [r3, #0]
 8000fa6:	f403 3300 	and.w	r3, r3, #131072	; 0x20000
 8000faa:	2b00      	cmp	r3, #0
 8000fac:	d1f0      	bne.n	8000f90 <HAL_RCC_OscConfig+0xe8>
 8000fae:	e000      	b.n	8000fb2 <HAL_RCC_OscConfig+0x10a>
      if((__HAL_RCC_GET_FLAG(RCC_FLAG_HSERDY) != RESET) && (RCC_OscInitStruct->HSEState == RCC_HSE_OFF))
 8000fb0:	bf00      	nop
        }
      }
    }
  }
  /*----------------------------- HSI Configuration --------------------------*/
  if(((RCC_OscInitStruct->OscillatorType) & RCC_OSCILLATORTYPE_HSI) == RCC_OSCILLATORTYPE_HSI)
 8000fb2:	687b      	ldr	r3, [r7, #4]
 8000fb4:	681b      	ldr	r3, [r3, #0]
 8000fb6:	f003 0302 	and.w	r3, r3, #2
 8000fba:	2b00      	cmp	r3, #0
 8000fbc:	d063      	beq.n	8001086 <HAL_RCC_OscConfig+0x1de>
    /* Check the parameters */
    assert_param(IS_RCC_HSI(RCC_OscInitStruct->HSIState));
    assert_param(IS_RCC_CALIBRATION_VALUE(RCC_OscInitStruct->HSICalibrationValue));

    /* Check if HSI is used as system clock or as PLL source when PLL is selected as system clock */
    if((__HAL_RCC_GET_SYSCLK_SOURCE() == RCC_CFGR_SWS_HSI) ||\
 8000fbe:	4b65      	ldr	r3, [pc, #404]	; (8001154 <HAL_RCC_OscConfig+0x2ac>)
 8000fc0:	689b      	ldr	r3, [r3, #8]
 8000fc2:	f003 030c 	and.w	r3, r3, #12
 8000fc6:	2b00      	cmp	r3, #0
 8000fc8:	d00b      	beq.n	8000fe2 <HAL_RCC_OscConfig+0x13a>
      ((__HAL_RCC_GET_SYSCLK_SOURCE() == RCC_CFGR_SWS_PLL) && ((RCC->PLLCFGR & RCC_PLLCFGR_PLLSRC) == RCC_PLLCFGR_PLLSRC_HSI)))
 8000fca:	4b62      	ldr	r3, [pc, #392]	; (8001154 <HAL_RCC_OscConfig+0x2ac>)
 8000fcc:	689b      	ldr	r3, [r3, #8]
 8000fce:	f003 030c 	and.w	r3, r3, #12
    if((__HAL_RCC_GET_SYSCLK_SOURCE() == RCC_CFGR_SWS_HSI) ||\
 8000fd2:	2b08      	cmp	r3, #8
 8000fd4:	d11c      	bne.n	8001010 <HAL_RCC_OscConfig+0x168>
      ((__HAL_RCC_GET_SYSCLK_SOURCE() == RCC_CFGR_SWS_PLL) && ((RCC->PLLCFGR & RCC_PLLCFGR_PLLSRC) == RCC_PLLCFGR_PLLSRC_HSI)))
 8000fd6:	4b5f      	ldr	r3, [pc, #380]	; (8001154 <HAL_RCC_OscConfig+0x2ac>)
 8000fd8:	685b      	ldr	r3, [r3, #4]
 8000fda:	f403 0380 	and.w	r3, r3, #4194304	; 0x400000
 8000fde:	2b00      	cmp	r3, #0
 8000fe0:	d116      	bne.n	8001010 <HAL_RCC_OscConfig+0x168>
    {
      /* When HSI is used as system clock it will not disabled */
      if((__HAL_RCC_GET_FLAG(RCC_FLAG_HSIRDY) != RESET) && (RCC_OscInitStruct->HSIState != RCC_HSI_ON))
 8000fe2:	4b5c      	ldr	r3, [pc, #368]	; (8001154 <HAL_RCC_OscConfig+0x2ac>)
 8000fe4:	681b      	ldr	r3, [r3, #0]
 8000fe6:	f003 0302 	and.w	r3, r3, #2
 8000fea:	2b00      	cmp	r3, #0
 8000fec:	d005      	beq.n	8000ffa <HAL_RCC_OscConfig+0x152>
 8000fee:	687b      	ldr	r3, [r7, #4]
 8000ff0:	68db      	ldr	r3, [r3, #12]
 8000ff2:	2b01      	cmp	r3, #1
 8000ff4:	d001      	beq.n	8000ffa <HAL_RCC_OscConfig+0x152>
      {
        return HAL_ERROR;
 8000ff6:	2301      	movs	r3, #1
 8000ff8:	e1c4      	b.n	8001384 <HAL_RCC_OscConfig+0x4dc>
      }
      /* Otherwise, just the calibration is allowed */
      else
      {
        /* Adjusts the Internal High Speed oscillator (HSI) calibration value.*/
        __HAL_RCC_HSI_CALIBRATIONVALUE_ADJUST(RCC_OscInitStruct->HSICalibrationValue);
 8000ffa:	4b56      	ldr	r3, [pc, #344]	; (8001154 <HAL_RCC_OscConfig+0x2ac>)
 8000ffc:	681b      	ldr	r3, [r3, #0]
 8000ffe:	f023 02f8 	bic.w	r2, r3, #248	; 0xf8
 8001002:	687b      	ldr	r3, [r7, #4]
 8001004:	691b      	ldr	r3, [r3, #16]
 8001006:	00db      	lsls	r3, r3, #3
 8001008:	4952      	ldr	r1, [pc, #328]	; (8001154 <HAL_RCC_OscConfig+0x2ac>)
 800100a:	4313      	orrs	r3, r2
 800100c:	600b      	str	r3, [r1, #0]
      if((__HAL_RCC_GET_FLAG(RCC_FLAG_HSIRDY) != RESET) && (RCC_OscInitStruct->HSIState != RCC_HSI_ON))
 800100e:	e03a      	b.n	8001086 <HAL_RCC_OscConfig+0x1de>
      }
    }
    else
    {
      /* Check the HSI State */
      if((RCC_OscInitStruct->HSIState)!= RCC_HSI_OFF)
 8001010:	687b      	ldr	r3, [r7, #4]
 8001012:	68db      	ldr	r3, [r3, #12]
 8001014:	2b00      	cmp	r3, #0
 8001016:	d020      	beq.n	800105a <HAL_RCC_OscConfig+0x1b2>
      {
        /* Enable the Internal High Speed oscillator (HSI). */
        __HAL_RCC_HSI_ENABLE();
 8001018:	4b4f      	ldr	r3, [pc, #316]	; (8001158 <HAL_RCC_OscConfig+0x2b0>)
 800101a:	2201      	movs	r2, #1
 800101c:	601a      	str	r2, [r3, #0]

        /* Get Start Tick*/
        tickstart = HAL_GetTick();
 800101e:	f7ff fc9b 	bl	8000958 <HAL_GetTick>
 8001022:	6138      	str	r0, [r7, #16]

        /* Wait till HSI is ready */
        while(__HAL_RCC_GET_FLAG(RCC_FLAG_HSIRDY) == RESET)
 8001024:	e008      	b.n	8001038 <HAL_RCC_OscConfig+0x190>
        {
          if((HAL_GetTick() - tickstart ) > HSI_TIMEOUT_VALUE)
 8001026:	f7ff fc97 	bl	8000958 <HAL_GetTick>
 800102a:	4602      	mov	r2, r0
 800102c:	693b      	ldr	r3, [r7, #16]
 800102e:	1ad3      	subs	r3, r2, r3
 8001030:	2b02      	cmp	r3, #2
 8001032:	d901      	bls.n	8001038 <HAL_RCC_OscConfig+0x190>
          {
            return HAL_TIMEOUT;
 8001034:	2303      	movs	r3, #3
 8001036:	e1a5      	b.n	8001384 <HAL_RCC_OscConfig+0x4dc>
        while(__HAL_RCC_GET_FLAG(RCC_FLAG_HSIRDY) == RESET)
 8001038:	4b46      	ldr	r3, [pc, #280]	; (8001154 <HAL_RCC_OscConfig+0x2ac>)
 800103a:	681b      	ldr	r3, [r3, #0]
 800103c:	f003 0302 	and.w	r3, r3, #2
 8001040:	2b00      	cmp	r3, #0
 8001042:	d0f0      	beq.n	8001026 <HAL_RCC_OscConfig+0x17e>
          }
        }

        /* Adjusts the Internal High Speed oscillator (HSI) calibration value. */
        __HAL_RCC_HSI_CALIBRATIONVALUE_ADJUST(RCC_OscInitStruct->HSICalibrationValue);
 8001044:	4b43      	ldr	r3, [pc, #268]	; (8001154 <HAL_RCC_OscConfig+0x2ac>)
 8001046:	681b      	ldr	r3, [r3, #0]
 8001048:	f023 02f8 	bic.w	r2, r3, #248	; 0xf8
 800104c:	687b      	ldr	r3, [r7, #4]
 800104e:	691b      	ldr	r3, [r3, #16]
 8001050:	00db      	lsls	r3, r3, #3
 8001052:	4940      	ldr	r1, [pc, #256]	; (8001154 <HAL_RCC_OscConfig+0x2ac>)
 8001054:	4313      	orrs	r3, r2
 8001056:	600b      	str	r3, [r1, #0]
 8001058:	e015      	b.n	8001086 <HAL_RCC_OscConfig+0x1de>
      }
      else
      {
        /* Disable the Internal High Speed oscillator (HSI). */
        __HAL_RCC_HSI_DISABLE();
 800105a:	4b3f      	ldr	r3, [pc, #252]	; (8001158 <HAL_RCC_OscConfig+0x2b0>)
 800105c:	2200      	movs	r2, #0
 800105e:	601a      	str	r2, [r3, #0]

        /* Get Start Tick*/
        tickstart = HAL_GetTick();
 8001060:	f7ff fc7a 	bl	8000958 <HAL_GetTick>
 8001064:	6138      	str	r0, [r7, #16]

        /* Wait till HSI is ready */
        while(__HAL_RCC_GET_FLAG(RCC_FLAG_HSIRDY) != RESET)
 8001066:	e008      	b.n	800107a <HAL_RCC_OscConfig+0x1d2>
        {
          if((HAL_GetTick() - tickstart ) > HSI_TIMEOUT_VALUE)
 8001068:	f7ff fc76 	bl	8000958 <HAL_GetTick>
 800106c:	4602      	mov	r2, r0
 800106e:	693b      	ldr	r3, [r7, #16]
 8001070:	1ad3      	subs	r3, r2, r3
 8001072:	2b02      	cmp	r3, #2
 8001074:	d901      	bls.n	800107a <HAL_RCC_OscConfig+0x1d2>
          {
            return HAL_TIMEOUT;
 8001076:	2303      	movs	r3, #3
 8001078:	e184      	b.n	8001384 <HAL_RCC_OscConfig+0x4dc>
        while(__HAL_RCC_GET_FLAG(RCC_FLAG_HSIRDY) != RESET)
 800107a:	4b36      	ldr	r3, [pc, #216]	; (8001154 <HAL_RCC_OscConfig+0x2ac>)
 800107c:	681b      	ldr	r3, [r3, #0]
 800107e:	f003 0302 	and.w	r3, r3, #2
 8001082:	2b00      	cmp	r3, #0
 8001084:	d1f0      	bne.n	8001068 <HAL_RCC_OscConfig+0x1c0>
        }
      }
    }
  }
  /*------------------------------ LSI Configuration -------------------------*/
  if(((RCC_OscInitStruct->OscillatorType) & RCC_OSCILLATORTYPE_LSI) == RCC_OSCILLATORTYPE_LSI)
 8001086:	687b      	ldr	r3, [r7, #4]
 8001088:	681b      	ldr	r3, [r3, #0]
 800108a:	f003 0308 	and.w	r3, r3, #8
 800108e:	2b00      	cmp	r3, #0
 8001090:	d030      	beq.n	80010f4 <HAL_RCC_OscConfig+0x24c>
  {
    /* Check the parameters */
    assert_param(IS_RCC_LSI(RCC_OscInitStruct->LSIState));

    /* Check the LSI State */
    if((RCC_OscInitStruct->LSIState)!= RCC_LSI_OFF)
 8001092:	687b      	ldr	r3, [r7, #4]
 8001094:	695b      	ldr	r3, [r3, #20]
 8001096:	2b00      	cmp	r3, #0
 8001098:	d016      	beq.n	80010c8 <HAL_RCC_OscConfig+0x220>
    {
      /* Enable the Internal Low Speed oscillator (LSI). */
      __HAL_RCC_LSI_ENABLE();
 800109a:	4b30      	ldr	r3, [pc, #192]	; (800115c <HAL_RCC_OscConfig+0x2b4>)
 800109c:	2201      	movs	r2, #1
 800109e:	601a      	str	r2, [r3, #0]

      /* Get Start Tick*/
      tickstart = HAL_GetTick();
 80010a0:	f7ff fc5a 	bl	8000958 <HAL_GetTick>
 80010a4:	6138      	str	r0, [r7, #16]

      /* Wait till LSI is ready */
      while(__HAL_RCC_GET_FLAG(RCC_FLAG_LSIRDY) == RESET)
 80010a6:	e008      	b.n	80010ba <HAL_RCC_OscConfig+0x212>
      {
        if((HAL_GetTick() - tickstart ) > LSI_TIMEOUT_VALUE)
 80010a8:	f7ff fc56 	bl	8000958 <HAL_GetTick>
 80010ac:	4602      	mov	r2, r0
 80010ae:	693b      	ldr	r3, [r7, #16]
 80010b0:	1ad3      	subs	r3, r2, r3
 80010b2:	2b02      	cmp	r3, #2
 80010b4:	d901      	bls.n	80010ba <HAL_RCC_OscConfig+0x212>
        {
          return HAL_TIMEOUT;
 80010b6:	2303      	movs	r3, #3
 80010b8:	e164      	b.n	8001384 <HAL_RCC_OscConfig+0x4dc>
      while(__HAL_RCC_GET_FLAG(RCC_FLAG_LSIRDY) == RESET)
 80010ba:	4b26      	ldr	r3, [pc, #152]	; (8001154 <HAL_RCC_OscConfig+0x2ac>)
 80010bc:	6f5b      	ldr	r3, [r3, #116]	; 0x74
 80010be:	f003 0302 	and.w	r3, r3, #2
 80010c2:	2b00      	cmp	r3, #0
 80010c4:	d0f0      	beq.n	80010a8 <HAL_RCC_OscConfig+0x200>
 80010c6:	e015      	b.n	80010f4 <HAL_RCC_OscConfig+0x24c>
      }
    }
    else
    {
      /* Disable the Internal Low Speed oscillator (LSI). */
      __HAL_RCC_LSI_DISABLE();
 80010c8:	4b24      	ldr	r3, [pc, #144]	; (800115c <HAL_RCC_OscConfig+0x2b4>)
 80010ca:	2200      	movs	r2, #0
 80010cc:	601a      	str	r2, [r3, #0]

      /* Get Start Tick */
      tickstart = HAL_GetTick();
 80010ce:	f7ff fc43 	bl	8000958 <HAL_GetTick>
 80010d2:	6138      	str	r0, [r7, #16]

      /* Wait till LSI is ready */
      while(__HAL_RCC_GET_FLAG(RCC_FLAG_LSIRDY) != RESET)
 80010d4:	e008      	b.n	80010e8 <HAL_RCC_OscConfig+0x240>
      {
        if((HAL_GetTick() - tickstart ) > LSI_TIMEOUT_VALUE)
 80010d6:	f7ff fc3f 	bl	8000958 <HAL_GetTick>
 80010da:	4602      	mov	r2, r0
 80010dc:	693b      	ldr	r3, [r7, #16]
 80010de:	1ad3      	subs	r3, r2, r3
 80010e0:	2b02      	cmp	r3, #2
 80010e2:	d901      	bls.n	80010e8 <HAL_RCC_OscConfig+0x240>
        {
          return HAL_TIMEOUT;
 80010e4:	2303      	movs	r3, #3
 80010e6:	e14d      	b.n	8001384 <HAL_RCC_OscConfig+0x4dc>
      while(__HAL_RCC_GET_FLAG(RCC_FLAG_LSIRDY) != RESET)
 80010e8:	4b1a      	ldr	r3, [pc, #104]	; (8001154 <HAL_RCC_OscConfig+0x2ac>)
 80010ea:	6f5b      	ldr	r3, [r3, #116]	; 0x74
 80010ec:	f003 0302 	and.w	r3, r3, #2
 80010f0:	2b00      	cmp	r3, #0
 80010f2:	d1f0      	bne.n	80010d6 <HAL_RCC_OscConfig+0x22e>
        }
      }
    }
  }
  /*------------------------------ LSE Configuration -------------------------*/
  if(((RCC_OscInitStruct->OscillatorType) & RCC_OSCILLATORTYPE_LSE) == RCC_OSCILLATORTYPE_LSE)
 80010f4:	687b      	ldr	r3, [r7, #4]
 80010f6:	681b      	ldr	r3, [r3, #0]
 80010f8:	f003 0304 	and.w	r3, r3, #4
 80010fc:	2b00      	cmp	r3, #0
 80010fe:	f000 80a0 	beq.w	8001242 <HAL_RCC_OscConfig+0x39a>
  {
    FlagStatus       pwrclkchanged = RESET;
 8001102:	2300      	movs	r3, #0
 8001104:	75fb      	strb	r3, [r7, #23]
    /* Check the parameters */
    assert_param(IS_RCC_LSE(RCC_OscInitStruct->LSEState));

    /* Update LSE configuration in Backup Domain control register    */
    /* Requires to enable write access to Backup Domain of necessary */
    if(__HAL_RCC_PWR_IS_CLK_DISABLED())
 8001106:	4b13      	ldr	r3, [pc, #76]	; (8001154 <HAL_RCC_OscConfig+0x2ac>)
 8001108:	6c1b      	ldr	r3, [r3, #64]	; 0x40
 800110a:	f003 5380 	and.w	r3, r3, #268435456	; 0x10000000
 800110e:	2b00      	cmp	r3, #0
 8001110:	d10f      	bne.n	8001132 <HAL_RCC_OscConfig+0x28a>
    {
      __HAL_RCC_PWR_CLK_ENABLE();
 8001112:	2300      	movs	r3, #0
 8001114:	60bb      	str	r3, [r7, #8]
 8001116:	4b0f      	ldr	r3, [pc, #60]	; (8001154 <HAL_RCC_OscConfig+0x2ac>)
 8001118:	6c1b      	ldr	r3, [r3, #64]	; 0x40
 800111a:	4a0e      	ldr	r2, [pc, #56]	; (8001154 <HAL_RCC_OscConfig+0x2ac>)
 800111c:	f043 5380 	orr.w	r3, r3, #268435456	; 0x10000000
 8001120:	6413      	str	r3, [r2, #64]	; 0x40
 8001122:	4b0c      	ldr	r3, [pc, #48]	; (8001154 <HAL_RCC_OscConfig+0x2ac>)
 8001124:	6c1b      	ldr	r3, [r3, #64]	; 0x40
 8001126:	f003 5380 	and.w	r3, r3, #268435456	; 0x10000000
 800112a:	60bb      	str	r3, [r7, #8]
 800112c:	68bb      	ldr	r3, [r7, #8]
      pwrclkchanged = SET;
 800112e:	2301      	movs	r3, #1
 8001130:	75fb      	strb	r3, [r7, #23]
    }

    if(HAL_IS_BIT_CLR(PWR->CR, PWR_CR_DBP))
 8001132:	4b0b      	ldr	r3, [pc, #44]	; (8001160 <HAL_RCC_OscConfig+0x2b8>)
 8001134:	681b      	ldr	r3, [r3, #0]
 8001136:	f403 7380 	and.w	r3, r3, #256	; 0x100
 800113a:	2b00      	cmp	r3, #0
 800113c:	d121      	bne.n	8001182 <HAL_RCC_OscConfig+0x2da>
    {
      /* Enable write access to Backup domain */
      SET_BIT(PWR->CR, PWR_CR_DBP);
 800113e:	4b08      	ldr	r3, [pc, #32]	; (8001160 <HAL_RCC_OscConfig+0x2b8>)
 8001140:	681b      	ldr	r3, [r3, #0]
 8001142:	4a07      	ldr	r2, [pc, #28]	; (8001160 <HAL_RCC_OscConfig+0x2b8>)
 8001144:	f443 7380 	orr.w	r3, r3, #256	; 0x100
 8001148:	6013      	str	r3, [r2, #0]

      /* Wait for Backup domain Write protection disable */
      tickstart = HAL_GetTick();
 800114a:	f7ff fc05 	bl	8000958 <HAL_GetTick>
 800114e:	6138      	str	r0, [r7, #16]

      while(HAL_IS_BIT_CLR(PWR->CR, PWR_CR_DBP))
 8001150:	e011      	b.n	8001176 <HAL_RCC_OscConfig+0x2ce>
 8001152:	bf00      	nop
 8001154:	40023800 	.word	0x40023800
 8001158:	42470000 	.word	0x42470000
 800115c:	42470e80 	.word	0x42470e80
 8001160:	40007000 	.word	0x40007000
      {
        if((HAL_GetTick() - tickstart) > RCC_DBP_TIMEOUT_VALUE)
 8001164:	f7ff fbf8 	bl	8000958 <HAL_GetTick>
 8001168:	4602      	mov	r2, r0
 800116a:	693b      	ldr	r3, [r7, #16]
 800116c:	1ad3      	subs	r3, r2, r3
 800116e:	2b02      	cmp	r3, #2
 8001170:	d901      	bls.n	8001176 <HAL_RCC_OscConfig+0x2ce>
        {
          return HAL_TIMEOUT;
 8001172:	2303      	movs	r3, #3
 8001174:	e106      	b.n	8001384 <HAL_RCC_OscConfig+0x4dc>
      while(HAL_IS_BIT_CLR(PWR->CR, PWR_CR_DBP))
 8001176:	4b85      	ldr	r3, [pc, #532]	; (800138c <HAL_RCC_OscConfig+0x4e4>)
 8001178:	681b      	ldr	r3, [r3, #0]
 800117a:	f403 7380 	and.w	r3, r3, #256	; 0x100
 800117e:	2b00      	cmp	r3, #0
 8001180:	d0f0      	beq.n	8001164 <HAL_RCC_OscConfig+0x2bc>
        }
      }
    }

    /* Set the new LSE configuration -----------------------------------------*/
    __HAL_RCC_LSE_CONFIG(RCC_OscInitStruct->LSEState);
 8001182:	687b      	ldr	r3, [r7, #4]
 8001184:	689b      	ldr	r3, [r3, #8]
 8001186:	2b01      	cmp	r3, #1
 8001188:	d106      	bne.n	8001198 <HAL_RCC_OscConfig+0x2f0>
 800118a:	4b81      	ldr	r3, [pc, #516]	; (8001390 <HAL_RCC_OscConfig+0x4e8>)
 800118c:	6f1b      	ldr	r3, [r3, #112]	; 0x70
 800118e:	4a80      	ldr	r2, [pc, #512]	; (8001390 <HAL_RCC_OscConfig+0x4e8>)
 8001190:	f043 0301 	orr.w	r3, r3, #1
 8001194:	6713      	str	r3, [r2, #112]	; 0x70
 8001196:	e01c      	b.n	80011d2 <HAL_RCC_OscConfig+0x32a>
 8001198:	687b      	ldr	r3, [r7, #4]
 800119a:	689b      	ldr	r3, [r3, #8]
 800119c:	2b05      	cmp	r3, #5
 800119e:	d10c      	bne.n	80011ba <HAL_RCC_OscConfig+0x312>
 80011a0:	4b7b      	ldr	r3, [pc, #492]	; (8001390 <HAL_RCC_OscConfig+0x4e8>)
 80011a2:	6f1b      	ldr	r3, [r3, #112]	; 0x70
 80011a4:	4a7a      	ldr	r2, [pc, #488]	; (8001390 <HAL_RCC_OscConfig+0x4e8>)
 80011a6:	f043 0304 	orr.w	r3, r3, #4
 80011aa:	6713      	str	r3, [r2, #112]	; 0x70
 80011ac:	4b78      	ldr	r3, [pc, #480]	; (8001390 <HAL_RCC_OscConfig+0x4e8>)
 80011ae:	6f1b      	ldr	r3, [r3, #112]	; 0x70
 80011b0:	4a77      	ldr	r2, [pc, #476]	; (8001390 <HAL_RCC_OscConfig+0x4e8>)
 80011b2:	f043 0301 	orr.w	r3, r3, #1
 80011b6:	6713      	str	r3, [r2, #112]	; 0x70
 80011b8:	e00b      	b.n	80011d2 <HAL_RCC_OscConfig+0x32a>
 80011ba:	4b75      	ldr	r3, [pc, #468]	; (8001390 <HAL_RCC_OscConfig+0x4e8>)
 80011bc:	6f1b      	ldr	r3, [r3, #112]	; 0x70
 80011be:	4a74      	ldr	r2, [pc, #464]	; (8001390 <HAL_RCC_OscConfig+0x4e8>)
 80011c0:	f023 0301 	bic.w	r3, r3, #1
 80011c4:	6713      	str	r3, [r2, #112]	; 0x70
 80011c6:	4b72      	ldr	r3, [pc, #456]	; (8001390 <HAL_RCC_OscConfig+0x4e8>)
 80011c8:	6f1b      	ldr	r3, [r3, #112]	; 0x70
 80011ca:	4a71      	ldr	r2, [pc, #452]	; (8001390 <HAL_RCC_OscConfig+0x4e8>)
 80011cc:	f023 0304 	bic.w	r3, r3, #4
 80011d0:	6713      	str	r3, [r2, #112]	; 0x70
    /* Check the LSE State */
    if((RCC_OscInitStruct->LSEState) != RCC_LSE_OFF)
 80011d2:	687b      	ldr	r3, [r7, #4]
 80011d4:	689b      	ldr	r3, [r3, #8]
 80011d6:	2b00      	cmp	r3, #0
 80011d8:	d015      	beq.n	8001206 <HAL_RCC_OscConfig+0x35e>
    {
      /* Get Start Tick*/
      tickstart = HAL_GetTick();
 80011da:	f7ff fbbd 	bl	8000958 <HAL_GetTick>
 80011de:	6138      	str	r0, [r7, #16]

      /* Wait till LSE is ready */
      while(__HAL_RCC_GET_FLAG(RCC_FLAG_LSERDY) == RESET)
 80011e0:	e00a      	b.n	80011f8 <HAL_RCC_OscConfig+0x350>
      {
        if((HAL_GetTick() - tickstart ) > RCC_LSE_TIMEOUT_VALUE)
 80011e2:	f7ff fbb9 	bl	8000958 <HAL_GetTick>
 80011e6:	4602      	mov	r2, r0
 80011e8:	693b      	ldr	r3, [r7, #16]
 80011ea:	1ad3      	subs	r3, r2, r3
 80011ec:	f241 3288 	movw	r2, #5000	; 0x1388
 80011f0:	4293      	cmp	r3, r2
 80011f2:	d901      	bls.n	80011f8 <HAL_RCC_OscConfig+0x350>
        {
          return HAL_TIMEOUT;
 80011f4:	2303      	movs	r3, #3
 80011f6:	e0c5      	b.n	8001384 <HAL_RCC_OscConfig+0x4dc>
      while(__HAL_RCC_GET_FLAG(RCC_FLAG_LSERDY) == RESET)
 80011f8:	4b65      	ldr	r3, [pc, #404]	; (8001390 <HAL_RCC_OscConfig+0x4e8>)
 80011fa:	6f1b      	ldr	r3, [r3, #112]	; 0x70
 80011fc:	f003 0302 	and.w	r3, r3, #2
 8001200:	2b00      	cmp	r3, #0
 8001202:	d0ee      	beq.n	80011e2 <HAL_RCC_OscConfig+0x33a>
 8001204:	e014      	b.n	8001230 <HAL_RCC_OscConfig+0x388>
      }
    }
    else
    {
      /* Get Start Tick */
      tickstart = HAL_GetTick();
 8001206:	f7ff fba7 	bl	8000958 <HAL_GetTick>
 800120a:	6138      	str	r0, [r7, #16]

      /* Wait till LSE is ready */
      while(__HAL_RCC_GET_FLAG(RCC_FLAG_LSERDY) != RESET)
 800120c:	e00a      	b.n	8001224 <HAL_RCC_OscConfig+0x37c>
      {
        if((HAL_GetTick() - tickstart ) > RCC_LSE_TIMEOUT_VALUE)
 800120e:	f7ff fba3 	bl	8000958 <HAL_GetTick>
 8001212:	4602      	mov	r2, r0
 8001214:	693b      	ldr	r3, [r7, #16]
 8001216:	1ad3      	subs	r3, r2, r3
 8001218:	f241 3288 	movw	r2, #5000	; 0x1388
 800121c:	4293      	cmp	r3, r2
 800121e:	d901      	bls.n	8001224 <HAL_RCC_OscConfig+0x37c>
        {
          return HAL_TIMEOUT;
 8001220:	2303      	movs	r3, #3
 8001222:	e0af      	b.n	8001384 <HAL_RCC_OscConfig+0x4dc>
      while(__HAL_RCC_GET_FLAG(RCC_FLAG_LSERDY) != RESET)
 8001224:	4b5a      	ldr	r3, [pc, #360]	; (8001390 <HAL_RCC_OscConfig+0x4e8>)
 8001226:	6f1b      	ldr	r3, [r3, #112]	; 0x70
 8001228:	f003 0302 	and.w	r3, r3, #2
 800122c:	2b00      	cmp	r3, #0
 800122e:	d1ee      	bne.n	800120e <HAL_RCC_OscConfig+0x366>
        }
      }
    }

    /* Restore clock configuration if changed */
    if(pwrclkchanged == SET)
 8001230:	7dfb      	ldrb	r3, [r7, #23]
 8001232:	2b01      	cmp	r3, #1
 8001234:	d105      	bne.n	8001242 <HAL_RCC_OscConfig+0x39a>
    {
      __HAL_RCC_PWR_CLK_DISABLE();
 8001236:	4b56      	ldr	r3, [pc, #344]	; (8001390 <HAL_RCC_OscConfig+0x4e8>)
 8001238:	6c1b      	ldr	r3, [r3, #64]	; 0x40
 800123a:	4a55      	ldr	r2, [pc, #340]	; (8001390 <HAL_RCC_OscConfig+0x4e8>)
 800123c:	f023 5380 	bic.w	r3, r3, #268435456	; 0x10000000
 8001240:	6413      	str	r3, [r2, #64]	; 0x40
    }
  }
  /*-------------------------------- PLL Configuration -----------------------*/
  /* Check the parameters */
  assert_param(IS_RCC_PLL(RCC_OscInitStruct->PLL.PLLState));
  if ((RCC_OscInitStruct->PLL.PLLState) != RCC_PLL_NONE)
 8001242:	687b      	ldr	r3, [r7, #4]
 8001244:	699b      	ldr	r3, [r3, #24]
 8001246:	2b00      	cmp	r3, #0
 8001248:	f000 809b 	beq.w	8001382 <HAL_RCC_OscConfig+0x4da>
  {
    /* Check if the PLL is used as system clock or not */
    if(__HAL_RCC_GET_SYSCLK_SOURCE() != RCC_CFGR_SWS_PLL)
 800124c:	4b50      	ldr	r3, [pc, #320]	; (8001390 <HAL_RCC_OscConfig+0x4e8>)
 800124e:	689b      	ldr	r3, [r3, #8]
 8001250:	f003 030c 	and.w	r3, r3, #12
 8001254:	2b08      	cmp	r3, #8
 8001256:	d05c      	beq.n	8001312 <HAL_RCC_OscConfig+0x46a>
    {
      if((RCC_OscInitStruct->PLL.PLLState) == RCC_PLL_ON)
 8001258:	687b      	ldr	r3, [r7, #4]
 800125a:	699b      	ldr	r3, [r3, #24]
 800125c:	2b02      	cmp	r3, #2
 800125e:	d141      	bne.n	80012e4 <HAL_RCC_OscConfig+0x43c>
        assert_param(IS_RCC_PLLN_VALUE(RCC_OscInitStruct->PLL.PLLN));
        assert_param(IS_RCC_PLLP_VALUE(RCC_OscInitStruct->PLL.PLLP));
        assert_param(IS_RCC_PLLQ_VALUE(RCC_OscInitStruct->PLL.PLLQ));

        /* Disable the main PLL. */
        __HAL_RCC_PLL_DISABLE();
 8001260:	4b4c      	ldr	r3, [pc, #304]	; (8001394 <HAL_RCC_OscConfig+0x4ec>)
 8001262:	2200      	movs	r2, #0
 8001264:	601a      	str	r2, [r3, #0]

        /* Get Start Tick */
        tickstart = HAL_GetTick();
 8001266:	f7ff fb77 	bl	8000958 <HAL_GetTick>
 800126a:	6138      	str	r0, [r7, #16]

        /* Wait till PLL is ready */
        while(__HAL_RCC_GET_FLAG(RCC_FLAG_PLLRDY) != RESET)
 800126c:	e008      	b.n	8001280 <HAL_RCC_OscConfig+0x3d8>
        {
          if((HAL_GetTick() - tickstart ) > PLL_TIMEOUT_VALUE)
 800126e:	f7ff fb73 	bl	8000958 <HAL_GetTick>
 8001272:	4602      	mov	r2, r0
 8001274:	693b      	ldr	r3, [r7, #16]
 8001276:	1ad3      	subs	r3, r2, r3
 8001278:	2b02      	cmp	r3, #2
 800127a:	d901      	bls.n	8001280 <HAL_RCC_OscConfig+0x3d8>
          {
            return HAL_TIMEOUT;
 800127c:	2303      	movs	r3, #3
 800127e:	e081      	b.n	8001384 <HAL_RCC_OscConfig+0x4dc>
        while(__HAL_RCC_GET_FLAG(RCC_FLAG_PLLRDY) != RESET)
 8001280:	4b43      	ldr	r3, [pc, #268]	; (8001390 <HAL_RCC_OscConfig+0x4e8>)
 8001282:	681b      	ldr	r3, [r3, #0]
 8001284:	f003 7300 	and.w	r3, r3, #33554432	; 0x2000000
 8001288:	2b00      	cmp	r3, #0
 800128a:	d1f0      	bne.n	800126e <HAL_RCC_OscConfig+0x3c6>
          }
        }

        /* Configure the main PLL clock source, multiplication and division factors. */
        WRITE_REG(RCC->PLLCFGR, (RCC_OscInitStruct->PLL.PLLSource                                            | \
 800128c:	687b      	ldr	r3, [r7, #4]
 800128e:	69da      	ldr	r2, [r3, #28]
 8001290:	687b      	ldr	r3, [r7, #4]
 8001292:	6a1b      	ldr	r3, [r3, #32]
 8001294:	431a      	orrs	r2, r3
 8001296:	687b      	ldr	r3, [r7, #4]
 8001298:	6a5b      	ldr	r3, [r3, #36]	; 0x24
 800129a:	019b      	lsls	r3, r3, #6
 800129c:	431a      	orrs	r2, r3
 800129e:	687b      	ldr	r3, [r7, #4]
 80012a0:	6a9b      	ldr	r3, [r3, #40]	; 0x28
 80012a2:	085b      	lsrs	r3, r3, #1
 80012a4:	3b01      	subs	r3, #1
 80012a6:	041b      	lsls	r3, r3, #16
 80012a8:	431a      	orrs	r2, r3
 80012aa:	687b      	ldr	r3, [r7, #4]
 80012ac:	6adb      	ldr	r3, [r3, #44]	; 0x2c
 80012ae:	061b      	lsls	r3, r3, #24
 80012b0:	4937      	ldr	r1, [pc, #220]	; (8001390 <HAL_RCC_OscConfig+0x4e8>)
 80012b2:	4313      	orrs	r3, r2
 80012b4:	604b      	str	r3, [r1, #4]
                                 RCC_OscInitStruct->PLL.PLLM                                                 | \
                                 (RCC_OscInitStruct->PLL.PLLN << RCC_PLLCFGR_PLLN_Pos)             | \
                                 (((RCC_OscInitStruct->PLL.PLLP >> 1U) - 1U) << RCC_PLLCFGR_PLLP_Pos) | \
                                 (RCC_OscInitStruct->PLL.PLLQ << RCC_PLLCFGR_PLLQ_Pos)));
        /* Enable the main PLL. */
        __HAL_RCC_PLL_ENABLE();
 80012b6:	4b37      	ldr	r3, [pc, #220]	; (8001394 <HAL_RCC_OscConfig+0x4ec>)
 80012b8:	2201      	movs	r2, #1
 80012ba:	601a      	str	r2, [r3, #0]

        /* Get Start Tick */
        tickstart = HAL_GetTick();
 80012bc:	f7ff fb4c 	bl	8000958 <HAL_GetTick>
 80012c0:	6138      	str	r0, [r7, #16]

        /* Wait till PLL is ready */
        while(__HAL_RCC_GET_FLAG(RCC_FLAG_PLLRDY) == RESET)
 80012c2:	e008      	b.n	80012d6 <HAL_RCC_OscConfig+0x42e>
        {
          if((HAL_GetTick() - tickstart ) > PLL_TIMEOUT_VALUE)
 80012c4:	f7ff fb48 	bl	8000958 <HAL_GetTick>
 80012c8:	4602      	mov	r2, r0
 80012ca:	693b      	ldr	r3, [r7, #16]
 80012cc:	1ad3      	subs	r3, r2, r3
 80012ce:	2b02      	cmp	r3, #2
 80012d0:	d901      	bls.n	80012d6 <HAL_RCC_OscConfig+0x42e>
          {
            return HAL_TIMEOUT;
 80012d2:	2303      	movs	r3, #3
 80012d4:	e056      	b.n	8001384 <HAL_RCC_OscConfig+0x4dc>
        while(__HAL_RCC_GET_FLAG(RCC_FLAG_PLLRDY) == RESET)
 80012d6:	4b2e      	ldr	r3, [pc, #184]	; (8001390 <HAL_RCC_OscConfig+0x4e8>)
 80012d8:	681b      	ldr	r3, [r3, #0]
 80012da:	f003 7300 	and.w	r3, r3, #33554432	; 0x2000000
 80012de:	2b00      	cmp	r3, #0
 80012e0:	d0f0      	beq.n	80012c4 <HAL_RCC_OscConfig+0x41c>
 80012e2:	e04e      	b.n	8001382 <HAL_RCC_OscConfig+0x4da>
        }
      }
      else
      {
        /* Disable the main PLL. */
        __HAL_RCC_PLL_DISABLE();
 80012e4:	4b2b      	ldr	r3, [pc, #172]	; (8001394 <HAL_RCC_OscConfig+0x4ec>)
 80012e6:	2200      	movs	r2, #0
 80012e8:	601a      	str	r2, [r3, #0]

        /* Get Start Tick */
        tickstart = HAL_GetTick();
 80012ea:	f7ff fb35 	bl	8000958 <HAL_GetTick>
 80012ee:	6138      	str	r0, [r7, #16]

        /* Wait till PLL is ready */
        while(__HAL_RCC_GET_FLAG(RCC_FLAG_PLLRDY) != RESET)
 80012f0:	e008      	b.n	8001304 <HAL_RCC_OscConfig+0x45c>
        {
          if((HAL_GetTick() - tickstart ) > PLL_TIMEOUT_VALUE)
 80012f2:	f7ff fb31 	bl	8000958 <HAL_GetTick>
 80012f6:	4602      	mov	r2, r0
 80012f8:	693b      	ldr	r3, [r7, #16]
 80012fa:	1ad3      	subs	r3, r2, r3
 80012fc:	2b02      	cmp	r3, #2
 80012fe:	d901      	bls.n	8001304 <HAL_RCC_OscConfig+0x45c>
          {
            return HAL_TIMEOUT;
 8001300:	2303      	movs	r3, #3
 8001302:	e03f      	b.n	8001384 <HAL_RCC_OscConfig+0x4dc>
        while(__HAL_RCC_GET_FLAG(RCC_FLAG_PLLRDY) != RESET)
 8001304:	4b22      	ldr	r3, [pc, #136]	; (8001390 <HAL_RCC_OscConfig+0x4e8>)
 8001306:	681b      	ldr	r3, [r3, #0]
 8001308:	f003 7300 	and.w	r3, r3, #33554432	; 0x2000000
 800130c:	2b00      	cmp	r3, #0
 800130e:	d1f0      	bne.n	80012f2 <HAL_RCC_OscConfig+0x44a>
 8001310:	e037      	b.n	8001382 <HAL_RCC_OscConfig+0x4da>
      }
    }
    else
    {
      /* Check if there is a request to disable the PLL used as System clock source */
      if((RCC_OscInitStruct->PLL.PLLState) == RCC_PLL_OFF)
 8001312:	687b      	ldr	r3, [r7, #4]
 8001314:	699b      	ldr	r3, [r3, #24]
 8001316:	2b01      	cmp	r3, #1
 8001318:	d101      	bne.n	800131e <HAL_RCC_OscConfig+0x476>
      {
        return HAL_ERROR;
 800131a:	2301      	movs	r3, #1
 800131c:	e032      	b.n	8001384 <HAL_RCC_OscConfig+0x4dc>
      }
      else
      {
        /* Do not return HAL_ERROR if request repeats the current configuration */
        pll_config = RCC->PLLCFGR;
 800131e:	4b1c      	ldr	r3, [pc, #112]	; (8001390 <HAL_RCC_OscConfig+0x4e8>)
 8001320:	685b      	ldr	r3, [r3, #4]
 8001322:	60fb      	str	r3, [r7, #12]
            (READ_BIT(pll_config, RCC_PLLCFGR_PLLN) != (RCC_OscInitStruct->PLL.PLLN) << RCC_PLLCFGR_PLLN_Pos) ||
            (READ_BIT(pll_config, RCC_PLLCFGR_PLLP) != (((RCC_OscInitStruct->PLL.PLLP >> 1U) - 1U)) << RCC_PLLCFGR_PLLP_Pos) ||
            (READ_BIT(pll_config, RCC_PLLCFGR_PLLQ) != (RCC_OscInitStruct->PLL.PLLQ << RCC_PLLCFGR_PLLQ_Pos)) ||
            (READ_BIT(pll_config, RCC_PLLCFGR_PLLR) != (RCC_OscInitStruct->PLL.PLLR << RCC_PLLCFGR_PLLR_Pos)))
#else
        if (((RCC_OscInitStruct->PLL.PLLState) == RCC_PLL_OFF) ||
 8001324:	687b      	ldr	r3, [r7, #4]
 8001326:	699b      	ldr	r3, [r3, #24]
 8001328:	2b01      	cmp	r3, #1
 800132a:	d028      	beq.n	800137e <HAL_RCC_OscConfig+0x4d6>
            (READ_BIT(pll_config, RCC_PLLCFGR_PLLSRC) != RCC_OscInitStruct->PLL.PLLSource) ||
 800132c:	68fb      	ldr	r3, [r7, #12]
 800132e:	f403 0280 	and.w	r2, r3, #4194304	; 0x400000
 8001332:	687b      	ldr	r3, [r7, #4]
 8001334:	69db      	ldr	r3, [r3, #28]
        if (((RCC_OscInitStruct->PLL.PLLState) == RCC_PLL_OFF) ||
 8001336:	429a      	cmp	r2, r3
 8001338:	d121      	bne.n	800137e <HAL_RCC_OscConfig+0x4d6>
            (READ_BIT(pll_config, RCC_PLLCFGR_PLLM) != (RCC_OscInitStruct->PLL.PLLM) << RCC_PLLCFGR_PLLM_Pos) ||
 800133a:	68fb      	ldr	r3, [r7, #12]
 800133c:	f003 023f 	and.w	r2, r3, #63	; 0x3f
 8001340:	687b      	ldr	r3, [r7, #4]
 8001342:	6a1b      	ldr	r3, [r3, #32]
            (READ_BIT(pll_config, RCC_PLLCFGR_PLLSRC) != RCC_OscInitStruct->PLL.PLLSource) ||
 8001344:	429a      	cmp	r2, r3
 8001346:	d11a      	bne.n	800137e <HAL_RCC_OscConfig+0x4d6>
            (READ_BIT(pll_config, RCC_PLLCFGR_PLLN) != (RCC_OscInitStruct->PLL.PLLN) << RCC_PLLCFGR_PLLN_Pos) ||
 8001348:	68fa      	ldr	r2, [r7, #12]
 800134a:	f647 73c0 	movw	r3, #32704	; 0x7fc0
 800134e:	4013      	ands	r3, r2
 8001350:	687a      	ldr	r2, [r7, #4]
 8001352:	6a52      	ldr	r2, [r2, #36]	; 0x24
 8001354:	0192      	lsls	r2, r2, #6
            (READ_BIT(pll_config, RCC_PLLCFGR_PLLM) != (RCC_OscInitStruct->PLL.PLLM) << RCC_PLLCFGR_PLLM_Pos) ||
 8001356:	4293      	cmp	r3, r2
 8001358:	d111      	bne.n	800137e <HAL_RCC_OscConfig+0x4d6>
            (READ_BIT(pll_config, RCC_PLLCFGR_PLLP) != (((RCC_OscInitStruct->PLL.PLLP >> 1U) - 1U)) << RCC_PLLCFGR_PLLP_Pos) ||
 800135a:	68fb      	ldr	r3, [r7, #12]
 800135c:	f403 3240 	and.w	r2, r3, #196608	; 0x30000
 8001360:	687b      	ldr	r3, [r7, #4]
 8001362:	6a9b      	ldr	r3, [r3, #40]	; 0x28
 8001364:	085b      	lsrs	r3, r3, #1
 8001366:	3b01      	subs	r3, #1
 8001368:	041b      	lsls	r3, r3, #16
            (READ_BIT(pll_config, RCC_PLLCFGR_PLLN) != (RCC_OscInitStruct->PLL.PLLN) << RCC_PLLCFGR_PLLN_Pos) ||
 800136a:	429a      	cmp	r2, r3
 800136c:	d107      	bne.n	800137e <HAL_RCC_OscConfig+0x4d6>
            (READ_BIT(pll_config, RCC_PLLCFGR_PLLQ) != (RCC_OscInitStruct->PLL.PLLQ << RCC_PLLCFGR_PLLQ_Pos)))
 800136e:	68fb      	ldr	r3, [r7, #12]
 8001370:	f003 6270 	and.w	r2, r3, #251658240	; 0xf000000
 8001374:	687b      	ldr	r3, [r7, #4]
 8001376:	6adb      	ldr	r3, [r3, #44]	; 0x2c
 8001378:	061b      	lsls	r3, r3, #24
            (READ_BIT(pll_config, RCC_PLLCFGR_PLLP) != (((RCC_OscInitStruct->PLL.PLLP >> 1U) - 1U)) << RCC_PLLCFGR_PLLP_Pos) ||
 800137a:	429a      	cmp	r2, r3
 800137c:	d001      	beq.n	8001382 <HAL_RCC_OscConfig+0x4da>
#endif
        {
          return HAL_ERROR;
 800137e:	2301      	movs	r3, #1
 8001380:	e000      	b.n	8001384 <HAL_RCC_OscConfig+0x4dc>
        }
      }
    }
  }
  return HAL_OK;
 8001382:	2300      	movs	r3, #0
}
 8001384:	4618      	mov	r0, r3
 8001386:	3718      	adds	r7, #24
 8001388:	46bd      	mov	sp, r7
 800138a:	bd80      	pop	{r7, pc}
 800138c:	40007000 	.word	0x40007000
 8001390:	40023800 	.word	0x40023800
 8001394:	42470060 	.word	0x42470060

08001398 <HAL_RCC_ClockConfig>:
  *         HPRE[3:0] bits to ensure that HCLK not exceed the maximum allowed frequency
  *         (for more details refer to section above "Initialization/de-initialization functions")
  * @retval None
  */
HAL_StatusTypeDef HAL_RCC_ClockConfig(RCC_ClkInitTypeDef  *RCC_ClkInitStruct, uint32_t FLatency)
{
 8001398:	b580      	push	{r7, lr}
 800139a:	b084      	sub	sp, #16
 800139c:	af00      	add	r7, sp, #0
 800139e:	6078      	str	r0, [r7, #4]
 80013a0:	6039      	str	r1, [r7, #0]
  uint32_t tickstart;

  /* Check Null pointer */
  if(RCC_ClkInitStruct == NULL)
 80013a2:	687b      	ldr	r3, [r7, #4]
 80013a4:	2b00      	cmp	r3, #0
 80013a6:	d101      	bne.n	80013ac <HAL_RCC_ClockConfig+0x14>
  {
    return HAL_ERROR;
 80013a8:	2301      	movs	r3, #1
 80013aa:	e0cc      	b.n	8001546 <HAL_RCC_ClockConfig+0x1ae>
  /* To correctly read data from FLASH memory, the number of wait states (LATENCY)
    must be correctly programmed according to the frequency of the CPU clock
    (HCLK) and the supply voltage of the device. */

  /* Increasing the number of wait states because of higher CPU frequency */
  if(FLatency > __HAL_FLASH_GET_LATENCY())
 80013ac:	4b68      	ldr	r3, [pc, #416]	; (8001550 <HAL_RCC_ClockConfig+0x1b8>)
 80013ae:	681b      	ldr	r3, [r3, #0]
 80013b0:	f003 0307 	and.w	r3, r3, #7
 80013b4:	683a      	ldr	r2, [r7, #0]
 80013b6:	429a      	cmp	r2, r3
 80013b8:	d90c      	bls.n	80013d4 <HAL_RCC_ClockConfig+0x3c>
  {
    /* Program the new number of wait states to the LATENCY bits in the FLASH_ACR register */
    __HAL_FLASH_SET_LATENCY(FLatency);
 80013ba:	4b65      	ldr	r3, [pc, #404]	; (8001550 <HAL_RCC_ClockConfig+0x1b8>)
 80013bc:	683a      	ldr	r2, [r7, #0]
 80013be:	b2d2      	uxtb	r2, r2
 80013c0:	701a      	strb	r2, [r3, #0]

    /* Check that the new number of wait states is taken into account to access the Flash
    memory by reading the FLASH_ACR register */
    if(__HAL_FLASH_GET_LATENCY() != FLatency)
 80013c2:	4b63      	ldr	r3, [pc, #396]	; (8001550 <HAL_RCC_ClockConfig+0x1b8>)
 80013c4:	681b      	ldr	r3, [r3, #0]
 80013c6:	f003 0307 	and.w	r3, r3, #7
 80013ca:	683a      	ldr	r2, [r7, #0]
 80013cc:	429a      	cmp	r2, r3
 80013ce:	d001      	beq.n	80013d4 <HAL_RCC_ClockConfig+0x3c>
    {
      return HAL_ERROR;
 80013d0:	2301      	movs	r3, #1
 80013d2:	e0b8      	b.n	8001546 <HAL_RCC_ClockConfig+0x1ae>
    }
  }

  /*-------------------------- HCLK Configuration --------------------------*/
  if(((RCC_ClkInitStruct->ClockType) & RCC_CLOCKTYPE_HCLK) == RCC_CLOCKTYPE_HCLK)
 80013d4:	687b      	ldr	r3, [r7, #4]
 80013d6:	681b      	ldr	r3, [r3, #0]
 80013d8:	f003 0302 	and.w	r3, r3, #2
 80013dc:	2b00      	cmp	r3, #0
 80013de:	d020      	beq.n	8001422 <HAL_RCC_ClockConfig+0x8a>
  {
    /* Set the highest APBx dividers in order to ensure that we do not go through
       a non-spec phase whatever we decrease or increase HCLK. */
    if(((RCC_ClkInitStruct->ClockType) & RCC_CLOCKTYPE_PCLK1) == RCC_CLOCKTYPE_PCLK1)
 80013e0:	687b      	ldr	r3, [r7, #4]
 80013e2:	681b      	ldr	r3, [r3, #0]
 80013e4:	f003 0304 	and.w	r3, r3, #4
 80013e8:	2b00      	cmp	r3, #0
 80013ea:	d005      	beq.n	80013f8 <HAL_RCC_ClockConfig+0x60>
    {
      MODIFY_REG(RCC->CFGR, RCC_CFGR_PPRE1, RCC_HCLK_DIV16);
 80013ec:	4b59      	ldr	r3, [pc, #356]	; (8001554 <HAL_RCC_ClockConfig+0x1bc>)
 80013ee:	689b      	ldr	r3, [r3, #8]
 80013f0:	4a58      	ldr	r2, [pc, #352]	; (8001554 <HAL_RCC_ClockConfig+0x1bc>)
 80013f2:	f443 53e0 	orr.w	r3, r3, #7168	; 0x1c00
 80013f6:	6093      	str	r3, [r2, #8]
    }

    if(((RCC_ClkInitStruct->ClockType) & RCC_CLOCKTYPE_PCLK2) == RCC_CLOCKTYPE_PCLK2)
 80013f8:	687b      	ldr	r3, [r7, #4]
 80013fa:	681b      	ldr	r3, [r3, #0]
 80013fc:	f003 0308 	and.w	r3, r3, #8
 8001400:	2b00      	cmp	r3, #0
 8001402:	d005      	beq.n	8001410 <HAL_RCC_ClockConfig+0x78>
    {
      MODIFY_REG(RCC->CFGR, RCC_CFGR_PPRE2, (RCC_HCLK_DIV16 << 3));
 8001404:	4b53      	ldr	r3, [pc, #332]	; (8001554 <HAL_RCC_ClockConfig+0x1bc>)
 8001406:	689b      	ldr	r3, [r3, #8]
 8001408:	4a52      	ldr	r2, [pc, #328]	; (8001554 <HAL_RCC_ClockConfig+0x1bc>)
 800140a:	f443 4360 	orr.w	r3, r3, #57344	; 0xe000
 800140e:	6093      	str	r3, [r2, #8]
    }

    assert_param(IS_RCC_HCLK(RCC_ClkInitStruct->AHBCLKDivider));
    MODIFY_REG(RCC->CFGR, RCC_CFGR_HPRE, RCC_ClkInitStruct->AHBCLKDivider);
 8001410:	4b50      	ldr	r3, [pc, #320]	; (8001554 <HAL_RCC_ClockConfig+0x1bc>)
 8001412:	689b      	ldr	r3, [r3, #8]
 8001414:	f023 02f0 	bic.w	r2, r3, #240	; 0xf0
 8001418:	687b      	ldr	r3, [r7, #4]
 800141a:	689b      	ldr	r3, [r3, #8]
 800141c:	494d      	ldr	r1, [pc, #308]	; (8001554 <HAL_RCC_ClockConfig+0x1bc>)
 800141e:	4313      	orrs	r3, r2
 8001420:	608b      	str	r3, [r1, #8]
  }

  /*------------------------- SYSCLK Configuration ---------------------------*/
  if(((RCC_ClkInitStruct->ClockType) & RCC_CLOCKTYPE_SYSCLK) == RCC_CLOCKTYPE_SYSCLK)
 8001422:	687b      	ldr	r3, [r7, #4]
 8001424:	681b      	ldr	r3, [r3, #0]
 8001426:	f003 0301 	and.w	r3, r3, #1
 800142a:	2b00      	cmp	r3, #0
 800142c:	d044      	beq.n	80014b8 <HAL_RCC_ClockConfig+0x120>
  {
    assert_param(IS_RCC_SYSCLKSOURCE(RCC_ClkInitStruct->SYSCLKSource));

    /* HSE is selected as System Clock Source */
    if(RCC_ClkInitStruct->SYSCLKSource == RCC_SYSCLKSOURCE_HSE)
 800142e:	687b      	ldr	r3, [r7, #4]
 8001430:	685b      	ldr	r3, [r3, #4]
 8001432:	2b01      	cmp	r3, #1
 8001434:	d107      	bne.n	8001446 <HAL_RCC_ClockConfig+0xae>
    {
      /* Check the HSE ready flag */
      if(__HAL_RCC_GET_FLAG(RCC_FLAG_HSERDY) == RESET)
 8001436:	4b47      	ldr	r3, [pc, #284]	; (8001554 <HAL_RCC_ClockConfig+0x1bc>)
 8001438:	681b      	ldr	r3, [r3, #0]
 800143a:	f403 3300 	and.w	r3, r3, #131072	; 0x20000
 800143e:	2b00      	cmp	r3, #0
 8001440:	d119      	bne.n	8001476 <HAL_RCC_ClockConfig+0xde>
      {
        return HAL_ERROR;
 8001442:	2301      	movs	r3, #1
 8001444:	e07f      	b.n	8001546 <HAL_RCC_ClockConfig+0x1ae>
      }
    }
    /* PLL is selected as System Clock Source */
    else if((RCC_ClkInitStruct->SYSCLKSource == RCC_SYSCLKSOURCE_PLLCLK)   ||
 8001446:	687b      	ldr	r3, [r7, #4]
 8001448:	685b      	ldr	r3, [r3, #4]
 800144a:	2b02      	cmp	r3, #2
 800144c:	d003      	beq.n	8001456 <HAL_RCC_ClockConfig+0xbe>
            (RCC_ClkInitStruct->SYSCLKSource == RCC_SYSCLKSOURCE_PLLRCLK))
 800144e:	687b      	ldr	r3, [r7, #4]
 8001450:	685b      	ldr	r3, [r3, #4]
    else if((RCC_ClkInitStruct->SYSCLKSource == RCC_SYSCLKSOURCE_PLLCLK)   ||
 8001452:	2b03      	cmp	r3, #3
 8001454:	d107      	bne.n	8001466 <HAL_RCC_ClockConfig+0xce>
    {
      /* Check the PLL ready flag */
      if(__HAL_RCC_GET_FLAG(RCC_FLAG_PLLRDY) == RESET)
 8001456:	4b3f      	ldr	r3, [pc, #252]	; (8001554 <HAL_RCC_ClockConfig+0x1bc>)
 8001458:	681b      	ldr	r3, [r3, #0]
 800145a:	f003 7300 	and.w	r3, r3, #33554432	; 0x2000000
 800145e:	2b00      	cmp	r3, #0
 8001460:	d109      	bne.n	8001476 <HAL_RCC_ClockConfig+0xde>
      {
        return HAL_ERROR;
 8001462:	2301      	movs	r3, #1
 8001464:	e06f      	b.n	8001546 <HAL_RCC_ClockConfig+0x1ae>
    }
    /* HSI is selected as System Clock Source */
    else
    {
      /* Check the HSI ready flag */
      if(__HAL_RCC_GET_FLAG(RCC_FLAG_HSIRDY) == RESET)
 8001466:	4b3b      	ldr	r3, [pc, #236]	; (8001554 <HAL_RCC_ClockConfig+0x1bc>)
 8001468:	681b      	ldr	r3, [r3, #0]
 800146a:	f003 0302 	and.w	r3, r3, #2
 800146e:	2b00      	cmp	r3, #0
 8001470:	d101      	bne.n	8001476 <HAL_RCC_ClockConfig+0xde>
      {
        return HAL_ERROR;
 8001472:	2301      	movs	r3, #1
 8001474:	e067      	b.n	8001546 <HAL_RCC_ClockConfig+0x1ae>
      }
    }

    __HAL_RCC_SYSCLK_CONFIG(RCC_ClkInitStruct->SYSCLKSource);
 8001476:	4b37      	ldr	r3, [pc, #220]	; (8001554 <HAL_RCC_ClockConfig+0x1bc>)
 8001478:	689b      	ldr	r3, [r3, #8]
 800147a:	f023 0203 	bic.w	r2, r3, #3
 800147e:	687b      	ldr	r3, [r7, #4]
 8001480:	685b      	ldr	r3, [r3, #4]
 8001482:	4934      	ldr	r1, [pc, #208]	; (8001554 <HAL_RCC_ClockConfig+0x1bc>)
 8001484:	4313      	orrs	r3, r2
 8001486:	608b      	str	r3, [r1, #8]

    /* Get Start Tick */
    tickstart = HAL_GetTick();
 8001488:	f7ff fa66 	bl	8000958 <HAL_GetTick>
 800148c:	60f8      	str	r0, [r7, #12]

    while (__HAL_RCC_GET_SYSCLK_SOURCE() != (RCC_ClkInitStruct->SYSCLKSource << RCC_CFGR_SWS_Pos))
 800148e:	e00a      	b.n	80014a6 <HAL_RCC_ClockConfig+0x10e>
    {
      if ((HAL_GetTick() - tickstart) > CLOCKSWITCH_TIMEOUT_VALUE)
 8001490:	f7ff fa62 	bl	8000958 <HAL_GetTick>
 8001494:	4602      	mov	r2, r0
 8001496:	68fb      	ldr	r3, [r7, #12]
 8001498:	1ad3      	subs	r3, r2, r3
 800149a:	f241 3288 	movw	r2, #5000	; 0x1388
 800149e:	4293      	cmp	r3, r2
 80014a0:	d901      	bls.n	80014a6 <HAL_RCC_ClockConfig+0x10e>
      {
        return HAL_TIMEOUT;
 80014a2:	2303      	movs	r3, #3
 80014a4:	e04f      	b.n	8001546 <HAL_RCC_ClockConfig+0x1ae>
    while (__HAL_RCC_GET_SYSCLK_SOURCE() != (RCC_ClkInitStruct->SYSCLKSource << RCC_CFGR_SWS_Pos))
 80014a6:	4b2b      	ldr	r3, [pc, #172]	; (8001554 <HAL_RCC_ClockConfig+0x1bc>)
 80014a8:	689b      	ldr	r3, [r3, #8]
 80014aa:	f003 020c 	and.w	r2, r3, #12
 80014ae:	687b      	ldr	r3, [r7, #4]
 80014b0:	685b      	ldr	r3, [r3, #4]
 80014b2:	009b      	lsls	r3, r3, #2
 80014b4:	429a      	cmp	r2, r3
 80014b6:	d1eb      	bne.n	8001490 <HAL_RCC_ClockConfig+0xf8>
      }
    }
  }

  /* Decreasing the number of wait states because of lower CPU frequency */
  if(FLatency < __HAL_FLASH_GET_LATENCY())
 80014b8:	4b25      	ldr	r3, [pc, #148]	; (8001550 <HAL_RCC_ClockConfig+0x1b8>)
 80014ba:	681b      	ldr	r3, [r3, #0]
 80014bc:	f003 0307 	and.w	r3, r3, #7
 80014c0:	683a      	ldr	r2, [r7, #0]
 80014c2:	429a      	cmp	r2, r3
 80014c4:	d20c      	bcs.n	80014e0 <HAL_RCC_ClockConfig+0x148>
  {
     /* Program the new number of wait states to the LATENCY bits in the FLASH_ACR register */
    __HAL_FLASH_SET_LATENCY(FLatency);
 80014c6:	4b22      	ldr	r3, [pc, #136]	; (8001550 <HAL_RCC_ClockConfig+0x1b8>)
 80014c8:	683a      	ldr	r2, [r7, #0]
 80014ca:	b2d2      	uxtb	r2, r2
 80014cc:	701a      	strb	r2, [r3, #0]

    /* Check that the new number of wait states is taken into account to access the Flash
    memory by reading the FLASH_ACR register */
    if(__HAL_FLASH_GET_LATENCY() != FLatency)
 80014ce:	4b20      	ldr	r3, [pc, #128]	; (8001550 <HAL_RCC_ClockConfig+0x1b8>)
 80014d0:	681b      	ldr	r3, [r3, #0]
 80014d2:	f003 0307 	and.w	r3, r3, #7
 80014d6:	683a      	ldr	r2, [r7, #0]
 80014d8:	429a      	cmp	r2, r3
 80014da:	d001      	beq.n	80014e0 <HAL_RCC_ClockConfig+0x148>
    {
      return HAL_ERROR;
 80014dc:	2301      	movs	r3, #1
 80014de:	e032      	b.n	8001546 <HAL_RCC_ClockConfig+0x1ae>
    }
  }

  /*-------------------------- PCLK1 Configuration ---------------------------*/
  if(((RCC_ClkInitStruct->ClockType) & RCC_CLOCKTYPE_PCLK1) == RCC_CLOCKTYPE_PCLK1)
 80014e0:	687b      	ldr	r3, [r7, #4]
 80014e2:	681b      	ldr	r3, [r3, #0]
 80014e4:	f003 0304 	and.w	r3, r3, #4
 80014e8:	2b00      	cmp	r3, #0
 80014ea:	d008      	beq.n	80014fe <HAL_RCC_ClockConfig+0x166>
  {
    assert_param(IS_RCC_PCLK(RCC_ClkInitStruct->APB1CLKDivider));
    MODIFY_REG(RCC->CFGR, RCC_CFGR_PPRE1, RCC_ClkInitStruct->APB1CLKDivider);
 80014ec:	4b19      	ldr	r3, [pc, #100]	; (8001554 <HAL_RCC_ClockConfig+0x1bc>)
 80014ee:	689b      	ldr	r3, [r3, #8]
 80014f0:	f423 52e0 	bic.w	r2, r3, #7168	; 0x1c00
 80014f4:	687b      	ldr	r3, [r7, #4]
 80014f6:	68db      	ldr	r3, [r3, #12]
 80014f8:	4916      	ldr	r1, [pc, #88]	; (8001554 <HAL_RCC_ClockConfig+0x1bc>)
 80014fa:	4313      	orrs	r3, r2
 80014fc:	608b      	str	r3, [r1, #8]
  }

  /*-------------------------- PCLK2 Configuration ---------------------------*/
  if(((RCC_ClkInitStruct->ClockType) & RCC_CLOCKTYPE_PCLK2) == RCC_CLOCKTYPE_PCLK2)
 80014fe:	687b      	ldr	r3, [r7, #4]
 8001500:	681b      	ldr	r3, [r3, #0]
 8001502:	f003 0308 	and.w	r3, r3, #8
 8001506:	2b00      	cmp	r3, #0
 8001508:	d009      	beq.n	800151e <HAL_RCC_ClockConfig+0x186>
  {
    assert_param(IS_RCC_PCLK(RCC_ClkInitStruct->APB2CLKDivider));
    MODIFY_REG(RCC->CFGR, RCC_CFGR_PPRE2, ((RCC_ClkInitStruct->APB2CLKDivider) << 3U));
 800150a:	4b12      	ldr	r3, [pc, #72]	; (8001554 <HAL_RCC_ClockConfig+0x1bc>)
 800150c:	689b      	ldr	r3, [r3, #8]
 800150e:	f423 4260 	bic.w	r2, r3, #57344	; 0xe000
 8001512:	687b      	ldr	r3, [r7, #4]
 8001514:	691b      	ldr	r3, [r3, #16]
 8001516:	00db      	lsls	r3, r3, #3
 8001518:	490e      	ldr	r1, [pc, #56]	; (8001554 <HAL_RCC_ClockConfig+0x1bc>)
 800151a:	4313      	orrs	r3, r2
 800151c:	608b      	str	r3, [r1, #8]
  }

  /* Update the SystemCoreClock global variable */
  SystemCoreClock = HAL_RCC_GetSysClockFreq() >> AHBPrescTable[(RCC->CFGR & RCC_CFGR_HPRE)>> RCC_CFGR_HPRE_Pos];
 800151e:	f000 f821 	bl	8001564 <HAL_RCC_GetSysClockFreq>
 8001522:	4602      	mov	r2, r0
 8001524:	4b0b      	ldr	r3, [pc, #44]	; (8001554 <HAL_RCC_ClockConfig+0x1bc>)
 8001526:	689b      	ldr	r3, [r3, #8]
 8001528:	091b      	lsrs	r3, r3, #4
 800152a:	f003 030f 	and.w	r3, r3, #15
 800152e:	490a      	ldr	r1, [pc, #40]	; (8001558 <HAL_RCC_ClockConfig+0x1c0>)
 8001530:	5ccb      	ldrb	r3, [r1, r3]
 8001532:	fa22 f303 	lsr.w	r3, r2, r3
 8001536:	4a09      	ldr	r2, [pc, #36]	; (800155c <HAL_RCC_ClockConfig+0x1c4>)
 8001538:	6013      	str	r3, [r2, #0]

  /* Configure the source of time base considering new system clocks settings */
  HAL_InitTick (uwTickPrio);
 800153a:	4b09      	ldr	r3, [pc, #36]	; (8001560 <HAL_RCC_ClockConfig+0x1c8>)
 800153c:	681b      	ldr	r3, [r3, #0]
 800153e:	4618      	mov	r0, r3
 8001540:	f7ff f9c6 	bl	80008d0 <HAL_InitTick>

  return HAL_OK;
 8001544:	2300      	movs	r3, #0
}
 8001546:	4618      	mov	r0, r3
 8001548:	3710      	adds	r7, #16
 800154a:	46bd      	mov	sp, r7
 800154c:	bd80      	pop	{r7, pc}
 800154e:	bf00      	nop
 8001550:	40023c00 	.word	0x40023c00
 8001554:	40023800 	.word	0x40023800
 8001558:	08001cd8 	.word	0x08001cd8
 800155c:	20000000 	.word	0x20000000
 8001560:	20000004 	.word	0x20000004

08001564 <HAL_RCC_GetSysClockFreq>:
  *
  *
  * @retval SYSCLK frequency
  */
__weak uint32_t HAL_RCC_GetSysClockFreq(void)
{
 8001564:	b5b0      	push	{r4, r5, r7, lr}
 8001566:	b084      	sub	sp, #16
 8001568:	af00      	add	r7, sp, #0
  uint32_t pllm = 0U, pllvco = 0U, pllp = 0U;
 800156a:	2100      	movs	r1, #0
 800156c:	6079      	str	r1, [r7, #4]
 800156e:	2100      	movs	r1, #0
 8001570:	60f9      	str	r1, [r7, #12]
 8001572:	2100      	movs	r1, #0
 8001574:	6039      	str	r1, [r7, #0]
  uint32_t sysclockfreq = 0U;
 8001576:	2100      	movs	r1, #0
 8001578:	60b9      	str	r1, [r7, #8]

  /* Get SYSCLK source -------------------------------------------------------*/
  switch (RCC->CFGR & RCC_CFGR_SWS)
 800157a:	4952      	ldr	r1, [pc, #328]	; (80016c4 <HAL_RCC_GetSysClockFreq+0x160>)
 800157c:	6889      	ldr	r1, [r1, #8]
 800157e:	f001 010c 	and.w	r1, r1, #12
 8001582:	2908      	cmp	r1, #8
 8001584:	d00d      	beq.n	80015a2 <HAL_RCC_GetSysClockFreq+0x3e>
 8001586:	2908      	cmp	r1, #8
 8001588:	f200 8094 	bhi.w	80016b4 <HAL_RCC_GetSysClockFreq+0x150>
 800158c:	2900      	cmp	r1, #0
 800158e:	d002      	beq.n	8001596 <HAL_RCC_GetSysClockFreq+0x32>
 8001590:	2904      	cmp	r1, #4
 8001592:	d003      	beq.n	800159c <HAL_RCC_GetSysClockFreq+0x38>
 8001594:	e08e      	b.n	80016b4 <HAL_RCC_GetSysClockFreq+0x150>
  {
    case RCC_CFGR_SWS_HSI:  /* HSI used as system clock source */
    {
      sysclockfreq = HSI_VALUE;
 8001596:	4b4c      	ldr	r3, [pc, #304]	; (80016c8 <HAL_RCC_GetSysClockFreq+0x164>)
 8001598:	60bb      	str	r3, [r7, #8]
       break;
 800159a:	e08e      	b.n	80016ba <HAL_RCC_GetSysClockFreq+0x156>
    }
    case RCC_CFGR_SWS_HSE:  /* HSE used as system clock  source */
    {
      sysclockfreq = HSE_VALUE;
 800159c:	4b4b      	ldr	r3, [pc, #300]	; (80016cc <HAL_RCC_GetSysClockFreq+0x168>)
 800159e:	60bb      	str	r3, [r7, #8]
      break;
 80015a0:	e08b      	b.n	80016ba <HAL_RCC_GetSysClockFreq+0x156>
    }
    case RCC_CFGR_SWS_PLL:  /* PLL used as system clock  source */
    {
      /* PLL_VCO = (HSE_VALUE or HSI_VALUE / PLLM) * PLLN
      SYSCLK = PLL_VCO / PLLP */
      pllm = RCC->PLLCFGR & RCC_PLLCFGR_PLLM;
 80015a2:	4948      	ldr	r1, [pc, #288]	; (80016c4 <HAL_RCC_GetSysClockFreq+0x160>)
 80015a4:	6849      	ldr	r1, [r1, #4]
 80015a6:	f001 013f 	and.w	r1, r1, #63	; 0x3f
 80015aa:	6079      	str	r1, [r7, #4]
      if(__HAL_RCC_GET_PLL_OSCSOURCE() != RCC_PLLSOURCE_HSI)
 80015ac:	4945      	ldr	r1, [pc, #276]	; (80016c4 <HAL_RCC_GetSysClockFreq+0x160>)
 80015ae:	6849      	ldr	r1, [r1, #4]
 80015b0:	f401 0180 	and.w	r1, r1, #4194304	; 0x400000
 80015b4:	2900      	cmp	r1, #0
 80015b6:	d024      	beq.n	8001602 <HAL_RCC_GetSysClockFreq+0x9e>
      {
        /* HSE used as PLL clock source */
        pllvco = (uint32_t) ((((uint64_t) HSE_VALUE * ((uint64_t) ((RCC->PLLCFGR & RCC_PLLCFGR_PLLN) >> RCC_PLLCFGR_PLLN_Pos)))) / (uint64_t)pllm);
 80015b8:	4942      	ldr	r1, [pc, #264]	; (80016c4 <HAL_RCC_GetSysClockFreq+0x160>)
 80015ba:	6849      	ldr	r1, [r1, #4]
 80015bc:	0989      	lsrs	r1, r1, #6
 80015be:	4608      	mov	r0, r1
 80015c0:	f04f 0100 	mov.w	r1, #0
 80015c4:	f240 14ff 	movw	r4, #511	; 0x1ff
 80015c8:	f04f 0500 	mov.w	r5, #0
 80015cc:	ea00 0204 	and.w	r2, r0, r4
 80015d0:	ea01 0305 	and.w	r3, r1, r5
 80015d4:	493d      	ldr	r1, [pc, #244]	; (80016cc <HAL_RCC_GetSysClockFreq+0x168>)
 80015d6:	fb01 f003 	mul.w	r0, r1, r3
 80015da:	2100      	movs	r1, #0
 80015dc:	fb01 f102 	mul.w	r1, r1, r2
 80015e0:	1844      	adds	r4, r0, r1
 80015e2:	493a      	ldr	r1, [pc, #232]	; (80016cc <HAL_RCC_GetSysClockFreq+0x168>)
 80015e4:	fba2 0101 	umull	r0, r1, r2, r1
 80015e8:	1863      	adds	r3, r4, r1
 80015ea:	4619      	mov	r1, r3
 80015ec:	687b      	ldr	r3, [r7, #4]
 80015ee:	461a      	mov	r2, r3
 80015f0:	f04f 0300 	mov.w	r3, #0
 80015f4:	f7fe fde8 	bl	80001c8 <__aeabi_uldivmod>
 80015f8:	4602      	mov	r2, r0
 80015fa:	460b      	mov	r3, r1
 80015fc:	4613      	mov	r3, r2
 80015fe:	60fb      	str	r3, [r7, #12]
 8001600:	e04a      	b.n	8001698 <HAL_RCC_GetSysClockFreq+0x134>
      }
      else
      {
        /* HSI used as PLL clock source */
        pllvco = (uint32_t) ((((uint64_t) HSI_VALUE * ((uint64_t) ((RCC->PLLCFGR & RCC_PLLCFGR_PLLN) >> RCC_PLLCFGR_PLLN_Pos)))) / (uint64_t)pllm);
 8001602:	4b30      	ldr	r3, [pc, #192]	; (80016c4 <HAL_RCC_GetSysClockFreq+0x160>)
 8001604:	685b      	ldr	r3, [r3, #4]
 8001606:	099b      	lsrs	r3, r3, #6
 8001608:	461a      	mov	r2, r3
 800160a:	f04f 0300 	mov.w	r3, #0
 800160e:	f240 10ff 	movw	r0, #511	; 0x1ff
 8001612:	f04f 0100 	mov.w	r1, #0
 8001616:	ea02 0400 	and.w	r4, r2, r0
 800161a:	ea03 0501 	and.w	r5, r3, r1
 800161e:	4620      	mov	r0, r4
 8001620:	4629      	mov	r1, r5
 8001622:	f04f 0200 	mov.w	r2, #0
 8001626:	f04f 0300 	mov.w	r3, #0
 800162a:	014b      	lsls	r3, r1, #5
 800162c:	ea43 63d0 	orr.w	r3, r3, r0, lsr #27
 8001630:	0142      	lsls	r2, r0, #5
 8001632:	4610      	mov	r0, r2
 8001634:	4619      	mov	r1, r3
 8001636:	1b00      	subs	r0, r0, r4
 8001638:	eb61 0105 	sbc.w	r1, r1, r5
 800163c:	f04f 0200 	mov.w	r2, #0
 8001640:	f04f 0300 	mov.w	r3, #0
 8001644:	018b      	lsls	r3, r1, #6
 8001646:	ea43 6390 	orr.w	r3, r3, r0, lsr #26
 800164a:	0182      	lsls	r2, r0, #6
 800164c:	1a12      	subs	r2, r2, r0
 800164e:	eb63 0301 	sbc.w	r3, r3, r1
 8001652:	f04f 0000 	mov.w	r0, #0
 8001656:	f04f 0100 	mov.w	r1, #0
 800165a:	00d9      	lsls	r1, r3, #3
 800165c:	ea41 7152 	orr.w	r1, r1, r2, lsr #29
 8001660:	00d0      	lsls	r0, r2, #3
 8001662:	4602      	mov	r2, r0
 8001664:	460b      	mov	r3, r1
 8001666:	1912      	adds	r2, r2, r4
 8001668:	eb45 0303 	adc.w	r3, r5, r3
 800166c:	f04f 0000 	mov.w	r0, #0
 8001670:	f04f 0100 	mov.w	r1, #0
 8001674:	0299      	lsls	r1, r3, #10
 8001676:	ea41 5192 	orr.w	r1, r1, r2, lsr #22
 800167a:	0290      	lsls	r0, r2, #10
 800167c:	4602      	mov	r2, r0
 800167e:	460b      	mov	r3, r1
 8001680:	4610      	mov	r0, r2
 8001682:	4619      	mov	r1, r3
 8001684:	687b      	ldr	r3, [r7, #4]
 8001686:	461a      	mov	r2, r3
 8001688:	f04f 0300 	mov.w	r3, #0
 800168c:	f7fe fd9c 	bl	80001c8 <__aeabi_uldivmod>
 8001690:	4602      	mov	r2, r0
 8001692:	460b      	mov	r3, r1
 8001694:	4613      	mov	r3, r2
 8001696:	60fb      	str	r3, [r7, #12]
      }
      pllp = ((((RCC->PLLCFGR & RCC_PLLCFGR_PLLP) >> RCC_PLLCFGR_PLLP_Pos) + 1U) *2U);
 8001698:	4b0a      	ldr	r3, [pc, #40]	; (80016c4 <HAL_RCC_GetSysClockFreq+0x160>)
 800169a:	685b      	ldr	r3, [r3, #4]
 800169c:	0c1b      	lsrs	r3, r3, #16
 800169e:	f003 0303 	and.w	r3, r3, #3
 80016a2:	3301      	adds	r3, #1
 80016a4:	005b      	lsls	r3, r3, #1
 80016a6:	603b      	str	r3, [r7, #0]

      sysclockfreq = pllvco/pllp;
 80016a8:	68fa      	ldr	r2, [r7, #12]
 80016aa:	683b      	ldr	r3, [r7, #0]
 80016ac:	fbb2 f3f3 	udiv	r3, r2, r3
 80016b0:	60bb      	str	r3, [r7, #8]
      break;
 80016b2:	e002      	b.n	80016ba <HAL_RCC_GetSysClockFreq+0x156>
    }
    default:
    {
      sysclockfreq = HSI_VALUE;
 80016b4:	4b04      	ldr	r3, [pc, #16]	; (80016c8 <HAL_RCC_GetSysClockFreq+0x164>)
 80016b6:	60bb      	str	r3, [r7, #8]
      break;
 80016b8:	bf00      	nop
    }
  }
  return sysclockfreq;
 80016ba:	68bb      	ldr	r3, [r7, #8]
}
 80016bc:	4618      	mov	r0, r3
 80016be:	3710      	adds	r7, #16
 80016c0:	46bd      	mov	sp, r7
 80016c2:	bdb0      	pop	{r4, r5, r7, pc}
 80016c4:	40023800 	.word	0x40023800
 80016c8:	00f42400 	.word	0x00f42400
 80016cc:	017d7840 	.word	0x017d7840

080016d0 <HAL_TIM_Base_Init>:
  *         Ex: call @ref HAL_TIM_Base_DeInit() before HAL_TIM_Base_Init()
  * @param  htim TIM Base handle
  * @retval HAL status
  */
HAL_StatusTypeDef HAL_TIM_Base_Init(TIM_HandleTypeDef *htim)
{
 80016d0:	b580      	push	{r7, lr}
 80016d2:	b082      	sub	sp, #8
 80016d4:	af00      	add	r7, sp, #0
 80016d6:	6078      	str	r0, [r7, #4]
  /* Check the TIM handle allocation */
  if (htim == NULL)
 80016d8:	687b      	ldr	r3, [r7, #4]
 80016da:	2b00      	cmp	r3, #0
 80016dc:	d101      	bne.n	80016e2 <HAL_TIM_Base_Init+0x12>
  {
    return HAL_ERROR;
 80016de:	2301      	movs	r3, #1
 80016e0:	e041      	b.n	8001766 <HAL_TIM_Base_Init+0x96>
  assert_param(IS_TIM_INSTANCE(htim->Instance));
  assert_param(IS_TIM_COUNTER_MODE(htim->Init.CounterMode));
  assert_param(IS_TIM_CLOCKDIVISION_DIV(htim->Init.ClockDivision));
  assert_param(IS_TIM_AUTORELOAD_PRELOAD(htim->Init.AutoReloadPreload));

  if (htim->State == HAL_TIM_STATE_RESET)
 80016e2:	687b      	ldr	r3, [r7, #4]
 80016e4:	f893 303d 	ldrb.w	r3, [r3, #61]	; 0x3d
 80016e8:	b2db      	uxtb	r3, r3
 80016ea:	2b00      	cmp	r3, #0
 80016ec:	d106      	bne.n	80016fc <HAL_TIM_Base_Init+0x2c>
  {
    /* Allocate lock resource and initialize it */
    htim->Lock = HAL_UNLOCKED;
 80016ee:	687b      	ldr	r3, [r7, #4]
 80016f0:	2200      	movs	r2, #0
 80016f2:	f883 203c 	strb.w	r2, [r3, #60]	; 0x3c
    }
    /* Init the low level hardware : GPIO, CLOCK, NVIC */
    htim->Base_MspInitCallback(htim);
#else
    /* Init the low level hardware : GPIO, CLOCK, NVIC */
    HAL_TIM_Base_MspInit(htim);
 80016f6:	6878      	ldr	r0, [r7, #4]
 80016f8:	f7ff f840 	bl	800077c <HAL_TIM_Base_MspInit>
#endif /* USE_HAL_TIM_REGISTER_CALLBACKS */
  }

  /* Set the TIM state */
  htim->State = HAL_TIM_STATE_BUSY;
 80016fc:	687b      	ldr	r3, [r7, #4]
 80016fe:	2202      	movs	r2, #2
 8001700:	f883 203d 	strb.w	r2, [r3, #61]	; 0x3d

  /* Set the Time Base configuration */
  TIM_Base_SetConfig(htim->Instance, &htim->Init);
 8001704:	687b      	ldr	r3, [r7, #4]
 8001706:	681a      	ldr	r2, [r3, #0]
 8001708:	687b      	ldr	r3, [r7, #4]
 800170a:	3304      	adds	r3, #4
 800170c:	4619      	mov	r1, r3
 800170e:	4610      	mov	r0, r2
 8001710:	f000 f8f4 	bl	80018fc <TIM_Base_SetConfig>

  /* Initialize the DMA burst operation state */
  htim->DMABurstState = HAL_DMA_BURST_STATE_READY;
 8001714:	687b      	ldr	r3, [r7, #4]
 8001716:	2201      	movs	r2, #1
 8001718:	f883 2046 	strb.w	r2, [r3, #70]	; 0x46

  /* Initialize the TIM channels state */
  TIM_CHANNEL_STATE_SET_ALL(htim, HAL_TIM_CHANNEL_STATE_READY);
 800171c:	687b      	ldr	r3, [r7, #4]
 800171e:	2201      	movs	r2, #1
 8001720:	f883 203e 	strb.w	r2, [r3, #62]	; 0x3e
 8001724:	687b      	ldr	r3, [r7, #4]
 8001726:	2201      	movs	r2, #1
 8001728:	f883 203f 	strb.w	r2, [r3, #63]	; 0x3f
 800172c:	687b      	ldr	r3, [r7, #4]
 800172e:	2201      	movs	r2, #1
 8001730:	f883 2040 	strb.w	r2, [r3, #64]	; 0x40
 8001734:	687b      	ldr	r3, [r7, #4]
 8001736:	2201      	movs	r2, #1
 8001738:	f883 2041 	strb.w	r2, [r3, #65]	; 0x41
  TIM_CHANNEL_N_STATE_SET_ALL(htim, HAL_TIM_CHANNEL_STATE_READY);
 800173c:	687b      	ldr	r3, [r7, #4]
 800173e:	2201      	movs	r2, #1
 8001740:	f883 2042 	strb.w	r2, [r3, #66]	; 0x42
 8001744:	687b      	ldr	r3, [r7, #4]
 8001746:	2201      	movs	r2, #1
 8001748:	f883 2043 	strb.w	r2, [r3, #67]	; 0x43
 800174c:	687b      	ldr	r3, [r7, #4]
 800174e:	2201      	movs	r2, #1
 8001750:	f883 2044 	strb.w	r2, [r3, #68]	; 0x44
 8001754:	687b      	ldr	r3, [r7, #4]
 8001756:	2201      	movs	r2, #1
 8001758:	f883 2045 	strb.w	r2, [r3, #69]	; 0x45

  /* Initialize the TIM state*/
  htim->State = HAL_TIM_STATE_READY;
 800175c:	687b      	ldr	r3, [r7, #4]
 800175e:	2201      	movs	r2, #1
 8001760:	f883 203d 	strb.w	r2, [r3, #61]	; 0x3d

  return HAL_OK;
 8001764:	2300      	movs	r3, #0
}
 8001766:	4618      	mov	r0, r3
 8001768:	3708      	adds	r7, #8
 800176a:	46bd      	mov	sp, r7
 800176c:	bd80      	pop	{r7, pc}

0800176e <HAL_TIM_ConfigClockSource>:
  * @param  sClockSourceConfig pointer to a TIM_ClockConfigTypeDef structure that
  *         contains the clock source information for the TIM peripheral.
  * @retval HAL status
  */
HAL_StatusTypeDef HAL_TIM_ConfigClockSource(TIM_HandleTypeDef *htim, TIM_ClockConfigTypeDef *sClockSourceConfig)
{
 800176e:	b580      	push	{r7, lr}
 8001770:	b084      	sub	sp, #16
 8001772:	af00      	add	r7, sp, #0
 8001774:	6078      	str	r0, [r7, #4]
 8001776:	6039      	str	r1, [r7, #0]
  HAL_StatusTypeDef status = HAL_OK;
 8001778:	2300      	movs	r3, #0
 800177a:	73fb      	strb	r3, [r7, #15]
  uint32_t tmpsmcr;

  /* Process Locked */
  __HAL_LOCK(htim);
 800177c:	687b      	ldr	r3, [r7, #4]
 800177e:	f893 303c 	ldrb.w	r3, [r3, #60]	; 0x3c
 8001782:	2b01      	cmp	r3, #1
 8001784:	d101      	bne.n	800178a <HAL_TIM_ConfigClockSource+0x1c>
 8001786:	2302      	movs	r3, #2
 8001788:	e0b4      	b.n	80018f4 <HAL_TIM_ConfigClockSource+0x186>
 800178a:	687b      	ldr	r3, [r7, #4]
 800178c:	2201      	movs	r2, #1
 800178e:	f883 203c 	strb.w	r2, [r3, #60]	; 0x3c

  htim->State = HAL_TIM_STATE_BUSY;
 8001792:	687b      	ldr	r3, [r7, #4]
 8001794:	2202      	movs	r2, #2
 8001796:	f883 203d 	strb.w	r2, [r3, #61]	; 0x3d

  /* Check the parameters */
  assert_param(IS_TIM_CLOCKSOURCE(sClockSourceConfig->ClockSource));

  /* Reset the SMS, TS, ECE, ETPS and ETRF bits */
  tmpsmcr = htim->Instance->SMCR;
 800179a:	687b      	ldr	r3, [r7, #4]
 800179c:	681b      	ldr	r3, [r3, #0]
 800179e:	689b      	ldr	r3, [r3, #8]
 80017a0:	60bb      	str	r3, [r7, #8]
  tmpsmcr &= ~(TIM_SMCR_SMS | TIM_SMCR_TS);
 80017a2:	68bb      	ldr	r3, [r7, #8]
 80017a4:	f023 0377 	bic.w	r3, r3, #119	; 0x77
 80017a8:	60bb      	str	r3, [r7, #8]
  tmpsmcr &= ~(TIM_SMCR_ETF | TIM_SMCR_ETPS | TIM_SMCR_ECE | TIM_SMCR_ETP);
 80017aa:	68bb      	ldr	r3, [r7, #8]
 80017ac:	f423 437f 	bic.w	r3, r3, #65280	; 0xff00
 80017b0:	60bb      	str	r3, [r7, #8]
  htim->Instance->SMCR = tmpsmcr;
 80017b2:	687b      	ldr	r3, [r7, #4]
 80017b4:	681b      	ldr	r3, [r3, #0]
 80017b6:	68ba      	ldr	r2, [r7, #8]
 80017b8:	609a      	str	r2, [r3, #8]

  switch (sClockSourceConfig->ClockSource)
 80017ba:	683b      	ldr	r3, [r7, #0]
 80017bc:	681b      	ldr	r3, [r3, #0]
 80017be:	f5b3 5f00 	cmp.w	r3, #8192	; 0x2000
 80017c2:	d03e      	beq.n	8001842 <HAL_TIM_ConfigClockSource+0xd4>
 80017c4:	f5b3 5f00 	cmp.w	r3, #8192	; 0x2000
 80017c8:	f200 8087 	bhi.w	80018da <HAL_TIM_ConfigClockSource+0x16c>
 80017cc:	f5b3 5f80 	cmp.w	r3, #4096	; 0x1000
 80017d0:	f000 8086 	beq.w	80018e0 <HAL_TIM_ConfigClockSource+0x172>
 80017d4:	f5b3 5f80 	cmp.w	r3, #4096	; 0x1000
 80017d8:	d87f      	bhi.n	80018da <HAL_TIM_ConfigClockSource+0x16c>
 80017da:	2b70      	cmp	r3, #112	; 0x70
 80017dc:	d01a      	beq.n	8001814 <HAL_TIM_ConfigClockSource+0xa6>
 80017de:	2b70      	cmp	r3, #112	; 0x70
 80017e0:	d87b      	bhi.n	80018da <HAL_TIM_ConfigClockSource+0x16c>
 80017e2:	2b60      	cmp	r3, #96	; 0x60
 80017e4:	d050      	beq.n	8001888 <HAL_TIM_ConfigClockSource+0x11a>
 80017e6:	2b60      	cmp	r3, #96	; 0x60
 80017e8:	d877      	bhi.n	80018da <HAL_TIM_ConfigClockSource+0x16c>
 80017ea:	2b50      	cmp	r3, #80	; 0x50
 80017ec:	d03c      	beq.n	8001868 <HAL_TIM_ConfigClockSource+0xfa>
 80017ee:	2b50      	cmp	r3, #80	; 0x50
 80017f0:	d873      	bhi.n	80018da <HAL_TIM_ConfigClockSource+0x16c>
 80017f2:	2b40      	cmp	r3, #64	; 0x40
 80017f4:	d058      	beq.n	80018a8 <HAL_TIM_ConfigClockSource+0x13a>
 80017f6:	2b40      	cmp	r3, #64	; 0x40
 80017f8:	d86f      	bhi.n	80018da <HAL_TIM_ConfigClockSource+0x16c>
 80017fa:	2b30      	cmp	r3, #48	; 0x30
 80017fc:	d064      	beq.n	80018c8 <HAL_TIM_ConfigClockSource+0x15a>
 80017fe:	2b30      	cmp	r3, #48	; 0x30
 8001800:	d86b      	bhi.n	80018da <HAL_TIM_ConfigClockSource+0x16c>
 8001802:	2b20      	cmp	r3, #32
 8001804:	d060      	beq.n	80018c8 <HAL_TIM_ConfigClockSource+0x15a>
 8001806:	2b20      	cmp	r3, #32
 8001808:	d867      	bhi.n	80018da <HAL_TIM_ConfigClockSource+0x16c>
 800180a:	2b00      	cmp	r3, #0
 800180c:	d05c      	beq.n	80018c8 <HAL_TIM_ConfigClockSource+0x15a>
 800180e:	2b10      	cmp	r3, #16
 8001810:	d05a      	beq.n	80018c8 <HAL_TIM_ConfigClockSource+0x15a>
 8001812:	e062      	b.n	80018da <HAL_TIM_ConfigClockSource+0x16c>
      assert_param(IS_TIM_CLOCKPRESCALER(sClockSourceConfig->ClockPrescaler));
      assert_param(IS_TIM_CLOCKPOLARITY(sClockSourceConfig->ClockPolarity));
      assert_param(IS_TIM_CLOCKFILTER(sClockSourceConfig->ClockFilter));

      /* Configure the ETR Clock source */
      TIM_ETR_SetConfig(htim->Instance,
 8001814:	687b      	ldr	r3, [r7, #4]
 8001816:	6818      	ldr	r0, [r3, #0]
 8001818:	683b      	ldr	r3, [r7, #0]
 800181a:	6899      	ldr	r1, [r3, #8]
 800181c:	683b      	ldr	r3, [r7, #0]
 800181e:	685a      	ldr	r2, [r3, #4]
 8001820:	683b      	ldr	r3, [r7, #0]
 8001822:	68db      	ldr	r3, [r3, #12]
 8001824:	f000 f984 	bl	8001b30 <TIM_ETR_SetConfig>
                        sClockSourceConfig->ClockPrescaler,
                        sClockSourceConfig->ClockPolarity,
                        sClockSourceConfig->ClockFilter);

      /* Select the External clock mode1 and the ETRF trigger */
      tmpsmcr = htim->Instance->SMCR;
 8001828:	687b      	ldr	r3, [r7, #4]
 800182a:	681b      	ldr	r3, [r3, #0]
 800182c:	689b      	ldr	r3, [r3, #8]
 800182e:	60bb      	str	r3, [r7, #8]
      tmpsmcr |= (TIM_SLAVEMODE_EXTERNAL1 | TIM_CLOCKSOURCE_ETRMODE1);
 8001830:	68bb      	ldr	r3, [r7, #8]
 8001832:	f043 0377 	orr.w	r3, r3, #119	; 0x77
 8001836:	60bb      	str	r3, [r7, #8]
      /* Write to TIMx SMCR */
      htim->Instance->SMCR = tmpsmcr;
 8001838:	687b      	ldr	r3, [r7, #4]
 800183a:	681b      	ldr	r3, [r3, #0]
 800183c:	68ba      	ldr	r2, [r7, #8]
 800183e:	609a      	str	r2, [r3, #8]
      break;
 8001840:	e04f      	b.n	80018e2 <HAL_TIM_ConfigClockSource+0x174>
      assert_param(IS_TIM_CLOCKPRESCALER(sClockSourceConfig->ClockPrescaler));
      assert_param(IS_TIM_CLOCKPOLARITY(sClockSourceConfig->ClockPolarity));
      assert_param(IS_TIM_CLOCKFILTER(sClockSourceConfig->ClockFilter));

      /* Configure the ETR Clock source */
      TIM_ETR_SetConfig(htim->Instance,
 8001842:	687b      	ldr	r3, [r7, #4]
 8001844:	6818      	ldr	r0, [r3, #0]
 8001846:	683b      	ldr	r3, [r7, #0]
 8001848:	6899      	ldr	r1, [r3, #8]
 800184a:	683b      	ldr	r3, [r7, #0]
 800184c:	685a      	ldr	r2, [r3, #4]
 800184e:	683b      	ldr	r3, [r7, #0]
 8001850:	68db      	ldr	r3, [r3, #12]
 8001852:	f000 f96d 	bl	8001b30 <TIM_ETR_SetConfig>
                        sClockSourceConfig->ClockPrescaler,
                        sClockSourceConfig->ClockPolarity,
                        sClockSourceConfig->ClockFilter);
      /* Enable the External clock mode2 */
      htim->Instance->SMCR |= TIM_SMCR_ECE;
 8001856:	687b      	ldr	r3, [r7, #4]
 8001858:	681b      	ldr	r3, [r3, #0]
 800185a:	689a      	ldr	r2, [r3, #8]
 800185c:	687b      	ldr	r3, [r7, #4]
 800185e:	681b      	ldr	r3, [r3, #0]
 8001860:	f442 4280 	orr.w	r2, r2, #16384	; 0x4000
 8001864:	609a      	str	r2, [r3, #8]
      break;
 8001866:	e03c      	b.n	80018e2 <HAL_TIM_ConfigClockSource+0x174>

      /* Check TI1 input conditioning related parameters */
      assert_param(IS_TIM_CLOCKPOLARITY(sClockSourceConfig->ClockPolarity));
      assert_param(IS_TIM_CLOCKFILTER(sClockSourceConfig->ClockFilter));

      TIM_TI1_ConfigInputStage(htim->Instance,
 8001868:	687b      	ldr	r3, [r7, #4]
 800186a:	6818      	ldr	r0, [r3, #0]
 800186c:	683b      	ldr	r3, [r7, #0]
 800186e:	6859      	ldr	r1, [r3, #4]
 8001870:	683b      	ldr	r3, [r7, #0]
 8001872:	68db      	ldr	r3, [r3, #12]
 8001874:	461a      	mov	r2, r3
 8001876:	f000 f8e1 	bl	8001a3c <TIM_TI1_ConfigInputStage>
                               sClockSourceConfig->ClockPolarity,
                               sClockSourceConfig->ClockFilter);
      TIM_ITRx_SetConfig(htim->Instance, TIM_CLOCKSOURCE_TI1);
 800187a:	687b      	ldr	r3, [r7, #4]
 800187c:	681b      	ldr	r3, [r3, #0]
 800187e:	2150      	movs	r1, #80	; 0x50
 8001880:	4618      	mov	r0, r3
 8001882:	f000 f93a 	bl	8001afa <TIM_ITRx_SetConfig>
      break;
 8001886:	e02c      	b.n	80018e2 <HAL_TIM_ConfigClockSource+0x174>

      /* Check TI2 input conditioning related parameters */
      assert_param(IS_TIM_CLOCKPOLARITY(sClockSourceConfig->ClockPolarity));
      assert_param(IS_TIM_CLOCKFILTER(sClockSourceConfig->ClockFilter));

      TIM_TI2_ConfigInputStage(htim->Instance,
 8001888:	687b      	ldr	r3, [r7, #4]
 800188a:	6818      	ldr	r0, [r3, #0]
 800188c:	683b      	ldr	r3, [r7, #0]
 800188e:	6859      	ldr	r1, [r3, #4]
 8001890:	683b      	ldr	r3, [r7, #0]
 8001892:	68db      	ldr	r3, [r3, #12]
 8001894:	461a      	mov	r2, r3
 8001896:	f000 f900 	bl	8001a9a <TIM_TI2_ConfigInputStage>
                               sClockSourceConfig->ClockPolarity,
                               sClockSourceConfig->ClockFilter);
      TIM_ITRx_SetConfig(htim->Instance, TIM_CLOCKSOURCE_TI2);
 800189a:	687b      	ldr	r3, [r7, #4]
 800189c:	681b      	ldr	r3, [r3, #0]
 800189e:	2160      	movs	r1, #96	; 0x60
 80018a0:	4618      	mov	r0, r3
 80018a2:	f000 f92a 	bl	8001afa <TIM_ITRx_SetConfig>
      break;
 80018a6:	e01c      	b.n	80018e2 <HAL_TIM_ConfigClockSource+0x174>

      /* Check TI1 input conditioning related parameters */
      assert_param(IS_TIM_CLOCKPOLARITY(sClockSourceConfig->ClockPolarity));
      assert_param(IS_TIM_CLOCKFILTER(sClockSourceConfig->ClockFilter));

      TIM_TI1_ConfigInputStage(htim->Instance,
 80018a8:	687b      	ldr	r3, [r7, #4]
 80018aa:	6818      	ldr	r0, [r3, #0]
 80018ac:	683b      	ldr	r3, [r7, #0]
 80018ae:	6859      	ldr	r1, [r3, #4]
 80018b0:	683b      	ldr	r3, [r7, #0]
 80018b2:	68db      	ldr	r3, [r3, #12]
 80018b4:	461a      	mov	r2, r3
 80018b6:	f000 f8c1 	bl	8001a3c <TIM_TI1_ConfigInputStage>
                               sClockSourceConfig->ClockPolarity,
                               sClockSourceConfig->ClockFilter);
      TIM_ITRx_SetConfig(htim->Instance, TIM_CLOCKSOURCE_TI1ED);
 80018ba:	687b      	ldr	r3, [r7, #4]
 80018bc:	681b      	ldr	r3, [r3, #0]
 80018be:	2140      	movs	r1, #64	; 0x40
 80018c0:	4618      	mov	r0, r3
 80018c2:	f000 f91a 	bl	8001afa <TIM_ITRx_SetConfig>
      break;
 80018c6:	e00c      	b.n	80018e2 <HAL_TIM_ConfigClockSource+0x174>
    case TIM_CLOCKSOURCE_ITR3:
    {
      /* Check whether or not the timer instance supports internal trigger input */
      assert_param(IS_TIM_CLOCKSOURCE_ITRX_INSTANCE(htim->Instance));

      TIM_ITRx_SetConfig(htim->Instance, sClockSourceConfig->ClockSource);
 80018c8:	687b      	ldr	r3, [r7, #4]
 80018ca:	681a      	ldr	r2, [r3, #0]
 80018cc:	683b      	ldr	r3, [r7, #0]
 80018ce:	681b      	ldr	r3, [r3, #0]
 80018d0:	4619      	mov	r1, r3
 80018d2:	4610      	mov	r0, r2
 80018d4:	f000 f911 	bl	8001afa <TIM_ITRx_SetConfig>
      break;
 80018d8:	e003      	b.n	80018e2 <HAL_TIM_ConfigClockSource+0x174>
    }

    default:
      status = HAL_ERROR;
 80018da:	2301      	movs	r3, #1
 80018dc:	73fb      	strb	r3, [r7, #15]
      break;
 80018de:	e000      	b.n	80018e2 <HAL_TIM_ConfigClockSource+0x174>
      break;
 80018e0:	bf00      	nop
  }
  htim->State = HAL_TIM_STATE_READY;
 80018e2:	687b      	ldr	r3, [r7, #4]
 80018e4:	2201      	movs	r2, #1
 80018e6:	f883 203d 	strb.w	r2, [r3, #61]	; 0x3d

  __HAL_UNLOCK(htim);
 80018ea:	687b      	ldr	r3, [r7, #4]
 80018ec:	2200      	movs	r2, #0
 80018ee:	f883 203c 	strb.w	r2, [r3, #60]	; 0x3c

  return status;
 80018f2:	7bfb      	ldrb	r3, [r7, #15]
}
 80018f4:	4618      	mov	r0, r3
 80018f6:	3710      	adds	r7, #16
 80018f8:	46bd      	mov	sp, r7
 80018fa:	bd80      	pop	{r7, pc}

080018fc <TIM_Base_SetConfig>:
  * @param  TIMx TIM peripheral
  * @param  Structure TIM Base configuration structure
  * @retval None
  */
void TIM_Base_SetConfig(TIM_TypeDef *TIMx, TIM_Base_InitTypeDef *Structure)
{
 80018fc:	b480      	push	{r7}
 80018fe:	b085      	sub	sp, #20
 8001900:	af00      	add	r7, sp, #0
 8001902:	6078      	str	r0, [r7, #4]
 8001904:	6039      	str	r1, [r7, #0]
  uint32_t tmpcr1;
  tmpcr1 = TIMx->CR1;
 8001906:	687b      	ldr	r3, [r7, #4]
 8001908:	681b      	ldr	r3, [r3, #0]
 800190a:	60fb      	str	r3, [r7, #12]

  /* Set TIM Time Base Unit parameters ---------------------------------------*/
  if (IS_TIM_COUNTER_MODE_SELECT_INSTANCE(TIMx))
 800190c:	687b      	ldr	r3, [r7, #4]
 800190e:	4a40      	ldr	r2, [pc, #256]	; (8001a10 <TIM_Base_SetConfig+0x114>)
 8001910:	4293      	cmp	r3, r2
 8001912:	d013      	beq.n	800193c <TIM_Base_SetConfig+0x40>
 8001914:	687b      	ldr	r3, [r7, #4]
 8001916:	f1b3 4f80 	cmp.w	r3, #1073741824	; 0x40000000
 800191a:	d00f      	beq.n	800193c <TIM_Base_SetConfig+0x40>
 800191c:	687b      	ldr	r3, [r7, #4]
 800191e:	4a3d      	ldr	r2, [pc, #244]	; (8001a14 <TIM_Base_SetConfig+0x118>)
 8001920:	4293      	cmp	r3, r2
 8001922:	d00b      	beq.n	800193c <TIM_Base_SetConfig+0x40>
 8001924:	687b      	ldr	r3, [r7, #4]
 8001926:	4a3c      	ldr	r2, [pc, #240]	; (8001a18 <TIM_Base_SetConfig+0x11c>)
 8001928:	4293      	cmp	r3, r2
 800192a:	d007      	beq.n	800193c <TIM_Base_SetConfig+0x40>
 800192c:	687b      	ldr	r3, [r7, #4]
 800192e:	4a3b      	ldr	r2, [pc, #236]	; (8001a1c <TIM_Base_SetConfig+0x120>)
 8001930:	4293      	cmp	r3, r2
 8001932:	d003      	beq.n	800193c <TIM_Base_SetConfig+0x40>
 8001934:	687b      	ldr	r3, [r7, #4]
 8001936:	4a3a      	ldr	r2, [pc, #232]	; (8001a20 <TIM_Base_SetConfig+0x124>)
 8001938:	4293      	cmp	r3, r2
 800193a:	d108      	bne.n	800194e <TIM_Base_SetConfig+0x52>
  {
    /* Select the Counter Mode */
    tmpcr1 &= ~(TIM_CR1_DIR | TIM_CR1_CMS);
 800193c:	68fb      	ldr	r3, [r7, #12]
 800193e:	f023 0370 	bic.w	r3, r3, #112	; 0x70
 8001942:	60fb      	str	r3, [r7, #12]
    tmpcr1 |= Structure->CounterMode;
 8001944:	683b      	ldr	r3, [r7, #0]
 8001946:	685b      	ldr	r3, [r3, #4]
 8001948:	68fa      	ldr	r2, [r7, #12]
 800194a:	4313      	orrs	r3, r2
 800194c:	60fb      	str	r3, [r7, #12]
  }

  if (IS_TIM_CLOCK_DIVISION_INSTANCE(TIMx))
 800194e:	687b      	ldr	r3, [r7, #4]
 8001950:	4a2f      	ldr	r2, [pc, #188]	; (8001a10 <TIM_Base_SetConfig+0x114>)
 8001952:	4293      	cmp	r3, r2
 8001954:	d02b      	beq.n	80019ae <TIM_Base_SetConfig+0xb2>
 8001956:	687b      	ldr	r3, [r7, #4]
 8001958:	f1b3 4f80 	cmp.w	r3, #1073741824	; 0x40000000
 800195c:	d027      	beq.n	80019ae <TIM_Base_SetConfig+0xb2>
 800195e:	687b      	ldr	r3, [r7, #4]
 8001960:	4a2c      	ldr	r2, [pc, #176]	; (8001a14 <TIM_Base_SetConfig+0x118>)
 8001962:	4293      	cmp	r3, r2
 8001964:	d023      	beq.n	80019ae <TIM_Base_SetConfig+0xb2>
 8001966:	687b      	ldr	r3, [r7, #4]
 8001968:	4a2b      	ldr	r2, [pc, #172]	; (8001a18 <TIM_Base_SetConfig+0x11c>)
 800196a:	4293      	cmp	r3, r2
 800196c:	d01f      	beq.n	80019ae <TIM_Base_SetConfig+0xb2>
 800196e:	687b      	ldr	r3, [r7, #4]
 8001970:	4a2a      	ldr	r2, [pc, #168]	; (8001a1c <TIM_Base_SetConfig+0x120>)
 8001972:	4293      	cmp	r3, r2
 8001974:	d01b      	beq.n	80019ae <TIM_Base_SetConfig+0xb2>
 8001976:	687b      	ldr	r3, [r7, #4]
 8001978:	4a29      	ldr	r2, [pc, #164]	; (8001a20 <TIM_Base_SetConfig+0x124>)
 800197a:	4293      	cmp	r3, r2
 800197c:	d017      	beq.n	80019ae <TIM_Base_SetConfig+0xb2>
 800197e:	687b      	ldr	r3, [r7, #4]
 8001980:	4a28      	ldr	r2, [pc, #160]	; (8001a24 <TIM_Base_SetConfig+0x128>)
 8001982:	4293      	cmp	r3, r2
 8001984:	d013      	beq.n	80019ae <TIM_Base_SetConfig+0xb2>
 8001986:	687b      	ldr	r3, [r7, #4]
 8001988:	4a27      	ldr	r2, [pc, #156]	; (8001a28 <TIM_Base_SetConfig+0x12c>)
 800198a:	4293      	cmp	r3, r2
 800198c:	d00f      	beq.n	80019ae <TIM_Base_SetConfig+0xb2>
 800198e:	687b      	ldr	r3, [r7, #4]
 8001990:	4a26      	ldr	r2, [pc, #152]	; (8001a2c <TIM_Base_SetConfig+0x130>)
 8001992:	4293      	cmp	r3, r2
 8001994:	d00b      	beq.n	80019ae <TIM_Base_SetConfig+0xb2>
 8001996:	687b      	ldr	r3, [r7, #4]
 8001998:	4a25      	ldr	r2, [pc, #148]	; (8001a30 <TIM_Base_SetConfig+0x134>)
 800199a:	4293      	cmp	r3, r2
 800199c:	d007      	beq.n	80019ae <TIM_Base_SetConfig+0xb2>
 800199e:	687b      	ldr	r3, [r7, #4]
 80019a0:	4a24      	ldr	r2, [pc, #144]	; (8001a34 <TIM_Base_SetConfig+0x138>)
 80019a2:	4293      	cmp	r3, r2
 80019a4:	d003      	beq.n	80019ae <TIM_Base_SetConfig+0xb2>
 80019a6:	687b      	ldr	r3, [r7, #4]
 80019a8:	4a23      	ldr	r2, [pc, #140]	; (8001a38 <TIM_Base_SetConfig+0x13c>)
 80019aa:	4293      	cmp	r3, r2
 80019ac:	d108      	bne.n	80019c0 <TIM_Base_SetConfig+0xc4>
  {
    /* Set the clock division */
    tmpcr1 &= ~TIM_CR1_CKD;
 80019ae:	68fb      	ldr	r3, [r7, #12]
 80019b0:	f423 7340 	bic.w	r3, r3, #768	; 0x300
 80019b4:	60fb      	str	r3, [r7, #12]
    tmpcr1 |= (uint32_t)Structure->ClockDivision;
 80019b6:	683b      	ldr	r3, [r7, #0]
 80019b8:	68db      	ldr	r3, [r3, #12]
 80019ba:	68fa      	ldr	r2, [r7, #12]
 80019bc:	4313      	orrs	r3, r2
 80019be:	60fb      	str	r3, [r7, #12]
  }

  /* Set the auto-reload preload */
  MODIFY_REG(tmpcr1, TIM_CR1_ARPE, Structure->AutoReloadPreload);
 80019c0:	68fb      	ldr	r3, [r7, #12]
 80019c2:	f023 0280 	bic.w	r2, r3, #128	; 0x80
 80019c6:	683b      	ldr	r3, [r7, #0]
 80019c8:	695b      	ldr	r3, [r3, #20]
 80019ca:	4313      	orrs	r3, r2
 80019cc:	60fb      	str	r3, [r7, #12]

  TIMx->CR1 = tmpcr1;
 80019ce:	687b      	ldr	r3, [r7, #4]
 80019d0:	68fa      	ldr	r2, [r7, #12]
 80019d2:	601a      	str	r2, [r3, #0]

  /* Set the Autoreload value */
  TIMx->ARR = (uint32_t)Structure->Period ;
 80019d4:	683b      	ldr	r3, [r7, #0]
 80019d6:	689a      	ldr	r2, [r3, #8]
 80019d8:	687b      	ldr	r3, [r7, #4]
 80019da:	62da      	str	r2, [r3, #44]	; 0x2c

  /* Set the Prescaler value */
  TIMx->PSC = Structure->Prescaler;
 80019dc:	683b      	ldr	r3, [r7, #0]
 80019de:	681a      	ldr	r2, [r3, #0]
 80019e0:	687b      	ldr	r3, [r7, #4]
 80019e2:	629a      	str	r2, [r3, #40]	; 0x28

  if (IS_TIM_REPETITION_COUNTER_INSTANCE(TIMx))
 80019e4:	687b      	ldr	r3, [r7, #4]
 80019e6:	4a0a      	ldr	r2, [pc, #40]	; (8001a10 <TIM_Base_SetConfig+0x114>)
 80019e8:	4293      	cmp	r3, r2
 80019ea:	d003      	beq.n	80019f4 <TIM_Base_SetConfig+0xf8>
 80019ec:	687b      	ldr	r3, [r7, #4]
 80019ee:	4a0c      	ldr	r2, [pc, #48]	; (8001a20 <TIM_Base_SetConfig+0x124>)
 80019f0:	4293      	cmp	r3, r2
 80019f2:	d103      	bne.n	80019fc <TIM_Base_SetConfig+0x100>
  {
    /* Set the Repetition Counter value */
    TIMx->RCR = Structure->RepetitionCounter;
 80019f4:	683b      	ldr	r3, [r7, #0]
 80019f6:	691a      	ldr	r2, [r3, #16]
 80019f8:	687b      	ldr	r3, [r7, #4]
 80019fa:	631a      	str	r2, [r3, #48]	; 0x30
  }

  /* Generate an update event to reload the Prescaler
     and the repetition counter (only for advanced timer) value immediately */
  TIMx->EGR = TIM_EGR_UG;
 80019fc:	687b      	ldr	r3, [r7, #4]
 80019fe:	2201      	movs	r2, #1
 8001a00:	615a      	str	r2, [r3, #20]
}
 8001a02:	bf00      	nop
 8001a04:	3714      	adds	r7, #20
 8001a06:	46bd      	mov	sp, r7
 8001a08:	f85d 7b04 	ldr.w	r7, [sp], #4
 8001a0c:	4770      	bx	lr
 8001a0e:	bf00      	nop
 8001a10:	40010000 	.word	0x40010000
 8001a14:	40000400 	.word	0x40000400
 8001a18:	40000800 	.word	0x40000800
 8001a1c:	40000c00 	.word	0x40000c00
 8001a20:	40010400 	.word	0x40010400
 8001a24:	40014000 	.word	0x40014000
 8001a28:	40014400 	.word	0x40014400
 8001a2c:	40014800 	.word	0x40014800
 8001a30:	40001800 	.word	0x40001800
 8001a34:	40001c00 	.word	0x40001c00
 8001a38:	40002000 	.word	0x40002000

08001a3c <TIM_TI1_ConfigInputStage>:
  * @param  TIM_ICFilter Specifies the Input Capture Filter.
  *          This parameter must be a value between 0x00 and 0x0F.
  * @retval None
  */
static void TIM_TI1_ConfigInputStage(TIM_TypeDef *TIMx, uint32_t TIM_ICPolarity, uint32_t TIM_ICFilter)
{
 8001a3c:	b480      	push	{r7}
 8001a3e:	b087      	sub	sp, #28
 8001a40:	af00      	add	r7, sp, #0
 8001a42:	60f8      	str	r0, [r7, #12]
 8001a44:	60b9      	str	r1, [r7, #8]
 8001a46:	607a      	str	r2, [r7, #4]
  uint32_t tmpccmr1;
  uint32_t tmpccer;

  /* Disable the Channel 1: Reset the CC1E Bit */
  tmpccer = TIMx->CCER;
 8001a48:	68fb      	ldr	r3, [r7, #12]
 8001a4a:	6a1b      	ldr	r3, [r3, #32]
 8001a4c:	617b      	str	r3, [r7, #20]
  TIMx->CCER &= ~TIM_CCER_CC1E;
 8001a4e:	68fb      	ldr	r3, [r7, #12]
 8001a50:	6a1b      	ldr	r3, [r3, #32]
 8001a52:	f023 0201 	bic.w	r2, r3, #1
 8001a56:	68fb      	ldr	r3, [r7, #12]
 8001a58:	621a      	str	r2, [r3, #32]
  tmpccmr1 = TIMx->CCMR1;
 8001a5a:	68fb      	ldr	r3, [r7, #12]
 8001a5c:	699b      	ldr	r3, [r3, #24]
 8001a5e:	613b      	str	r3, [r7, #16]

  /* Set the filter */
  tmpccmr1 &= ~TIM_CCMR1_IC1F;
 8001a60:	693b      	ldr	r3, [r7, #16]
 8001a62:	f023 03f0 	bic.w	r3, r3, #240	; 0xf0
 8001a66:	613b      	str	r3, [r7, #16]
  tmpccmr1 |= (TIM_ICFilter << 4U);
 8001a68:	687b      	ldr	r3, [r7, #4]
 8001a6a:	011b      	lsls	r3, r3, #4
 8001a6c:	693a      	ldr	r2, [r7, #16]
 8001a6e:	4313      	orrs	r3, r2
 8001a70:	613b      	str	r3, [r7, #16]

  /* Select the Polarity and set the CC1E Bit */
  tmpccer &= ~(TIM_CCER_CC1P | TIM_CCER_CC1NP);
 8001a72:	697b      	ldr	r3, [r7, #20]
 8001a74:	f023 030a 	bic.w	r3, r3, #10
 8001a78:	617b      	str	r3, [r7, #20]
  tmpccer |= TIM_ICPolarity;
 8001a7a:	697a      	ldr	r2, [r7, #20]
 8001a7c:	68bb      	ldr	r3, [r7, #8]
 8001a7e:	4313      	orrs	r3, r2
 8001a80:	617b      	str	r3, [r7, #20]

  /* Write to TIMx CCMR1 and CCER registers */
  TIMx->CCMR1 = tmpccmr1;
 8001a82:	68fb      	ldr	r3, [r7, #12]
 8001a84:	693a      	ldr	r2, [r7, #16]
 8001a86:	619a      	str	r2, [r3, #24]
  TIMx->CCER = tmpccer;
 8001a88:	68fb      	ldr	r3, [r7, #12]
 8001a8a:	697a      	ldr	r2, [r7, #20]
 8001a8c:	621a      	str	r2, [r3, #32]
}
 8001a8e:	bf00      	nop
 8001a90:	371c      	adds	r7, #28
 8001a92:	46bd      	mov	sp, r7
 8001a94:	f85d 7b04 	ldr.w	r7, [sp], #4
 8001a98:	4770      	bx	lr

08001a9a <TIM_TI2_ConfigInputStage>:
  * @param  TIM_ICFilter Specifies the Input Capture Filter.
  *          This parameter must be a value between 0x00 and 0x0F.
  * @retval None
  */
static void TIM_TI2_ConfigInputStage(TIM_TypeDef *TIMx, uint32_t TIM_ICPolarity, uint32_t TIM_ICFilter)
{
 8001a9a:	b480      	push	{r7}
 8001a9c:	b087      	sub	sp, #28
 8001a9e:	af00      	add	r7, sp, #0
 8001aa0:	60f8      	str	r0, [r7, #12]
 8001aa2:	60b9      	str	r1, [r7, #8]
 8001aa4:	607a      	str	r2, [r7, #4]
  uint32_t tmpccmr1;
  uint32_t tmpccer;

  /* Disable the Channel 2: Reset the CC2E Bit */
  TIMx->CCER &= ~TIM_CCER_CC2E;
 8001aa6:	68fb      	ldr	r3, [r7, #12]
 8001aa8:	6a1b      	ldr	r3, [r3, #32]
 8001aaa:	f023 0210 	bic.w	r2, r3, #16
 8001aae:	68fb      	ldr	r3, [r7, #12]
 8001ab0:	621a      	str	r2, [r3, #32]
  tmpccmr1 = TIMx->CCMR1;
 8001ab2:	68fb      	ldr	r3, [r7, #12]
 8001ab4:	699b      	ldr	r3, [r3, #24]
 8001ab6:	617b      	str	r3, [r7, #20]
  tmpccer = TIMx->CCER;
 8001ab8:	68fb      	ldr	r3, [r7, #12]
 8001aba:	6a1b      	ldr	r3, [r3, #32]
 8001abc:	613b      	str	r3, [r7, #16]

  /* Set the filter */
  tmpccmr1 &= ~TIM_CCMR1_IC2F;
 8001abe:	697b      	ldr	r3, [r7, #20]
 8001ac0:	f423 4370 	bic.w	r3, r3, #61440	; 0xf000
 8001ac4:	617b      	str	r3, [r7, #20]
  tmpccmr1 |= (TIM_ICFilter << 12U);
 8001ac6:	687b      	ldr	r3, [r7, #4]
 8001ac8:	031b      	lsls	r3, r3, #12
 8001aca:	697a      	ldr	r2, [r7, #20]
 8001acc:	4313      	orrs	r3, r2
 8001ace:	617b      	str	r3, [r7, #20]

  /* Select the Polarity and set the CC2E Bit */
  tmpccer &= ~(TIM_CCER_CC2P | TIM_CCER_CC2NP);
 8001ad0:	693b      	ldr	r3, [r7, #16]
 8001ad2:	f023 03a0 	bic.w	r3, r3, #160	; 0xa0
 8001ad6:	613b      	str	r3, [r7, #16]
  tmpccer |= (TIM_ICPolarity << 4U);
 8001ad8:	68bb      	ldr	r3, [r7, #8]
 8001ada:	011b      	lsls	r3, r3, #4
 8001adc:	693a      	ldr	r2, [r7, #16]
 8001ade:	4313      	orrs	r3, r2
 8001ae0:	613b      	str	r3, [r7, #16]

  /* Write to TIMx CCMR1 and CCER registers */
  TIMx->CCMR1 = tmpccmr1 ;
 8001ae2:	68fb      	ldr	r3, [r7, #12]
 8001ae4:	697a      	ldr	r2, [r7, #20]
 8001ae6:	619a      	str	r2, [r3, #24]
  TIMx->CCER = tmpccer;
 8001ae8:	68fb      	ldr	r3, [r7, #12]
 8001aea:	693a      	ldr	r2, [r7, #16]
 8001aec:	621a      	str	r2, [r3, #32]
}
 8001aee:	bf00      	nop
 8001af0:	371c      	adds	r7, #28
 8001af2:	46bd      	mov	sp, r7
 8001af4:	f85d 7b04 	ldr.w	r7, [sp], #4
 8001af8:	4770      	bx	lr

08001afa <TIM_ITRx_SetConfig>:
  *            @arg TIM_TS_TI2FP2: Filtered Timer Input 2
  *            @arg TIM_TS_ETRF: External Trigger input
  * @retval None
  */
static void TIM_ITRx_SetConfig(TIM_TypeDef *TIMx, uint32_t InputTriggerSource)
{
 8001afa:	b480      	push	{r7}
 8001afc:	b085      	sub	sp, #20
 8001afe:	af00      	add	r7, sp, #0
 8001b00:	6078      	str	r0, [r7, #4]
 8001b02:	6039      	str	r1, [r7, #0]
  uint32_t tmpsmcr;

  /* Get the TIMx SMCR register value */
  tmpsmcr = TIMx->SMCR;
 8001b04:	687b      	ldr	r3, [r7, #4]
 8001b06:	689b      	ldr	r3, [r3, #8]
 8001b08:	60fb      	str	r3, [r7, #12]
  /* Reset the TS Bits */
  tmpsmcr &= ~TIM_SMCR_TS;
 8001b0a:	68fb      	ldr	r3, [r7, #12]
 8001b0c:	f023 0370 	bic.w	r3, r3, #112	; 0x70
 8001b10:	60fb      	str	r3, [r7, #12]
  /* Set the Input Trigger source and the slave mode*/
  tmpsmcr |= (InputTriggerSource | TIM_SLAVEMODE_EXTERNAL1);
 8001b12:	683a      	ldr	r2, [r7, #0]
 8001b14:	68fb      	ldr	r3, [r7, #12]
 8001b16:	4313      	orrs	r3, r2
 8001b18:	f043 0307 	orr.w	r3, r3, #7
 8001b1c:	60fb      	str	r3, [r7, #12]
  /* Write to TIMx SMCR */
  TIMx->SMCR = tmpsmcr;
 8001b1e:	687b      	ldr	r3, [r7, #4]
 8001b20:	68fa      	ldr	r2, [r7, #12]
 8001b22:	609a      	str	r2, [r3, #8]
}
 8001b24:	bf00      	nop
 8001b26:	3714      	adds	r7, #20
 8001b28:	46bd      	mov	sp, r7
 8001b2a:	f85d 7b04 	ldr.w	r7, [sp], #4
 8001b2e:	4770      	bx	lr

08001b30 <TIM_ETR_SetConfig>:
  *          This parameter must be a value between 0x00 and 0x0F
  * @retval None
  */
void TIM_ETR_SetConfig(TIM_TypeDef *TIMx, uint32_t TIM_ExtTRGPrescaler,
                       uint32_t TIM_ExtTRGPolarity, uint32_t ExtTRGFilter)
{
 8001b30:	b480      	push	{r7}
 8001b32:	b087      	sub	sp, #28
 8001b34:	af00      	add	r7, sp, #0
 8001b36:	60f8      	str	r0, [r7, #12]
 8001b38:	60b9      	str	r1, [r7, #8]
 8001b3a:	607a      	str	r2, [r7, #4]
 8001b3c:	603b      	str	r3, [r7, #0]
  uint32_t tmpsmcr;

  tmpsmcr = TIMx->SMCR;
 8001b3e:	68fb      	ldr	r3, [r7, #12]
 8001b40:	689b      	ldr	r3, [r3, #8]
 8001b42:	617b      	str	r3, [r7, #20]

  /* Reset the ETR Bits */
  tmpsmcr &= ~(TIM_SMCR_ETF | TIM_SMCR_ETPS | TIM_SMCR_ECE | TIM_SMCR_ETP);
 8001b44:	697b      	ldr	r3, [r7, #20]
 8001b46:	f423 437f 	bic.w	r3, r3, #65280	; 0xff00
 8001b4a:	617b      	str	r3, [r7, #20]

  /* Set the Prescaler, the Filter value and the Polarity */
  tmpsmcr |= (uint32_t)(TIM_ExtTRGPrescaler | (TIM_ExtTRGPolarity | (ExtTRGFilter << 8U)));
 8001b4c:	683b      	ldr	r3, [r7, #0]
 8001b4e:	021a      	lsls	r2, r3, #8
 8001b50:	687b      	ldr	r3, [r7, #4]
 8001b52:	431a      	orrs	r2, r3
 8001b54:	68bb      	ldr	r3, [r7, #8]
 8001b56:	4313      	orrs	r3, r2
 8001b58:	697a      	ldr	r2, [r7, #20]
 8001b5a:	4313      	orrs	r3, r2
 8001b5c:	617b      	str	r3, [r7, #20]

  /* Write to TIMx SMCR */
  TIMx->SMCR = tmpsmcr;
 8001b5e:	68fb      	ldr	r3, [r7, #12]
 8001b60:	697a      	ldr	r2, [r7, #20]
 8001b62:	609a      	str	r2, [r3, #8]
}
 8001b64:	bf00      	nop
 8001b66:	371c      	adds	r7, #28
 8001b68:	46bd      	mov	sp, r7
 8001b6a:	f85d 7b04 	ldr.w	r7, [sp], #4
 8001b6e:	4770      	bx	lr

08001b70 <HAL_TIMEx_MasterConfigSynchronization>:
  *         mode.
  * @retval HAL status
  */
HAL_StatusTypeDef HAL_TIMEx_MasterConfigSynchronization(TIM_HandleTypeDef *htim,
                                                        TIM_MasterConfigTypeDef *sMasterConfig)
{
 8001b70:	b480      	push	{r7}
 8001b72:	b085      	sub	sp, #20
 8001b74:	af00      	add	r7, sp, #0
 8001b76:	6078      	str	r0, [r7, #4]
 8001b78:	6039      	str	r1, [r7, #0]
  assert_param(IS_TIM_MASTER_INSTANCE(htim->Instance));
  assert_param(IS_TIM_TRGO_SOURCE(sMasterConfig->MasterOutputTrigger));
  assert_param(IS_TIM_MSM_STATE(sMasterConfig->MasterSlaveMode));

  /* Check input state */
  __HAL_LOCK(htim);
 8001b7a:	687b      	ldr	r3, [r7, #4]
 8001b7c:	f893 303c 	ldrb.w	r3, [r3, #60]	; 0x3c
 8001b80:	2b01      	cmp	r3, #1
 8001b82:	d101      	bne.n	8001b88 <HAL_TIMEx_MasterConfigSynchronization+0x18>
 8001b84:	2302      	movs	r3, #2
 8001b86:	e05a      	b.n	8001c3e <HAL_TIMEx_MasterConfigSynchronization+0xce>
 8001b88:	687b      	ldr	r3, [r7, #4]
 8001b8a:	2201      	movs	r2, #1
 8001b8c:	f883 203c 	strb.w	r2, [r3, #60]	; 0x3c

  /* Change the handler state */
  htim->State = HAL_TIM_STATE_BUSY;
 8001b90:	687b      	ldr	r3, [r7, #4]
 8001b92:	2202      	movs	r2, #2
 8001b94:	f883 203d 	strb.w	r2, [r3, #61]	; 0x3d

  /* Get the TIMx CR2 register value */
  tmpcr2 = htim->Instance->CR2;
 8001b98:	687b      	ldr	r3, [r7, #4]
 8001b9a:	681b      	ldr	r3, [r3, #0]
 8001b9c:	685b      	ldr	r3, [r3, #4]
 8001b9e:	60fb      	str	r3, [r7, #12]

  /* Get the TIMx SMCR register value */
  tmpsmcr = htim->Instance->SMCR;
 8001ba0:	687b      	ldr	r3, [r7, #4]
 8001ba2:	681b      	ldr	r3, [r3, #0]
 8001ba4:	689b      	ldr	r3, [r3, #8]
 8001ba6:	60bb      	str	r3, [r7, #8]

  /* Reset the MMS Bits */
  tmpcr2 &= ~TIM_CR2_MMS;
 8001ba8:	68fb      	ldr	r3, [r7, #12]
 8001baa:	f023 0370 	bic.w	r3, r3, #112	; 0x70
 8001bae:	60fb      	str	r3, [r7, #12]
  /* Select the TRGO source */
  tmpcr2 |=  sMasterConfig->MasterOutputTrigger;
 8001bb0:	683b      	ldr	r3, [r7, #0]
 8001bb2:	681b      	ldr	r3, [r3, #0]
 8001bb4:	68fa      	ldr	r2, [r7, #12]
 8001bb6:	4313      	orrs	r3, r2
 8001bb8:	60fb      	str	r3, [r7, #12]

  /* Update TIMx CR2 */
  htim->Instance->CR2 = tmpcr2;
 8001bba:	687b      	ldr	r3, [r7, #4]
 8001bbc:	681b      	ldr	r3, [r3, #0]
 8001bbe:	68fa      	ldr	r2, [r7, #12]
 8001bc0:	605a      	str	r2, [r3, #4]

  if (IS_TIM_SLAVE_INSTANCE(htim->Instance))
 8001bc2:	687b      	ldr	r3, [r7, #4]
 8001bc4:	681b      	ldr	r3, [r3, #0]
 8001bc6:	4a21      	ldr	r2, [pc, #132]	; (8001c4c <HAL_TIMEx_MasterConfigSynchronization+0xdc>)
 8001bc8:	4293      	cmp	r3, r2
 8001bca:	d022      	beq.n	8001c12 <HAL_TIMEx_MasterConfigSynchronization+0xa2>
 8001bcc:	687b      	ldr	r3, [r7, #4]
 8001bce:	681b      	ldr	r3, [r3, #0]
 8001bd0:	f1b3 4f80 	cmp.w	r3, #1073741824	; 0x40000000
 8001bd4:	d01d      	beq.n	8001c12 <HAL_TIMEx_MasterConfigSynchronization+0xa2>
 8001bd6:	687b      	ldr	r3, [r7, #4]
 8001bd8:	681b      	ldr	r3, [r3, #0]
 8001bda:	4a1d      	ldr	r2, [pc, #116]	; (8001c50 <HAL_TIMEx_MasterConfigSynchronization+0xe0>)
 8001bdc:	4293      	cmp	r3, r2
 8001bde:	d018      	beq.n	8001c12 <HAL_TIMEx_MasterConfigSynchronization+0xa2>
 8001be0:	687b      	ldr	r3, [r7, #4]
 8001be2:	681b      	ldr	r3, [r3, #0]
 8001be4:	4a1b      	ldr	r2, [pc, #108]	; (8001c54 <HAL_TIMEx_MasterConfigSynchronization+0xe4>)
 8001be6:	4293      	cmp	r3, r2
 8001be8:	d013      	beq.n	8001c12 <HAL_TIMEx_MasterConfigSynchronization+0xa2>
 8001bea:	687b      	ldr	r3, [r7, #4]
 8001bec:	681b      	ldr	r3, [r3, #0]
 8001bee:	4a1a      	ldr	r2, [pc, #104]	; (8001c58 <HAL_TIMEx_MasterConfigSynchronization+0xe8>)
 8001bf0:	4293      	cmp	r3, r2
 8001bf2:	d00e      	beq.n	8001c12 <HAL_TIMEx_MasterConfigSynchronization+0xa2>
 8001bf4:	687b      	ldr	r3, [r7, #4]
 8001bf6:	681b      	ldr	r3, [r3, #0]
 8001bf8:	4a18      	ldr	r2, [pc, #96]	; (8001c5c <HAL_TIMEx_MasterConfigSynchronization+0xec>)
 8001bfa:	4293      	cmp	r3, r2
 8001bfc:	d009      	beq.n	8001c12 <HAL_TIMEx_MasterConfigSynchronization+0xa2>
 8001bfe:	687b      	ldr	r3, [r7, #4]
 8001c00:	681b      	ldr	r3, [r3, #0]
 8001c02:	4a17      	ldr	r2, [pc, #92]	; (8001c60 <HAL_TIMEx_MasterConfigSynchronization+0xf0>)
 8001c04:	4293      	cmp	r3, r2
 8001c06:	d004      	beq.n	8001c12 <HAL_TIMEx_MasterConfigSynchronization+0xa2>
 8001c08:	687b      	ldr	r3, [r7, #4]
 8001c0a:	681b      	ldr	r3, [r3, #0]
 8001c0c:	4a15      	ldr	r2, [pc, #84]	; (8001c64 <HAL_TIMEx_MasterConfigSynchronization+0xf4>)
 8001c0e:	4293      	cmp	r3, r2
 8001c10:	d10c      	bne.n	8001c2c <HAL_TIMEx_MasterConfigSynchronization+0xbc>
  {
    /* Reset the MSM Bit */
    tmpsmcr &= ~TIM_SMCR_MSM;
 8001c12:	68bb      	ldr	r3, [r7, #8]
 8001c14:	f023 0380 	bic.w	r3, r3, #128	; 0x80
 8001c18:	60bb      	str	r3, [r7, #8]
    /* Set master mode */
    tmpsmcr |= sMasterConfig->MasterSlaveMode;
 8001c1a:	683b      	ldr	r3, [r7, #0]
 8001c1c:	685b      	ldr	r3, [r3, #4]
 8001c1e:	68ba      	ldr	r2, [r7, #8]
 8001c20:	4313      	orrs	r3, r2
 8001c22:	60bb      	str	r3, [r7, #8]

    /* Update TIMx SMCR */
    htim->Instance->SMCR = tmpsmcr;
 8001c24:	687b      	ldr	r3, [r7, #4]
 8001c26:	681b      	ldr	r3, [r3, #0]
 8001c28:	68ba      	ldr	r2, [r7, #8]
 8001c2a:	609a      	str	r2, [r3, #8]
  }

  /* Change the htim state */
  htim->State = HAL_TIM_STATE_READY;
 8001c2c:	687b      	ldr	r3, [r7, #4]
 8001c2e:	2201      	movs	r2, #1
 8001c30:	f883 203d 	strb.w	r2, [r3, #61]	; 0x3d

  __HAL_UNLOCK(htim);
 8001c34:	687b      	ldr	r3, [r7, #4]
 8001c36:	2200      	movs	r2, #0
 8001c38:	f883 203c 	strb.w	r2, [r3, #60]	; 0x3c

  return HAL_OK;
 8001c3c:	2300      	movs	r3, #0
}
 8001c3e:	4618      	mov	r0, r3
 8001c40:	3714      	adds	r7, #20
 8001c42:	46bd      	mov	sp, r7
 8001c44:	f85d 7b04 	ldr.w	r7, [sp], #4
 8001c48:	4770      	bx	lr
 8001c4a:	bf00      	nop
 8001c4c:	40010000 	.word	0x40010000
 8001c50:	40000400 	.word	0x40000400
 8001c54:	40000800 	.word	0x40000800
 8001c58:	40000c00 	.word	0x40000c00
 8001c5c:	40010400 	.word	0x40010400
 8001c60:	40014000 	.word	0x40014000
 8001c64:	40001800 	.word	0x40001800

08001c68 <__libc_init_array>:
 8001c68:	b570      	push	{r4, r5, r6, lr}
 8001c6a:	4d0d      	ldr	r5, [pc, #52]	; (8001ca0 <__libc_init_array+0x38>)
 8001c6c:	4c0d      	ldr	r4, [pc, #52]	; (8001ca4 <__libc_init_array+0x3c>)
 8001c6e:	1b64      	subs	r4, r4, r5
 8001c70:	10a4      	asrs	r4, r4, #2
 8001c72:	2600      	movs	r6, #0
 8001c74:	42a6      	cmp	r6, r4
 8001c76:	d109      	bne.n	8001c8c <__libc_init_array+0x24>
 8001c78:	4d0b      	ldr	r5, [pc, #44]	; (8001ca8 <__libc_init_array+0x40>)
 8001c7a:	4c0c      	ldr	r4, [pc, #48]	; (8001cac <__libc_init_array+0x44>)
 8001c7c:	f000 f820 	bl	8001cc0 <_init>
 8001c80:	1b64      	subs	r4, r4, r5
 8001c82:	10a4      	asrs	r4, r4, #2
 8001c84:	2600      	movs	r6, #0
 8001c86:	42a6      	cmp	r6, r4
 8001c88:	d105      	bne.n	8001c96 <__libc_init_array+0x2e>
 8001c8a:	bd70      	pop	{r4, r5, r6, pc}
 8001c8c:	f855 3b04 	ldr.w	r3, [r5], #4
 8001c90:	4798      	blx	r3
 8001c92:	3601      	adds	r6, #1
 8001c94:	e7ee      	b.n	8001c74 <__libc_init_array+0xc>
 8001c96:	f855 3b04 	ldr.w	r3, [r5], #4
 8001c9a:	4798      	blx	r3
 8001c9c:	3601      	adds	r6, #1
 8001c9e:	e7f2      	b.n	8001c86 <__libc_init_array+0x1e>
 8001ca0:	08001cf0 	.word	0x08001cf0
 8001ca4:	08001cf0 	.word	0x08001cf0
 8001ca8:	08001cf0 	.word	0x08001cf0
 8001cac:	08001cf4 	.word	0x08001cf4

08001cb0 <memset>:
 8001cb0:	4402      	add	r2, r0
 8001cb2:	4603      	mov	r3, r0
 8001cb4:	4293      	cmp	r3, r2
 8001cb6:	d100      	bne.n	8001cba <memset+0xa>
 8001cb8:	4770      	bx	lr
 8001cba:	f803 1b01 	strb.w	r1, [r3], #1
 8001cbe:	e7f9      	b.n	8001cb4 <memset+0x4>

08001cc0 <_init>:
 8001cc0:	b5f8      	push	{r3, r4, r5, r6, r7, lr}
 8001cc2:	bf00      	nop
 8001cc4:	bcf8      	pop	{r3, r4, r5, r6, r7}
 8001cc6:	bc08      	pop	{r3}
 8001cc8:	469e      	mov	lr, r3
 8001cca:	4770      	bx	lr

08001ccc <_fini>:
 8001ccc:	b5f8      	push	{r3, r4, r5, r6, r7, lr}
 8001cce:	bf00      	nop
 8001cd0:	bcf8      	pop	{r3, r4, r5, r6, r7}
 8001cd2:	bc08      	pop	{r3}
 8001cd4:	469e      	mov	lr, r3
 8001cd6:	4770      	bx	lr
